:100000000C9441000C9440000C9440000C9440006F
:100010000C9440000C9440000C9440000C94400060
:100020000C9440000C9440000C9440000C94400050
:100030000C9440000C9440000C9440000C94400040
:100040000C9440000C9440000C9440000C94400030
:100050000C9440000C9440000C9440000C94400020
:100060000C9440000C9440000C9440000C94400010
:100070000C9440000C9440000C9440000C94400000
:10008000FFCF222480E2782EFFCF00000000000086
:100090000000000000000000000000000000000060
:1000A0000000000000000000000000000000000050
:1000B0000000000000000000000000000000000040
:1000C0000000000000000000000000000000000030
:1000D0000000000000000000000000000000000020
:1000E0000000000000000000000000000000000010
:1000F0000000000000000000000000000000000000
:10010000C895002711270196F8942EBC6EB47894F8
:10011000679CF001E39509940000000000000000D6
:1001200000000000000000000000000000000000CF
:1001300000000000000000000000000000000000BF
:1001400000C000C089010196F8942EBC6EB478946A
:10015000679CF001E3950994000000000000000096
:10016000000000000000000000000000000000008F
:10017000000000000000000000000000000000007F
:1001800000C000C08A010196F8942EBC6EB4789429
:10019000679CF001E3950994000000000000000056
:1001A000000000000000000000000000000000004F
:1001B000000000000000000000000000000000003F
:1001C00000C000C08B010196F8942EBC6EB47894E8
:1001D000679CF001E3950994000000000000000016
:1001E000000000000000000000000000000000000F
:1001F00000000000000000000000000000000000FF
:1002000000C000C098010196F8942EBC6EB478949A
:10021000679CF001E39509940000000000000000D5
:1002200000000000000000000000000000000000CE
:1002300000000000000000000000000000000000BE
:10024000C895222733270196F8942EBC6EB4789473
:10025000679CF001E3950994000000000000000095
:10026000000000000000000000000000000000008E
:10027000000000000000000000000000000000007E
:1002800000C000C09A010196F8942EBC6EB4789418
:10029000679CF001E3950994000000000000000055
:1002A000000000000000000000000000000000004E
:1002B000000000000000000000000000000000003E
:1002C00000C000C09B010196F8942EBC6EB47894D7
:1002D000679CF001E3950994000000000000000015
:1002E000000000000000000000000000000000000E
:1002F00000000000000000000000000000000000FE
:1003000000C000C0A8010196F8942EBC6EB4789489
:10031000679CF001E39509940000000000000000D4
:1003200000000000000000000000000000000000CD
:1003300000000000000000000000000000000000BD
:1003400000C000C0A9010196F8942EBC6EB4789448
:10035000679CF001E3950994000000000000000094
:10036000000000000000000000000000000000008D
:10037000000000000000000000000000000000007D
:10038000C895442755270196F8942EBC6EB47894EE
:10039000679CF001E3950994000000000000000054
:1003A000000000000000000000000000000000004D
:1003B000000000000000000000000000000000003D
:1003C00000C000C0AB010196F8942EBC6EB47894C6
:1003D000679CF001E3950994000000000000000014
:1003E000000000000000000000000000000000000D
:1003F00000000000000000000000000000000000FD
:1004000000C000C0B8010196F8942EBC6EB4789478
:10041000679CF001E39509940000000000000000D3
:1004200000000000000000000000000000000000CC
:1004300000000000000000000000000000000000BC
:1004400000C000C0B9010196F8942EBC6EB4789437
:10045000679CF001E3950994000000000000000093
:10046000000000000000000000000000000000008C
:10047000000000000000000000000000000000007C
:1004800000C000C0BA010196F8942EBC6EB47894F6
:10049000679CF001E3950994000000000000000053
:1004A000000000000000000000000000000000004C
:1004B000000000000000000000000000000000003C
:1004C000C895662777270196F8942EBC6EB4789469
:1004D000679CF001E3950994000000000000000013
:1004E000000000000000000000000000000000000C
:1004F00000000000000000000000000000000000FC
:00000001FF
