:100000000C9475000C9456000C9456000C945600F9
:100010000C9456000C9456000C9456000C94560008
:100020000C9456000C9456000C9456000C945600F8
:100030000C9456000C9456000C9456000C945600E8
:100040000C9456000C9456000C9456000C945600D8
:100050000C9456000C9457000C9456000C945600C7
:100060000C9456000C9456000C9456000C945600B8
:100070000C9456000C9456000C9456000C945600A8
:100080000C9456000C9456000C9456000C94560098
:100090000C9456000C9456000C9456000C94560088
:1000A0000C9456000C9456000C945600FFCF0F92FF
:1000B0000FB60F920090070A03940092070A89F482
:1000C0000090080A03940092080A59F40090090A63
:1000D00003940092090A29F400900A0A03940092FA
:1000E0000A0A0F900FBE0F9018950C94D51B0000B4
:1000F0000000000000000000000000000000000000
:1001000000000000000000000000000000000000EF
:1001100000000000000000000000000000000000DF
:1001200000000000000000000000000000000000CF
:1001300000000000000000000000000000000000BF
:1001400000000000000000000000000000000000AF
:10015000000000000000000000000000000000009F
:10016000000000000000000000000000000000008F
:10017000000000000000000000000000000000007F
:10018000000000000000000000000000000000006F
:10019000000000000000000000000000000000005F
:1001A000000000000000000000000000000000004F
:1001B000000000000000000000000000000000003F
:1001C000000000000000000000000000000000002F
:1001D000000000000000000000000000000000001F
:1001E000000000000000000000000000000000000F
:1001F00000000000000000000000000000000000FF
:100200008801C1C5000000008901BDC500000000D3
:100210008A01B9C5000000008B01B5C500000000CF
:100220009801B1C5000000009901ADC500000000B3
:100230009A01A9C5000000009B01A5C500000000AF
:10024000A801A1C500000000A9019DC50000000093
:10025000AA0199C500000000AB0195C5000000008F
:10026000B80191C500000000B9018DC50000000073
:10027000BA0189C500000000BB0185C5000000006F
:10028000000F111F81C50000020F131F7DC5000064
:10029000040F151F79C50000060F171F75C5000054
:1002A000200F311F71C50000220F331F6DC50000E4
:1002B000240F351F69C50000260F371F65C50000D4
:1002C000400F511F61C50000420F531F5DC5000064
:1002D000440F551F59C50000460F571F55C5000054
:1002E000600F711F51C50000620F731F4DC50000E4
:1002F000640F751F49C50000660F771F45C50000D4
:10030000001B110B41C50000021B130B3DC5000073
:10031000041B150B39C50000061B170B35C5000063
:10032000201B310B31C50000221B330B2DC50000F3
:10033000241B350B29C50000261B370B25C50000E3
:10034000401B510B21C50000421B530B1DC5000073
:10035000441B550B19C50000461B570B15C5000063
:10036000601B710B11C50000621B730B0DC50000F3
:10037000641B750B09C50000661B770B05C50000E3
:10038000001711078FB7F3C4021713078FB7EFC415
:10039000041715078FB7EBC4061717078FB7E7C405
:1003A000201731078FB7E3C4221733078FB7DFC495
:1003B000241735078FB7DBC4261737078FB7D7C485
:1003C000401751078FB7D3C4421753078FB7CFC415
:1003D000441755078FB7CBC4461757078FB7C7C405
:1003E000601771078FB7C3C4621773078FB7BFC495
:1003F000641775078FB7BBC4661777078FB7B7C485
:10040000D8010C911127CDC4D9010C911127C9C471
:10041000DA010C911127C5C4DB010C911127C1C46D
:10042000D8012C913327BDC4D9012C913327B9C4ED
:10043000DA012C913327B5C4DB012C913327B1C4E9
:10044000D8014C915527ADC4D9014C915527A9C469
:10045000DA014C915527A5C4DB014C915527A1C465
:10046000D8016C9177279DC4D9016C91772799C4E5
:10047000DA016C91772795C4DB016C91772791C4E1
:10048000D8010C938DC40000D8012C9389C40000BE
:10049000D8014C9385C40000D8016C9381C400003E
:1004A000D9010C937DC40000D9012C9379C40000BC
:1004B000D9014C9375C40000D9016C9371C400003C
:1004C000DA010C936DC40000DA012C9369C40000BA
:1004D000DA014C9365C40000DA016C9361C400003A
:1004E000DB010C935DC40000DB012C9359C40000B8
:1004F000DB014C9355C40000DB016C9351C4000038
:10050000D8010D911C914EC4D9010D911C914AC482
:10051000DA010D911C9146C4DB010D911C9142C47E
:10052000D8012D913C913EC4D9012D913C913AC402
:10053000DA012D913C9136C4DB012D913C9132C4FE
:10054000D8014D915C912EC4D9014D915C912AC482
:10055000DA014D915C9126C4DB014D915C9122C47E
:10056000D8016D917C911EC4D9016D917C911AC402
:10057000DA016D917C9116C4DB016D917C9112C4FE
:10058000D8010D931C930EC4D8012D933C930AC43B
:10059000D8014D935C9306C4D8016D937C9302C43B
:1005A000D9010D931C93FEC3D9012D933C93FAC33B
:1005B000D9014D935C93F6C3D9016D937C93F2C33B
:1005C000DA010D931C93EEC3DA012D933C93EAC339
:1005D000DA014D935C93E6C3DA016D937C93E2C339
:1005E000DB010D931C93DEC3DB012D933C93DAC337
:1005F000DB014D935C93D6C3DB016D937C93D2C337
:1006000000231123C1C3000002231323BDC3000034
:1006100004231523B9C3000006231723B5C3000024
:1006200020233123B1C3000022233323ADC30000B4
:1006300024233523A9C3000026233723A5C30000A4
:1006400040235123A1C30000422353239DC3000034
:100650004423552399C300004623572395C3000024
:100660006023712391C30000622373238DC30000B4
:100670006423752389C300006623772385C30000A4
:10068000002B112B81C30000022B132B7DC3000014
:10069000042B152B79C30000062B172B75C3000004
:1006A000202B312B71C30000222B332B6DC3000094
:1006B000242B352B69C30000262B372B65C3000084
:1006C000402B512B61C30000422B532B5DC3000014
:1006D000442B552B59C30000462B572B55C3000004
:1006E000602B712B51C30000622B732B4DC3000094
:1006F000642B752B49C30000662B772B45C3000084
:100700000027112741C30000022713273DC3000023
:100710000427152739C300000627172735C3000013
:100720002027312731C30000222733272DC30000A3
:100730002427352729C300002627372725C3000093
:100740004027512721C30000422753271DC3000023
:100750004427552719C300004627572715C3000013
:100760006027712711C30000622773270DC30000A3
:100770006427752709C300006627772705C3000093
:100780009A928A920EC30000BA92AA920AC30000FB
:10079000DA92CA9206C30000FA92EA9202C30000FB
:1007A0001A930A93FEC200003A932A93FAC20000F9
:1007B0005A934A93F6C200007A936A93F2C20000F9
:1007C00089909990EEC20000A990B990EAC2000009
:1007D000C990D990E6C20000E990F990E2C2000009
:1007E00009911991DEC2000029913991DAC2000005
:1007F00049915991D6C2000069917991D2C2000005
:10080000ECEFF6E00000D7C2EFEFF6E00000D3C255
:10081000E2E0F7E00000CFC2E5E0F7E00000CBC285
:10082000E8E0F7E00000D6C2EBE0F7E00000D2C25B
:10083000EEE0F7E00000CEC2E1E1F7E00000CAC25E
:10084000E4E1F7E00000BDC2E7E1F7E00000B9C273
:10085000EAE1F7E00000B5C2EDE1F7E00000B1C267
:10086000E0E2F7E00000ADC2E4E2F7E00000A9C278
:10087000E8E2F7E00000A5C2ECE2F7E00000A1C268
:10088000430C521C621CECC2430C521C621CF0C292
:10089000430C521C621CF4C2430C521C621CF8C272
:1008A000430C521C621C33C3430C521C621C3BC3DE
:1008B000430C521C621C46C3430C521C621C83C373
:1008C000430C521C621CECC2430C521C621CF0C252
:1008D00092E0430C521C02C392E0430C521CFEC235
:1008E00091E0430C521CFAC291E0430C521CF6C238
:1008F00090E1430C521CF2C290E1430C521CEEC238
:10090000430C521C621C2BC3430C521C621C27C399
:100910000000000000003DC3470C521C621C39C39C
:1009200024016A2C00C09BC426016E2C00C097C411
:100930002801622E00C093C42A01662E00C08FC415
:10094000C401AA2D430C8CC4C601AE2D430C88C42F
:10095000C801A22F430C84C4CA01A62F430C80C433
:100960002BC100000000000092E0490E521C48C05C
:1009700092E0490E521C44C049905990699077C446
:100980009EE6EAE4FCE0CCC190E9E8EBFCE0BAC109
:100990009CE6E8EDFDE0C6C190E8ECE1FFE0C2C1F5
:1009A00098EBE7EBF0E1BEC190E6EFEDF2E1BCC100
:1009B00090E5EFE5F4E1B8C190E9EFE9F5E1B6C102
:1009C00090E3E6E8F8E1B2C162C100000000000077
:1009D0000000E3E8F9E182C1B2E0E7E7FAE1B4C17F
:1009E000B1E0E7E7FAE1B0C1B0E1E7E7FAE1ACC1B5
:1009F00090E4E7EFFAE186C128C0000000000000A3
:100A0000621C81FBBB279EB52EBC90FD57C4A92F4D
:100A1000AE70A85FED91FC91A92FA295AE70A85F72
:100A2000B097F8942EBC8EB57894E80FF21D3EF086
:100A30000190112494FD10800D921C9252C40D90CF
:100A40001C90019294FD10824CC4430C521C621CF9
:100A5000BB27E4EFF8942EBC8EB578948C3730F039
:100A6000803C08F465C08A3CC8F162C0803608F159
:100A7000883608F00DC0A82FA370AA0FAA0FA55F93
:100A80009C9182FD02C0905801C09F779C938AC1BF
:100A9000A82FA856A695A695AA2321F4E0EDF1E289
:100AA0000C94F31EAA95ABBD982F93709ABD0C942D
:100AB000DF1DA82FA295A770A43020F4F2E122D464
:100AC0000C94871E982F9F7084FD90649BBD982F77
:100AD0009695969593709ABD0C942E1D430C521CBE
:100AE000621C982F905C00008EB52EBCA82F94300D
:100AF00020F0983020F0993020F0AC7803C0A07F2F
:100B000001C0A078A9F49830A1F0E8F4A92FA3704F
:100B1000ECEFF2E1F7D3943048F4923028F490FDF2
:100B20000C94411F0C943C1F0C94FF1E0C94F81E57
:100B3000C5C3982F929597709ABD982F9F70906813
:100B40009BBD0C942E1DE82FE295E770A82FA37093
:100B5000AA0FAA0FA85FBB270D901D909D91AC9185
:100B6000892F8F770128082A8A2F880F97FD8160A7
:100B700021F08F3F39F098E00DC096E0002051F051
:100B8000939508C0002011F499E004C096FB9927C2
:100B900090F904C0A7FF02C09195955F81E0AA2754
:100BA00093959A9519F0880FAA1FFBCFEE0FE85F77
:100BB000FF278193A08395C3430C521C621CB22D66
:100BC000F22DF8942EBC8EB57894E82FE695E69534
:100BD000EE70E85FA82FAA0FAE70A85F00801180AA
:100BE000807CE82B8D919C91DC01C001FA2FFB2BBE
:100BF000A9F1E7FF0FC0F92FE6FFFB27F7FDE06241
:100C000097FF03C08195921D9195B7FF03C0A195F1
:100C1000B21DB19500241124F92FFB2B41F1F8E00E
:100C2000880F991F001C111C0A161B0618F00A1ABF
:100C30001B0A8160880F991F001C111C0A161B06D5
:100C400018F00A1A1B0A8160FA9551F7E6FDC001F7
:100C5000E5FF08C08195921D919504C0E6FD02C094
:100C60008FEF9FEFEF71F22D819390833AC3F4E001
:100C7000880F001C0A1610F00A1A8160880F001CE9
:100C80000A1610F00A1A8160FA9591F7DFCF430C2B
:100C9000521C621CB22DF22DF8942EBC8EB57894A5
:100CA000A82FA295AE70A85FE82FE695EE70E85FDA
:100CB00086950D901C909191B08180FD0AC018F42A
:100CC000092A1B2A02C009221B22B22D1C920E9255
:100CD00008C318F009261B26F8CFF0C2430C521C9B
:100CE000F8942EBC8EB57894621C803338F0A82F0F
:100CF00082958F707097E80FF21D0994880FE80FA6
:100D0000F21D0994430C521CF8942EBC8EB57894B5
:100D1000621C8917C0F4E80FF21DE80FF21D099458
:100D2000A1E006C0A3E004C0A4E002C0A5E000C0AA
:100D30008EB52EBC430C521C621C891720F48A9F6E
:100D4000E00DF11D0994BAC2430C521C621CAEB5F1
:100D50002EBCA03858F49EB3A6FD90959B2329F095
:100D6000AF73AA0FEA0FF21D0994AAC2ECCF0000DC
:100D70008EBB430C8EB52EBC521C621C879DF001AD
:100D8000FF5F09948EBB0000430C521C621CF89458
:100D90002EBC8EB57894879DF001FF5F099400000A
:100DA00001C00000430C8EB52EBC521C621C879DF6
:100DB000F001FF5F0994430C521C621C8EB52EBCDF
:100DC0000994430C521C621C8EB52EBC992787FDDA
:100DD00090950994430C521C621C8EB52EBC430C9A
:100DE000521C621C64D2F8942EBC9EB5789409946F
:100DF00000C000000000C8CF082F1127F9CF282F0E
:100E00003327F6CF482F5527F3CF682F7727F0CF1A
:100E1000082F192FEECF282F392FEBCF482F592F1E
:100E2000E8CF682F792FE5CF080F191FE3CF280FE0
:100E3000391FE0CF480F591FDDCF680F791FDACF78
:100E4000081719078FB79ECF281739078FB79ACF82
:100E5000481759078FB796CF681779078FB792CF82
:100E600000C0F8942EBC8EB57894F19B29C02CC09C
:100E700000C0F8942EBC8EB57894F19921C024C09E
:100E800000C0F8942EBC8EB57894F09B19C01CC09D
:100E900000C0F8942EBC8EB57894F49B11C014C099
:100EA00000C0F8942EBC8EB57894F09909C00CC09F
:100EB00000C0F8942EBC8EB57894F49901C004C09B
:100EC00000C000C000C060CF992787FD9095430CFB
:100ED000521C621C480E591E691EC9C1621CBEB359
:100EE000F8942EBCAEB57894430C521C621C80FD65
:100EF000B095B92341F400C000C000C0F8942EBCE6
:100F00008EB57894DDCF430C521C621C38C0C89556
:100F1000AEB59927A7FD9095430C521C621C4A0E52
:100F2000591E691EA4C1C895AEB59927A7FD909515
:100F3000430C521C621C6A925A924A924A0E591EE3
:100F4000691E95C100C0F8942EBC8EB5789499277F
:100F500087FD9095C80FD91F00C000C015CF430C66
:100F6000521CF8942EBCAEB57894621C430C521CF3
:100F7000621C80FF0C94C7076A925A924A92992782
:100F8000BEB5B7FD90954A0E5B1E691E70C1C8952F
:100F9000F6CFB82F0000F8942EBC8EB57894B0FF31
:100FA0000C94E1076A925A924A9200C000C0F894E9
:100FB0002EBC9EB5789479D1AEB5482E592E6A2EA6
:100FC00056C179D1F4CFECEEF7E0F8942EBC8EB593
:100FD0007894E80FF21D099407C109C10AC110C134
:100FE0001AC119C118C117C116C115C114C113C145
:100FF00012C111C110C1F0C0F1C0F2C0F3C00AC3E8
:1010000022C333C357C365C378C383C38BC39EC393
:10101000A8C3B4C354C153C152C151C150C14FC17F
:101020004EC14DC14CC14BC14AC149C148C147C164
:1010300046C145C144C143C142C141C140C13FC194
:101040003EC13DC13CC13BC13AC139C138C137C1C4
:1010500036C135C134C133C132C131C130C12FC1F4
:101060002EC12DC12CC12BC12AC129C128C127C124
:1010700026C125C124C123C122C121C120C11FC154
:101080001EC11DC11CC11BC11AC119C118C117C184
:1010900016C115C114C113C112C111C110C10FC1B4
:1010A0000EC10DC10CC10BC10AC109C108C107C1E4
:1010B00006C105C104C103C102C101C100C1FFC015
:1010C000FEC0FDC0FCC0FBC0FAC0F9C0F8C0F7C04C
:1010D000F6C0F5C0F4C0F3C0F2C0F1C0F0C0EFC07C
:1010E000EEC0EDC0ECC0EBC0EAC0E9C0E8C0E7C0AC
:1010F000E6C0E5C0E4C0E3C0E2C0E1C0E0C0DFC0DC
:10110000DEC0DDC0DCC0DBC0DAC0D9C0D8C0D7C00B
:10111000D6C0D5C0D4C0D3C0D2C0D1C0D0C0CFC03B
:10112000CEC0CDC0CCC0CBC0CAC0C9C0C8C0C7C06B
:10113000C6C0C5C0C4C0C3C0C2C0C1C0C0C0BFC09B
:10114000BEC0BDC0BCC0BBC0BAC0B9C0B8C0B7C0CB
:10115000B6C0B5C0B4C0B3C0B2C0B1C0B0C0AFC0FB
:10116000AEC0ADC0ACC0ABC0AAC0A9C0A8C0A7C02B
:10117000A6C0A5C0A4C0A3C0A2C0A1C0A0C09FC05B
:101180009EC09DC09CC09BC09AC099C098C097C08B
:1011900096C095C094C093C092C091C090C08FC0BB
:1011A0008EC08DC08CC08BC08AC089C088C087C0EB
:1011B00086C085C084C083C082C081C080C07FC01B
:1011C0007EC07DC07CC07BC07AC079C078C077C04B
:1011D00076C075C074C073C00C9495250C94A1257D
:1011E0000C94B5250C947C250093F100CDCD9895F9
:1011F000CACDF8940091070A1091080A7894D2CDCC
:10120000F8940091070A1091080A2091090A309178
:101210000A0A7894C7CD8450880FE8E4F2E1E80F19
:10122000F21D0590F491E02D4F935F936F937F93A0
:10123000C9019A01AB01B80109958B019C017F910D
:101240006F915F914F91AECD8F229522C022FB22EC
:101250008623F423B923FA2300244C24B22407C0A4
:10126000521C621C6A925A924A922C016A2E599A16
:10127000E3E05998EEBDA091000AA50DB091010AD6
:10128000B61D16D0BEBD0ED0AEBD0CD04EBC0BD020
:101290002EBC0AD0F8942EBC8EB57894879DF001B0
:1012A000FF5F099400000000000000000000000043
:1012B0000000000000C00895FFCFFFCFFFCFFFCF99
:1012C000000001C00000430C521C621CF8942EBCAC
:1012D0008EB57894879DF001FF5F099402C08EBBA4
:1012E0000000430C8EB52EBC521C621C879DF00181
:1012F000FF5F0994D31FD21F6B213620D120CF204E
:101300009E20A320AA0FEA0FF21D0590A491E02DC4
:10131000FA2F08958EB52EBC430C521C621C089502
:10132000A82F8EB52EBC430C521C621CA770AA0FAE
:10133000A85FB22DFE01E80FF21D08958EB52EBCF8
:1013400092E0490E521C621C00C000C000C000C0E8
:1013500000C000C09EB52EBC0895EEB52EBC92E034
:10136000490E521C621CA02DA770AA0FA85FB22DB7
:1013700000C000C0C895FEB52EBC0895CBDF882EF6
:10138000992401CDC7DFA82EBB24FDCCC3DFC82E16
:10139000DD24F9CCBFDFE82EFF24F5CCCFDF882E8B
:1013A000992E27CDCBDFA82EB92E23CDC7DFC82E8F
:1013B000D92E1FCDC3DFE82EF92E1BCDABDF992729
:1013C00087FD9095880E991EECCCA4DF992787FDA8
:1013D0009095A80EB91EE5CC9DDF992787FD9095C5
:1013E000C80ED91EDECC96DF992787FD9095E80EB2
:1013F000F91ED7CC8FDF992787FD9095881699061F
:101400008FB7B6CC87DF992787FD9095A816B906C8
:101410008FB7AECC7FDF992787FD9095C816D90688
:101420008FB7A6CC77DF992787FD9095E816F90648
:101430008FB79ECC75DFED93FC93B4CC71DF008049
:101440000D922C92AFCC6CDF00800D92000C000846
:101450000C92A8CC65DF0C900082A4CC61DF0190D7
:1014600010800D921C929ECC5BDF0D901C9001921F
:10147000108298CC00C095CC70DF00800D922C9229
:101480008ECC6BDF0C900082F5CF67DF019010806F
:101490000D921C9286CC61DF0D901C9001921082FF
:1014A00080CC38DF032CD894E8943CD02182DFCE66
:1014B00031DF032CD894E89435D0BB0FBB0BB1833C
:1014C000D6CE28DF032C000CD894E8942BD0CFCEB6
:1014D00021DF072C0A945894E89424D02182C7CEA7
:1014E00019DF072C5894E8941DD0C1CE13DF032CCC
:1014F000D894689417D02182BACE0CDF032C000C4C
:10150000D89468940FD0B3CE05DF072C0A94589472
:10151000689408D02182ABCEFDDE072C58946894E5
:1015200001D0A5CE982F15F4937301C0937141F5A6
:10153000430C521C621C982F92959F70985F192E35
:10154000E82FEF70E85FF22D36F41E16C9F09E2FDB
:101550009E5F1916A9F081919191A191B081BB2351
:1015600079F456F4E350B82FB00DB193B92FB21DF2
:10157000B193BA2FB21DB083E12DF22D122C01C010
:101580009DCE599AB3E05998BEBD19D003181208E0
:1015900009F40AC02AD0F8942EBCBEB57894B19351
:1015A00003181208B9F700C020D0BEB5B083599A0D
:1015B0000895599AB3E05998BEBD00C00000B0919B
:1015C000000A9B0FB091010AAB1F0FD00000AEBD07
:1015D00006D09EBD04D08EBD03D02EBC0895000061
:1015E00000C000C0000000C000C00895000000005E
:1015F0000000430C521C621CCA01A62FDACF18F05F
:10160000032D122D05C00FEF1FEF02C00027112779
:10161000599A2DCE0901B02DB12991F0F801E6DFDC
:101620008191E3DF00C0F8942EBCBEB578948B178F
:1016300031F70318120851F3819100C000C0F3CFB5
:1016400000271127AFCBF801D1DF0190CEDF00C01A
:10165000F8942EBCBEB578940B1689F6BB23B1F274
:10166000019000C000C00000F3CF00271127BEDFAB
:10167000BBDF00C0F8942EBCBEB57894BB2321F02C
:10168000030D121DB2DFF6CFC3CFE894AFDFACDF9E
:1016900000C0F8942EBCBEB57894B193031812081C
:1016A000B21102C0689404C019F000C00000F1CF6C
:1016B000599A08950901B02DB12951F0F801E5DFDB
:1016C000802D812921F0219203181208E1F7CFCD56
:1016D00069CB0901B02DB12949F0F8018191882326
:1016E000E9F73197D2DF0EF02082C1CD5BCB002D20
:1016F0001127120957CB0018FACFD801F901CA01F6
:101700000097C9F30D901190011889F70197D1F74F
:10171000EECFD801F9010D901190011841F7112079
:10172000D1F7E5CFD801882799270D90002011F037
:101730000196FBCF8C0136CBE8940D900192019776
:10174000021002C068940895C1F70895CA01009775
:10175000A1F0D901F801F0DF81F021920197E9F7BA
:101760000CC0CA01009749F0F80101900020E9F788
:101770003197D901E1DF0EF0208214CB430C521CCB
:10178000621C8DB587FFFDCF8EB5599A01D06FCD04
:10179000E0E0F5E05C9A5E9880E098E000800EBCA6
:1017A0000211022C019780FDFDCF0192B9F78DB592
:1017B0008EB55E9A599A08958956430CF8942EBCBA
:1017C0009EB57894521C621CA92FA17399F5A92F7C
:1017D000A295AF70A85FB22DE92FEF70E85FF22DF0
:1017E0008823B9F001901080F001813049F08D918B
:1017F00081938D9181938D9181938C91808371CD13
:1018000081918D9381918D9381918D9380818C9322
:1018100068CD91FD0FC00D901D908D919C91A1916F
:101820000A16A1911A06A1918A07A0819A078FB77B
:101830008EBB57CD43CD00FA430CF8942EBC1EB49A
:101840007894521C621CA12DA295AE70A85FB22D97
:10185000E12DEE70E85FF22D86F00E2E81919081E1
:10186000FC018191992714FC91918D939C9310FE1A
:1018700038CDA02DED93FC9334CD0D909C91A1918A
:10188000B0810D9214FC9D9310FE2BCDB083A293DA
:1018900028CD12CD73CD76CD79CD7CCD7FCD82CDC7
:1018A00085CD88CD8BCD91CD97CD9DCDA3CDAACD26
:1018B000B1CDB8CDBFCDBECDBDCDBCCDBBCDBACDEC
:1018C000B9CDB8CDBBCDBACDB9CDB8CDB7CDB6CDEC
:1018D000B5CDB4CDB8CDB7CDB6CDB5CDB4CDB3CDF6
:1018E000B2CDB1CDB7CDB6CDB5CDB4CDB3CDB2CDF2
:1018F000B1CDB0CDB3CDB2CDB1CDB0CDAFCDAECDFC
:10190000ADCDACCDB1CDB0CDAFCDAECDADCDACCDFF
:10191000ABCDAACDB1CDB0CDAFCDAECDADCDACCDF3
:10192000ABCDAACDAECDADCDACCDABCDAACDA9CDF5
:10193000A8CDA7CDAACDA9CDA8CDA7CDA6CDA5CD03
:10194000A4CDA3CDA8CDA7CDA6CDA5CDA4CDA3CD07
:10195000A2CDA1CDA6CDACCDB4CDBACDC1CDC6CD95
:10196000CCCDD2CDD9CD28CF27CF26CF64CF63CF52
:101970004401A8CC4501A6CC4601A4CC4701A2CC89
:101980004801A0CC49019ECC4A019CCC4B019ACC89
:10199000540198CC550196CC560194CC570192CC69
:1019A000580190CC59018ECC5A018CCC5B018ACC69
:1019B000640188CC650186CC660184CC670182CC49
:1019C000680180CC69017ECC6A017CCC6B017ACC49
:1019D000740178CC750176CC760174CC770172CC29
:1019E000780170CC79016ECC7A016CCC7B016ACC29
:1019F000840168CC850166CC860164CC870162CC09
:101A0000940160CC95015ECC96015CCC97015ACCD8
:101A1000A40158CCA50156CCA60154CCA70152CCA8
:101A2000B40150CCB5014ECCB6014CCCB7014ACC78
:101A3000088349CC288347CC488345CC688343CC72
:101A4000098341CC29833FCC49833DCC69833BCC7E
:101A50000A8339CC2A8337CC4A8335CC6A8333CC8A
:101A60000B8331CC2B832FCC4B832DCC6B832BCC96
:101A70000C8329CC2C8327CC4C8325CC6C8323CCA2
:101A80000D8321CC2D831FCC4D831DCC6D831BCCAE
:101A90000E8319CC2E8317CC4E8315CC6E8313CCBA
:101AA0000F8311CC2F830FCC4F830DCC6F830BCCC6
:101AB000088709CC288707CC488705CC688703CCE2
:101AC000098701CC2987FFCB4987FDCB6987FBCBF1
:101AD0000A87F9CB2A87F7CB4A87F5CB6A87F3CBFE
:101AE0000B87F1CB2B87EFCB4B87EDCB6B87EBCB0A
:101AF0000C87E9CB2C87E7CB4C87E5CB6C87E3CB16
:101B00000D87E1CB2D87DFCB4D87DDCB6D87DBCB21
:101B10000E87D9CB2E87D7CB4E87D5CB6E87D3CB2D
:101B20000F87D1CB2F87CFCB4F87CDCB6F87CBCB39
:101B30009924C8CBBB24C6CBDD24C4CBFF24C2CBA5
:101B40001127C0CB3327BECB5527BCCB7727BACBC9
:101B50008294B8CBA294B6CBC294B4CBE294B2CB6D
:101B60000295B0CB2295AECB4295ACCB6295AACB79
:101B70004E01A8CB5E01A6CB6E01A4CB7E01A2CB09
:101B80008E01A0CB9E019ECBAE019CCBBE019ACB19
:101B9000E40198CBE50196CBE60194CBE70192CB2B
:101BA000E80190CBE9018ECBEA018CCBEB018ACB2B
:101BB000880C991C88CB8A0C9B1C85CB8C0C9D1C9B
:101BC00082CB8E0C9F1C7FCB800E911E7CCB820E15
:101BD000931E79CB840E951E76CB860E971E73CB03
:101BE000A80CB91C70CBAA0CBB1C6DCBAC0CBD1CDB
:101BF0006ACBAE0CBF1C67CBA00EB11E64CBA20E8D
:101C0000B31E61CBA40EB51E5ECBA60EB71E5BCB7A
:101C1000C80CD91C58CBCA0CDB1C55CBCC0CDD1C1A
:101C200052CBCE0CDF1C4FCBC00ED11E4CCBC20E04
:101C3000D31E49CBC40ED51E46CBC60ED71E43CBF2
:101C4000E80CF91C40CBEA0CFB1C3DCBEC0CFD1C5A
:101C50003ACBEE0CFF1C37CBE00EF11E34CBE20E7C
:101C6000F31E31CBE40EF51E2ECBE60EF71E2BCB6A
:101C7000080D191D28CB0A0D1B1D25CB0C0D1D1D94
:101C800022CB0E0D1F1D1FCB280D391D1CCB2A0D7D
:101C90003B1D19CB2C0D3D1D16CB2E0D3F1D13CB1F
:101CA000480D591D10CB4A0D5B1D0DCB4C0D5D1D14
:101CB0000ACB4E0D5F1D07CB680D791D04CB6A0D55
:101CC0007B1D01CB6C0D7D1DFECA6E0D7F1DFBCAF9
:101CD00088189908F8CA8A189B08F5CA8C189D08B4
:101CE000F2CA8E189F08EFCA801A910AECCA821AAB
:101CF000930AE9CA841A950AE6CA861A970AE3CAB9
:101D0000A818B908E0CAAA18BB08DDCAAC18BD08F3
:101D1000DACAAE18BF08D7CAA01AB10AD4CAA21A22
:101D2000B30AD1CAA41AB50ACECAA61AB70ACBCA30
:101D3000C818D908C8CACA18DB08C5CACC18DD0833
:101D4000C2CACE18DF08BFCAC01AD10ABCCAC21A9A
:101D5000D30AB9CAC41AD50AB6CAC61AD70AB3CAA8
:101D6000E818F908B0CAEA18FB08ADCAEC18FD0873
:101D7000AACAEE18FF08A7CAE01AF10AA4CAE21A12
:101D8000F30AA1CAE41AF50A9ECAE61AF70A9BCA20
:101D90000819190998CA0A191B0995CA0C191D09AD
:101DA00092CA0E191F098FCA281939098CCA2A1913
:101DB0003B0989CA2C193D0986CA2E193F0983CAD5
:101DC0004819590980CA4A195B097DCA4C195D092D
:101DD0007ACA4E195F0977CA6819790974CA6A19EB
:101DE0007B0971CA6C197D096ECA6E197F096BCAAD
:101DF0004401550168CA4601570165CA48015901A5
:101E000062CA4A015B015FCA640175015CCA66016E
:101E1000770159CA6801790156CA6A017B0153CA20
:101E20008401950150CA860197014DCAA401B501EC
:101E30004ACAA601B70147CAD8018C9251CAD80133
:101E4000AC924ECAD801CC924BCAD801EC9248CA87
:101E5000D9018C9245CAD901AC9242CAD901CC921F
:101E60003FCAD901EC923CCADA018C9239CADA0134
:101E7000AC9236CADA01CC9233CADA01EC9230CA9B
:101E8000DB018C922DCADB01AC922ACADB01CC9219
:101E900027CADB01EC9224CA009F800121CA029F5D
:101EA00080011ECA049F80011BCA069F800118CAB8
:101EB000209F900115CA229F900112CA249F900171
:101EC0000FCA269F90010CCA409FA00109CA429FD9
:101ED000A00106CA449FA00103CA469FA00100CAF0
:101EE000609FB001FDC9629FB001FAC9649FB00153
:101EF000F7C9669FB001F4C900028001F1C902026E
:101F00008001EEC904028001EBC906028001E8C924
:101F100020029001E5C922029001E2C92402900149
:101F2000DFC926029001DCC94002A001D9C94202E2
:101F3000A001D6C94402A001D3C94602A001D0C95C
:101F40006002B001CDC96202B001CAC96402B00129
:101F5000C7C96602B001C4C900038001C1C9020338
:101F60008001BEC904038001BBC906038001B8C952
:101F700020039001B5C922039001B2C92403900146
:101F8000AFC926039001ACC94003A001A9C942030F
:101F9000A001A6C94403A001A3C94603A001A0C98A
:101FA0006003B0019DC96203B0019AC96403B00126
:101FB00097C96603B00194C90881112791C9288186
:101FC00033278EC9488155278BC96881772788C9EF
:101FD0000981112785C92981332782C9498155275C
:101FE0007FC9698177277CC90A81112779C92A812C
:101FF000332776C94A81552773C96A81772770C903
:102000000B8111276DC92B8133276AC94B81552755
:1020100067C96B81772764C90C81112761C92C813D
:1020200033275EC94C8155275BC96C81772758C916
:102030000D81112755C92D81332752C94D8155274F
:102040004FC96D8177274CC90E81112749C92E814F
:10205000332746C94E81552743C96E81772740C92A
:102060000F8111273DC92F8133273AC94F81552749
:1020700037C96F81772734C90885112731C9288569
:1020800033272EC9488555272BC96885772728C946
:102090000985112725C92985332722C9498555274F
:1020A0001FC9698577271CC90A85112719C92A857F
:1020B000332716C94A85552713C96A85772710C95A
:1020C0000B8511270DC92B8533270AC94B85552749
:1020D00007C96B85772704C90C85112701C92C8591
:1020E0003327FEC84C855527FBC86C857727F8C871
:1020F0000D851127F5C82D853327F2C84D85552745
:10210000EFC86D857727ECC80E851127E9C82E85A5
:102110003327E6C84E855527E3C86E857727E0C884
:102120000F851127DDC82F853327DAC84F8555273E
:10213000D7C86F857727D4C80000430C521C621C97
:10214000F8942EBC8EB57894879DF001FF5F0994BA
:102150008EBB02C08EBB0000430C8EB52EBC521C41
:10216000621C879DF001FF5F099493CBA7C808818B
:102170001981F2CF28813981EFCF48815981ECCF85
:1021800068817981E9CF09811A81E6CF29813A8175
:10219000E3CF49815A81E0CF69817A81DDCF0A811D
:1021A0001B81DACF2A813B81D7CF4A815B81D4CF93
:1021B0006A817B81D1CF0B811C81CECF2B813C8169
:1021C000CBCF4B815C81C8CF6B817C81C5CF0C812B
:1021D0001D81C2CF2C813D81BFCF4C815D81BCCFA1
:1021E0006C817D81B9CF0D811E81B6CF2D813E815D
:1021F000B3CF4D815E81B0CF6D817E81ADCF0E8139
:102200001F81AACF2E813F81A7CF4E815F81A4CFAE
:102210006E817F81A1CF0F8118859ECF2F81388558
:102220009BCF4F81588598CF6F81788595CF088552
:10223000198592CF288539858FCF488559858CCFD0
:102240006885798589CF09851A8586CF29853A855C
:1022500083CF49855A8580CF69857A857DCF0A8568
:102260001B857ACF2A853B8577CF4A855B8574CFDE
:102270006A857B8571CF0B851C856ECF2B853C8550
:102280006BCF4B855C8568CF6B857C8565CF0C8576
:102290001D8562CF2C853D855FCF4C855D855CCFEC
:1022A0006C857D8559CF0D851E8556CF2D853E8544
:1022B00053CF4D855E8550CF6D857E854DCF0E8584
:1022C0001F854ACF2E853F8547CF4E855F8544CFFA
:1022D0006E857F8541CF0F8518893ECF2F85388940
:1022E0003BCF4F85588938CF6F85788935CF0883A4
:1022F000198332CF288339832FCF488359832CCF3A
:102300006883798329CF09831A8326CF29833A8367
:1023100023CF49835A8320CF69837A831DCF0A83D1
:102320001B831ACF2A833B8317CF4A835B8314CF47
:102330006A837B8311CF0B831C830ECF2B833C835B
:102340000BCF4B835C8308CF6B837C8305CF0C83DF
:102350001D8302CF2C833D83FFCE4C835D83FCCE57
:102360006C837D83F9CE0D831E83F6CE2D833E8351
:10237000F3CE4D835E83F0CE6D837E83EDCE0E83F0
:102380001F83EACE2E833F83E7CE4E835F83E4CE66
:102390006E837F83E1CE0F831887DECE2F8338874D
:1023A000DBCE4F835887D8CE6F837887D5CE08870A
:1023B0001987D2CE28873987CFCE48875987CCCE88
:1023C00068877987C9CE09871A87C6CE29873A8751
:1023D000C3CE49875A87C0CE69877A87BDCE0A8720
:1023E0001B87BACE2A873B87B7CE4A875B87B4CE96
:1023F0006A877B87B1CE0B871C87AECE2B873C8745
:10240000ABCE4B875C87A8CE6B877C87A5CE0C872D
:102410001D87A2CE2C873D879FCE4C875D879CCEA3
:102420006C877D8799CE0D871E8796CE2D873E8738
:1024300093CE4D875E8790CE6D877E878DCE0E873B
:102440001F878ACE2E873F8787CE4E875F8784CEB1
:102450006E877F8781CE0F87188B7ECE2F87388B34
:102460007BCE4F87588B78CE6F87788B75CE880C54
:10247000991C63CEAA0CBB1C60CECC0CDD1C5DCEBF
:10248000EE0CFF1C5ACE000F111F57CE220F331F28
:1024900054CE440F551F51CE660F771F4ECE9694E3
:1024A00087944BCEB694A79448CED694C79445CE85
:1024B000F694E79442CE169507953FCE369527952C
:1024C0003CCE5695479539CE7695679536CE959400
:1024D000879433CEB594A79430CED594C7942DCE9F
:1024E000F594E7942ACE1595079527CE359527952F
:1024F00024CE5595479521CE759567951ECE80942F
:1025000090941BCEA094B09418CEC094D09415CEC5
:10251000E094F09412CE009510950FCE2095309552
:102520000CCE4095509509CE6095709506CE8214DC
:102530008FB710CEA2148FB70DCEC2148FB70ACEAC
:10254000E2148FB707CE02158FB704CE22158FB7CE
:1025500001CE42158FB7FECD62158FB7FBCD830C30
:10256000921CEBCDA30CB21CE8CDC30CD21CE5CD64
:10257000E30CF21CE2CD030D121DDFCD230D321D45
:10258000DCCD430D521DD9CD630D721DD6CD831800
:102590009208D3CDA318B208D0CDC318D208CDCDA0
:1025A000E318F208CACD03191209C7CD231932095D
:1025B000C4CD43195209C1CD63197209BECD881427
:1025C00099048FB7C7CD8A149B048FB7C3CD8C14E1
:1025D0009D048FB7BFCD8E149F048FB7BBCD8016DF
:1025E00091068FB7B7CD821693068FB7B3CD8416F9
:1025F00095068FB7AFCD861697068FB7ABCDA814CB
:10260000B9048FB7A7CDAA14BB048FB7A3CDAC1460
:10261000BD048FB79FCDAE14BF048FB79BCDA0165E
:10262000B1068FB797CDA216B3068FB793CDA41678
:10263000B5068FB78FCDA616B7068FB78BCDC8144A
:10264000D9048FB787CDCA14DB048FB783CDCC14E0
:10265000DD048FB77FCDCE14DF048FB77BCDC016DE
:10266000D1068FB777CDC216D3068FB773CDC416F8
:10267000D5068FB76FCDC616D7068FB76BCDE814CA
:10268000F9048FB767CDEA14FB048FB763CDEC1460
:10269000FD048FB75FCDEE14FF048FB75BCDE0165E
:1026A000F1068FB757CDE216F3068FB753CDE41678
:1026B000F5068FB74FCDE616F7068FB74BCD081549
:1026C00019058FB747CD0A151B058FB743CD0C15DC
:1026D0001D058FB73FCD0E151F058FB73BCD2815B4
:1026E00039058FB737CD2A153B058FB733CD2C155C
:1026F0003D058FB72FCD2E153F058FB72BCD481534
:1027000059058FB727CD4A155B058FB723CD4C15DB
:102710005D058FB71FCD4E155F058FB71BCD6815B3
:1027200079058FB717CD6A157B058FB713CD6C155B
:102730007D058FB70FCD6E157F058FB70BCDD801F7
:102740008C90992409CDD801AC90BB2405CDD8013B
:10275000CC90DD2401CDD801EC90FF24FDCCD90133
:102760008C909924F9CCD901AC90BB24F5CCD9013B
:10277000CC90DD24F1CCD901EC90FF24EDCCDA0132
:102780008C909924E9CCDA01AC90BB24E5CCDA0139
:10279000CC90DD24E1CCDA01EC90FF24DDCCDB0130
:1027A0008C909924D9CCDB01AC90BB24D5CCDB0137
:1027B000CC90DD24D1CCDB01EC90FF24CDCCD80132
:1027C0008D909C90C9CCD801AD90BC90C5CCD8015F
:1027D000CD90DC90C1CCD801ED90FC90BDCCD9015E
:1027E0008D909C90B9CCD901AD90BC90B5CCD9015D
:1027F000CD90DC90B1CCD901ED90FC90ADCCDA015C
:102800008D909C90A9CCDA01AD90BC90A5CCDA015A
:10281000CD90DC90A1CCDA01ED90FC909DCCDB0159
:102820008D909C9099CCDB01AD90BC9095CCDB0158
:10283000CD90DC9091CCDB01ED90FC908DCCD8015B
:102840008D929C9289CCD801AD92BC9285CCD80156
:10285000CD92DC9281CCD801ED92FC927DCCD90155
:102860008D929C9279CCD901AD92BC9275CCD90154
:10287000CD92DC9271CCD901ED92FC926DCCDA0153
:102880008D929C9269CCDA01AD92BC9265CCDA0152
:10289000CD92DC9261CCDA01ED92FC925DCCDB0151
:1028A0008D929C9259CCDB01AD92BC9255CCDB0150
:1028B000CD92DC9251CCDB01ED92FC924DCCD80153
:1028C0008D928D0149CCD801AD928D0145CCD801B6
:1028D000CD928D0141CCD801ED928D013DCCD80136
:1028E0000D938D0139CCD8012D938D0135CCD801B4
:1028F0004D938D0131CCD8016D938D012DCCD90133
:102900008D929D0129CCD901AD929D0125CCD90193
:10291000CD929D0121CCD901ED929D011DCCD90113
:102920000D939D0119CCD9012D939D0115CCD90191
:102930004D939D0111CCD9016D939D010DCCDA0110
:102940008D92AD0109CCDA01AD92AD0105CCDA0171
:10295000CD92AD0101CCDA01ED92AD01FDCBDA01F2
:102960000D93AD01F9CBDA012D93AD01F5CBDA0171
:102970004D93AD01F1CBDA016D93AD01EDCBDB01F0
:102980008D92BD01E9CBDB01AD92BD01E5CBDB0151
:10299000CD92BD01E1CBDB01ED92BD01DDCBDB01D1
:1029A0000D93BD01D9CBDB012D93BD01D5CBDB014F
:1029B0004D93BD01D1CBDB016D93BD01CDCB882DF6
:1029C000892C982EC8CB8A2DAB2CB82EC4CB8C2D3D
:1029D000CD2CD82EC0CB8E2DEF2CF82EBCCB802F3B
:1029E000012F182FB8CB822F232F382FB4CB842F51
:1029F000452F582FB0CB862F672F782FACCB821462
:102A000092048FB7A7CBA214B2048FB7A3CBC21482
:102A1000D2048FB79FCBE214F2048FB79BCB021581
:102A200012058FB797CB221532058FB793CB42157E
:102A300052058FB78FCB621572058FB78BCB009F76
:102A4000002D112789CB029F002D112785CB049FD4
:102A5000002D112781CB069F002D11277DCB209FB4
:102A6000202D332779CB229F202D332775CB249F10
:102A7000202D332771CB269F202D33276DCB409FF0
:102A8000402D552769CB429F402D552765CB449F4C
:102A9000402D552761CB469F402D55275DCB609F2C
:102AA000602D772759CB629F602D772755CB649F88
:102AB000602D772751CB669F602D77274DCB9924CA
:102AC00087FC9A9448CBBB24A7FCBA9444CBDD2462
:102AD000C7FCDA9440CBFF24E7FCFA943CCB1127E7
:102AE00007FD1A9538CB332727FD3A9534CB552768
:102AF00047FD5A9530CB772767FD7A952CCB81948B
:102B0000921C919428CBA194B21CB19424CBC19473
:102B1000D21CD19420CBE194F21CF1941CCB0195F2
:102B2000121D119518CB2195321D319514CB41956D
:102B3000521D519510CB6195721D71950CCBD8012A
:102B40008D908D019924D9C2D801AD908D01BB24FF
:102B5000D4C2D801CD908D01DD24CFC2D801ED9033
:102B60008D01FF24CAC202CB00000000000000005B
:102B7000D8012D918D013327C0C2D8014D918D010F
:102B80005527BBC2D8016D918D017727B6C2D901F7
:102B90008D909D019924B1C2D901AD909D01BB24B6
:102BA000ACC2D901CD909D01DD24A7C2D901ED9021
:102BB0009D01FF24A2C2D9010D919D0111279DC243
:102BC000D5CA0000000000000000D9014D919D0110
:102BD000552793C2D9016D919D0177278EC2DA01E5
:102BE0008D90AD01992489C2DA01AD90AD01BB246D
:102BF00084C2DA01CD90AD01DD247FC2DA01ED900F
:102C0000AD01FF247AC2DA010D91AD01112775C221
:102C1000DA012D91AD01332770C2A8CA000000006F
:102C200000000000DA016D91AD01772766C2DB017B
:102C30008D90BD01992461C2DB01AD90BD01BB2423
:102C40005CC2DB01CD90BD01DD2457C2DB01ED90FC
:102C5000BD01FF2452C2DB010D91BD0111274DC200
:102C6000DB012D91BD01332748C2DB014D91BD0130
:102C7000552743C27BCA0000000000000000D801B5
:102C80008D909D908D0139C2D801AD90BD908D0180
:102C900034C2D801CD90DD908D012FC2D801ED90C6
:102CA000FD908D012AC262CA0000000000000000F1
:102CB000D8012D913D918D0120C2D8014D915D919A
:102CC0008D011BC2D8016D917D918D0116C2D90174
:102CD0008D909D909D0111C2D901AD90BD909D0137
:102CE0000CC2D901CD90DD909D0107C2D901ED90B4
:102CF000FD909D0102C2D9010D911D919D01FDC163
:102D000035CA0000000000000000D9014D915D911E
:102D10009D01F3C1D9016D917D919D01EEC1DA0153
:102D20008D909D90AD01E9C1DA01AD90BD90AD01EE
:102D3000E4C1DA01CD90DD90AD01DFC1DA01ED90A3
:102D4000FD90AD01DAC1DA010D911D91AD01D5C142
:102D5000DA012D913D91AD01D0C108CA00000000FB
:102D600000000000DA016D917D91AD01C6C1DB016B
:102D70008D909D90BD01C1C1DB01AD90BD90BD01A5
:102D8000BCC1DB01CD90DD90BD01B7C1DB01ED9091
:102D9000FD90BD01B2C1DB010D911D91BD01ADC121
:102DA000DB012D913D91BD01A8C1DB014D915D91EC
:102DB000BD01A3C1DBC90000000000000000D80174
:102DC0008D929D928D0199C1D801AD92BD928D01D8
:102DD00094C1D801CD92DD928D018FC1D801ED92C1
:102DE000FD928D018AC1D8010D931D938D0185C17E
:102DF000D8012D933D938D0180C1D8014D935D93F2
:102E00008D017BC1D8016D937D938D0176C1D90170
:102E10008D929D929D0171C1D901AD92BD929D018E
:102E20006CC1D901CD92DD929D0167C1D901ED92AE
:102E3000FD929D0162C1D9010D931D939D015DC15C
:102E4000D9012D933D939D0158C1D9014D935D93B7
:102E50009D0153C1D9016D937D939D014EC1DA014E
:102E60008D929D92AD0149C1DA01AD92BD92AD0145
:102E700044C1DA01CD92DD92AD013FC1DA01ED929C
:102E8000FD92AD013AC1DA010D931D93AD0135C13B
:102E9000DA012D933D93AD0130C1DA014D935D937D
:102EA000AD012BC1DA016D937D93AD0126C1DB012C
:102EB0008D929D92BD0121C1DB01AD92BD92BD01FC
:102EC0001CC1DB01CD92DD92BD0117C1DB01ED928A
:102ED000FD92BD0112C1DB010D931D93BD010DC11A
:102EE000DB012D933D93BD0108C1DB014D935D9343
:102EF000BD0103C1DB016D937D93BD01FEC0880C54
:102F0000991CAA1CBB1CF9C08C0C9D1CAE1CBF1CC0
:102F1000F4C0800E911EA21EB31EEFC0840E951E3B
:102F2000A61EB71EEAC0C80CD91CEA1CFB1CE5C0D3
:102F3000CC0CDD1CEE1CFF1CE0C0C00ED11EE21E3E
:102F4000F31EDBC0C40ED51EE61EF71ED6C0080D4C
:102F5000191D2A1D3B1DD1C00C0D1D1D2E1D3F1D11
:102F6000CCC0000F111F221F331FC7C0040F151F35
:102F7000261F371FC2C0480D591D6A1D7B1DBDC0CD
:102F80004C0D5D1D6E1D7F1DB8C0400F511F621F8F
:102F9000731FB3C0440F551F661F771FAEC088183C
:102FA0009908AA08BB08A9C08C189D08AE08BF08DC
:102FB000A4C0801A910AA20AB30A9FC0841A950A73
:102FC000A60AB70A9AC0C818D908EA08FB0895C02B
:102FD000CC18DD08EE08FF0890C0C01AD10AE20A3A
:102FE000F30A8BC0C41AD50AE60AF70A86C0081984
:102FF00019092A093B0981C00C191D092E093F092D
:103000007CC0001B110B220B330B77C0041B150B6C
:10301000260B370B72C0481959096A097B096DC024
:103020004C195D096E097F0968C0401B510B620B8A
:10303000730B63C0441B550B660B770B5EC0B694D5
:10304000A7949794879459C0F694E794D794C7941B
:1030500054C036952795179507954FC07695679577
:10306000579547954AC0B594A7949794879445C0BF
:10307000F594E794D794C79440C035952795179554
:1030800007953BC0759567955795479536C0892834
:1030900099248210832C31C0AB28BB24A210A32C0E
:1030A0002CC0CD28DD24C210C32C27C0EF28FF245C
:1030B000E210E32C22C0012B11270211032D1DC0A9
:1030C000232B33272211232D18C0452B55274211BE
:1030D000432D13C0672B77276211632D0EC00000AC
:1030E000430C521C621CF8942EBC8EB57894879DBC
:1030F000F001FF5F099401C00000430C8EB52EBCA7
:10310000521C621C879DF001FF5F0994882499245A
:10311000F199832CF2CFAA24BB24F199A32CEDCFF3
:10312000CC24DD24F199C32CE8CFEE24FF24F199BF
:10313000E32CE3CF00271127F199032DDECF2227BF
:103140003327F199232DD9CF44275527F199432DC2
:10315000D4CF66277727F199632DCFCF8824992480
:10316000F19B832CCACFAA24BB24F19BA32CC5CFEF
:10317000CC24DD24F19BC32CC0CFEE24FF24F19B93
:10318000E32CBBCF00271127F19B032DB6CF2227BD
:103190003327F19B232DB1CF44275527F19B432D96
:1031A000ACCF66277727F19B632DA7CF882499247E
:1031B000F099832CA2CFAA24BB24F099A32C9DCFF5
:1031C000CC24DD24F099C32C98CFEE24FF24F09971
:1031D000E32C93CF00271127F099032D8ECF2227C0
:1031E0003327F099232D89CF44275527F099432D74
:1031F00084CF66277727F099632D7FCF8824992481
:10320000F09B832C7ACFAA24BB24F09BA32C75CFF0
:10321000CC24DD24F09BC32C70CFEE24FF24F09B44
:10322000E32C6BCF00271127F09B032D66CF2227BD
:103230003327F09B232D61CF44275527F09B432D47
:103240005CCF66277727F09B632D57CF882499247E
:10325000F499832C52CFAA24BB24F499A32C4DCFEC
:10326000CC24DD24F499C32C48CFEE24FF24F49918
:10327000E32C43CF00271127F499032D3ECF2227BB
:103280003327F499232D39CF44275527F499432D1B
:1032900034CF66277727F499632D2FCF882499247C
:1032A000F49B832C2ACFAA24BB24F49BA32C25CFE8
:1032B000CC24DD24F49BC32C20CFEE24FF24F49BEC
:1032C000E32C1BCF00271127F49B032D16CF2227B9
:1032D0003327F49B232D11CF44275527F49B432DEF
:1032E0000CCF66277727F49B632D07CF6CC077C080
:1032F00082C08DC098C0A3C0AEC0B9C0C4C0D0C089
:10330000DCC0E8C0FFCFA02F5EC0A22F5CC0A42FFE
:103310005AC0A62F58C0A02F62C0A22F60C0A42FF1
:103320005EC0A62F5CC0A02F66C0A22F64C0A42FD1
:1033300062C0A62F60C0A02F6AC0A22F68C0A42FB1
:1033400066C0A62F64C0A02F6EC0A22F6CC0A42F91
:103350006AC0A62F68C0A02F72C0A22F70C0A42F71
:103360006EC0A62F6CC0A02F76C0A22F74C0A42F51
:1033700072C0A62F70C0A02F7AC0A22F78C0A42F31
:1033800076C0A62F74C0A02F7EC0A22F7CC0A42F11
:103390007AC0A62F78C0A02F83C0A22F81C0A42FEF
:1033A0007FC0A62F7DC0A02F88C0A22F86C0A42FCB
:1033B00084C0A62F82C0A02F8DC0A22F8BC0A42FA7
:1033C00089C0A62F87C0AF70A3FF03C0102F0027AE
:1033D000A77021F0000F111FAA95E1F78ECEAF70F4
:1033E000A3FF03C0322F2227A77021F0220F331F23
:1033F000AA95E1F782CEAF70A3FF03C0542F4427F4
:10340000A77021F0440F551FAA95E1F776CEAF7053
:10341000A3FF03C0762F6627A77021F0660F771FE2
:10342000AA95E1F76ACEAF70A3FF03C0012F112761
:10343000A77021F016950795AA95E1F75ECEAF70BB
:10344000A3FF03C0232F3327A77021F036952795BC
:10345000AA95E1F752CEAF70A3FF03C0452F5527C1
:10346000A77021F056954795AA95E1F746CEAF7023
:10347000A3FF03C0672F7727A77021F07695679584
:10348000AA95E1F73ACEAF70A3FF04C0012F110F48
:10349000110BA77021F015950795AA95E1F72DCE90
:1034A000AF70A3FF04C0232F330F330BA77021F09D
:1034B00035952795AA95E1F720CEAF70A3FF04C0FC
:1034C000452F550F550BA77021F055954795AA9597
:1034D000E1F713CEAF70A3FF04C0672F770F770B10
:1034E000A77021F075956795AA95E1F706CE44017E
:1034F00004CE450102CE460100CE4701FECD480173
:10350000FCCD4901FACD4A01F8CD4B01F6CD54016D
:10351000F4CD5501F2CD5601F0CD5701EECD580155
:10352000ECCD5901EACD5A01E8CD5B01E6CD64014D
:10353000E4CD6501E2CD6601E0CD6701DECD680135
:10354000DCCD6901DACD6A01D8CD6B01D6CD74012D
:10355000D4CD7501D2CD7601D0CD7701CECD780115
:10356000CCCD7901CACD7A01C8CD7B01C6CD84010D
:10357000C4CD8501C2CD8601C0CD8701BECD8801F5
:10358000BCCD8901BACD8A01B8CD8B01B6CD9401ED
:10359000B4CD9501B2CD9601B0CD9701AECD9801D5
:1035A000ACCD9901AACD9A01A8CD9B01A6CDA401CD
:1035B000A4CDA501A2CDA601A0CDA7019ECDA801B5
:1035C0009CCDA9019ACDAA0198CDAB0196CDB401AD
:1035D00094CDB50192CDB60190CDB7018ECDB80195
:1035E0008CCDB9018ACDBA0188CDBB0186CDD4017D
:1035F0007EC0D5017CC0D6017AC0D70178C0D80181
:1036000076C0D90174C0DA0172C0DB0170C0D40188
:1036100076C0D50174C0D60172C0D70170C0D80180
:103620006EC0D9016CC0DA016AC0DB0168C0D40188
:103630006EC0D5016CC0D6016AC0D70168C0D80180
:1036400066C0D90164C0DA0162C0DB0160C0D40188
:1036500066C0D50164C0D60162C0D70160C0D80180
:103660005EC0D9015CC0DA015AC0DB0158C0D40188
:103670005EC0D5015CC0D6015AC0D70158C0D80180
:1036800056C0D90154C0DA0152C0DB0150C0D40188
:1036900056C0D50154C0D60152C0D70150C0D80180
:1036A0004EC0D9014CC0DA014AC0DB0148C0D40188
:1036B0004EC0D5014CC0D6014AC0D70148C0D80180
:1036C00046C0D90144C0DA0142C0DB0140C0D40188
:1036D00046C0D50144C0D60142C0D70140C0D80180
:1036E0003EC0D9013CC0DA013AC0DB0138C0F40168
:1036F000EA9F4001FA9F900CEB9F900CFECCF501E5
:10370000EA9F5001FA9FB00CEB9FB00CF6CCF6018B
:10371000EA9F6001FA9FD00CEB9FD00CEECCF70132
:10372000EA9F7001FA9FF00CEB9FF00CE6CCF801D9
:10373000EA9F8001FA9F100DEB9F100DDECCF9017E
:10374000EA9F9001FA9F300DEB9F300DD6CCFA0125
:10375000EA9FA001FA9F500DEB9F500DCECCFB01CC
:10376000EA9FB001FA9F700DEB9F700DC6CC599A7D
:10377000E3E05998EEBDA091000AA50DB091010AB1
:10378000B61D10D0BEBD08D0AEBD06D04EBC04D014
:103790002EBC00C007D00895000000C0000000004B
:1037A00000000000000000C00895F894AFEFADBF26
:1037B000AAE0AEBF2224A1E03A2EA4E07A2E209205
:1037C000060A2092070A2092080A2092090A2092EB
:1037D0000A0AC0E0DAE02EBAF3D0A0E5ACBDA1E061
:1037E000ADBD25D15998EBEAE1D0599AE5D0E4E195
:1037F000F0E0459155914831C1F45539B1F4B59196
:10380000A591A093000AB093010A459155914831C2
:1038100021F5553911F5B591A591A093020AB09300
:10382000030AA1E0A093060A18C06FEFBFEFA8EF4C
:10383000442755278CD088F06FEFBFEEA8EF40EFFC
:103840005FEF85D008F070C0A0EFBFEFA093020A31
:10385000B093030AA1E0A093060AAA27B091000A38
:103860006091010A96D0A0D0E13409F05DC09CD0EF
:10387000E63509F059C098D0ED3409F055C094D020
:10388000E13009F051C090D0E13009F04DC08CD04A
:103890004E2E8AD05E2E88D06E2E86D00E2F84D0EB
:1038A0001E2F82D04E2FE093040A7ED05E2FE0932D
:1038B000050A599A0417150708F436C0143028F081
:1038C00009F032C0002309F02FC04215520521F043
:1038D000A091060AA0FF28C00215120589F0B09138
:1038E000000A6091010AB39509F46395AA2751D0A3
:1038F000A0E0B1E059D0ED9301501040D9F7599AAA
:10390000E0E0F5E080E094E021920197E9F7022DF4
:103910000E94C80B0CD02BDF8EB52EBC7894000013
:10392000879DF001FF5F0994F894599AFFCF25BC59
:1039300020926E00A2E0A4BD26BCA9EFA7BDA2E024
:10394000A5BBA2E0A0936E00A3E0A5BD089521D081
:103950002BD0E134D9F428D0E635C1F425D0E435B4
:10396000A9F422D0E13091F41FD00E2E1DD01E2ECE
:10397000599A0214120459F0A42FB52FA019B109B5
:10398000A093000AB093010A08940895599A889464
:103990000895599A5998E3E009D0E62F07D0EB2F04
:1039A00005D0EA2F03D00895E22D00C0EEBDFDB58D
:1039B000F7FFFDCFEEB50895A0E2AA95F1F70895BF
:1039C0002998219A2A98229A23982B98599A519AA1
:1039D0005E98569A5C9A549A5F98579A2E9A269AAD
:1039E0002F9A279A2D9A259A5D9A559A289A209A65
:1039F00085988D9A86988E9A87988F9A84988C9AB3
:103A00006E98769A24982C9A81988998A1ECA09324
:103A10007C00089588E699279A95F1F78A95D9F759
:103A20000895AEBDBDB5B7FFFDCFAEB50895F2DFC9
:103A30005F9AF0DF5E985C98EEE4FAE38DE0A59182
:103A4000F0DF8A95E1F75C9A5E9A599A0895D5F06D
:103A50008D14A1C881CFD9F1AF200000EBB5E69558
:103A6000E695E370E1FD08C0E0FD03C0D401C501A7
:103A70000AC0D601C70107C0E0FD03C0D801C901D3
:103A800002C0DA01CB01EBB5E370E1FD08C0E0FD57
:103A900003C00401F5010AC00601F70107C0E0FDFB
:103AA00003C00801F90102C00A01FB012BB497FB16
:103AB0009F779F3781F487FF0EC08F7799279A2BC6
:103AC0009B2B982B21F080689FE797F906C08068B0
:103AD0009FE797F905C097F903C027FC6BC05CC04E
:103AE000F7FBFF77FF3781F4E7FF0EC0EF77FF2783
:103AF000F029F129FE2B21F0E068FFE7F7F906C075
:103B0000E068FFE7F7F905C0F7F903C027FC52C0EA
:103B100045C027FE14C0AA2391F4BB2381F4882357
:103B200071F4903011F0903851F4002041F41120DC
:103B300031F4EE2321F4F03011F1F03801F197FD6A
:103B400003C0F7FD24C00FC0F7FF1CC09F17F8F09B
:103B5000C9F48E17E0F0B1F4B115C8F099F4A015CE
:103B6000B0F081F40CC09F1768F089F48E1750F004
:103B700071F4B11538F059F4A01520F041F427FC88
:103B800013C00CC027FC0DC026FC06C007C027FCD4
:103B90000EC026FC03C000C0D001CF012224EAB52C
:103BA000D8C18FEF9FEF08C08827992705C081E013
:103BB000992702C082E099272224EAB5ECC10AB411
:103BC00001FC08C000FC03C0D401C5010AC0D60135
:103BD000C70107C000FC03C0D801C90102C0DA0157
:103BE000CB012BB4E92FEE0F87FDE160E63908F039
:103BF0008BC0EF3700F5F92FFF77F82BFB2BFA2B53
:103C000009F482C0222091F021FC03C097FF0EC06E
:103C100007C020FC03C097FD09C002C0EE3730F09A
:103C2000AA27BB2780E890789F636EC0AA27BB278E
:103C30008827907869C0F6E9FE1B97FB9F77EF2FE6
:103C4000E770F83090F0F03148F0232C220C082E69
:103C50001A2E1B2AEE2361F40B2E2AC0232C0B2EC6
:103C60001A2EEE2329F40A2E23C022240A2E112410
:103C7000F1E0FF0FEA95E9F7EF2FE695E02111F06B
:103C8000E2E001C0EE27FA950F22102809F0E1606A
:103C9000F095222049F0231421F08F23BB27AA2777
:103CA00004C0BF23AA2701C0AF23F095F3950BC032
:103CB000F1E0EE2707FCE260112009F0E160231437
:103CC00009F0BB27AA27E0FF1DC00BB40020D1F0EC
:103CD00001FC02C0BEF406C000FC02C09EF002C09F
:103CE000E1FF10C01124222049F0231419F08F0F96
:103CF000911D08C0BF0F811D911D04C0AF0FB11DE4
:103D0000811D911D97F900C02224EAB522C183FDCF
:103D100007C02F933F934F935F936F937F9309C097
:103D200082FD05C04F935F936F937F9302C02F93E3
:103D30003F93DF01982F9F70E5E09E9FE3EAFEE14D
:103D4000E00DF21D09949401A501B401C501BDC0A7
:103D50009601A701B401C501B8C0A9019801B40139
:103D6000C501B3C09A01AB01B401C501AEC0940155
:103D7000A501B601C701B4C09601A701B601C701EC
:103D8000AFC0A9019801B601C701AAC09A01AB0151
:103D9000B601C701A5C0A501B801C9019401ABC016
:103DA000A701B801C9019601A6C0A9019801B801EF
:103DB000CA01A1C0C9019A01AB01B8019CC094011C
:103DC000CB01BA01A501A0C09601CB01BA01A701A0
:103DD0009BC0CB01BA01A901980196C09A01AB0121
:103DE000B901CA0191C0982F93709ABD11240EC0D9
:103DF000982F9695969593709ABD132C19C0982F6D
:103E0000929597709ABD132C110C12C0923041F00C
:103E100060F42F933F934F935F936F937F9313C0FF
:103E20004F935F936F937F930EC02F933F930BC07D
:103E300011FC05C0933039F06F937F9304C0973025
:103E400011F06F937F93DF01837081FD08C080FDC7
:103E500003C0B401C5010AC0B601C70107C080FD97
:103E600003C0B801C90102C0CB01BA01112009F495
:103E700052C011FC88C065C0982F93709ABD112460
:103E800004C0982F93709ABD132C933011F06F9348
:103E90007F9310FC0EC0A82FA295A770AA0FA75F52
:103EA000BB277C916E91872F880F880B982FDF019D
:103EB00048C0A82FA295A770AA0FA75FBB277C9127
:103EC0006E9188279927DF013CC0FD0109954B01C0
:103ED0005C017F916F915F914F913F912F913FC016
:103EE000FD0109956B017C017F916F915F914F916D
:103EF0003F912F9134C0FD0109958B019C017F9169
:103F00006F915F914F912BC0FD010995AB01BC01F1
:103F10003F912F9124C0FD010995EAB5DB01E23004
:103F200041F060F47F916F915F914F913F912F919C
:103F300010C07F916F915F914F910BC03F912F9176
:103F400008C0FD010995EAB5DB01E33011F07F916E
:103F50006F91E1FD10C0E0FD0BC04D015C01430C11
:103F60008EB52EBC521C621C879DF001FF5F099428
:103F70006D017C01F4CFE0FD03C08D019C01EFCF0A
:103F8000AD01BC01ECCFFD010995EAB5CB01E730ED
:103F900011F07F916F91E770EE0FE85FFF2781933B
:103FA0009083DDCF5058BB27AA270ED05AC14BD1E2
:103FB00030F050D120F031F49F3F11F41EF440C195
:103FC0000EF4E095E7FB28C1E92F5CD180F3BA1726
:103FD000620773078407950718F069F496F574C1B2
:103FE0000EF4E0950B2EBA2FA02D0B01B901900114
:103FF0000C01CA01A001FF27591B99F0593F50F449
:10400000503E68F12A16F040A22F232F342F442768
:10401000585FF3CF469537952795A795F040539570
:10402000C9F77EF42F16BA0B620B730B840BBAF030
:104030009150A1F0FF0FBB1F661F771F881FC2F7AB
:104040000EC0BA0F621F731F841F48F487957795BF
:104050006795B795F7959E3F08F0B4CF9395880F75
:1040600008F09927EE0F9795879508950CD0F9C021
:10407000F1D040F0E8D030F021F45F3F19F0CCC02F
:10408000521123C1DDC0FED098F39923C9F3552303
:10409000B1F3951B550BBB27AA276217730784073B
:1040A00038F09F5F5F4F220F331F441FAA1FA9F3F1
:1040B00033D00E2E3AF0E0E830D091505040E695E3
:1040C000001CCAF729D0FE2F27D0660F771F881F44
:1040D000BB1F261737074807AB07B0E809F0BB0B33
:1040E000802DBF01FF2793585F4F2AF09E3F520556
:1040F00068F092C0EAC05F3FECF3983EDCF386952F
:1041000077956795B795F7959F5FC9F7880F921DCB
:104110009695879597F90895E1E0660F771F881FB8
:10412000BB1F621773078407BA0720F0621B730B6B
:10413000840BBA0BEE1F88F7E095089504D06894BD
:10414000B211C3C00895A6D088F09F5790F0B92F40
:104150009927B751A0F0D1F0660F771F881F991FDC
:104160001AF0BA95C9F712C0B13081F0ADD0B1E004
:104170000895AAC0672F782F8827B85F39F0B93F14
:10418000CCF3869577956795B395D9F73EF49095DE
:104190008095709561957F4F8F4F9F4F0895E8945C
:1041A00009C097FB3EF490958095709561957F4F7F
:1041B0008F4F9F4F9923A9F0F92F96E9BB2793952D
:1041C000F695879577956795B795F211F8CFFAF43C
:1041D000BB0F11F460FF1BC06F5F7F4F8F4F9F4F6E
:1041E00016C0882311F096E911C0772321F09EE8CC
:1041F000872F762F05C0662371F096E8862F70E032
:1042000060E02AF09A95660F771F881FDAF7880F0B
:104210009695879597F9089597F99F6780E870E0DC
:1042200060E008959F3F31F0915020F48795779595
:104230006795B795880F921D9695879597F908957C
:104240009FEF80EC089500240A942616270628067E
:104250000906089500240A9422162306240605065A
:104260000895092E0394000C11F4882352F0BB0F1B
:1042700040F4BF2B11F460FF04C06F5F7F4F8F4F7E
:104280009F4F089557FD9058440F551F59F05F3FB9
:1042900071F04795880F97FB991F61F09F3F79F068
:1042A00087950895221623062406551FF2CF4695BA
:1042B000F1DF08C0261627062806991FF1CF86953C
:1042C0007205620508940895E894BB27662777274E
:1042D000CB0197F908950AD0C4CFB5DF28F0BADF33
:1042E00018F0952309F098CFABCFEFCFCBDFA8F331
:1042F000959FD9F3950F50E0551F629FF001729F73
:10430000BB27F00DB11D639FAA27F00DB11DAA1F99
:10431000649F6627B00DA11D661F829F2227B00DE6
:10432000A11D621F739FB00DA11D621F839FA00D71
:10433000611D221F749F3327A00D611D231F849FC1
:10434000600D211D822F762F6A2F9F5750408AF0D3
:10435000E1F088234AF0EE0FFF1FBB1F661F771F97
:10436000881F91505040A9F79E3F520570F054CFDE
:10437000ACCF5F3FECF3983EDCF38695779567957D
:10438000B795F795E7959F5FC1F7FE2B880F921DB4
:104390009695879597F9089511F40EF451CF42CF71
:1043A00079DFD0F39923D9F3CEF39F57550B87FFCD
:1043B00036D00024122CA0E640EA90018058569591
:1043C000979528F4805C660F771F881F20F02617CA
:1043D0003707480730F4621B730B840B20293129FF
:1043E0004A2BA69517940794202531254A2758F77C
:1043F000660F771F881F20F026173707480730F40D
:10440000620B730B840B200D311D411DA09581F7AC
:10441000B901842F9158880F9695879508959150EA
:104420005040660F771F881FD2F708959B01AC019B
:1044300052CF9B01AC0160E070E080E89FE316CEB4
:10444000DF93CF931F930F93FF92EF92DF927B0145
:104450008C01689405C0DA2EEF0148DFFE01E89474
:10446000A5912591359145915591AEF3EF01ACDDC4
:10447000FE019701A801DA9479F7DF90EF90FF90A1
:104480000F911F91CF91DF9108959F938F937F9309
:104490006F93FF93EF939B01AC011DDFEF91FF91B1
:1044A000CFDF2F913F914F915F9115CFF3DE08F44D
:1044B000C7CEE894E0E0BB279F57F0F02AED3FE03D
:1044C00049EC06C0EE0FBB0F661F771F881F28F050
:1044D000B23A62077307840728F0B25A620B730B73
:1044E000840BE3959A9572F7803830F49A95BB0F58
:1044F000661F771F881FD2F7904896CEEF93E0FF94
:1045000006C0A2EA2AED3FE049EC5FEB5DDDA9DEE3
:104510000F90039401FC9058E8E0FAE4B6CF9F9323
:10452000C5DF0F9007FCEE5FE9CFC0DFE395E6CF74
:10453000DF93DD27B92FBF7740E85FE32616270614
:1045400048075B0710F4D92F74DF9F938F937F93F5
:104550006F936CDFE6E2FAE473DF83DE2F913F9125
:104560004F915F91C3DEDD2349F09058A2EA2AED16
:104570003FE049EC5FE3D0785D2726DDDF9171CE27
:10458000E92FE0787FDE08F427C0092E052A91F193
:10459000261737074807590738F00E2E07F8E02589
:1045A00069F0E025E0640AC0EF6307F8009407FAB9
:1045B000DB01B9019D01DC01CA01AD01EF9365DDAD
:1045C00050DEB6DF5F91552331F02BED3FE049E43B
:1045D00050FD49ECE8CC089536DE58F080E891E0D3
:1045E00009F49EEF37DE28F040E851E089F65EEFEF
:1045F000CFCF26CE69CEDF93D92F58DFE695D7955A
:104600002AED3FE049E45FE3B33A620773078407AA
:104610009507D7952AF0A2EA49EC9068D5DC21DE0F
:10462000E3E5FAE432DFDD0F0BF003DFDD0F0BF41F
:104630009058DF910895FA01DC01AA0FBB1F9B017E
:10464000AC01BF5728F422273327442750781FC0D6
:10465000B75188F4AB2F0024469537952795021C57
:10466000A395D2F3002069F0220F331F441FB395A6
:10467000DAF30DD097CC61307205A0E88A07B9460D
:1046800030F49B01AC016627772788279078309615
:1046900021F020833183428353830895FBDD08F4A6
:1046A000C1CD992309F4BECD940F521D0BF4B4CDA6
:1046B000915050409CF061F0882332F0660F771FD4
:1046C000881F91505040C1F79E3F52050CF0A4CD79
:1046D000880F921D9695879597F908955F3FA9F4E5
:1046E000983E98F0BB27869577956795B79508F41F
:1046F000B1609395C1F7BB0F58F711F460FFE8CF95
:104700006F5F7F4F8F4F9F4FE3CFDFCDC3DD28F427
:1047100011F416F081CD94CDD7CD963810F0E6F394
:104720007BCD07F80F92E8942BE33AEA48EB5FE77A
:10473000DFDD0F920F920F924DB75EB70F927BDFC6
:10474000E6E7FAE47DDE4F915F91EF91FF91E59509
:10475000EE1FFF1F49F0FE57E0684427EE0F441F8D
:10476000FA95E1F74195550B99DF0F9007FC0895F5
:1047700060CE90DD28F40EF055CD62CD68944CCD1E
:104780009923E1F3D6F3DF93CF93C92FDD27882355
:104790002AF02197660F771F881FDAF720E030E0B4
:1047A00040E85FEB9FE3803C20F4FDDBEEE9FAE4B8
:1047B00005C08F772196F7DBEBECFAE441DEBF937F
:1047C0007F936F93BE01EC016F577040771F880B8A
:1047D000990B7795E6DC2F913F91AF91AE01CF9188
:1047E000DF91BB27F1DB3DCDC4DF28E132E741E3B8
:1047F0005FE371CDBEDF2BE930E24AE95EE36BCDCA
:10480000FA01EE0FFF1F30962205320599F162156D
:10481000720561F48038BFE39B0749F168949038D2
:10482000820561F08038BFEF9B0741F0992342F584
:10483000FF3FE2053205220511F1E8940894E7955F
:10484000D901AA2329F4AB2FBE2FF85FD0F310C0F3
:10485000FF5F70F4A695E0F7F73950F019F0FF3AD2
:1048600038F49F779F930CD00F9007FC90580895D1
:104870003EF0E6CC60E070E080E89FE308954FE70B
:104880009F775F934F933F932F93AEDF2F913F918D
:104890004F915F9120DD3ACF9F775F77F3DC08F48B
:1048A0005BC0992309F455C0552309F454C0FF2770
:1048B000951760F4E52FE91BED3008F04AC05E3B28
:1048C00010F0F1E41DC09034E8F40BC0E92FE51BB3
:1048D000ED3008F040C09E3B10F0F1E411C05034C0
:1048E00088F4F9EA88232AF09A95660F771F881FC3
:1048F000DAF744232AF05A95220F331F441FDAF7C0
:104900009F1B5F1BFF931F930F93FF92EF92790101
:104910008A01BB27AB2F9B01AC01EADC9701A80100
:10492000BF937B018C01AA27BA2FB901CA01E0DC31
:10493000AF919701A801EF90FF900F911F9144DB79
:1049400090DC2EDD4F9140FF0895552747FD50958F
:10495000A5CEB901CA0166CC76DC19F07BDC09F082
:104960006FCC5ACCE92F8EDC08F446C0552309F4ED
:1049700049C0E7FB6217730784079507B0F109F494
:1049800042C0E92FFF2788232AF03197660F771F4F
:10499000881FDAF7952F5527442332F09150504065
:1049A000220F331F441FD2F7BB27E91BF50B621BF5
:1049B000730B840BB20939F122F4620F731F841F49
:1049C000B21D31972AF0660F771F881FBB1FEFCFEC
:1049D000915050405AF041F0882332F0660F771F13
:1049E000881F91505040C1F793951CCC86957795C0
:1049F00067959F5FD9F7F8CF26DC20F019F02ADC05
:104A000008F0B7CF1DCC61CC05A84CCDB2D44EB9BF
:104A10003836A9020C50B9918688083CA6AAAA2A61
:104A2000BE000000803F084AD73B3BCE016E84BCED
:104A3000BFFDC12F3D6C74319ABD56833DDA3D00F8
:104A4000C77F11BED9E4BB4C3E916BAAAABE000041
:104A500000803F0664EC1B3C04BC163E3BE5B93CC1
:104A6000C93C37C29E5A3D660498083EEA69AAAA24
:104A70003E000000803F07634236B79BD8A71A3933
:104A8000685618AEBAAB558C1D3CB7CC5763BD6D9C
:104A9000EDFD753EF6177231BF000000803F089CA7
:104AA0001A22BDA09220003EBECCD558BE94DEA0F6
:104AB000903EA0A54BB8BE20A932F63E802AAA3867
:104AC000BF223BAAB83F0000000000083C5BF7BED5
:104AD000DAD7AA713D8C77868CBE2EEE93913E7A02
:104AE0009FCEB8BE102437F63EFA3CAA38BF283B0A
:104AF000AAB83F0000000000F801D901CA01082E41
:104B0000092AE9F0EA17FB07D1F0A8F00F010A1A09
:104B10001B0A0816190678F4A80FB91FE80FF91F29
:104B20000E9002920197E1F70AC0F801D901CA017B
:104B3000182E192A21F00D9001920197E1F70C949B
:104B4000D20602C00000000000000901B02DB1290A
:104B500051F0430C521C621CF801CA01A62F0E949E
:104B6000C10A0C9437090C94D206F801CA01022E2E
:104B7000182E192A19F001920197E9F70C94D20620
:00000001FF
