:100000000C9475000C9456000C9456000C945600F9
:100010000C9456000C9456000C9456000C94560008
:100020000C9456000C9456000C9456000C945600F8
:100030000C9456000C9456000C9456000C945600E8
:100040000C9456000C9456000C9456000C945600D8
:100050000C9456000C9457000C9456000C945600C7
:100060000C9456000C9456000C9456000C945600B8
:100070000C9456000C9456000C9456000C945600A8
:100080000C9456000C9456000C9456000C94560098
:100090000C9456000C9456000C9456000C94560088
:1000A0000C9456000C9456000C945600FFCF0F92FF
:1000B0000FB60F920090070A03940092070A89F482
:1000C0000090080A03940092080A59F40090090A63
:1000D00003940092090A29F400900A0A03940092FA
:1000E0000A0A0F900FBE0F9018950C944F1600003F
:1000F0000000000000000000000000000000000000
:1001000000000000000000000000000000000000EF
:1001100000000000000000000000000000000000DF
:1001200000000000000000000000000000000000CF
:1001300000000000000000000000000000000000BF
:1001400000000000000000000000000000000000AF
:10015000000000000000000000000000000000009F
:10016000000000000000000000000000000000008F
:10017000000000000000000000000000000000007F
:10018000000000000000000000000000000000006F
:10019000000000000000000000000000000000005F
:1001A000000000000000000000000000000000004F
:1001B000000000000000000000000000000000003F
:1001C000000000000000000000000000000000002F
:1001D000000000000000000000000000000000001F
:1001E000000000000000000000000000000000000F
:1001F00000000000000000000000000000000000FF
:1002000088015FC40000000089015BC40000000099
:100210008A0157C4000000008B0153C40000000095
:1002200098014FC40000000099014BC40000000079
:100230009A0147C4000000009B0143C40000000075
:10024000A8013FC400000000A9013BC40000000059
:10025000AA0137C400000000AB0133C40000000055
:10026000B8012FC400000000B9012BC40000000039
:10027000BA0127C400000000BB0123C40000000035
:10028000000F111F1FC40000020F131F1BC400002A
:10029000040F151F17C40000060F171F13C400001A
:1002A000200F311F0FC40000220F331F0BC40000AA
:1002B000240F351F07C40000260F371F03C400009A
:1002C000400F511FFFC30000420F531FFBC300002C
:1002D000440F551FF7C30000460F571FF3C300001C
:1002E000600F711FEFC30000620F731FEBC30000AC
:1002F000640F751FE7C30000660F771FE3C300009C
:10030000001B110BDFC30000021B130BDBC300003B
:10031000041B150BD7C30000061B170BD3C300002B
:10032000201B310BCFC30000221B330BCBC30000BB
:10033000241B350BC7C30000261B370BC3C30000AB
:10034000401B510BBFC30000421B530BBBC300003B
:10035000441B550BB7C30000461B570BB3C300002B
:10036000601B710BAFC30000621B730BABC30000BB
:10037000641B750BA7C30000661B770BA3C30000AB
:10038000001711078FB792C3021713078FB78EC3D9
:10039000041715078FB78AC3061717078FB786C3C9
:1003A000201731078FB782C3221733078FB77EC359
:1003B000241735078FB77AC3261737078FB776C349
:1003C000401751078FB772C3421753078FB76EC3D9
:1003D000441755078FB76AC3461757078FB766C3C9
:1003E000601771078FB762C3621773078FB75EC359
:1003F000641775078FB75AC3661777078FB756C349
:10040000D8010C9111276BC3D9010C91112767C337
:10041000DA010C91112763C3DB010C9111275FC333
:10042000D8012C9133275BC3D9012C91332757C3B3
:10043000DA012C91332753C3DB012C9133274FC3AF
:10044000D8014C9155274BC3D9014C91552747C32F
:10045000DA014C91552743C3DB014C9155273FC32B
:10046000D8016C9177273BC3D9016C91772737C3AB
:10047000DA016C91772733C3DB016C9177272FC3A7
:10048000D8010C932BC30000D8012C9327C3000084
:10049000D8014C9323C30000D8016C931FC3000004
:1004A000D9010C931BC30000D9012C9317C3000082
:1004B000D9014C9313C30000D9016C930FC3000002
:1004C000DA010C930BC30000DA012C9307C3000080
:1004D000DA014C9303C30000DA016C93FFC2000001
:1004E000DB010C93FBC20000DB012C93F7C2000080
:1004F000DB014C93F3C20000DB016C93EFC2000000
:10050000D8010D911C91ECC2D9010D911C91E8C24A
:10051000DA010D911C91E4C2DB010D911C91E0C246
:10052000D8012D913C91DCC2D9012D913C91D8C2CA
:10053000DA012D913C91D4C2DB012D913C91D0C2C6
:10054000D8014D915C91CCC2D9014D915C91C8C24A
:10055000DA014D915C91C4C2DB014D915C91C0C246
:10056000D8016D917C91BCC2D9016D917C91B8C2CA
:10057000DA016D917C91B4C2DB016D917C91B0C2C6
:10058000D8010D931C93ACC2D8012D933C93A8C203
:10059000D8014D935C93A4C2D8016D937C93A0C203
:1005A000D9010D931C939CC2D9012D933C9398C201
:1005B000D9014D935C9394C2D9016D937C9390C201
:1005C000DA010D931C938CC2DA012D933C9388C2FF
:1005D000DA014D935C9384C2DA016D937C9380C2FF
:1005E000DB010D931C937CC2DB012D933C9378C2FD
:1005F000DB014D935C9374C2DB016D937C9370C2FD
:10060000002311235FC20000022313235BC20000FA
:100610000423152357C200000623172353C20000EA
:10062000202331234FC20000222333234BC200007A
:100630002423352347C200002623372343C200006A
:10064000402351233FC20000422353233BC20000FA
:100650004423552337C200004623572333C20000EA
:10066000602371232FC20000622373232BC200007A
:100670006423752327C200006623772323C200006A
:10068000002B112B1FC20000022B132B1BC20000DA
:10069000042B152B17C20000062B172B13C20000CA
:1006A000202B312B0FC20000222B332B0BC200005A
:1006B000242B352B07C20000262B372B03C200004A
:1006C000402B512BFFC10000422B532BFBC10000DC
:1006D000442B552BF7C10000462B572BF3C10000CC
:1006E000602B712BEFC10000622B732BEBC100005C
:1006F000642B752BE7C10000662B772BE3C100004C
:1007000000271127DFC1000002271327DBC10000EB
:1007100004271527D7C1000006271727D3C10000DB
:1007200020273127CFC1000022273327CBC100006B
:1007300024273527C7C1000026273727C3C100005B
:1007400040275127BFC1000042275327BBC10000EB
:1007500044275527B7C1000046275727B3C10000DB
:1007600060277127AFC1000062277327ABC100006B
:1007700064277527A7C1000066277727A3C100005B
:100780009A928A92ACC10000BA92AA92A8C10000C3
:10079000DA92CA92A4C10000FA92EA92A0C10000C3
:1007A0001A930A939CC100003A932A9398C10000BF
:1007B0005A934A9394C100007A936A9390C10000BF
:1007C000899099908CC10000A990B99088C10000CF
:1007D000C990D99084C10000E990F99080C10000CF
:1007E000099119917CC100002991399178C10000CB
:1007F0004991599174C100006991799170C10000CB
:10080000E1EAF5E076C10000E4EAF5E072C100003B
:10081000E7EAF5E06EC10000EAEAF5E06AC100002F
:10082000EDEAF5E075C10000E0EBF5E071C1000014
:10083000E3EBF5E06DC10000E6EBF5E069C1000017
:10084000E9EBF5E05CC10000ECEBF5E058C100001D
:10085000EFEBF5E054C10000E2ECF5E050C1000020
:10086000E5ECF5E04CC10000E9ECF5E048C1000022
:10087000EDECF5E044C10000E1EDF5E040C1000021
:10088000430C521C621C91C1430C521C621C95C14A
:10089000430C521C621C99C1430C521C621C9DC12A
:1008A000430C521C621CADC1430C521C621CB5C1EE
:1008B000430C521C621CC0C1430C521C621CFCC184
:1008C00049C300000000000045C300000000000014
:1008D00041C30000000000003DC300000000000014
:1008E00039C300000000000035C300000000000014
:1008F00031C30000000000002DC300000000000014
:10090000430C521C621CA5C1430C521C621CA1C1A9
:10091000000000000000B7C1470C521C621CB3C1AC
:1009200024016A2CC895EEC226016E2CC895EAC235
:100930002801622EC895E6C22A01662EC895E2C239
:10094000C401AA2DDAC20000C601AE2DD6C2000035
:10095000C801A22FD2C20000CA01A62FCEC2000039
:10096000F9C2000000000000F5C200000000000015
:10097000F1C2000000000000499059906990C2C285
:100980009EE6E8ECF7E063C090E9E6E3F8E061C0DA
:1009900090E6E6E5F9E05FC090E8E6E7FAE05BC0E4
:1009A00098EBE1E1FCE057C090E6E9E3FEE055C0DA
:1009B00090E5E9EBFFE051C090E9E9EFF0E14FC0CD
:1009C00090E3E1EEF3E14BC01BC00000000000002B
:1009D00090E3E1EDF4E13DC0B2E0E1E3F5E150C0C8
:1009E000B1E0E1E3F5E14CC0B0E1E1E3F5E148C09D
:1009F00090E4E1EBF5E12DC0ADC200000000000085
:100A0000430C521C621CF8942EBC8EB57894A82F0F
:100A1000A295AE70A85FB22DE82FE695EE70E85F64
:100A2000F22D86950D901C909191B08180FD0AC0A9
:100A300018F4092A1B2A02C009221B22B22D1C927B
:100A40000E929CC218F009261B26F8CF84C2A1E0A2
:100A500008C0A2E006C0A3E004C0A4E002C0A5E074
:100A600000C0430C521C621CBFB7F8948EB52EBC5C
:100A7000BFBF891720F48A9FE00DF11D09946BC256
:100A8000430C521C621C8FB7F894AEB52EBC8FBFBE
:100A9000A03858F49EB3A6FD90959B2329F0AF7320
:100AA000AA0FEA0FF21D099458C2E9CF00008EBBCD
:100AB0008EB52EBC430C521C621C879DF001FF5F5B
:100AC00009940000430CF8942EBC8EB57894521C07
:100AD000621C879DF001FF5F0994000001C00000C7
:100AE0008EB52EBC430C521C621C879DF001FF5F2B
:100AF0000994430C521C621C8EB52EBC0994430C05
:100B0000521C621C8EB52EBC992787FD90950994C6
:100B1000430C521C621C8EB52EBC430C521C621C32
:100B200013D2F8942EBC9EB57894099400C000C0EE
:100B3000C895D6CFC895D2CF00C000C0D1CF00C0D5
:100B4000B6CF082F1127F2CF282F3327EFCF482F0A
:100B50005527ECCF682F7727E9CF082F192FEACF39
:100B6000282F392FE7CF482F592FE4CF682F792F1F
:100B7000E1CF080F191FE0CF280F391FDDCF480F35
:100B8000591FDACF680F791FD7CF081719078FB70A
:100B9000D6CF281739078FB7D2CF481759078FB745
:100BA000CECF681779078FB7CACF0000F8942EBC54
:100BB0008EB57894F19B19C01AC00000F8942EBC31
:100BC0008EB57894F19911C012C00000F8942EBC33
:100BD0008EB57894F09B09C00AC00000F8942EBC32
:100BE0008EB57894F49B01C002C0B2D16BCF992727
:100BF00087FD9095430C521C621C480E591E691EBD
:100C000081C100C0AEB59927A7FD9095430C521C39
:100C1000621C4A0E591E691E75C100C0AEB59927E7
:100C2000A7FD9095430C521C621C6A925A924A92FC
:100C30004A0E591E691E66C10000F8942EBC8EB57E
:100C40007894992787FD9095C80FD91F00C000C0E0
:100C500038CF430CF8942EBCAEB57894521C621C6D
:100C6000430C521C621C80FF0C9441066A925A92FB
:100C70004A92BEB59927B7FD90954A0E5B1E691E34
:100C800041C1C895F6CFB82FF8942EBC8EB5789494
:100C9000B0FF0C945A066A925A924A9200C000C061
:100CA000F8942EBC9EB578944DD1AEB5482E592EF1
:100CB0006A2E28C14DD1F4CF0000F8942EBC8EB519
:100CC0007894E6E6F6E0E80FF21D0994FFC001C152
:100CD00002C108C141C140C13FC13EC13DC13CC18B
:100CE0003BC13AC139C138C137C136C135C134C140
:100CF00033C132C131C130C12FC12EC12DC12CC170
:100D00002BC12AC129C128C127C126C125C124C19F
:100D100023C122C121C120C11FC11EC11DC11CC1CF
:100D20001BC11AC119C118C117C116C115C114C1FF
:100D300013C112C111C110C10FC10EC10DC10CC12F
:100D40000BC10AC109C108C107C106C105C104C15F
:100D500003C102C101C100C1FFC0FEC0FDC0FCC093
:100D6000FBC0FAC0F9C0F8C0F7C0F6C0F5C0F4C0C7
:100D7000F3C0F2C0F1C0F0C0EFC0EEC0EDC0ECC0F7
:100D8000EBC0EAC0E9C0E8C0E7C0E6C0E5C0E4C027
:100D9000E3C0E2C0E1C0E0C0DFC0DEC0DDC0DCC057
:100DA000DBC0DAC0D9C0D8C0D7C0D6C0D5C0D4C087
:100DB000D3C0D2C0D1C0D0C0CFC0CEC0CDC0CCC0B7
:100DC000CBC0CAC0C9C0C8C0C7C0C6C0C5C0C4C0E7
:100DD000C3C0C2C0C1C0C0C0BFC0BEC0BDC0BCC017
:100DE000BBC0BAC0B9C0B8C0B7C0B6C0B5C0B4C047
:100DF000B3C0B2C0B1C0B0C0AFC0AEC0ADC0ACC077
:100E0000ABC0AAC0A9C0A8C0A7C0A6C0A5C0A4C0A6
:100E1000A3C0A2C0A1C0A0C09FC09EC09DC09CC0D6
:100E20009BC09AC099C098C097C096C095C094C006
:100E300093C092C091C090C08FC08EC08DC08CC036
:100E40008BC08AC089C088C087C086C085C084C066
:100E500083C082C081C080C07FC07EC07DC07CC096
:100E60007BC07AC079C078C077C076C075C074C0C6
:100E700073C072C071C070C06FC06EC06DC06CC0F6
:100E80006BC06AC069C068C067C066C065C064C026
:100E900063C062C061C060C05FC05EC05DC05CC056
:100EA0005BC05AC059C058C057C056C055C054C086
:100EB00053C052C051C050C04FC04EC04DC04CC0B6
:100EC0004BC04AC049C048C047C046C00093F1006B
:100ED00005CE989502CEF8940091070A1091080A61
:100EE0007894FECDF8940091070A1091080A209199
:100EF000090A30910A0A7894F3CD6A925A924A927A
:100F00002C016A2E599AE3E05998EEBDA091000A8F
:100F1000A50DB091010AB61D19D0BEBD11D0AEBD50
:100F20000FD04EBC0ED02EBC0DD0430CF8942EBC6E
:100F30008EB57894521C621C879DF001FF5F099466
:100F4000000000C00000000000000000000000C021
:100F50000895FFCFFFCFFFCFFFCF000001C00000FB
:100F6000430CF8942EBC8EB57894521C621C879D5D
:100F7000F001FF5F099402C08EBB00008EB52EBC4D
:100F8000430C521C621C879DF001FF5F0994E1CF66
:100F9000FECFFDCFFCCFFBCFFACFF9CFF8CFF7CF05
:100FA000F6CFF5CFF4CFF3CFF2CFF1CFF0CFEFCF35
:100FB000EECFEDCFECCFEBCFEACFE9CFE8CFE7CF65
:100FC000E6CFE5CFE4CFE3CFE2CFE1CFE0CFDFCF95
:100FD000DECFDDCFDCCFDBCFDACFD9CFD8CFD7CFC5
:100FE000D6CFD5CFD4CFD3CFD2CFD1CFD0CFCFCFF5
:100FF000CECFCDCFCCCFCBCFCACFC9CFC8CFC7CF25
:10100000C6CFC5CFC4CFC3CFC2CFC1CFC0CFBFCF54
:10101000BECFBDCFBCCFBBCFBACFB9CFB8CFB7CF84
:10102000B6CFB5CFB4CFB3CFB2CFB1CFB0CFAFCFB4
:10103000AECFADCFACCFABCFAACFA9CFA8CFA7CFE4
:10104000A6CFA5CFA4CFA3CFA2CFA1CFA0CF9FCF14
:101050009ECF9DCF9CCF9BCF9ACF99CF98CF97CF44
:1010600096CF95CF94CF93CF92CF91CF440176CFA7
:10107000450174CF460172CF470170CF48016ECF52
:1010800049016CCF4A016ACF4B0168CF540166CF4A
:10109000550164CF560162CF570160CF58015ECF32
:1010A00059015CCF5A015ACF5B0158CF640156CF2A
:1010B000650154CF660152CF670150CF68014ECF12
:1010C00069014CCF6A014ACF6B0148CF740146CF0A
:1010D000750144CF760142CF770140CF78013ECFF2
:1010E00079013CCF7A013ACF7B0138CF840136CFEA
:1010F000850134CF860132CF870130CF94012ECFC6
:1011000095012CCF96012ACF970128CFA40126CF95
:10111000A50124CFA60122CFA70120CFB4011ECF65
:10112000B5011CCFB6011ACFB70118CF088317CF6E
:10113000288315CF488313CF688311CF09830FCF3E
:1011400029830DCF49830BCF698309CF0A8307CF4A
:101150002A8305CF4A8303CF6A8301CF0B83FFCE57
:101160002B83FDCE4B83FBCE6B83F9CE0C83F7CE66
:101170002C83F5CE4C83F3CE6C83F1CE0D83EFCE72
:101180002D83EDCE4D83EBCE6D83E9CE0E83E7CE7E
:101190002E83E5CE4E83E3CE6E83E1CE0F83DFCE8A
:1011A0002F83DDCE4F83DBCE6F83D9CE0887D7CE9A
:1011B0002887D5CE4887D3CE6887D1CE0987CFCEB2
:1011C0002987CDCE4987CBCE6987C9CE0A87C7CEBE
:1011D0002A87C5CE4A87C3CE6A87C1CE0B87BFCECA
:1011E0002B87BDCE4B87BBCE6B87B9CE0C87B7CED6
:1011F0002C87B5CE4C87B3CE6C87B1CE0D87AFCEE2
:101200002D87ADCE4D87ABCE6D87A9CE0E87A7CEED
:101210002E87A5CE4E87A3CE6E87A1CE0F879FCEF9
:101220002F879DCE4F879BCE6F8799CE992496CEE0
:10123000BB2494CEDD2492CEFF2490CE11278ECEF7
:1012400033278CCE55278ACE772788CE829486CEB8
:10125000A29484CEC29482CEE29480CE02957ECEB9
:1012600022957CCE42957ACE629578CE4E0176CE8E
:101270005E0174CE6E0172CE7E0170CE8E016ECE96
:101280009E016CCEAE016ACEBE0168CEE40166CE90
:10129000E50164CEE60162CEE70160CEE8015ECEF4
:1012A000E9015CCEEA015ACEEB0158CE880C991CBC
:1012B00056CE8A0C9B1C53CE8C0C9D1C50CE8E0C93
:1012C0009F1C4DCE800E911E4ACE820E931E47CE9D
:1012D000840E951E44CE860E971E41CEA80CB91CD6
:1012E0003ECEAA0CBB1C3BCEAC0CBD1C38CEAE0C0B
:1012F000BF1C35CEA00EB11E32CEA20EB31E2FCE15
:10130000A40EB51E2CCEA60EB71E29CEC80CD91C15
:1013100026CECA0CDB1C23CECC0CDD1C20CECE0C82
:10132000DF1C1DCEC00ED11E1ACEC20ED31E17CE8C
:10133000C40ED51E14CEC60ED71E11CEE80CF91C55
:101340000ECEEA0CFB1C0BCEEC0CFD1C08CEEE0CFA
:10135000FF1C05CEE00EF11E02CEE20EF31EFFCD05
:10136000E40EF51EFCCDE60EF71EF9CD080D191D95
:10137000F6CD0A0D1B1DF3CD0C0D1D1DF0CD0E0D70
:101380001F1DEDCD280D391DEACD2A0D3B1DE7CDE2
:101390002C0D3D1DE4CD2E0D3F1DE1CD480D591DF9
:1013A000DECD4A0D5B1DDBCD4C0D5D1DD8CD4E0D48
:1013B0005F1DD5CD680D791DD2CD6A0D7B1DCFCDBA
:1013C0006C0D7D1DCCCD6E0D7F1DC9CD8818990883
:1013D000C6CD8A189B08C3CD8C189D08C0CD8E1829
:1013E0009F08BDCD801A910ABACD821A930AB7CD53
:1013F000841A950AB4CD861A970AB1CDA818B908EF
:10140000AECDAA18BB08ABCDAC18BD08A8CDAE18A0
:10141000BF08A5CDA01AB10AA2CDA21AB30A9FCDCA
:10142000A41AB50A9CCDA61AB70A99CDC818D9082E
:1014300096CDCA18DB0893CDCC18DD0890CDCE1818
:10144000DF088DCDC01AD10A8ACDC21AD30A87CD42
:10145000C41AD50A84CDC61AD70A81CDE818F9086E
:101460007ECDEA18FB087BCDEC18FD0878CDEE1890
:10147000FF0875CDE01AF10A72CDE21AF30A6FCDBA
:10148000E41AF50A6CCDE61AF70A69CD08191909AC
:1014900066CD0A191B0963CD0C191D0960CD0E1903
:1014A0001F095DCD281939095ACD2A193B0957CD95
:1014B0002C193D0954CD2E193F0951CD4819590910
:1014C0004ECD4A195B094BCD4C195D0948CD4E19DB
:1014D0005F0945CD6819790942CD6A197B093FCD6D
:1014E0006C197D093CCD6E197F0939CDD8018C92DC
:1014F00042CDD801AC923FCDD801CC923CCDD801A1
:10150000EC9239CDD9018C9236CDD901AC9233CD44
:10151000D901CC9230CDD901EC922DCDDA018C924B
:101520002ACDDA01AC9227CDDA01CC9224CDDA01B2
:10153000EC9221CDDB018C921ECDDB01AC921BCD58
:10154000DB01CC9218CDDB01EC9215CD009F800120
:1015500012CD029F80010FCD049F80010CCD069F0C
:10156000800109CD209F900106CD229F900103CDDF
:10157000249F900100CD269F9001FDCC409FA001AB
:10158000FACC429FA001F7CC449FA001F4CC469F27
:10159000A001F1CC609FB001EECC629FB001EBCC1A
:1015A000649FB001E8CC669FB001E5CC00028001E9
:1015B000E2CC02028001DFCC04028001DCCC060216
:1015C0008001D9CC20029001D6CC22029001D3CC4C
:1015D00024029001D0CC26029001CDCC4002A00183
:1015E000CACC4202A001C7CC4402A001C4CC46022E
:1015F000A001C1CC6002B001BECC6202B001BBCC84
:101600006402B001B8CC6602B001B5CC0003800121
:10161000B2CC02038001AFCC04038001ACCC060342
:101620008001A9CC20039001A6CC22039001A3CC79
:1016300024039001A0CC260390019DCC4003A0017F
:101640009ACC4203A00197CC4403A00194CC46035A
:10165000A00191CC6003B0018ECC6203B0018BCCB1
:101660006403B00188CC6603B00185CC08811127E2
:1016700082CC288133277FCC488155277CCC688158
:10168000772779CC0981112776CC2981332773CC30
:101690004981552770CC698177276DCC0A81112744
:1016A0006ACC2A81332767CC4A81552764CC6A816A
:1016B000772761CC0B8111275ECC2B8133275BCC44
:1016C0004B81552758CC6B81772755CC0C8111273E
:1016D00052CC2C8133274FCC4C8155274CCC6C817C
:1016E000772749CC0D81112746CC2D81332743CC58
:1016F0004D81552740CC6D8177273DCC0E81112738
:101700003ACC2E81332737CC4E81552734CC6E818D
:10171000772731CC0F8111272ECC2F8133272BCC6B
:101720004F81552728CC6F81772725CC0885112735
:1017300022CC288533271FCC488555271CCC6885AB
:10174000772719CC0985112716CC2985332713CC87
:101750004985552710CC698577270DCC0A85112737
:101760000ACC2A85332707CC4A85552704CC6A85BD
:10177000772701CC0B851127FECB2B853327FBCB9D
:101780004B855527F8CB6B857727F5CB0C85112733
:10179000F2CB2C853327EFCB4C855527ECCB6C85D2
:1017A0007727E9CB0D851127E6CB2D853327E3CBB2
:1017B0004D855527E0CB6D857727DDCB0E8511272D
:1017C000DACB2E853327D7CB4E855527D4CB6E85E4
:1017D0007727D1CB0F851127CECB2F853327CBCBC6
:1017E0004F855527C8CB6F857727C5CB0000430CA5
:1017F000F8942EBC8EB57894521C621C879DF00123
:10180000FF5F09948EBB02C08EBB00008EB52EBC5C
:10181000430C521C621C879DF001FF5F0994B7CBFB
:101820009ACB08811981F1CF28813981EECF488187
:101830005981EBCF68817981E8CF09811A81E5CFA1
:1018400029813A81E2CF49815A81DFCF69817A814A
:10185000DCCF0A811B81D9CF2A813B81D6CF4A8137
:101860005B81D3CF6A817B81D0CF0B811C81CDCFAF
:101870002B813C81CACF4B815C81C7CF6B817C813E
:10188000C4CF0C811D81C1CF2C813D81BECF4C8145
:101890005D81BBCF6C817D81B8CF0D811E81B5CFBD
:1018A0002D813E81B2CF4D815E81AFCF6D817E8132
:1018B000ACCF0E811F81A9CF2E813F81A6CF4E8153
:1018C0005F81A3CF6E817F81A0CF0F8118859DCFCF
:1018D0002F8138859ACF4F81588597CF6F81788532
:1018E00094CF0885198591CF288539858ECF488575
:1018F00059858BCF6885798588CF09851A8585CFED
:1019000029853A8582CF49855A857FCF69857A8531
:101910007CCF0A851B8579CF2A853B8576CF4A8582
:101920005B8573CF6A857B8570CF0B851C856DCFFA
:101930002B853C856ACF4B855C8567CF6B857C8525
:1019400064CF0C851D8561CF2C853D855ECF4C8590
:101950005D855BCF6C857D8558CF0D851E8555CF08
:101960002D853E8552CF4D855E854FCF6D857E8519
:101970004CCF0E851F8549CF2E853F8546CF4E859E
:101980005F8543CF6E857F8540CF0F8518893DCF1A
:101990002F8538893ACF4F85588937CF6F85788919
:1019A00034CF0883198331CF288339832ECF4883DE
:1019B00059832BCF6883798328CF09831A8325CF56
:1019C00029833A8322CF49835A831FCF69837A833D
:1019D0001CCF0A831B8319CF2A833B8316CF4A83EC
:1019E0005B8313CF6A837B8310CF0B831C830DCF64
:1019F0002B833C830ACF4B835C8307CF6B837C8331
:101A000004CF0C831D8301CF2C833D83FECE4C83FA
:101A10005D83FBCE6C837D83F8CE0D831E83F5CE74
:101A20002D833E83F2CE4D835E83EFCE6D837E8326
:101A3000ECCE0E831F83E9CE2E833F83E6CE4E830A
:101A40005F83E3CE6E837F83E0CE0F831887DDCE86
:101A50002F833887DACE4F835887D7CE6F83788726
:101A6000D4CE08871987D1CE28873987CECE48872C
:101A70005987CBCE68877987C8CE09871A87C5CEA4
:101A800029873A87C2CE49875A87BFCE69877A8726
:101A9000BCCE0A871B87B9CE2A873B87B6CE4A873A
:101AA0005B87B3CE6A877B87B0CE0B871C87ADCEB2
:101AB0002B873C87AACE4B875C87A7CE6B877C871A
:101AC000A4CE0C871D87A1CE2C873D879ECE4C8748
:101AD0005D879BCE6C877D8798CE0D871E8795CEC0
:101AE0002D873E8792CE4D875E878FCE6D877E870E
:101AF0008CCE0E871F8789CE2E873F8786CE4E8756
:101B00005F8783CE6E877F8780CE0F87188B7DCED1
:101B10002F87388B7ACE4F87588B77CE6F87788B0D
:101B200074CE880C991C62CEAA0CBB1C5FCECC0C68
:101B3000DD1C5CCEEE0CFF1C59CE000F111F56CEE3
:101B4000220F331F53CE440F551F50CE660F771F01
:101B50004DCE969487944ACEB694A79447CED69409
:101B6000C79444CEF694E79441CE169507953ECEA1
:101B7000369527953BCE5695479538CE7695679501
:101B800035CE9594879432CEB594A7942FCED59424
:101B9000C7942CCEF594E79429CE1595079526CEBB
:101BA0003595279523CE5595479520CE7595679504
:101BB0001DCE809490941ACEA094B09417CEC09469
:101BC000D09414CEE094F09411CE009510950ECEE2
:101BD000209530950BCE4095509508CE6095709528
:101BE00005CE82148FB70ECEA2148FB70BCEC214BF
:101BF0008FB708CEE2148FB705CE02158FB702CE8D
:101C000022158FB7FFCD42158FB7FCCD62158FB768
:101C1000F9CD830C921CEACDA30CB21CE7CDC30C0A
:101C2000D21CE4CDE30CF21CE1CD030D121DDECD80
:101C3000230D321DDBCD430D521DD8CD630D721D1A
:101C4000D5CD83189208D2CDA318B208CFCDC31832
:101C5000D208CCCDE318F208C9CD03191209C6CDBC
:101C600023193209C3CD43195209C0CD6319720932
:101C7000BDCD881499048FB7C7CD8A149B048FB744
:101C8000C3CD8C149D048FB7BFCD8E149F048FB726
:101C9000BBCD801691068FB7B7CD821693068FB74E
:101CA000B3CD841695068FB7AFCD861697068FB73E
:101CB000ABCDA814B9048FB7A7CDAA14BB048FB7B6
:101CC000A3CDAC14BD048FB79FCDAE14BF048FB7A6
:101CD0009BCDA016B1068FB797CDA216B3068FB7CE
:101CE00093CDA416B5068FB78FCDA616B7068FB7BE
:101CF0008BCDC814D9048FB787CDCA14DB048FB736
:101D000083CDCC14DD048FB77FCDCE14DF048FB725
:101D10007BCDC016D1068FB777CDC216D3068FB74D
:101D200073CDC416D5068FB76FCDC616D7068FB73D
:101D30006BCDE814F9048FB767CDEA14FB048FB7B5
:101D400063CDEC14FD048FB75FCDEE14FF048FB7A5
:101D50005BCDE016F1068FB757CDE216F3068FB7CD
:101D600053CDE416F5068FB74FCDE616F7068FB7BD
:101D70004BCD081519058FB747CD0A151B058FB731
:101D800043CD0C151D058FB73FCD0E151F058FB721
:101D90003BCD281539058FB737CD2A153B058FB7B1
:101DA00033CD2C153D058FB72FCD2E153F058FB7A1
:101DB0002BCD481559058FB727CD4A155B058FB731
:101DC00023CD4C155D058FB71FCD4E155F058FB721
:101DD0001BCD681579058FB717CD6A157B058FB7B1
:101DE00013CD6C157D058FB70FCD6E157F058FB7A1
:101DF0000BCDD8018C90992408CDD801AC90BB2490
:101E000004CDD801CC90DD2400CDD801EC90FF2486
:101E1000FCCCD9018C909924F8CCD901AC90BB248E
:101E2000F4CCD901CC90DD24F0CCD901EC90FF2486
:101E3000ECCCDA018C909924E8CCDA01AC90BB248C
:101E4000E4CCDA01CC90DD24E0CCDA01EC90FF2484
:101E5000DCCCDB018C909924D8CCDB01AC90BB248A
:101E6000D4CCDB01CC90DD24D0CCDB01EC90FF2482
:101E7000CCCCD8018D909C90C9CCD801AD90BC90B1
:101E8000C5CCD801CD90DC90C1CCD801ED90FC90B0
:101E9000BDCCD9018D909C90B9CCD901AD90BC90AE
:101EA000B5CCD901CD90DC90B1CCD901ED90FC90AE
:101EB000ADCCDA018D909C90A9CCDA01AD90BC90AC
:101EC000A5CCDA01CD90DC90A1CCDA01ED90FC90AC
:101ED0009DCCDB018D909C9099CCDB01AD90BC90AA
:101EE00095CCDB01CD90DC9091CCDB01ED90FC90AA
:101EF0008DCCD8018D929C9289CCD801AD92BC92A8
:101F000085CCD801CD92DC9281CCD801ED92FC92A7
:101F10007DCCD9018D929C9279CCD901AD92BC92A5
:101F200075CCD901CD92DC9271CCD901ED92FC92A5
:101F30006DCCDA018D929C9269CCDA01AD92BC92A3
:101F400065CCDA01CD92DC9261CCDA01ED92FC92A3
:101F50005DCCDB018D929C9259CCDB01AD92BC92A1
:101F600055CCDB01CD92DC9251CCDB01ED92FC92A1
:101F70004DCCD8018D928D0148CCD801AD928D0108
:101F800044CCD801CD928D0140CCD801ED928D0189
:101F90003CCCD8010D938D0138CCD8012D938D0107
:101FA00034CCD8014D938D0130CCD8016D938D0187
:101FB0002CCCD9018D929D0128CCD901AD929D01E7
:101FC00024CCD901CD929D0120CCD901ED929D0167
:101FD0001CCCD9010D939D0118CCD9012D939D01E5
:101FE00014CCD9014D939D0110CCD9016D939D0165
:101FF0000CCCDA018D92AD0108CCDA01AD92AD01C5
:1020000004CCDA01CD92AD0100CCDA01ED92AD0144
:10201000FCCBDA010D93AD01F8CBDA012D93AD01C4
:10202000F4CBDA014D93AD01F0CBDA016D93AD0144
:10203000ECCBDB018D92BD01E8CBDB01AD92BD01A4
:10204000E4CBDB01CD92BD01E0CBDB01ED92BD0124
:10205000DCCBDB010D93BD01D8CBDB012D93BD01A2
:10206000D4CBDB014D93BD01D0CBDB016D93BD0122
:10207000CCCB882D892C982EC6CB8A2DAB2CB82E94
:10208000C2CB8C2DCD2CD82EBECB8E2DEF2CF82E86
:10209000BACB802F012F182FB6CB822F232F382FAA
:1020A000B2CB842F452F582FAECB862F672F782F9A
:1020B000AACB821492048FB7A7CBA214B2048FB715
:1020C000A3CBC214D2048FB79FCBE214F2048FB714
:1020D0009BCB021512058FB797CB221532058FB710
:1020E00093CB421552058FB78FCB621572058FB710
:1020F0008BCB009F002D112788CB029F002D11272D
:1021000084CB049F002D112780CB069F002D112723
:102110007CCB209F202D332778CB229F202D332767
:1021200074CB249F202D332770CB269F202D33275F
:102130006CCB409F402D552768CB429F402D5527A3
:1021400064CB449F402D552760CB469F402D55279B
:102150005CCB609F602D772758CB629F602D7727DF
:1021600054CB649F602D772750CB669F602D7727D7
:102170004CCB992487FC9A9446CBBB24A7FCBA94F9
:1021800042CBDD24C7FCDA943ECBFF24E7FCFA9473
:102190003ACB112707FD1A9536CB332727FD3A9501
:1021A00032CB552747FD5A952ECB772767FD7A9579
:1021B0002ACB8194921C919426CBA194B21CB19409
:1021C00022CBC194D21CD1941ECBE194F21CF19489
:1021D0001ACB0195121D119516CB2195321D319503
:1021E00012CB4195521D51950ECB6195721D719583
:1021F0000ACBD8018D908D019924D9C2D801AD9018
:102200008D01BB24D4C2D801CD908D01DD24CFC275
:10221000D801ED908D01FF24CAC202CB000000005E
:1022200000000000D8012D918D013327C0C2D801D4
:102230004D918D015527BBC2D8016D918D01772736
:10224000B6C2D9018D909D019924B1C2D901AD903A
:102250009D01BB24ACC2D901CD909D01DD24A7C254
:10226000D901ED909D01FF24A2C2D9010D919D01DC
:1022700011279DC2D5CA0000000000000000D9014E
:102280004D919D01552793C2D9016D919D017727ED
:102290008EC2DA018D90AD01992489C2DA01AD9028
:1022A000AD01BB2484C2DA01CD90AD01DD247FC233
:1022B000DA01ED90AD01FF247AC2DA010D91AD0192
:1022C000112775C2DA012D91AD01332770C2A8CA5A
:1022D0000000000000000000DA016D91AD017727D9
:1022E00066C2DB018D90BD01992461C2DB01AD9016
:1022F000BD01BB245CC2DB01CD90BD01DD2457C212
:10230000DB01ED90BD01FF2452C2DB010D91BD0147
:1023100011274DC2DB012D91BD01332748C2DB01DE
:102320004D91BD01552743C27BCA0000000000004B
:102330000000D8018D909D908D0139C2D801AD90DB
:10234000BD908D0134C2D801CD90DD908D012FC29A
:10235000D801ED90FD908D012AC262CA00000000F4
:1023600000000000D8012D913D918D0120C2D801BF
:102370004D915D918D011BC2D8016D917D918D01B3
:1023800016C2D9018D909D909D0111C2D901AD90C9
:10239000BD909D010CC2D901CD90DD909D0107C279
:1023A000D901ED90FD909D0102C2D9010D911D91C1
:1023B0009D01FDC135CA0000000000000000D901E8
:1023C0004D915D919D01F3C1D9016D917D919D016B
:1023D000EEC1DA018D909D90AD01E9C1DA01AD90B9
:1023E000BD90AD01E4C1DA01CD90DD90AD01DFC15A
:1023F000DA01ED90FD90AD01DAC1DA010D911D9188
:10240000AD01D5C1DA012D913D91AD01D0C108CA10
:102410000000000000000000DA016D917D91AD0127
:10242000C6C1DB018D909D90BD01C1C1DB01AD90A6
:10243000BD90BD01BCC1DB01CD90DD90BD01B7C138
:10244000DB01ED90FD90BD01B2C1DB010D911D914D
:10245000BD01ADC1DB012D913D91BD01A8C1DB01E5
:102460004D915D91BD01A3C1DBC9000000000000DA
:102470000000D8018D929D928D0199C1D801AD9235
:10248000BD928D0194C1D801CD92DD928D018FC195
:10249000D801ED92FD928D018AC1D8010D931D9353
:1024A0008D0185C1D8012D933D938D0180C1D80147
:1024B0004D935D938D017BC1D8016D937D938D010B
:1024C00076C1D9018D929D929D0171C1D901AD92C4
:1024D000BD929D016CC1D901CD92DD929D0167C174
:1024E000D901ED92FD929D0162C1D9010D931D9319
:1024F0009D015DC1D9012D933D939D0158C1D90125
:102500004D935D939D0153C1D9016D937D939D01C1
:102510004EC1DA018D929D92AD0149C1DA01AD92B1
:10252000BD92AD0144C1DA01CD92DD92AD013FC152
:10253000DA01ED92FD92AD013AC1DA010D931D93DE
:10254000AD0135C1DA012D933D93AD0130C1DA0102
:102550004D935D93AD012BC1DA016D937D93AD0178
:1025600026C1DB018D929D92BD0121C1DB01AD929F
:10257000BD92BD011CC1DB01CD92DD92BD0117C131
:10258000DB01ED92FD92BD0112C1DB010D931D93A4
:10259000BD010DC1DB012D933D93BD0108C1DB01E0
:1025A0004D935D93BD0103C1DB016D937D93BD012F
:1025B000FEC0880C991CAA1CBB1CF8C08C0C9D1C6E
:1025C000AE1CBF1CF3C0800E911EA21EB31EEEC037
:1025D000840E951EA61EB71EE9C0C80CD91CEA1CA5
:1025E000FB1CE4C0CC0CDD1CEE1CFF1CDFC0C00ECD
:1025F000D11EE21EF31EDAC0C40ED51EE61EF71E63
:10260000D5C0080D191D2A1D3B1DD0C00C0D1D1D68
:102610002E1D3F1DCBC0000F111F221F331FC6C030
:10262000040F151F261F371FC1C0480D591D6A1DF5
:102630007B1DBCC04C0D5D1D6E1D7F1DB7C0400FC6
:10264000511F621F731FB2C0440F551F661F771FB3
:10265000ADC088189908AA08BB08A8C08C189D08A6
:10266000AE08BF08A3C0801A910AA20AB30A9EC08E
:10267000841A950AA60AB70A99C0C818D908EA08A0
:10268000FB0894C0CC18DD08EE08FF088FC0C01A04
:10269000D10AE20AF30A8AC0C41AD50AE60AF70A7E
:1026A00085C0081919092A093B0980C00C191D09A0
:1026B0002E093F097BC0001B110B220B330B76C088
:1026C000041B150B260B370B71C0481959096A09F1
:1026D0007B096CC04C195D096E097F0967C0401BFE
:1026E000510B620B730B62C0441B550B660B770BCF
:1026F0005DC0B694A7949794879458C0F694E794D5
:10270000D794C79453C036952795179507954EC013
:10271000769567955795479549C0B594A794979432
:10272000879444C0F594E794D794C7943FC03595F7
:102730002795179507953AC07595679557954795CD
:1027400035C0892899248210832C30C0AB28BB2443
:10275000A210A32C2BC0CD28DD24C210C32C26C070
:10276000EF28FF24E210E32C21C0012B11270211D6
:10277000032D1CC0232B33272211232D17C0452BDB
:1027800055274211432D12C0672B77276211632D05
:102790000DC00000430CF8942EBC8EB57894521CEA
:1027A000621C879DF001FF5F099401C000008EB597
:1027B0002EBC430C521C621C879DF001FF5F0994E4
:1027C0002EC888249924F199832CF0CFAA24BB2405
:1027D000F199A32CEBCFCC24DD24F199C32CE6CFC7
:1027E000EE24FF24F199E32CE1CF00271127F19982
:1027F000032DDCCF22273327F199232DD7CF442770
:102800005527F199432DD2CF66277727F199632D6C
:10281000CDCF88249924F19B832CC8CFAA24BB2434
:10282000F19BA32CC3CFCC24DD24F19BC32CBECFC2
:10283000EE24FF24F19BE32CB9CF00271127F19B55
:10284000032DB4CF22273327F19B232DAFCF44276D
:102850005527F19B432DAACF66277727F19B632D40
:10286000A5CF88249924F099832CA0CFAA24BB2437
:10287000F099A32C9BCFCC24DD24F099C32C96CFC8
:10288000EE24FF24F099E32C91CF00271127F09933
:10289000032D8CCF22273327F099232D87CF442770
:1028A0005527F099432D82CF66277727F099632D1E
:1028B0007DCF88249924F09B832C78CFAA24BB2435
:1028C000F09BA32C73CFCC24DD24F09BC32C6ECFC4
:1028D000EE24FF24F09BE32C69CF00271127F09B07
:1028E000032D64CF22273327F09B232D5FCF44276E
:1028F0005527F09B432D5ACF66277727F09B632DF2
:1029000055CF88249924F499832C50CFAA24BB2432
:10291000F499A32C4BCFCC24DD24F499C32C46CFBF
:10292000EE24FF24F499E32C41CF00271127F499DA
:10293000032D3CCF22273327F499232D37CF44276B
:102940005527F499432D32CF66277727F499632DC5
:102950002DCF88249924F49B832C28CFAA24BB2430
:10296000F49BA32C23CFCC24DD24F49BC32C1ECFBB
:10297000EE24FF24F49BE32C19CF00271127F49BAE
:10298000032D14CF22273327F49B232D0FCF442769
:102990005527F49B432D0ACF66277727F49B632D99
:1029A00005CF0ECF00000CCF00000ACF000008CFEB
:1029B000000006CF000004CF000002CF000000CFCF
:1029C0000000FECE0000FCCE0000FACE0000F8CEE3
:1029D0000000F6CE0000F4CE0000F2CE0000F0CEF3
:1029E0000000EECE0000ECCE0000EACE0000E8CE03
:1029F0000000E6CE0000E4CE0000E2CE0000E0CE13
:102A00000000DECE0000DCCE0000DACE0000D8CE22
:102A10000000D6CE0000D4CE0000D2CE0000D0CE32
:102A20000000CECE0000CCCE0000CACE0000C8CE42
:102A30000000C6CE0000C4CE0000C2CE0000C0CE52
:102A40000000BECE0000BCCE0000BACE0000B8CE62
:102A50000000B6CE0000B4CE0000B2CE0000B0CE72
:102A600000004401A4CE4501A2CE4601A0CE4701FC
:102A70009ECE48019CCE49019ACE4A0198CE4B0188
:102A800096CE540194CE550192CE560190CE570168
:102A90008ECE58018CCE59018ACE5A0188CE5B0168
:102AA00086CE640184CE650182CE660180CE670148
:102AB0007ECE68017CCE69017ACE6A0178CE6B0148
:102AC00076CE740174CE750172CE760170CE770128
:102AD0006ECE78016CCE79016ACE7A0168CE7B0128
:102AE00066CE840164CE850162CE860160CE870108
:102AF0005ECE88015CCE89015ACE8A0158CE8B0108
:102B000056CE940154CE950152CE960150CE9701E7
:102B10004ECE98014CCE99014ACE9A0148CE9B01E7
:102B200046CEA40144CEA50142CEA60140CEA701C7
:102B30003ECEA8013CCEA9013ACEAA0138CEAB01C7
:102B400036CEB40134CEB50132CEB60130CEB701A7
:102B50002ECEB8012CCEB9012ACEBA0128CEBB01A7
:102B600026CE2ECE00002CCE00002ACE000028CE8D
:102B7000000026CE000024CE000022CE000020CE91
:102B800000001ECE00001CCE00001ACE000018CEA1
:102B9000000016CE000014CE000012CE000010CEB1
:102BA00000000ECE00000CCE00000ACE000008CEC1
:102BB000000006CE000004CE000002CE000000CED1
:102BC0000000FECD0000FCCD0000FACD0000F8CDE5
:102BD0000000F6CD0000F4CD0000F2CD0000F0CDF5
:102BE0000000EECD0000ECCD0000EACD0000E8CD05
:102BF0000000E6CD0000E4CD0000E2CD0000E0CD15
:102C00000000DECD0000DCCD0000DACD0000D8CD24
:102C10000000D6CD0000D4CD0000D2CD0000D0CD34
:102C20000000CECD0000CCCD0000CACD0000C8CD44
:102C30000000C6CD0000C4CD0000C2CD0000C0CD54
:102C40000000BECD0000BCCD0000BACD0000B8CD64
:102C50000000B6CD0000B4CD0000B2CD0000B0CD74
:102C60000000599AE3E05998EEBDA091000AA50D25
:102C7000B091010AB61D10D0BEBD08D0AEBD06D0C1
:102C80004EBC04D02EBC00C007D00895000000C088
:102C90000000000000000000000000C00895F8944B
:102CA000AFEFADBFAAE0AEBF2224A1E03A2EA4E070
:102CB0007A2EA0E0B1E02D92A030E9F7BB30D9F731
:102CC000C0E0DAE02EBAF4D0A0E5ACBDA1E0ADBD25
:102CD00026D15998EBEAE2D0599AE6D0E4E1F0E047
:102CE000459155914831C1F45539B1F4B591A5914B
:102CF000A093000AB093010A45915591483121F5FE
:102D0000553911F5B591A591A093020AB093030A24
:102D1000A1E0A093060A18C06FEFBFEFA8EF442709
:102D200055278DD088F06FEFBFEEA8EF40EF5FEF33
:102D300086D008F071C0A0EFBFEFA093020AB09355
:102D4000030AA1E0A093060AAA27B091000A6091A5
:102D5000010A97D0A1D0E13409F05EC09DD0E635DC
:102D600009F05AC099D0ED3409F056C095D0E13041
:102D700009F052C091D0E13009F04EC08DD04E2EF6
:102D80008BD05E2E89D06E2E87D00E2F85D01E2F31
:102D900083D02E2F81D03E2F7FD04E2FE093040A78
:102DA0007BD05E2FE093050A599A2017310708F46B
:102DB00033C0343028F009F02FC0222309F02CC092
:102DC000543028F009F028C0442309F025C04215EA
:102DD000520521F0A091060AA0FF1EC0021512059F
:102DE00089F0B091000A6091010AB39509F46395E6
:102DF000AA2747D0A0E0B1E04FD0ED93015010409A
:102E0000D9F7599A0CD02DDF8EB52EBC78940000DE
:102E1000879DF001FF5F0994F894599AFFCF25BC74
:102E200020926E00A2E0A4BD26BCA9EFA7BDA2E03F
:102E3000A5BBA2E0A0936E00A3E0A5BD089521D09C
:102E40002BD0E134D9F428D0E635C1F425D0E435CF
:102E5000A9F422D0E13091F41FD00E2E1DD01E2EE9
:102E6000599A0214120459F0A42FB52FA019B109D0
:102E7000A093000AB093010A08940895599A88947F
:102E80000895599A5998E3E009D0E62F07D0EB2F1F
:102E900005D0EA2F03D00895E22D00C0EEBDFDB5A8
:102EA000F7FFFDCFEEB50895A0E2AA95F1F70895DA
:102EB0002998219A2A98229A23982B98599A519ABC
:102EC0005E98569A5C9A549A5F98579A2E9A269AC8
:102ED0002F9A279A2D9A259A5D9A559A289A209A80
:102EE00085988D9A86988E9A87988F9A84988C9ACE
:102EF0006E98769A24982C9A81988998A1ECA09340
:102F00007C00089588E699279A95F1F78A95D9F774
:102F10000895AEBDBDB5B7FFFDCFAEB50895F2DFE4
:102F20005F9AF0DF5E985C98EEE3FFE28DE0A5919A
:102F3000F0DF8A95E1F75C9A5E9A599A0895D5F088
:0C2F40008D14A1C881CFD9F1AF20000092
:00000001FF
