:100000000C9475000C9456000C9456000C945600F9
:100010000C9456000C9456000C9456000C94560008
:100020000C9456000C9456000C9456000C945600F8
:100030000C9456000C9456000C9456000C945600E8
:100040000C9456000C9456000C9456000C945600D8
:100050000C9456000C9457000C9456000C945600C7
:100060000C9456000C9456000C9456000C945600B8
:100070000C9456000C9456000C9456000C945600A8
:100080000C9456000C9456000C9456000C94560098
:100090000C9456000C9456000C9456000C94560088
:1000A0000C9456000C9456000C945600FFCF0F92FF
:1000B0000FB60F920090070A03940092070A89F482
:1000C0000090080A03940092080A59F40090090A63
:1000D00003940092090A29F400900A0A03940092FA
:1000E0000A0A0F900FBE0F9018950C943618000056
:1000F0000000000000000000000000000000000000
:1001000000000000000000000000000000000000EF
:1001100000000000000000000000000000000000DF
:1001200000000000000000000000000000000000CF
:1001300000000000000000000000000000000000BF
:1001400000000000000000000000000000000000AF
:10015000000000000000000000000000000000009F
:10016000000000000000000000000000000000008F
:10017000000000000000000000000000000000007F
:10018000000000000000000000000000000000006F
:10019000000000000000000000000000000000005F
:1001A000000000000000000000000000000000004F
:1001B000000000000000000000000000000000003F
:1001C000000000000000000000000000000000002F
:1001D000000000000000000000000000000000001F
:1001E000000000000000000000000000000000000F
:1001F00000000000000000000000000000000000FF
:1002000088017AC400000000890176C40000000063
:100210008A0172C4000000008B016EC4000000005F
:1002200098016AC400000000990166C40000000043
:100230009A0162C4000000009B015EC4000000003F
:10024000A8015AC400000000A90156C40000000023
:10025000AA0152C400000000AB014EC4000000001F
:10026000B8014AC400000000B90146C40000000003
:10027000BA0142C400000000BB013EC400000000FF
:10028000000F111F3AC40000020F131F36C40000F4
:10029000040F151F32C40000060F171F2EC40000E4
:1002A000200F311F2AC40000220F331F26C4000074
:1002B000240F351F22C40000260F371F1EC4000064
:1002C000400F511F1AC40000420F531F16C40000F4
:1002D000440F551F12C40000460F571F0EC40000E4
:1002E000600F711F0AC40000620F731F06C4000074
:1002F000640F751F02C40000660F771FFEC3000065
:10030000001B110BFAC30000021B130BF6C3000005
:10031000041B150BF2C30000061B170BEEC30000F5
:10032000201B310BEAC30000221B330BE6C3000085
:10033000241B350BE2C30000261B370BDEC3000075
:10034000401B510BDAC30000421B530BD6C3000005
:10035000441B550BD2C30000461B570BCEC30000F5
:10036000601B710BCAC30000621B730BC6C3000085
:10037000641B750BC2C30000661B770BBEC3000075
:10038000001711078FB7ACC3021713078FB7A8C3A5
:10039000041715078FB7A4C3061717078FB7A0C395
:1003A000201731078FB79CC3221733078FB798C325
:1003B000241735078FB794C3261737078FB790C315
:1003C000401751078FB78CC3421753078FB788C3A5
:1003D000441755078FB784C3461757078FB780C395
:1003E000601771078FB77CC3621773078FB778C325
:1003F000641775078FB774C3661777078FB770C315
:10040000D8010C91112786C3D9010C91112782C301
:10041000DA010C9111277EC3DB010C9111277AC3FD
:10042000D8012C91332776C3D9012C91332772C37D
:10043000DA012C9133276EC3DB012C9133276AC379
:10044000D8014C91552766C3D9014C91552762C3F9
:10045000DA014C9155275EC3DB014C9155275AC3F5
:10046000D8016C91772756C3D9016C91772752C375
:10047000DA016C9177274EC3DB016C9177274AC371
:10048000D8010C9346C30000D8012C9342C300004E
:10049000D8014C933EC30000D8016C933AC30000CE
:1004A000D9010C9336C30000D9012C9332C300004C
:1004B000D9014C932EC30000D9016C932AC30000CC
:1004C000DA010C9326C30000DA012C9322C300004A
:1004D000DA014C931EC30000DA016C931AC30000CA
:1004E000DB010C9316C30000DB012C9312C3000048
:1004F000DB014C930EC30000DB016C930AC30000C8
:10050000D8010D911C9107C3D9010D911C9103C312
:10051000DA010D911C91FFC2DB010D911C91FBC210
:10052000D8012D913C91F7C2D9012D913C91F3C294
:10053000DA012D913C91EFC2DB012D913C91EBC290
:10054000D8014D915C91E7C2D9014D915C91E3C214
:10055000DA014D915C91DFC2DB014D915C91DBC210
:10056000D8016D917C91D7C2D9016D917C91D3C294
:10057000DA016D917C91CFC2DB016D917C91CBC290
:10058000D8010D931C93C7C2D8012D933C93C3C2CD
:10059000D8014D935C93BFC2D8016D937C93BBC2CD
:1005A000D9010D931C93B7C2D9012D933C93B3C2CB
:1005B000D9014D935C93AFC2D9016D937C93ABC2CB
:1005C000DA010D931C93A7C2DA012D933C93A3C2C9
:1005D000DA014D935C939FC2DA016D937C939BC2C9
:1005E000DB010D931C9397C2DB012D933C9393C2C7
:1005F000DB014D935C938FC2DB016D937C938BC2C7
:10060000002311237AC200000223132376C20000C4
:100610000423152372C20000062317236EC20000B4
:10062000202331236AC200002223332366C2000044
:100630002423352362C20000262337235EC2000034
:10064000402351235AC200004223532356C20000C4
:100650004423552352C20000462357234EC20000B4
:10066000602371234AC200006223732346C2000044
:100670006423752342C20000662377233EC2000034
:10068000002B112B3AC20000022B132B36C20000A4
:10069000042B152B32C20000062B172B2EC2000094
:1006A000202B312B2AC20000222B332B26C2000024
:1006B000242B352B22C20000262B372B1EC2000014
:1006C000402B512B1AC20000422B532B16C20000A4
:1006D000442B552B12C20000462B572B0EC2000094
:1006E000602B712B0AC20000622B732B06C2000024
:1006F000642B752B02C20000662B772BFEC1000015
:1007000000271127FAC1000002271327F6C10000B5
:1007100004271527F2C1000006271727EEC10000A5
:1007200020273127EAC1000022273327E6C1000035
:1007300024273527E2C1000026273727DEC1000025
:1007400040275127DAC1000042275327D6C10000B5
:1007500044275527D2C1000046275727CEC10000A5
:1007600060277127CAC1000062277327C6C1000035
:1007700064277527C2C1000066277727BEC1000025
:100780009A928A92C7C10000BA92AA92C3C100008D
:10079000DA92CA92BFC10000FA92EA92BBC100008D
:1007A0001A930A93B7C100003A932A93B3C1000089
:1007B0005A934A93AFC100007A936A93ABC1000089
:1007C00089909990A7C10000A990B990A3C1000099
:1007D000C990D9909FC10000E990F9909BC1000099
:1007E0000991199197C100002991399193C1000095
:1007F000499159918FC10000699179918BC1000095
:10080000E5EBF5E0000090C1E8EBF5E000008CC1FD
:10081000EBEBF5E0000088C1EEEBF5E0000084C1F1
:10082000E1ECF5E000008FC1E4ECF5E000008BC1E5
:10083000E7ECF5E0000087C1EAECF5E0000083C1D9
:10084000EDECF5E0000076C1E0EDF5E0000072C1EE
:10085000E3EDF5E000006EC1E6EDF5E000006AC1F1
:10086000E9EDF5E0000066C1EDEDF5E0000062C1E4
:10087000E1EEF5E000005EC1E5EEF5E000005AC1F2
:10088000430C521C621CA5C1430C521C621CA9C122
:10089000430C521C621CADC1430C521C621CB1C102
:1008A000430C521C621CECC1430C521C621CF4C170
:1008B000430C521C621CFFC1430C521C621C3CC204
:1008C000430C521C621CA5C1430C521C621CA9C1E2
:1008D00092E0430C521CBBC192E0430C521CB7C1C6
:1008E00091E0430C521CB3C191E0430C521CAFC1C8
:1008F00090E1430C521CABC190E1430C521CA7C1C8
:10090000430C521C621CE4C1430C521C621CE0C12B
:10091000000000000000F6C1470C521C621CF2C12E
:1009200024016A2C00C028C326016E2C00C024C3F9
:100930002801622E00C020C32A01662E00C01CC3FD
:10094000C401AA2D430C19C3C601AE2D430C15C317
:10095000C801A22F430C11C3CA01A62F430C0DC31B
:1009600039C300000000000035C300000000000093
:1009700031C300000000000049905990699004C301
:100980009EE6EFECF8E085C090E9EDE3F9E073C096
:1009900090E6EDE5FAE07FC090E8EDE7FBE07BC094
:1009A00098EBE8E1FDE077C090E6E0E4FFE075C099
:1009B00090E5E0ECF0E171C090E9E0E0F2E16FC0B9
:1009C00090E3E7EEF4E16BC01BC000000000000004
:1009D0000000E4EEF5E13BC0B2E0E8EDF6E16DC009
:1009E000B1E0E8EDF6E169C0B0E1E8EDF6E165C03F
:1009F00090E4E8E5F7E13FC0EDC200000000000030
:100A0000430C521C621CB22DF22DF8942EBC8EB5F4
:100A10007894A82FA295AE70A85FE82FE695EE70A7
:100A2000E85F86950D901C909191B08180FD0AC081
:100A300018F4092A1B2A02C009221B22B22D1C927B
:100A40000E92DCC218F009261B26F8CFC4C2430C54
:100A5000521CF8942EBC8EB57894621C803338F00A
:100A6000A82F82958F707097E80FF21D0994880F58
:100A7000E80FF21D0994430C521CF8942EBC8EB55D
:100A80007894621C8917C0F4E80FF21DE80FF21D7C
:100A90000994A1E006C0A3E004C0A4E002C0A5E060
:100AA00000C08EB52EBC430C521C621C891720F46A
:100AB0008A9FE00DF11D09948EC2430C521C621CEA
:100AC000AEB52EBCA03858F49EB3A6FD90959B23DE
:100AD00029F0AF73AA0FEA0FF21D09947EC2ECCF82
:100AE00000008EBB430C8EB52EBC521C621C879D31
:100AF000F001FF5F09948EBB0000430C521C621C86
:100B0000F8942EBC8EB57894879DF001FF5F099410
:100B1000000001C00000430C8EB52EBC521C621CAC
:100B2000879DF001FF5F0994430C521C621C8EB537
:100B30002EBC0994430C521C621C8EB52EBC992706
:100B400087FD90950994430C521C621C8EB52EBCF7
:100B5000430C521C621C38D2F8942EBC9EB578947B
:100B6000099400C000000000C8CF082F1127F9CF5A
:100B7000282F3327F6CF482F5527F3CF682F772715
:100B8000F0CF082F192FEECF282F392FEBCF482F7A
:100B9000592FE8CF682F792FE5CF080F191FE3CF22
:100BA000280F391FE0CF480F591FDDCF680F791F7D
:100BB000DACF081719078FB79ECF281739078FB7D5
:100BC0009ACF481759078FB796CF681779078FB70D
:100BD00092CF00C0F8942EBC8EB57894F19B29C0BA
:100BE0002CC000C0F8942EBC8EB57894F19921C029
:100BF00024C000C0F8942EBC8EB57894F09B19C028
:100C00001CC000C0F8942EBC8EB57894F49B11C023
:100C100014C000C0F8942EBC8EB57894F09909C029
:100C20000CC000C0F8942EBC8EB57894F49901C025
:100C300004C000C000C000C060CF992787FD909518
:100C4000430C521C621C480E591E691E9DC1621C39
:100C5000BEB3F8942EBCAEB57894430C521C621C03
:100C600080FDB095B92341F400C000C000C0F894E5
:100C70002EBC8EB57894DDCF430C521C621C38C05C
:100C8000C895AEB59927A7FD9095430C521C621CE0
:100C90004A0E591E691E78C1C895AEB59927A7FDA1
:100CA0009095430C521C621C6A925A924A924A0EC8
:100CB000591E691E69C100C0F8942EBC8EB5789487
:100CC000992787FD9095C80FD91F00C000C015CF88
:100CD000430C521CF8942EBCAEB57894621C430CA5
:100CE000521C621C80FF0C9480066A925A924A92AF
:100CF0009927BEB5B7FD90954A0E5B1E691E44C18B
:100D0000C895F6CFB82F0000F8942EBC8EB5789415
:100D1000B0FF0C949A066A925A924A9200C000C0A0
:100D2000F8942EBC9EB578944DD1AEB5482E592E70
:100D30006A2E2AC14DD1F4CFE5EAF6E0F8942EBC34
:100D40008EB57894E80FF21D0994FFC001C102C16D
:100D500008C142C141C140C13FC13EC13DC13CC1CA
:100D60003BC13AC139C138C137C136C135C134C1BF
:100D700033C132C131C130C12FC12EC12DC12CC1EF
:100D80002BC12AC129C128C127C126C125C124C11F
:100D900023C122C121C120C11FC11EC11DC11CC14F
:100DA0001BC11AC119C118C117C116C115C114C17F
:100DB00013C112C111C110C10FC10EC10DC10CC1AF
:100DC0000BC10AC109C108C107C106C105C104C1DF
:100DD00003C102C101C100C1FFC0FEC0FDC0FCC013
:100DE000FBC0FAC0F9C0F8C0F7C0F6C0F5C0F4C047
:100DF000F3C0F2C0F1C0F0C0EFC0EEC0EDC0ECC077
:100E0000EBC0EAC0E9C0E8C0E7C0E6C0E5C0E4C0A6
:100E1000E3C0E2C0E1C0E0C0DFC0DEC0DDC0DCC0D6
:100E2000DBC0DAC0D9C0D8C0D7C0D6C0D5C0D4C006
:100E3000D3C0D2C0D1C0D0C0CFC0CEC0CDC0CCC036
:100E4000CBC0CAC0C9C0C8C0C7C0C6C0C5C0C4C066
:100E5000C3C0C2C0C1C0C0C0BFC0BEC0BDC0BCC096
:100E6000BBC0BAC0B9C0B8C0B7C0B6C0B5C0B4C0C6
:100E7000B3C0B2C0B1C0B0C0AFC0AEC0ADC0ACC0F6
:100E8000ABC0AAC0A9C0A8C0A7C0A6C0A5C0A4C026
:100E9000A3C0A2C0A1C0A0C09FC09EC09DC09CC056
:100EA0009BC09AC099C098C097C096C095C094C086
:100EB00093C092C091C090C08FC08EC08DC08CC0B6
:100EC0008BC08AC089C088C087C086C085C084C0E6
:100ED00083C082C081C080C07FC07EC07DC07CC016
:100EE0007BC07AC079C078C077C076C075C074C046
:100EF00073C072C071C070C06FC06EC06DC06CC076
:100F00006BC06AC069C068C067C066C065C064C0A5
:100F100063C062C061C060C05FC05EC05DC05CC0D5
:100F20005BC05AC059C058C057C056C055C054C005
:100F300053C052C051C050C04FC04EC04DC04CC035
:100F40004BC04AC049C048C047C00093F100D5CD4E
:100F50009895D2CDF8940091070A1091080A7894D8
:100F6000DACDF8940091070A1091080A2091090A35
:100F700030910A0A7894CFCD07C0521C621C6A9245
:100F80005A924A922C016A2E599AE3E05998EEBD82
:100F9000A091000AA50DB091010AB61D17D0BEBDE3
:100FA0000ED0AEBD0CD04EBC0BD02EBC0AD0F894E7
:100FB0002EBC8EB57894879DF001FF5F09940000E8
:100FC000000000000000000000000000000000C061
:100FD0000895FFCFFFCFFFCFFFCF000001C000007B
:100FE000430C521C621CF8942EBC8EB57894879DDD
:100FF000F001FF5F099402C08EBB0000430C8EB568
:101000002EBC521C621C879DF001FF5F09948EB5B7
:101010002EBC430C521C621C0895A82F8EB52EBC0A
:10102000430C521C621CA770AA0FA85FB22DFE01D0
:10103000E80FF21D08958EB52EBC92E0490E521CA9
:10104000621C00C000C000C000C000C000C09EB54F
:101050002EBC0895EEB52EBC92E0490E521C621CC7
:10106000A02DA770AA0FA85FB22D00C000C0C89520
:10107000FEB52EBC0895CBDF882E99243DCDC7DF69
:10108000A82EBB2439CDC3DFC82EDD2435CDBFDF6C
:10109000E82EFF2431CDCFDF882E992E63CDCBDF14
:1010A000A82EB92E5FCDC7DFC82ED92E5BCDC3DFEA
:1010B000E82EF92E57CDABDF992787FD9095880E46
:1010C000991E28CDA4DF992787FD9095A80EB91EFB
:1010D00021CD9DDF992787FD9095C80ED91E1ACD89
:1010E00096DF992787FD9095E80EF91E13CD8FDFC7
:1010F000992787FD9095881699068FB7F2CC87DFE0
:10110000992787FD9095A816B9068FB7EACC7FDF9F
:10111000992787FD9095C816D9068FB7E2CC77DF5F
:10112000992787FD9095E816F9068FB7DACC75DF19
:10113000ED93FC93F0CC71DF00800D922C92EBCC00
:101140006CDF00800D92000C00080C92E4CC65DF8F
:101150000C900082E0CC61DF019010800D921C9217
:10116000DACC5BDF0D901C9001921082D4CC00C0D1
:10117000D1CC70DF00800D922C92CACC6BDF0C902A
:101180000082F5CF67DF019010800D921C92C2CCD7
:1011900061DF0D901C9001921082BCCC1ACF6BCFF6
:1011A0006ECF71CF74CF77CF7ACF7DCF80CF83CF03
:1011B00089CF8FCF95CF9BCFA2CFA9CFB0CFB7CFBD
:1011C000B6CFB5CFB4CFB3CFB2CFB1CFB0CFB3CF0F
:1011D000B2CFB1CFB0CFAFCFAECFADCFACCFB0CF1E
:1011E000AFCFAECFADCFACCFABCFAACFA9CFAFCF24
:1011F000AECFADCFACCFABCFAACFA9CFA8CFABCF1F
:10120000AACFA9CFA8CFA7CFA6CFA5CFA4CFA9CF2C
:10121000A8CFA7CFA6CFA5CFA4CFA3CFA2CFA9CF2A
:10122000A8CFA7CFA6CFA5CFA4CFA3CFA2CFA6CF1D
:10123000A5CFA4CFA3CFA2CFA1CFA0CF9FCFA2CF26
:10124000A1CFA0CF9FCF9ECF9DCF9CCF9BCFA0CF34
:101250009FCF9ECF9DCF9CCF9BCF9ACF99CF9ECF34
:101260009DCF9CCF9BCF9ACF99CF98CF97CF96CF3A
:1012700095CF94CF93CF92CF91CF4401B0CE45017B
:10128000AECE4601ACCE4701AACE4801A8CE490158
:10129000A6CE4A01A4CE4B01A2CE5401A0CE550148
:1012A0009ECE56019CCE57019ACE580198CE590138
:1012B00096CE5A0194CE5B0192CE640190CE650128
:1012C0008ECE66018CCE67018ACE680188CE690118
:1012D00086CE6A0184CE6B0182CE740180CE750108
:1012E0007ECE76017CCE77017ACE780178CE7901F8
:1012F00076CE7A0174CE7B0172CE840170CE8501E8
:101300006ECE86016CCE87016ACE940168CE9501BF
:1013100066CE960164CE970162CEA40160CEA5018F
:101320005ECEA6015CCEA7015ACEB40158CEB5015F
:1013300056CEB60154CEB70152CE088351CE288383
:101340004FCE48834DCE68834BCE098349CE298347
:1013500047CE498345CE698343CE0A8341CE2A8353
:101360003FCE4A833DCE6A833BCE0B8339CE2B835F
:1013700037CE4B8335CE6B8333CE0C8331CE2C836B
:101380002FCE4C832DCE6C832BCE0D8329CE2D8377
:1013900027CE4D8325CE6D8323CE0E8321CE2E8383
:1013A0001FCE4E831DCE6E831BCE0F8319CE2F838F
:1013B00017CE4F8315CE6F8313CE088711CE2887A3
:1013C0000FCE48870DCE68870BCE098709CE2987B7
:1013D00007CE498705CE698703CE0A8701CE2A87C3
:1013E000FFCD4A87FDCD6A87FBCD0B87F9CD2B87D3
:1013F000F7CD4B87F5CD6B87F3CD0C87F1CD2C87DF
:10140000EFCD4C87EDCD6C87EBCD0D87E9CD2D87EA
:10141000E7CD4D87E5CD6D87E3CD0E87E1CD2E87F6
:10142000DFCD4E87DDCD6E87DBCD0F87D9CD2F8702
:10143000D7CD4F87D5CD6F87D3CD9924D0CDBB24C1
:10144000CECDDD24CCCDFF24CACD1127C8CD332786
:10145000C6CD5527C4CD7727C2CD8294C0CDA294E6
:10146000BECDC294BCCDE294BACD0295B8CD229542
:10147000B6CD4295B4CD6295B2CD4E01B0CD5E01F0
:10148000AECD6E01ACCD7E01AACD8E01A8CD9E0160
:10149000A6CDAE01A4CDBE01A2CDE401A0CDE50153
:1014A0009ECDE6019CCDE7019ACDE80198CDE901FA
:1014B00096CDEA0194CDEB0192CD880C991C90CD8C
:1014C0008A0C9B1C8DCD8C0C9D1C8ACD8E0C9F1C78
:1014D00087CD800E911E84CD820E931E81CD840E09
:1014E000951E7ECD860E971E7BCDA80CB91C78CD9F
:1014F000AA0CBB1C75CDAC0CBD1C72CDAE0CBF1CB8
:101500006FCDA00EB11E6CCDA20EB31E69CDA40E80
:10151000B51E66CDA60EB71E63CDC80CD91C60CD16
:10152000CA0CDB1C5DCDCC0CDD1C5ACDCE0CDF1CF7
:1015300057CDC00ED11E54CDC20ED31E51CDC40EF8
:10154000D51E4ECDC60ED71E4BCDE80CF91C48CD8E
:10155000EA0CFB1C45CDEC0CFD1C42CDEE0CFF1C37
:101560003FCDE00EF11E3CCDE20EF31E39CDE40E70
:10157000F51E36CDE60EF71E33CD080D191D30CD04
:101580000A0D1B1D2DCD0C0D1D1D2ACD0E0D1F1D71
:1015900027CD280D391D24CD2A0D3B1D21CD2C0D25
:1015A0003D1D1ECD2E0D3F1D1BCD480D591D18CDC7
:1015B0004A0D5B1D15CD4C0D5D1D12CD4E0D5F1DF1
:1015C0000FCD680D791D0CCD6A0D7B1D09CD6C0DFD
:1015D0007D1D06CD6E0D7F1D03CD8818990800CDA9
:1015E0008A189B08FDCC8C189D08FACC8E189F0891
:1015F000F7CC801A910AF4CC821A930AF1CC841A9F
:10160000950AEECC861A970AEBCCA818B908E8CC54
:10161000AA18BB08E5CCAC18BD08E2CCAE18BF08D0
:10162000DFCCA01AB10ADCCCA21AB30AD9CCA41A16
:10163000B50AD6CCA61AB70AD3CCC818D908D0CCCC
:10164000CA18DB08CDCCCC18DD08CACCCE18DF0810
:10165000C7CCC01AD10AC4CCC21AD30AC1CCC41A8E
:10166000D50ABECCC61AD70ABBCCE818F908B8CC44
:10167000EA18FB08B5CCEC18FD08B2CCEE18FF0850
:10168000AFCCE01AF10AACCCE21AF30AA9CCE41A06
:10169000F50AA6CCE61AF70AA3CC08191909A0CCBA
:1016A0000A191B099DCC0C191D099ACC0E191F098A
:1016B00097CC2819390994CC2A193B0991CC2C19BB
:1016C0003D098ECC2E193F098BCC4819590988CC7D
:1016D0004A195B0985CC4C195D0982CC4E195F090A
:1016E0007FCC681979097CCC6A197B0979CC6C1993
:1016F0007D0976CC6E197F0973CCD8018C927DCC94
:10170000D801AC927ACCD801CC9277CCD801EC92AB
:1017100074CCD9018C9271CCD901AC926ECCD90128
:10172000CC926BCCD901EC9268CCDA018C9265CC6E
:10173000DA01AC9262CCDA01CC925FCCDA01EC92A5
:101740005CCCDB018C9259CCDB01AC9256CCDB013A
:10175000CC9253CCDB01EC9250CC009F80014DCC5D
:10176000029F80014ACC049F800147CC069F8001E4
:1017700044CC209F900141CC229F90013ECC249FDD
:1017800090013BCC269F900138CC409FA00135CCE6
:10179000429FA00132CC449FA0012FCC469FA001C4
:1017A0002CCC609FB00129CC629FB00126CC649FF5
:1017B000B00123CC669FB00120CC000280011DCC7B
:1017C000020280011ACC0402800117CC06028001BB
:1017D00014CC2002900111CC220290010ECC2402E4
:1017E00090010BCC2602900108CC4002A00105CC50
:1017F0004202A00102CC4402A001FFCB4602A0019C
:10180000FCCB6002B001F9CB6202B001F6CB6402FE
:10181000B001F3CB6602B001F0CB00038001EDCB49
:1018200002038001EACB04038001E7CB06038001B9
:10183000E4CB20039001E1CB22039001DECB240313
:101840009001DBCB26039001D8CB4003A001D5CB80
:101850004203A001D2CB4403A001CFCB4603A00199
:10186000CCCB6003B001C9CB6203B001C6CB64032B
:10187000B001C3CB6603B001C0CB08811127BDCB3B
:1018800028813327BACB48815527B7CB6881772782
:10189000B4CB09811127B1CB29813327AECB498144
:1018A0005527ABCB69817727A8CB0A811127A5CB18
:1018B0002A813327A2CB4A8155279FCB6A8177277C
:1018C0009CCB0B81112799CB2B81332796CB4B8156
:1018D000552793CB6B81772790CB0C8111278DCB2C
:1018E0002C8133278ACB4C81552787CB6C81772776
:1018F00084CB0D81112781CB2D8133277ECB4D8168
:1019000055277BCB6D81772778CB0E81112775CB3F
:101910002E81332772CB4E8155276FCB6E8177276F
:101920006CCB0F81112769CB2F81332766CB4F8179
:10193000552763CB6F81772760CB088511275DCB57
:10194000288533275ACB4885552757CB6885772775
:1019500054CB0985112751CB298533274ECB498597
:1019600055274BCB6985772748CB0A85112745CB6F
:101970002A85332742CB4A8555273FCB6A8577276F
:101980003CCB0B85112739CB2B85332736CB4B85A9
:10199000552733CB6B85772730CB0C8511272DCB83
:1019A0002C8533272ACB4C85552727CB6C85772769
:1019B00024CB0D85112721CB2D8533271ECB4D85BB
:1019C00055271BCB6D85772718CB0E85112715CB97
:1019D0002E85332712CB4E8555270FCB6E85772763
:1019E0000CCB0F85112709CB2F85332706CB4F85CD
:1019F000552703CB6F85772700CB0000430C521C83
:101A0000621CF8942EBC8EB57894879DF001FF5F20
:101A100009948EBB02C08EBB0000430C8EB52EBC59
:101A2000521C621C879DF001FF5F0994B7CBD3CA9B
:101A300008811981F2CF28813981EFCF48815981FE
:101A4000ECCF68817981E9CF09811A81E6CF2981BC
:101A50003A81E3CF49815A81E0CF69817A81DDCF34
:101A60000A811B81DACF2A813B81D7CF4A815B81F2
:101A7000D4CF6A817B81D1CF0B811C81CECF2B81CA
:101A80003C81CBCF4B815C81C8CF6B817C81C5CF42
:101A90000C811D81C2CF2C813D81BFCF4C815D81E6
:101AA000BCCF6C817D81B9CF0D811E81B6CF2D81D8
:101AB0003E81B3CF4D815E81B0CF6D817E81ADCF50
:101AC0000E811F81AACF2E813F81A7CF4E815F81DA
:101AD000A4CF6E817F81A1CF0F8118859ECF2F81EA
:101AE00038859BCF4F81588598CF6F81788595CF6A
:101AF0000885198592CF288539858FCF48855985E6
:101B00008CCF6885798589CF09851A8586CF298507
:101B10003A8583CF49855A8580CF69857A857DCF7F
:101B20000A851B857ACF2A853B8577CF4A855B85D9
:101B300074CF6A857B8571CF0B851C856ECF2B8515
:101B40003C856BCF4B855C8568CF6B857C8565CF8D
:101B50000C851D8562CF2C853D855FCF4C855D85CD
:101B60005CCF6C857D8559CF0D851E8556CF2D8523
:101B70003E8553CF4D855E8550CF6D857E854DCF9B
:101B80000E851F854ACF2E853F8547CF4E855F85C1
:101B900044CF6E857F8541CF0F8518893ECF2F8535
:101BA00038893BCF4F85588938CF6F85788935CFB5
:101BB0000883198332CF288339832FCF48835983F1
:101BC0002CCF6883798329CF09831A8326CF298371
:101BD0003A8323CF49835A8320CF69837A831DCFE9
:101BE0000A831B831ACF2A833B8317CF4A835B83E5
:101BF00014CF6A837B8311CF0B831C830ECF2B837F
:101C00003C830BCF4B835C8308CF6B837C8305CFF6
:101C10000C831D8302CF2C833D83FFCE4C835D83D9
:101C2000FCCE6C837D83F9CE0D831E83F6CE2D838F
:101C30003E83F3CE4D835E83F0CE6D837E83EDCE07
:101C40000E831F83EACE2E833F83E7CE4E835F83CE
:101C5000E4CE6E837F83E1CE0F831887DECE2F83A1
:101C60003887DBCE4F835887D8CE6F837887D5CE21
:101C700008871987D2CE28873987CFCE48875987DA
:101C8000CCCE68877987C9CE09871A87C6CE2987BF
:101C90003A87C3CE49875A87C0CE69877A87BDCE37
:101CA0000A871B87BACE2A873B87B7CE4A875B87CE
:101CB000B4CE6A877B87B1CE0B871C87AECE2B87CD
:101CC0003C87ABCE4B875C87A8CE6B877C87A5CE45
:101CD0000C871D87A2CE2C873D879FCE4C875D87C2
:101CE0009CCE6C877D8799CE0D871E8796CE2D87DB
:101CF0003E8793CE4D875E8790CE6D877E878DCE53
:101D00000E871F878ACE2E873F8787CE4E875F87B5
:101D100084CE6E877F8781CE0F87188B7ECE2F87EC
:101D2000388B7BCE4F87588B78CE6F87788B75CE6C
:101D3000880C991C63CEAA0CBB1C60CECC0CDD1C9D
:101D40005DCEEE0CFF1C5ACE000F111F57CE220F96
:101D5000331F54CE440F551F51CE660F771F4ECE02
:101D6000969487944BCEB694A79448CED694C794B5
:101D700045CEF694E79442CE169507953FCE36951C
:101D800027953CCE5695479539CE7695679536CEB4
:101D90009594879433CEB594A79430CED594C794B8
:101DA0002DCEF594E7942ACE1595079527CE359537
:101DB000279524CE5595479521CE759567951ECECE
:101DC000809490941BCEA094B09418CEC094D094DC
:101DD00015CEE094F09412CE009510950FCE20957C
:101DE00030950CCE4095509509CE6095709506CEF5
:101DF00082148FB710CEA2148FB70DCEC2148FB736
:101E00000ACEE2148FB707CE02158FB704CE221583
:101E10008FB701CE42158FB7FECD62158FB7FBCDC0
:101E2000830C921CEBCDA30CB21CE8CDC30CD21CCE
:101E3000E5CDE30CF21CE2CD030D121DDFCD230D29
:101E4000321DDCCD430D521DD9CD630D721DD6CD93
:101E500083189208D3CDA318B208D0CDC318D208E6
:101E6000CDCDE318F208CACD03191209C7CD231945
:101E70003209C4CD43195209C1CD63197209BECDCF
:101E8000881499048FB7C7CD8A149B048FB7C3CD2C
:101E90008C149D048FB7BFCD8E149F048FB7BBCD1C
:101EA000801691068FB7B7CD821693068FB7B3CD44
:101EB000841695068FB7AFCD861697068FB7ABCD34
:101EC000A814B9048FB7A7CDAA14BB048FB7A3CDAC
:101ED000AC14BD048FB79FCDAE14BF048FB79BCD9C
:101EE000A016B1068FB797CDA216B3068FB793CDC4
:101EF000A416B5068FB78FCDA616B7068FB78BCDB4
:101F0000C814D9048FB787CDCA14DB048FB783CD2B
:101F1000CC14DD048FB77FCDCE14DF048FB77BCD1B
:101F2000C016D1068FB777CDC216D3068FB773CD43
:101F3000C416D5068FB76FCDC616D7068FB76BCD33
:101F4000E814F9048FB767CDEA14FB048FB763CDAB
:101F5000EC14FD048FB75FCDEE14FF048FB75BCD9B
:101F6000E016F1068FB757CDE216F3068FB753CDC3
:101F7000E416F5068FB74FCDE616F7068FB74BCDB3
:101F8000081519058FB747CD0A151B058FB743CD27
:101F90000C151D058FB73FCD0E151F058FB73BCD17
:101FA000281539058FB737CD2A153B058FB733CDA7
:101FB0002C153D058FB72FCD2E153F058FB72BCD97
:101FC000481559058FB727CD4A155B058FB723CD27
:101FD0004C155D058FB71FCD4E155F058FB71BCD17
:101FE000681579058FB717CD6A157B058FB713CDA7
:101FF0006C157D058FB70FCD6E157F058FB70BCD97
:10200000D8018C90992409CDD801AC90BB2405CD82
:10201000D801CC90DD2401CDD801EC90FF24FDCC7B
:10202000D9018C909924F9CCD901AC90BB24F5CC82
:10203000D901CC90DD24F1CCD901EC90FF24EDCC7A
:10204000DA018C909924E9CCDA01AC90BB24E5CC80
:10205000DA01CC90DD24E1CCDA01EC90FF24DDCC78
:10206000DB018C909924D9CCDB01AC90BB24D5CC7E
:10207000DB01CC90DD24D1CCDB01EC90FF24CDCC76
:10208000D8018D909C90C9CCD801AD90BC90C5CCA6
:10209000D801CD90DC90C1CCD801ED90FC90BDCCA6
:1020A000D9018D909C90B9CCD901AD90BC90B5CCA4
:1020B000D901CD90DC90B1CCD901ED90FC90ADCCA4
:1020C000DA018D909C90A9CCDA01AD90BC90A5CCA2
:1020D000DA01CD90DC90A1CCDA01ED90FC909DCCA2
:1020E000DB018D909C9099CCDB01AD90BC9095CCA0
:1020F000DB01CD90DC9091CCDB01ED90FC908DCCA0
:10210000D8018D929C9289CCD801AD92BC9285CC9D
:10211000D801CD92DC9281CCD801ED92FC927DCC9D
:10212000D9018D929C9279CCD901AD92BC9275CC9B
:10213000D901CD92DC9271CCD901ED92FC926DCC9B
:10214000DA018D929C9269CCDA01AD92BC9265CC99
:10215000DA01CD92DC9261CCDA01ED92FC925DCC99
:10216000DB018D929C9259CCDB01AD92BC9255CC97
:10217000DB01CD92DC9251CCDB01ED92FC924DCC97
:10218000D8018D928D0149CCD801AD928D0145CCFD
:10219000D801CD928D0141CCD801ED928D013DCC7D
:1021A000D8010D938D0139CCD8012D938D0135CCFB
:1021B000D8014D938D0131CCD8016D938D012DCC7B
:1021C000D9018D929D0129CCD901AD929D0125CCDB
:1021D000D901CD929D0121CCD901ED929D011DCC5B
:1021E000D9010D939D0119CCD9012D939D0115CCD9
:1021F000D9014D939D0111CCD9016D939D010DCC59
:10220000DA018D92AD0109CCDA01AD92AD0105CCB8
:10221000DA01CD92AD0101CCDA01ED92AD01FDCB39
:10222000DA010D93AD01F9CBDA012D93AD01F5CBB8
:10223000DA014D93AD01F1CBDA016D93AD01EDCB38
:10224000DB018D92BD01E9CBDB01AD92BD01E5CB98
:10225000DB01CD92BD01E1CBDB01ED92BD01DDCB18
:10226000DB010D93BD01D9CBDB012D93BD01D5CB96
:10227000DB014D93BD01D1CBDB016D93BD01CDCB16
:10228000882D892C982EC8CB8A2DAB2CB82EC4CB88
:102290008C2DCD2CD82EC0CB8E2DEF2CF82EBCCB78
:1022A000802F012F182FB8CB822F232F382FB4CB9C
:1022B000842F452F582FB0CB862F672F782FACCB8C
:1022C000821492048FB7A7CBA214B2048FB7A3CB0A
:1022D000C214D2048FB79FCBE214F2048FB79BCB0A
:1022E000021512058FB797CB221532058FB793CB06
:1022F000421552058FB78FCB621572058FB78BCB06
:10230000009F002D112789CB029F002D112785CB1F
:10231000049F002D112781CB069F002D11277DCB17
:10232000209F202D332779CB229F202D332775CB5B
:10233000249F202D332771CB269F202D33276DCB53
:10234000409F402D552769CB429F402D552765CB97
:10235000449F402D552761CB469F402D55275DCB8F
:10236000609F602D772759CB629F602D772755CBD3
:10237000649F602D772751CB669F602D77274DCBCB
:10238000992487FC9A9448CBBB24A7FCBA9444CBED
:10239000DD24C7FCDA9440CBFF24E7FCFA943CCB65
:1023A000112707FD1A9538CB332727FD3A9534CBF3
:1023B000552747FD5A9530CB772767FD7A952CCB6B
:1023C0008194921C919428CBA194B21CB19424CBFB
:1023D000C194D21CD19420CBE194F21CF1941CCB7B
:1023E0000195121D119518CB2195321D319514CBF5
:1023F0004195521D519510CB6195721D71950CCB75
:10240000D8018D908D019924D9C2D801AD908D014C
:10241000BB24D4C2D801CD908D01DD24CFC2D80118
:10242000ED908D01FF24CAC202CB00000000000025
:102430000000D8012D918D013327C0C2D8014D91E4
:102440008D015527BBC2D8016D918D017727B6C28A
:10245000D9018D909D019924B1C2D901AD909D0102
:10246000BB24ACC2D901CD909D01DD24A7C2D90106
:10247000ED909D01FF24A2C2D9010D919D0111276C
:102480009DC2D5CA0000000000000000D9014D9196
:102490009D01552793C2D9016D919D0177278EC269
:1024A000DA018D90AD01992489C2DA01AD90AD01B8
:1024B000BB2484C2DA01CD90AD01DD247FC2DA01F4
:1024C000ED90AD01FF247AC2DA010D91AD01112723
:1024D00075C2DA012D91AD01332770C2A8CA000080
:1024E000000000000000DA016D91AD01772766C29F
:1024F000DB018D90BD01992461C2DB01AD90BD016E
:10250000BB245CC2DB01CD90BD01DD2457C2DB01E1
:10251000ED90BD01FF2452C2DB010D91BD011127D9
:102520004DC2DB012D91BD01332748C2DB014D9126
:10253000BD01552743C27BCA000000000000000017
:10254000D8018D909D908D0139C2D801AD90BD907C
:102550008D0134C2D801CD90DD908D012FC2D801FC
:10256000ED90FD908D012AC262CA000000000000BB
:102570000000D8012D913D918D0120C2D8014D91CF
:102580005D918D011BC2D8016D917D918D0116C2A7
:10259000D9018D909D909D0111C2D901AD90BD9042
:1025A0009D010CC2D901CD90DD909D0107C2D901DA
:1025B000ED90FD909D0102C2D9010D911D919D01EB
:1025C000FDC135CA0000000000000000D9014D9196
:1025D0005D919D01F3C1D9016D917D919D01EEC188
:1025E000DA018D909D90AD01E9C1DA01AD90BD9009
:1025F000AD01E4C1DA01CD90DD90AD01DFC1DA01BA
:10260000ED90FD90AD01DAC1DA010D911D91AD01A2
:10261000D5C1DA012D913D91AD01D0C108CA0000AC
:10262000000000000000DA016D917D91AD01C6C18E
:10263000DB018D909D90BD01C1C1DB01AD90BD90CE
:10264000BD01BCC1DB01CD90DD90BD01B7C1DB0197
:10265000ED90FD90BD01B2C1DB010D911D91BD0159
:10266000ADC1DB012D913D91BD01A8C1DB014D91B3
:102670005D91BD01A3C1DBC90000000000000000A6
:10268000D8018D929D928D0199C1D801AD92BD92D4
:102690008D0194C1D801CD92DD928D018FC1D801F9
:1026A000ED92FD928D018AC1D8010D931D938D018C
:1026B00085C1D8012D933D938D0180C1D8014D93E3
:1026C0005D938D017BC1D8016D937D938D0176C1A2
:1026D000D9018D929D929D0171C1D901AD92BD929A
:1026E0009D016CC1D901CD92DD929D0167C1D901D7
:1026F000ED92FD929D0162C1D9010D931D939D0143
:102700005DC1D9012D933D939D0158C1D9014D93D0
:102710005D939D0153C1D9016D937D939D014EC180
:10272000DA018D929D92AD0149C1DA01AD92BD925F
:10273000AD0144C1DA01CD92DD92AD013FC1DA01B4
:10274000ED92FD92AD013AC1DA010D931D93AD01F9
:1027500035C1DA012D933D93AD0130C1DA014D93BE
:102760005D93AD012BC1DA016D937D93AD0126C15F
:10277000DB018D929D92BD0121C1DB01AD92BD9225
:10278000BD011CC1DB01CD92DD92BD0117C1DB0192
:10279000ED92FD92BD0112C1DB010D931D93BD01B0
:1027A0000DC1DB012D933D93BD0108C1DB014D93AC
:1027B0005D93BD0103C1DB016D937D93BD01FEC03F
:1027C000880C991CAA1CBB1CF9C08C0C9D1CAE1C4F
:1027D000BF1CF4C0800E911EA21EB31EEFC0840E5B
:1027E000951EA61EB71EEAC0C80CD91CEA1CFB1C0D
:1027F000E5C0CC0CDD1CEE1CFF1CE0C0C00ED11EE1
:10280000E21EF31EDBC0C40ED51EE61EF71ED6C0A8
:10281000080D191D2A1D3B1DD1C00C0D1D1D2E1D9F
:102820003F1DCCC0000F111F221F331FC7C0040F54
:10283000151F261F371FC2C0480D591D6A1D7B1D5D
:10284000BDC04C0D5D1D6E1D7F1DB8C0400F511FDA
:10285000621F731FB3C0440F551F661F771FAEC0A2
:1028600088189908AA08BB08A9C08C189D08AE084A
:10287000BF08A4C0801A910AA20AB30A9FC0841A92
:10288000950AA60AB70A9AC0C818D908EA08FB0828
:1028900095C0CC18DD08EE08FF0890C0C01AD10A18
:1028A000E20AF30A8BC0C41AD50AE60AF70A86C000
:1028B000081919092A093B0981C00C191D092E099B
:1028C0003F097CC0001B110B220B330B77C0041B8C
:1028D000150B260B370B72C0481959096A097B0979
:1028E0006DC04C195D096E097F0968C0401B510B12
:1028F000620B730B63C0441B550B660B770B5EC0FA
:10290000B694A7949794879459C0F694E794D79473
:10291000C79454C036952795179507954FC076955F
:102920006795579547954AC0B594A794979487940F
:1029300045C0F594E794D794C79440C03595279542
:10294000179507953BC0759567955795479536C080
:10295000892899248210832C31C0AB28BB24A21073
:10296000A32C2CC0CD28DD24C210C32C27C0EF28F7
:10297000FF24E210E32C22C0012B11270211032DAA
:102980001DC0232B33272211232D18C0452B55277B
:102990004211432D13C0672B77276211632D0EC0A0
:1029A0000000430C521C621CF8942EBC8EB5789427
:1029B000879DF001FF5F099401C00000430C8EB5B4
:1029C0002EBC521C621C879DF001FF5F0994882475
:1029D0009924F199832CF2CFAA24BB24F199A32C3A
:1029E000EDCFCC24DD24F199C32CE8CFEE24FF24D5
:1029F000F199E32CE3CF00271127F199032DDECFC6
:102A000022273327F199232DD9CF44275527F19930
:102A1000432DD4CF66277727F199632DCFCF882414
:102A20009924F19B832CCACFAA24BB24F19BA32C0D
:102A3000C5CFCC24DD24F19BC32CC0CFEE24FF24D2
:102A4000F19BE32CBBCF00271127F19B032DB6CFC1
:102A500022273327F19B232DB1CF44275527F19B04
:102A6000432DACCF66277727F19B632DA7CF882412
:102A70009924F099832CA2CFAA24BB24F099A32CEB
:102A80009DCFCC24DD24F099C32C98CFEE24FF24D5
:102A9000F099E32C93CF00271127F099032D8ECFC7
:102AA00022273327F099232D89CF44275527F099E2
:102AB000432D84CF66277727F099632D7FCF882415
:102AC0009924F09B832C7ACFAA24BB24F09BA32CBF
:102AD00075CFCC24DD24F09BC32C70CFEE24FF24D3
:102AE000F09BE32C6BCF00271127F09B032D66CFC3
:102AF00022273327F09B232D61CF44275527F09BB6
:102B0000432D5CCF66277727F09B632D57CF882412
:102B10009924F499832C52CFAA24BB24F499A32C92
:102B20004DCFCC24DD24F499C32C48CFEE24FF24D0
:102B3000F499E32C43CF00271127F499032D3ECFBE
:102B400022273327F499232D39CF44275527F49989
:102B5000432D34CF66277727F499632D2FCF882410
:102B60009924F49B832C2ACFAA24BB24F49BA32C66
:102B700025CFCC24DD24F49BC32C20CFEE24FF24CE
:102B8000F49BE32C1BCF00271127F49B032D16CFBA
:102B900022273327F49B232D11CF44275527F49B5D
:102BA000432D0CCF66277727F49B632D07CF6CC08E
:102BB00077C082C08DC098C0A3C0AEC0B9C0C4C029
:102BC000D0C0DCC0E8C0FFCFA02F5EC0A22F5CC089
:102BD000A42F5AC0A62F58C0A02F62C0A22F60C039
:102BE000A42F5EC0A62F5CC0A02F66C0A22F64C019
:102BF000A42F62C0A62F60C0A02F6AC0A22F68C0F9
:102C0000A42F66C0A62F64C0A02F6EC0A22F6CC0D8
:102C1000A42F6AC0A62F68C0A02F72C0A22F70C0B8
:102C2000A42F6EC0A62F6CC0A02F76C0A22F74C098
:102C3000A42F72C0A62F70C0A02F7AC0A22F78C078
:102C4000A42F76C0A62F74C0A02F7EC0A22F7CC058
:102C5000A42F7AC0A62F78C0A02F83C0A22F81C036
:102C6000A42F7FC0A62F7DC0A02F88C0A22F86C012
:102C7000A42F84C0A62F82C0A02F8DC0A22F8BC0EE
:102C8000A42F89C0A62F87C0AF70A3FF03C0102F49
:102C90000027A77021F0000F111FAA95E1F78ECE33
:102CA000AF70A3FF03C0322F2227A77021F0220F9D
:102CB000331FAA95E1F782CEAF70A3FF03C0542F54
:102CC0004427A77021F0440F551FAA95E1F776CE4F
:102CD000AF70A3FF03C0762F6627A77021F0660FA1
:102CE000771FAA95E1F76ACEAF70A3FF03C0012F4B
:102CF0001127A77021F016950795AA95E1F75ECEEA
:102D0000AF70A3FF03C0232F3327A77021F03695A0
:102D10002795AA95E1F752CEAF70A3FF03C0452FC8
:102D20005527A77021F056954795AA95E1F746CE0D
:102D3000AF70A3FF03C0672F7727A77021F07695A8
:102D40006795AA95E1F73ACEAF70A3FF04C0012FB3
:102D5000110F110BA77021F015950795AA95E1F7B2
:102D60002DCEAF70A3FF04C0232F330F330BA770FA
:102D700021F035952795AA95E1F720CEAF70A3FFF6
:102D800004C0452F550F550BA77021F05595479559
:102D9000AA95E1F713CEAF70A3FF04C0672F770F9A
:102DA000770BA77021F075956795AA95E1F706CE88
:102DB000440104CE450102CE460100CE4701FECDBE
:102DC0004801FCCD4901FACD4A01F8CD4B01F6CDC1
:102DD0005401F4CD5501F2CD5601F0CD5701EECDA1
:102DE0005801ECCD5901EACD5A01E8CD5B01E6CDA1
:102DF0006401E4CD6501E2CD6601E0CD6701DECD81
:102E00006801DCCD6901DACD6A01D8CD6B01D6CD80
:102E10007401D4CD7501D2CD7601D0CD7701CECD60
:102E20007801CCCD7901CACD7A01C8CD7B01C6CD60
:102E30008401C4CD8501C2CD8601C0CD8701BECD40
:102E40008801BCCD8901BACD8A01B8CD8B01B6CD40
:102E50009401B4CD9501B2CD9601B0CD9701AECD20
:102E60009801ACCD9901AACD9A01A8CD9B01A6CD20
:102E7000A401A4CDA501A2CDA601A0CDA7019ECD00
:102E8000A8019CCDA9019ACDAA0198CDAB0196CD00
:102E9000B40194CDB50192CDB60190CDB7018ECDE0
:102EA000B8018CCDB9018ACDBA0188CDBB0186CDE0
:102EB000D4017EC0D5017CC0D6017AC0D70178C0CC
:102EC000D80176C0D90174C0DA0172C0DB0170C0CC
:102ED000D40176C0D50174C0D60172C0D70170C0CC
:102EE000D8016EC0D9016CC0DA016AC0DB0168C0CC
:102EF000D4016EC0D5016CC0D6016AC0D70168C0CC
:102F0000D80166C0D90164C0DA0162C0DB0160C0CB
:102F1000D40166C0D50164C0D60162C0D70160C0CB
:102F2000D8015EC0D9015CC0DA015AC0DB0158C0CB
:102F3000D4015EC0D5015CC0D6015AC0D70158C0CB
:102F4000D80156C0D90154C0DA0152C0DB0150C0CB
:102F5000D40156C0D50154C0D60152C0D70150C0CB
:102F6000D8014EC0D9014CC0DA014AC0DB0148C0CB
:102F7000D4014EC0D5014CC0D6014AC0D70148C0CB
:102F8000D80146C0D90144C0DA0142C0DB0140C0CB
:102F9000D40146C0D50144C0D60142C0D70140C0CB
:102FA000D8013EC0D9013CC0DA013AC0DB0138C0CB
:102FB000F401EA9F4001FA9F900CEB9F900CFECC2D
:102FC000F501EA9F5001FA9FB00CEB9FB00CF6CCD4
:102FD000F601EA9F6001FA9FD00CEB9FD00CEECC7B
:102FE000F701EA9F7001FA9FF00CEB9FF00CE6CC22
:102FF000F801EA9F8001FA9F100DEB9F100DDECCC7
:10300000F901EA9F9001FA9F300DEB9F300DD6CC6D
:10301000FA01EA9FA001FA9F500DEB9F500DCECC14
:10302000FB01EA9FB001FA9F700DEB9F700DC6CCBB
:10303000599AE3E05998EEBDA091000AA50DB09110
:10304000010AB61D10D0BEBD08D0AEBD06D04EBC24
:1030500004D02EBC00C007D00895000000C00000BE
:10306000000000000000000000C00895F894AFEFD9
:10307000ADBFAAE0AEBF2224A1E03A2EA4E07A2E92
:103080002092060A2092070A2092080A2092090A32
:1030900020920A0AC0E0DAE02EBAE9D0A0E5ACBD81
:1030A000A1E0ADBD1BD15998EBEAD7D0599ADBD03E
:1030B000E4E1F0E0459155914831C1F45539B1F45E
:1030C000B591A591A093000AB093010A459155913D
:1030D000483121F5553911F5B591A591A093020A12
:1030E000B093030AA1E0A093060A18C06FEFBFEFE8
:1030F000A8EF4427552782D088F06FEFBFEEA8EFE6
:1031000040EF5FEF7BD008F066C0A0EFBFEFA09369
:10311000020AB093030AA1E0A093060AAA27B0917D
:10312000000A6091010A8CD096D0E13409F053C0B6
:1031300092D0E63509F04FC08ED0ED3409F04BC087
:103140008AD0E13009F047C086D0E13009F043C0B1
:1031500082D04E2E80D05E2E7ED06E2E7CD00E2F52
:103160007AD01E2F78D04E2FE093040A74D05E2FB1
:10317000E093050A599A0417150708F42CC0143077
:1031800028F009F028C0002309F025C04215520597
:1031900021F0A091060AA0FF1EC00215120589F0B9
:1031A000B091000A6091010AB39509F46395AA27CA
:1031B00047D0A0E0B1E04FD0ED9301501040D9F7D7
:1031C000599A0CD035DF8EB52EBC78940000879DBF
:1031D000F001FF5F0994F894599AFFCF25BC209223
:1031E0006E00A2E0A4BD26BCA9EFA7BDA2E0A5BBCE
:1031F000A2E0A0936E00A3E0A5BD089521D02BD03E
:10320000E134D9F428D0E635C1F425D0E435A9F469
:1032100022D0E13091F41FD00E2E1DD01E2E599ACF
:103220000214120459F0A42FB52FA019B109A093CC
:10323000000AB093010A08940895599A8894089551
:10324000599A5998E3E009D0E62F07D0EB2F05D023
:10325000EA2F03D00895E22D00C0EEBDFDB5F7FFC3
:10326000FDCFEEB50895A0E2AA95F1F7089529984B
:10327000219A2A98229A23982B98599A519A5E98C3
:10328000569A5C9A549A5F98579A2E9A269A2F9A31
:10329000279A2D9A259A5D9A559A289A209A859868
:1032A0008D9A86988E9A87988F9A84988C9A6E9821
:1032B000769A24982C9A81988998A1ECA0937C0006
:1032C000089588E699279A95F1F78A95D9F7089590
:1032D000AEBDBDB5B7FFFDCFAEB50895F2DF5F9AC5
:1032E000F0DF5E985C98ECEFF2E38DE0A591F0DF03
:1032F0008A95E1F75C9A5E9A599A0895D5F08D14F3
:0A330000A1C881CFD9F1AF20000071
:00000001FF
