:100000000C9457000C9456000C9456000C94560017
:100010000C9456000C9456000C9456000C94560008
:100020000C9456000C9456000C9456000C945600F8
:100030000C9456000C9456000C9456000C945600E8
:100040000C9456000C9456000C9456000C945600D8
:100050000C9456000C9456000C9456000C945600C8
:100060000C9456000C9456000C9456000C945600B8
:100070000C9456000C9456000C9456000C945600A8
:100080000C9456000C9456000C9456000C94560098
:100090000C9456000C9456000C9456000C94560088
:1000A0000C9456000C9456000C945600FFCF0C9400
:1000B00087180000000000000000000000000000A1
:1000C0000000000000000000000000000000000030
:1000D0000000000000000000000000000000000020
:1000E0000000000000000000000000000000000010
:1000F0000000000000000000000000000000000000
:1001000000000000000000000000000000000000EF
:1001100000000000000000000000000000000000DF
:1001200000000000000000000000000000000000CF
:1001300000000000000000000000000000000000BF
:1001400000000000000000000000000000000000AF
:10015000000000000000000000000000000000009F
:10016000000000000000000000000000000000008F
:10017000000000000000000000000000000000007F
:10018000000000000000000000000000000000006F
:10019000000000000000000000000000000000005F
:1001A000000000000000000000000000000000004F
:1001B000000000000000000000000000000000003F
:1001C000000000000000000000000000000000002F
:1001D000000000000000000000000000000000001F
:1001E000000000000000000000000000000000000F
:1001F00000000000000000000000000000000000FF
:10020000C895002711270196F8942EBC6EB47894F7
:10021000679CF001FF5F09940000000000000000EF
:1002200000C000C089010196F8942EBC6EB4789489
:10023000679CF001FF5F09940000000000000000CF
:1002400000C000C08A010196F8942EBC6EB4789468
:10025000679CF001FF5F09940000000000000000AF
:1002600000C000C08B010196F8942EBC6EB4789447
:10027000679CF001FF5F099400000000000000008F
:1002800000C000C098010196F8942EBC6EB478941A
:10029000679CF001FF5F099400000000000000006F
:1002A000C895222733270196F8942EBC6EB4789413
:1002B000679CF001FF5F099400000000000000004F
:1002C00000C000C09A010196F8942EBC6EB47894D8
:1002D000679CF001FF5F099400000000000000002F
:1002E00000C000C09B010196F8942EBC6EB47894B7
:1002F000679CF001FF5F099400000000000000000F
:1003000000C000C0A8010196F8942EBC6EB4789489
:10031000679CF001FF5F09940000000000000000EE
:1003200000C000C0A9010196F8942EBC6EB4789468
:10033000679CF001FF5F09940000000000000000CE
:10034000C895442755270196F8942EBC6EB478942E
:10035000679CF001FF5F09940000000000000000AE
:1003600000C000C0AB010196F8942EBC6EB4789426
:10037000679CF001FF5F099400000000000000008E
:1003800000C000C0B8010196F8942EBC6EB47894F9
:10039000679CF001FF5F099400000000000000006E
:1003A00000C000C0B9010196F8942EBC6EB47894D8
:1003B000679CF001FF5F099400000000000000004E
:1003C00000C000C0BA010196F8942EBC6EB47894B7
:1003D000679CF001FF5F099400000000000000002E
:1003E000C895662777270196F8942EBC6EB478944A
:1003F000679CF001FF5F099400000000000000000E
:100400000000D8010C9111270196F8942EBC6EB40F
:100410007894679CF001FF5F0994000000000000E1
:100420000000D9010C9111270196F8942EBC6EB4EE
:100430007894679CF001FF5F0994000000000000C1
:100440000000DA010C9111270196F8942EBC6EB4CD
:100450007894679CF001FF5F0994000000000000A1
:100460000000DB010C9111270196F8942EBC6EB4AC
:100470007894679CF001FF5F099400000000000081
:100480000000D8012C9133270196F8942EBC6EB44D
:100490007894679CF001FF5F099400000000000061
:1004A0000000D9012C9133270196F8942EBC6EB42C
:1004B0007894679CF001FF5F099400000000000041
:1004C0000000DA012C9133270196F8942EBC6EB40B
:1004D0007894679CF001FF5F099400000000000021
:1004E0000000DB012C9133270196F8942EBC6EB4EA
:1004F0007894679CF001FF5F099400000000000001
:100500000000D8014C9155270196F8942EBC6EB48A
:100510007894679CF001FF5F0994000000000000E0
:100520000000D9014C9155270196F8942EBC6EB469
:100530007894679CF001FF5F0994000000000000C0
:100540000000DA014C9155270196F8942EBC6EB448
:100550007894679CF001FF5F0994000000000000A0
:100560000000DB014C9155270196F8942EBC6EB427
:100570007894679CF001FF5F099400000000000080
:100580000000D8016C9177270196F8942EBC6EB4C8
:100590007894679CF001FF5F099400000000000060
:1005A0000000D9016C9177270196F8942EBC6EB4A7
:1005B0007894679CF001FF5F099400000000000040
:1005C0000000DA016C9177270196F8942EBC6EB486
:1005D0007894679CF001FF5F099400000000000020
:1005E0000000DB016C9177270196F8942EBC6EB465
:1005F0007894679CF001FF5F099400000000000000
:1006000000C0D8010C930196F8942EBC6EB4789477
:10061000679CF001FF5F09940000000000000000EB
:1006200000C0D8012C930196F8942EBC6EB4789437
:10063000679CF001FF5F09940000000000000000CB
:1006400000C0D8014C930196F8942EBC6EB47894F7
:10065000679CF001FF5F09940000000000000000AB
:1006600000C0D8016C930196F8942EBC6EB47894B7
:10067000679CF001FF5F099400000000000000008B
:1006800000C0D9010C930196F8942EBC6EB47894F6
:10069000679CF001FF5F099400000000000000006B
:1006A00000C0D9012C930196F8942EBC6EB47894B6
:1006B000679CF001FF5F099400000000000000004B
:1006C00000C0D9014C930196F8942EBC6EB4789476
:1006D000679CF001FF5F099400000000000000002B
:1006E00000C0D9016C930196F8942EBC6EB4789436
:1006F000679CF001FF5F099400000000000000000B
:1007000000C0DA010C930196F8942EBC6EB4789474
:10071000679CF001FF5F09940000000000000000EA
:1007200000C0DA012C930196F8942EBC6EB4789434
:10073000679CF001FF5F09940000000000000000CA
:1007400000C0DA014C930196F8942EBC6EB47894F4
:10075000679CF001FF5F09940000000000000000AA
:1007600000C0DA016C930196F8942EBC6EB47894B4
:10077000679CF001FF5F099400000000000000008A
:1007800000C0DB010C930196F8942EBC6EB47894F3
:10079000679CF001FF5F099400000000000000006A
:1007A00000C0DB012C930196F8942EBC6EB47894B3
:1007B000679CF001FF5F099400000000000000004A
:1007C00000C0DB014C930196F8942EBC6EB4789473
:1007D000679CF001FF5F099400000000000000002A
:1007E00000C0DB016C930196F8942EBC6EB4789433
:1007F000679CF001FF5F099400000000000000000A
:10080000D8010D911C910196F8942EBC6EB4789489
:10081000679CF001FF5F09940000000000000000E9
:10082000D9010D911C910196F8942EBC6EB4789468
:10083000679CF001FF5F09940000000000000000C9
:10084000DA010D911C910196F8942EBC6EB4789447
:10085000679CF001FF5F09940000000000000000A9
:10086000DB010D911C910196F8942EBC6EB4789426
:10087000679CF001FF5F0994000000000000000089
:10088000D8012D913C910196F8942EBC6EB47894C9
:10089000679CF001FF5F0994000000000000000069
:1008A000D9012D913C910196F8942EBC6EB47894A8
:1008B000679CF001FF5F0994000000000000000049
:1008C000DA012D913C910196F8942EBC6EB4789487
:1008D000679CF001FF5F0994000000000000000029
:1008E000DB012D913C910196F8942EBC6EB4789466
:1008F000679CF001FF5F0994000000000000000009
:10090000D8014D915C910196F8942EBC6EB4789408
:10091000679CF001FF5F09940000000000000000E8
:10092000D9014D915C910196F8942EBC6EB47894E7
:10093000679CF001FF5F09940000000000000000C8
:10094000DA014D915C910196F8942EBC6EB47894C6
:10095000679CF001FF5F09940000000000000000A8
:10096000DB014D915C910196F8942EBC6EB47894A5
:10097000679CF001FF5F0994000000000000000088
:10098000D8016D917C910196F8942EBC6EB4789448
:10099000679CF001FF5F0994000000000000000068
:1009A000D9016D917C910196F8942EBC6EB4789427
:1009B000679CF001FF5F0994000000000000000048
:1009C000DA016D917C910196F8942EBC6EB4789406
:1009D000679CF001FF5F0994000000000000000028
:1009E000DB016D917C910196F8942EBC6EB47894E5
:1009F000679CF001FF5F0994000000000000000008
:100A0000D8010D931C930196F8942EBC6EB4789483
:100A1000679CF001FF5F09940000000000000000E7
:100A2000D8012D933C930196F8942EBC6EB4789423
:100A3000679CF001FF5F09940000000000000000C7
:100A4000D8014D935C930196F8942EBC6EB47894C3
:100A5000679CF001FF5F09940000000000000000A7
:100A6000D8016D937C930196F8942EBC6EB4789463
:100A7000679CF001FF5F0994000000000000000087
:100A8000D9010D931C930196F8942EBC6EB4789402
:100A9000679CF001FF5F0994000000000000000067
:100AA000D9012D933C930196F8942EBC6EB47894A2
:100AB000679CF001FF5F0994000000000000000047
:100AC000D9014D935C930196F8942EBC6EB4789442
:100AD000679CF001FF5F0994000000000000000027
:100AE000D9016D937C930196F8942EBC6EB47894E2
:100AF000679CF001FF5F0994000000000000000007
:100B0000DA010D931C930196F8942EBC6EB4789480
:100B1000679CF001FF5F09940000000000000000E6
:100B2000DA012D933C930196F8942EBC6EB4789420
:100B3000679CF001FF5F09940000000000000000C6
:100B4000DA014D935C930196F8942EBC6EB47894C0
:100B5000679CF001FF5F09940000000000000000A6
:100B6000DA016D937C930196F8942EBC6EB4789460
:100B7000679CF001FF5F0994000000000000000086
:100B8000DB010D931C930196F8942EBC6EB47894FF
:100B9000679CF001FF5F0994000000000000000066
:100BA000DB012D933C930196F8942EBC6EB478949F
:100BB000679CF001FF5F0994000000000000000046
:100BC000DB014D935C930196F8942EBC6EB478943F
:100BD000679CF001FF5F0994000000000000000026
:100BE000DB016D937C930196F8942EBC6EB47894DF
:100BF000679CF001FF5F0994000000000000000006
:100C0000C895082119210196F8942EBC6EB47894E9
:100C1000679CF001FF5F09940000000000000000E5
:100C2000C8950A211B210196F8942EBC6EB47894C5
:100C3000679CF001FF5F09940000000000000000C5
:100C4000C8950C211D210196F8942EBC6EB47894A1
:100C5000679CF001FF5F09940000000000000000A5
:100C6000C8950E211F210196F8942EBC6EB478947D
:100C7000679CF001FF5F0994000000000000000085
:100C8000C895002311230196F8942EBC6EB4789475
:100C9000679CF001FF5F0994000000000000000065
:100CA000C895022313230196F8942EBC6EB4789451
:100CB000679CF001FF5F0994000000000000000045
:100CC000C895042315230196F8942EBC6EB478942D
:100CD000679CF001FF5F0994000000000000000025
:100CE000C895062317230196F8942EBC6EB4789409
:100CF000679CF001FF5F0994000000000000000005
:100D00000C946311000000000000000000000000CF
:100D100000000000000000000000000000000000D3
:100D20000C946311000000000000000000000000AF
:100D300000000000000000000000000000000000B3
:100D40000C9463110000000000000000000000008F
:100D50000000000000000000000000000000000093
:100D60000C9463110000000000000000000000006F
:100D70000000000000000000000000000000000073
:100D80000C9463110000000000000000000000004F
:100D90000000000000000000000000000000000053
:100DA0000C9463110000000000000000000000002F
:100DB0000000000000000000000000000000000033
:100DC0000C9463110000000000000000000000000F
:100DD0000000000000000000000000000000000013
:100DE0000C946311000000000000000000000000EF
:100DF00000000000000000000000000000000000F3
:100E00000C946311000000000000000000000000CE
:100E100000000000000000000000000000000000D2
:100E20000C946311000000000000000000000000AE
:100E300000000000000000000000000000000000B2
:100E40000C9463110000000000000000000000008E
:100E50000000000000000000000000000000000092
:100E60000C9463110000000000000000000000006E
:100E70000000000000000000000000000000000072
:100E80000C9463110000000000000000000000004E
:100E90000000000000000000000000000000000052
:100EA0000C9463110000000000000000000000002E
:100EB0000000000000000000000000000000000032
:100EC0000C9463110000000000000000000000000E
:100ED0000000000000000000000000000000000012
:100EE0000C946311000000000000000000000000EE
:100EF00000000000000000000000000000000000F2
:100F00000C946311000000000000000000000000CD
:100F100000000000000000000000000000000000D1
:100F20000C946311000000000000000000000000AD
:100F300000000000000000000000000000000000B1
:100F40000C9463110000000000000000000000008D
:100F50000000000000000000000000000000000091
:100F60000C9463110000000000000000000000006D
:100F70000000000000000000000000000000000071
:100F80000C9463110000000000000000000000004D
:100F90000000000000000000000000000000000051
:100FA0000C9463110000000000000000000000002D
:100FB0000000000000000000000000000000000031
:100FC0000C9463110000000000000000000000000D
:100FD0000000000000000000000000000000000011
:100FE0000C946311000000000000000000000000ED
:100FF00000000000000000000000000000000000F1
:1010000000009A928A920196F8942EBC6EB478945D
:10101000679CF001FF5F09940000000000000000E1
:101020000000BA92AA920196F8942EBC6EB47894FD
:10103000679CF001FF5F09940000000000000000C1
:101040000000DA92CA920196F8942EBC6EB478949D
:10105000679CF001FF5F09940000000000000000A1
:101060000000FA92EA920196F8942EBC6EB478943D
:10107000679CF001FF5F0994000000000000000081
:1010800000001A930A930196F8942EBC6EB47894DB
:10109000679CF001FF5F0994000000000000000061
:1010A00000003A932A930196F8942EBC6EB478947B
:1010B000679CF001FF5F0994000000000000000041
:1010C00000005A934A930196F8942EBC6EB478941B
:1010D000679CF001FF5F0994000000000000000021
:1010E00000007A936A930196F8942EBC6EB47894BB
:1010F000679CF001FF5F0994000000000000000001
:101100000000899099900196F8942EBC6EB4789462
:10111000679CF001FF5F09940000000000000000E0
:101120000000A990B9900196F8942EBC6EB4789402
:10113000679CF001FF5F09940000000000000000C0
:101140000000C990D9900196F8942EBC6EB47894A2
:10115000679CF001FF5F09940000000000000000A0
:101160000000E990F9900196F8942EBC6EB4789442
:10117000679CF001FF5F0994000000000000000080
:101180000000099119910196F8942EBC6EB47894E0
:10119000679CF001FF5F0994000000000000000060
:1011A0000000299139910196F8942EBC6EB4789480
:1011B000679CF001FF5F0994000000000000000040
:1011C0000000499159910196F8942EBC6EB4789420
:1011D000679CF001FF5F0994000000000000000020
:1011E0000000699179910196F8942EBC6EB47894C0
:1011F000679CF001FF5F0994000000000000000000
:1012000000C0000F111F3FB60196F8942EBC6EB4BB
:101210007894679CF001FF5F0994000000000000D3
:1012200000C0020F131F3FB60196F8942EBC6EB497
:101230007894679CF001FF5F0994000000000000B3
:1012400000C0040F151F3FB60196F8942EBC6EB473
:101250007894679CF001FF5F099400000000000093
:1012600000C0060F171F3FB60196F8942EBC6EB44F
:101270007894679CF001FF5F099400000000000073
:1012800000C0200F311F3FB60196F8942EBC6EB4FB
:101290007894679CF001FF5F099400000000000053
:1012A00000C0220F331F3FB60196F8942EBC6EB4D7
:1012B0007894679CF001FF5F099400000000000033
:1012C00000C0240F351F3FB60196F8942EBC6EB4B3
:1012D0007894679CF001FF5F099400000000000013
:1012E00000C0260F371F3FB60196F8942EBC6EB48F
:1012F0007894679CF001FF5F0994000000000000F3
:1013000000C0400F511F3FB60196F8942EBC6EB43A
:101310007894679CF001FF5F0994000000000000D2
:1013200000C0420F531F3FB60196F8942EBC6EB416
:101330007894679CF001FF5F0994000000000000B2
:1013400000C0440F551F3FB60196F8942EBC6EB4F2
:101350007894679CF001FF5F099400000000000092
:1013600000C0460F571F3FB60196F8942EBC6EB4CE
:101370007894679CF001FF5F099400000000000072
:1013800000C0600F711F3FB60196F8942EBC6EB47A
:101390007894679CF001FF5F099400000000000052
:1013A00000C0620F731F3FB60196F8942EBC6EB456
:1013B0007894679CF001FF5F099400000000000032
:1013C00000C0640F751F3FB60196F8942EBC6EB432
:1013D0007894679CF001FF5F099400000000000012
:1013E00000C0660F771F3FB60196F8942EBC6EB40E
:1013F0007894679CF001FF5F0994000000000000F2
:1014000000C0001B110B3FB60196F8942EBC6EB4C1
:101410007894679CF001FF5F0994000000000000D1
:1014200000C0021B130B3FB60196F8942EBC6EB49D
:101430007894679CF001FF5F0994000000000000B1
:1014400000C0041B150B3FB60196F8942EBC6EB479
:101450007894679CF001FF5F099400000000000091
:1014600000C0061B170B3FB60196F8942EBC6EB455
:101470007894679CF001FF5F099400000000000071
:1014800000C0201B310B3FB60196F8942EBC6EB401
:101490007894679CF001FF5F099400000000000051
:1014A00000C0221B330B3FB60196F8942EBC6EB4DD
:1014B0007894679CF001FF5F099400000000000031
:1014C00000C0241B350B3FB60196F8942EBC6EB4B9
:1014D0007894679CF001FF5F099400000000000011
:1014E00000C0261B370B3FB60196F8942EBC6EB495
:1014F0007894679CF001FF5F0994000000000000F1
:1015000000C0401B510B3FB60196F8942EBC6EB440
:101510007894679CF001FF5F0994000000000000D0
:1015200000C0421B530B3FB60196F8942EBC6EB41C
:101530007894679CF001FF5F0994000000000000B0
:1015400000C0441B550B3FB60196F8942EBC6EB4F8
:101550007894679CF001FF5F099400000000000090
:1015600000C0461B570B3FB60196F8942EBC6EB4D4
:101570007894679CF001FF5F099400000000000070
:1015800000C0601B710B3FB60196F8942EBC6EB480
:101590007894679CF001FF5F099400000000000050
:1015A00000C0621B730B3FB60196F8942EBC6EB45C
:1015B0007894679CF001FF5F099400000000000030
:1015C00000C0641B750B3FB60196F8942EBC6EB438
:1015D0007894679CF001FF5F099400000000000010
:1015E00000C0661B770B3FB60196F8942EBC6EB414
:1015F0007894679CF001FF5F0994000000000000F0
:1016000000C0021512053FB60196F8942EBC6EB4C8
:101610007894679CF001FF5F0994000000000000CF
:1016200000C0021713073FB60196F8942EBC6EB4A3
:101630007894679CF001FF5F0994000000000000AF
:1016400000C0041715073FB60196F8942EBC6EB47F
:101650007894679CF001FF5F09940000000000008F
:1016600000C0061717073FB60196F8942EBC6EB45B
:101670007894679CF001FF5F09940000000000006F
:1016800000C0201731073FB60196F8942EBC6EB407
:101690007894679CF001FF5F09940000000000004F
:1016A00000C0221532053FB60196F8942EBC6EB4E8
:1016B0007894679CF001FF5F09940000000000002F
:1016C00000C0241735073FB60196F8942EBC6EB4BF
:1016D0007894679CF001FF5F09940000000000000F
:1016E00000C0261737073FB60196F8942EBC6EB49B
:1016F0007894679CF001FF5F0994000000000000EF
:1017000000C0401751073FB60196F8942EBC6EB446
:101710007894679CF001FF5F0994000000000000CE
:1017200000C0421753073FB60196F8942EBC6EB422
:101730007894679CF001FF5F0994000000000000AE
:1017400000C0421552053FB60196F8942EBC6EB407
:101750007894679CF001FF5F09940000000000008E
:1017600000C0461757073FB60196F8942EBC6EB4DA
:101770007894679CF001FF5F09940000000000006E
:1017800000C0601771073FB60196F8942EBC6EB486
:101790007894679CF001FF5F09940000000000004E
:1017A00000C0621773073FB60196F8942EBC6EB462
:1017B0007894679CF001FF5F09940000000000002E
:1017C00000C0641775073FB60196F8942EBC6EB43E
:1017D0007894679CF001FF5F09940000000000000E
:1017E00000C0621572053FB60196F8942EBC6EB427
:1017F0007894679CF001FF5F0994000000000000EE
:10180000C89502153FB60196F8942EBC6EB4789434
:10181000679CF001FF5F09940000000000000000D9
:10182000C89502173FB60196F8942EBC6EB4789412
:10183000679CF001FF5F09940000000000000000B9
:10184000C89504173FB60196F8942EBC6EB47894F0
:10185000679CF001FF5F0994000000000000000099
:10186000C89506173FB60196F8942EBC6EB47894CE
:10187000679CF001FF5F0994000000000000000079
:10188000C89520173FB60196F8942EBC6EB4789494
:10189000679CF001FF5F0994000000000000000059
:1018A000C89522153FB60196F8942EBC6EB4789474
:1018B000679CF001FF5F0994000000000000000039
:1018C000C89524173FB60196F8942EBC6EB4789450
:1018D000679CF001FF5F0994000000000000000019
:1018E000C89526173FB60196F8942EBC6EB478942E
:1018F000679CF001FF5F09940000000000000000F9
:10190000C89540173FB60196F8942EBC6EB47894F3
:10191000679CF001FF5F09940000000000000000D8
:10192000C89542173FB60196F8942EBC6EB47894D1
:10193000679CF001FF5F09940000000000000000B8
:10194000C89542153FB60196F8942EBC6EB47894B3
:10195000679CF001FF5F0994000000000000000098
:10196000C89546173FB60196F8942EBC6EB478948D
:10197000679CF001FF5F0994000000000000000078
:10198000C89560173FB60196F8942EBC6EB4789453
:10199000679CF001FF5F0994000000000000000058
:1019A000C89562173FB60196F8942EBC6EB4789431
:1019B000679CF001FF5F0994000000000000000038
:1019C000C89564173FB60196F8942EBC6EB478940F
:1019D000679CF001FF5F0994000000000000000018
:1019E000C89562153FB60196F8942EBC6EB47894F3
:1019F000679CF001FF5F09940000000000000000F8
:101A000031FE67C40196895090400C940511000086
:101A100000000000000000000000000000000000C6
:101A200031FE57C40196885090400C940511000077
:101A300000000000000000000000000000000000A6
:101A400031FE47C40196875090400C940511000068
:101A50000000000000000000000000000000000086
:101A600031FE37C40196865090400C940511000059
:101A70000000000000000000000000000000000066
:101A800031FE27C40196855090400C94051100004A
:101A90000000000000000000000000000000000046
:101AA00031FE17C40196845090400C94051100003B
:101AB0000000000000000000000000000000000026
:101AC00031FE07C40196835090400C94051100002C
:101AD0000000000000000000000000000000000006
:101AE00031FEF7C30196825090400C94051100001E
:101AF00000000000000000000000000000000000E6
:101B000031FEE7C301968F5F9F4F0C9405110000D3
:101B100000000000000000000000000000000000C5
:101B200031FED7C301968E5F9F4F0C9405110000C4
:101B300000000000000000000000000000000000A5
:101B400031FEC7C301968D5F9F4F0C9405110000B5
:101B50000000000000000000000000000000000085
:101B600031FEB7C301968C5F9F4F0C9405110000A6
:101B70000000000000000000000000000000000065
:101B800031FEA7C301968B5F9F4F0C940511000097
:101B90000000000000000000000000000000000045
:101BA00031FE97C301968A5F9F4F0C940511000088
:101BB0000000000000000000000000000000000025
:101BC00031FE87C30196895F9F4F0C940511000079
:101BD0000000000000000000000000000000000005
:101BE00031FE77C30196885F9F4F0C94051100006A
:101BF00000000000000000000000000000000000E5
:101C000031FC67C30196895090400C940511000087
:101C100000000000000000000000000000000000C4
:101C200031FC57C30196885090400C940511000078
:101C300000000000000000000000000000000000A4
:101C400031FC47C30196875090400C940511000069
:101C50000000000000000000000000000000000084
:101C600031FC37C30196865090400C94051100005A
:101C70000000000000000000000000000000000064
:101C800031FC27C30196855090400C94051100004B
:101C90000000000000000000000000000000000044
:101CA00031FC17C30196845090400C94051100003C
:101CB0000000000000000000000000000000000024
:101CC00031FC07C30196835090400C94051100002D
:101CD0000000000000000000000000000000000004
:101CE00031FCF7C20196825090400C94051100001F
:101CF00000000000000000000000000000000000E4
:101D000031FCE7C201968F5F9F4F0C9405110000D4
:101D100000000000000000000000000000000000C3
:101D200031FCD7C201968E5F9F4F0C9405110000C5
:101D300000000000000000000000000000000000A3
:101D400031FCC7C201968D5F9F4F0C9405110000B6
:101D50000000000000000000000000000000000083
:101D600031FCB7C201968C5F9F4F0C9405110000A7
:101D70000000000000000000000000000000000063
:101D800031FCA7C201968B5F9F4F0C940511000098
:101D90000000000000000000000000000000000043
:101DA00031FC97C201968A5F9F4F0C940511000089
:101DB0000000000000000000000000000000000023
:101DC00031FC87C20196895F9F4F0C94051100007A
:101DD0000000000000000000000000000000000003
:101DE00031FC77C20196885F9F4F0C94051100006B
:101DF00000000000000000000000000000000000E3
:101E00000196C89578C200000000000000000000A4
:101E100000000000000000000000000000000000C2
:101E20000C9463110000000000000000000000009E
:101E300000000000000000000000000000000000A2
:101E40000C9463110000000000000000000000007E
:101E50000000000000000000000000000000000082
:101E60000196C89551C2000000000000000000006B
:101E70000000000000000000000000000000000062
:101E80000196C895DBC400000000000000000000BF
:101E90000000000000000000000000000000000042
:101EA000BCC10000000000000000000000000000B5
:101EB0000000000000000000000000000000000022
:101EC000B7C100000000000000000000000000009A
:101ED0000000000000000000000000000000000002
:101EE000B3C100000000000000000000000000007E
:101EF00000000000000000000000000000000000E2
:101F00000C946311000000000000000000000000BD
:101F100000000000000000000000000000000000C1
:101F20000196C8959FC4000000000000000000005A
:101F300000000000000000000000000000000000A1
:101F40009AC1000000000000000000000000000036
:101F50000000000000000000000000000000000081
:101F60008DC1000000000000000000000000000023
:101F70000000000000000000000000000000000061
:101F8000C895A8C10000000000000000000000008B
:101F90000000000000000000000000000000000041
:101FA0000C9464110000000000000000000000001C
:101FB0000000000000000000000000000000000021
:101FC0000C946411000000000000000000000000FC
:101FD0000000000000000000000000000000000001
:101FE0000C946411000000000000000000000000DC
:101FF00000000000000000000000000000000000E1
:1020000000C000C0C895F8942EBC0EB57894019617
:1020100011275DC10000000000000000000000006A
:1020200000C000C0C895F8942EBC2EB578940196D7
:1020300033274DC100000000000000000000000038
:1020400000C000C0C895F8942EBC4EB57894019697
:1020500055273DC100000000000000000000000006
:1020600000C000C0C895F8942EBC6EB57894019657
:1020700077272DC1000000000000000000000000D4
:102080000196C895D2C200000000000000000000C8
:102090000000000000000000000000000000000040
:1020A000019600C000C00000F8942EBC6EB4789475
:1020B00031FE19C11AC1000000000000000000003C
:1020C000019600C000C00000F8942EBC6EB4789455
:1020D00031FC09C10AC1000000000000000000003E
:1020E000019600C000C00000F8942EBC6EB4789435
:1020F00030FEF9C0FAC0000000000000000000003F
:10210000019600C000C00000F8942EBC6EB4789414
:1021100030FCE9C0EAC00000000000000000000040
:10212000019600C000C00000F8942EBC6EB47894F4
:1021300034FED9C0DAC0000000000000000000003A
:10214000019600C000C00000F8942EBC6EB47894D4
:1021500034FCC9C0CAC0000000000000000000003C
:10216000019600C000C00000F8942EBC6EB47894B4
:10217000A32DA37009F4B7C0B8C000000000000090
:10218000019600C000C00000F8942EBC6EB4789494
:10219000A32DA37009F0A7C0A8C000000000000094
:1021A0000196C89570C40000000000000000000007
:1021B000000000000000000000000000000000001F
:1021C00062C00000000000000000000000000000ED
:1021D00000000000000000000000000000000000FF
:1021E0006BC00000000000000000000000000000C4
:1021F00000000000000000000000000000000000DF
:10220000AAB5AA939A938A93089568D76EB42EBC00
:1022100000C0679CF001FF5F0994019600C000C0F8
:1022200000C06EB40196860D921D67FC9A95EDCFA5
:10223000019600C000C000C06EB40196E1DF860DBB
:10224000921D67FC9A95E1CF019600C000C0000086
:10225000F8942EBC6EB47894C60DD21D67FCDA9546
:1022600055D738C000C000C000C000C02EBC4EB45E
:102270004BD75EB40895F6DFC201C7CFF3DF0396F4
:10228000BFDFC201C2CF00C000C000C000C02EBC72
:102290004EB43AD72EBC5EB437D76EB440FC05C0FE
:1022A0004694440CC2016ABCB0CF4694440C0496D8
:1022B000A7DFC2016ABCA9CF8991999169906ABCD4
:1022C00000C000C0A2CFFFCFFFCFFFCFFFCF00C025
:1022D00000C000C00196F8942EBC6EB47894679C40
:1022E000F001FF5F099412D7F5CF0196860D921D7C
:1022F00067FC9A958ACFF8942EBC6EB47894E7E97F
:10230000F1E1E60DF21D0994F8942EBC6EB47894B8
:10231000A62DA07C31F4660CE2EEF9E1E60DF21D8B
:102320000994A03C11F00C9491190C94A519FFC0CC
:10233000FEC0FDC0FCC0FBC0FAC0F9C0F8C003C1BC
:1023400002C101C100C1FFC0FEC0FDC0FCC009C187
:1023500008C107C106C105C104C103C102C10EC144
:102360000DC10CC10BC10AC109C108C107C1ABCF66
:10237000AACFA9CFA8CFA7CFA6CFA5CFA4CF0CC156
:102380000BC10AC109C108C107C106C105C19BCF64
:102390009ACF99CF98CF97CF96CF95CF94CF93CF11
:1023A00092CF91CF90CF8FCF8ECF8DCF8CCF8BCF41
:1023B0008ACF89CF88CF87CF86CF85CF84CFF8C00B
:1023C000F7C0F6C0F5C0F4C0F3C0F2C0F1C0F8C069
:1023D000F7C0F6C0F5C0F4C0F3C0F2C0F1C0FAC057
:1023E000F9C0F8C0F7C0F6C0F5C0F4C0F3C0FBC038
:1023F000FAC0F9C0F8C0F7C0F6C0F5C0F4C0FBC021
:10240000FAC0F9C0F8C0F7C0F6C0F5C0F4C0FCC00F
:10241000FBC0FAC0F9C0F8C0F7C0F6C0F5C0FCC0F8
:10242000FBC0FAC0F9C0F8C0F7C0F6C0F5C04BCF8A
:102430004ACF49CF48CF47CF46CF45CF44CF43CFF0
:1024400042CF41CF40CF3FCF3ECF3DCF3CCF3BCF20
:102450003ACF39CF38CF37CF36CF35CF34CF33CF50
:1024600032CF31CF30CF2FCF2ECF2DCF2CCF2BCF80
:102470002ACF29CF28CF27CF26CF25CF24CF23CFB0
:1024800022CF21CF20CF1FCF1ECF1DCF1CCF1BCFE0
:102490001ACF19CF18CF17CF16CF15CF14CF13CF10
:1024A00012CF11CF10CF0FCF0ECF0DCF0CCF0BCF40
:1024B0000ACF09CF08CF07CF06CF05CF04CF03CF70
:1024C00002CF01CF00CFFFCEFECEFDCEFCCEFBCEA5
:1024D000FACEF9CEF8CEF7CEF6CEF5CEF4CEF3CED8
:1024E000F2CEF1CEF0CEEFCEEECEEDCEECCEEBCE08
:1024F000EACEE9CEE8CEE7CEE6CEE5CEE4CEE3CE38
:10250000E2CEE1CEE0CEDFCEDECEDDCEDCCEDBCE67
:10251000DACED9CED8CED7CED6CED5CED4CED5CE95
:10252000D4CED3CED2CED1CED0CECFCECECEA62D7F
:10253000A770AA0FA85FBB274D905C904094509461
:102540005C924E92C4C5A62DA770AA0FA85FBB27A8
:102550004D905C90022C122C041815081C920E92BF
:10256000B6C5A62DA770AA0FA85FBB274D905C909B
:10257000439409F453945C924E92A9C5A62DA7707A
:10258000AA0FA85FBB274D905C90442009F45A9491
:102590004A945C924E929BC5A62DA770AA0FA85F85
:1025A000BB274D905C90569447945C924E928FC599
:1025B000A62DA770AA0FA85FBB2711962C9287C5DE
:1025C000A62DA770AA0FA85FBB274D90440C440806
:1025D0004C927DC5A62DA770AA0FA85FBB274C9073
:1025E00042944C9274C5A62DA770AA0FA85FBB2772
:1025F000CD93DC936CC5A62DA770AA0FA85FBB274F
:102600004D905C90E20163C5A62DA770AA0FA85F4C
:10261000BB274C904BBC5BC5A62DA770AA0FA85F2B
:10262000BB274BB44D922C9252C5F8942EBC6EB47D
:102630007894EEE1F3E1E60DF21D099444CE43CE29
:1026400042CE41CE40CE3FCE3ECE3DCE3CCE3BCE26
:102650003ACE39CE38CE37CE36CE35CE34CE33CE56
:1026600032CE31CE30CE2FCE2ECE2DCE2CCE2BCE86
:102670002ACE29CE28CE27CE26CE25CE24CE23CEB6
:1026800022CE21CE20CE1FCE1ECE1DCE1CCE1BCEE6
:102690001ACE19CE18CE17CE16CE15CE14CE13CE16
:1026A00012CE11CE10CE0FCE0ECE0DCE0CCE0BCE46
:1026B0000ACE09CE08CE07CE06CE05CE04CE03CE76
:1026C00002CE01CE00CEFFCDFECDFDCDFCCDFBCDAB
:1026D000FACDF9CDF8CDF7CDF6CDF5CDF4CDF3CDDE
:1026E000F2CDF1CDF0CDEFCDEECDEDCDECCDEBCD0E
:1026F000EACDE9CDE8CDE7CDE6CDE5CDE4CDE3CD3E
:10270000E2CDE1CDE0CDDFCDDECDDDCDDCCDDBCD6D
:10271000DACDD9CDD8CDD7CDD6CDD5CDD4CDD3CD9D
:10272000D2CDD1CDD0CDCFCDCECDCDCDCCCDCBCDCD
:10273000CACDC9CDC8CDC7CDC6CDC5CDC4CDC3CDFD
:10274000C2CDC1CDC0CDBFCDBECDBDCDBCCDBBCD2D
:10275000BACDB9CDB8CDB7CDB6CDB5CDB4CDB3CD5D
:10276000B2CDB1CDB0CDAFCDAECDADCDACCDABCD8D
:10277000AACDA9CDA8CDA7CDA6CDA5CDA4CDA3CDBD
:10278000A2CDA1CDA0CD9FCD9ECD9DCD9CCD9BCDED
:102790009ACD99CD98CD97CD96CD95CD94CD93CD1D
:1027A00092CD91CD90CD8FCD8ECD8DCD8CCD8BCD4D
:1027B0008ACD89CD88CD87CD86CD85CD84CD83CD7D
:1027C00082CD81CD80CD7FCD7ECD7DCD7CCD7BCDAD
:1027D0007ACD79CD78CD77CD76CD75CD74CD73CDDD
:1027E00072CD71CD70CD6FCD6ECD6DCD6CCD6BCD0D
:1027F0006ACD69CD68CD67CD66CD65CD64CD63CD3D
:1028000062CD61CD60CD5FCD5ECD5DCD5CCD5BCD6C
:102810005ACD59CD58CD57CD56CD55CD56CD55CD98
:1028200054CD53CD52CD51CD50CD4FCD4ECD4DCDBC
:102830004CCD4BCD4ACD49CD48CD47CDF8942EBC9B
:102840006EB47894A62DA370AA0FA05FBB276594E1
:1028500065944D905C90062C000C000846145004C2
:102860003FB635C4F8942EBC6EB4789400C0ECE347
:10287000F4E1E60DF21D0994FFC002C127CD26CD7B
:1028800025CD24CD23CD22CD21CD20CD1FCD1ECDD4
:102890001DCD1CCD1BCD1ACD19CD18CD17CD16CD04
:1028A00015CD14CD13CD12CD11CD10CD0FCD0ECD34
:1028B0000DCD0CCD0BCD0ACD09CD08CD07CD06CD64
:1028C00005CD04CD03CD02CD01CD00CDFFCCFECC96
:1028D000FDCCFCCCFBCCFACCF9CCF8CCF7CCF6CCCC
:1028E000F5CCF4CCF3CCF2CCF1CCF0CCEFCCEECCFC
:1028F000EDCCECCCEBCCEACCE9CCE8CCE7CCE6CC2C
:10290000E5CCE4CCE3CCE2CCE1CCE0CCDFCCDECC5B
:10291000DDCCDCCCDBCCDACCD9CCD8CCD7CCD6CC8B
:10292000D5CCD4CCD3CCD2CCD1CCD0CCCFCCCECCBB
:10293000CDCCCCCCCBCCCACCC9CCC8CCC7CCC6CCEB
:10294000C5CCC4CCC3CCC2CCC1CCC0CCBFCCBECC1B
:10295000BDCCBCCCBBCCBACCB9CCB8CCB7CCB6CC4B
:10296000B5CCB4CCB3CCB2CCB1CCB0CCAFCCAECC7B
:10297000ADCCACCCABCCAACCA9CCA8CCA7CCA6CCAB
:10298000A5CCA4CCA3CCA2CCA1CCA0CC9FCC9ECCDB
:102990009DCC9CCC9BCC9ACC99CC98CC97CC96CC0B
:1029A00095CC94CC93CC92CC91CC90CC8FCC8ECC3B
:1029B0008DCC8CCC8BCC8ACC89CC88CC87CC86CC6B
:1029C00085CC84CC83CC82CC81CC80CC7FCC7ECC9B
:1029D0007DCC7CCC7BCC7ACC79CC78CC77CC76CCCB
:1029E00075CC74CC73CC72CC71CC70CC6FCC6ECCFB
:1029F0006DCC6CCC6BCC6ACC69CC68CC67CC66CC2B
:102A000065CC64CC63CC62CC61CC60CC5FCC5ECC5A
:102A10005DCC5CCC5BCC5ACC59CC58CC57CC56CC8A
:102A200055CC54CC53CC52CC51CC50CC4FCC4ECCBA
:102A30004DCC4CCC4BCC4ACC49CC48CC47CC46CCEA
:102A400045CC44CC43CC42CC41CC40CC3FCC3ECC1A
:102A50003DCC3CCC3BCC3ACC39CC38CC37CC36CC4A
:102A600035CC34CC33CC32CC31CC30CC2FCC2ECC7A
:102A70002DCC2CCC2BCC2ACC0093F10000C027C34A
:102A80009895C89524C3F8942EBC6EB47894ECE461
:102A9000F5E1E60DF21D099401C118C12EC146C130
:102AA0005EC177C18FC1A9C1C3C1E1C101C220C24A
:102AB00041C20BCC0ACC09CC5FC25EC25DC25CC213
:102AC0005BC25AC259C258C268C267C266C265C2F6
:102AD00064C263C262C261C270C26FC26EC26DC2A2
:102AE0006CC26BC26AC269C27AC279C278C277C24A
:102AF00076C275C274C273C284C283C282C281C2EA
:102B000080C27FC27EC27DC295C294C293C292C26D
:102B100091C290C28FC28EC2A5C2A4C2A3C2A2C2D9
:102B2000A1C2A0C29FC29EC2B7C2B6C2B5C2B4C241
:102B3000B3C2B2C2B1C2B0C2C8CBC7CBC6CBC5CB81
:102B4000C4CBC3CBC2CBC1CBC0CBBFCBBECBBDCB29
:102B5000BCCBBBCBBACBB9CBB8CBB7CBB6CBB5CB59
:102B6000B4CBB3CBB2CBB1CBB0CBAFCBAECBADCB89
:102B7000ACCBABCBAACBA9CBA8CBA7CBA6CBA5CBB9
:102B8000A4CBA3CBA2CBA1CBA0CB9FCB9ECB9DCBE9
:102B90009CCB9BCB9ACB99CB99C298C297C296C239
:102BA00094CB93CB92CB91CB90CB8FCB8ECB8DCB49
:102BB0008CCB8BCB8ACB89CB88CB87CB86CB85CB79
:102BC00084CB83CB82CB81CB80CB7FCB7ECB7DCBA9
:102BD0007CCB7BCB7ACB79CB78CB77CB76CB75CBD9
:102BE00074CB73CB72CB71CB70CB6FCB6ECB6DCB09
:102BF0006CCB6BCB6ACB69CB68CB67CB66CB65CB39
:102C000064CB63CB62CB61CB60CB5FCB5ECB5DCB68
:102C10005CCB5BCB5ACB59CB58CB57CB56CB55CB98
:102C200054CB53CB52CB51CB50CB4FCB4ECB4DCBC8
:102C30004CCB4BCB4ACB49CB48CB47CB46CB45CBF8
:102C400044CB43CB42CB41CB40CB3FCB3ECB3DCB28
:102C50003CCB3BCB3ACB39CB38CB37CB36CB35CB58
:102C600034CB33CB32CB31CB30CB2FCB2ECB2DCB88
:102C70002CCB2BCB2ACB29CB28CB27CB26CB25CBB8
:102C800024CB23CB22CB21CB20CB1FCB1ECB1DCBE8
:102C90001CCB1BCB1ACB19CB39D219C2019600C061
:102CA00000C00000F8942EBC6EB47894A62DAE70CF
:102CB000A85FBB274D905C90F2014080A62DA295A5
:102CC000AE70A85FBB274D922C92E6CF019600C054
:102CD00000C00000F8942EBC6EB47894A62DA29586
:102CE000AE70A85FBB274D905C90A62DAE70A85F1C
:102CF000BB270C90F2010082CFCF019600C000C02C
:102D00000000F8942EBC6EB47894A62DAE70A85F27
:102D1000BB274D905C90F20101901080A62DA295EA
:102D2000AE70A85FBB270D921C92B6CF019600C073
:102D300000C00000F8942EBC6EB47894A62DA29525
:102D4000AE70A85FBB274D905C90A62DAE70A85FBB
:102D5000BB270D901C90F201019210829DCF01962D
:102D600000C000C00000F8942EBC6EB47894E62D2C
:102D7000EE70E85FFF2741905080D2010D90B08344
:102D8000A293E62DE295EE70E85FFF270192208284
:102D900083CF019600C000C00000F8942EBC6EB432
:102DA0007894E62DE295EE70E85FFF274190508021
:102DB000A62DAE70A85FBB270C90D2010D92B083F8
:102DC000A2936ACF019600C000C00000F8942EBC08
:102DD0006EB47894E62DEE70E85FFF274190508046
:102DE000D2010D901D90B083A293E62DE295EE7076
:102DF000E85FFF27019210824FCF019600C000C00C
:102E00000000F8942EBC6EB47894E62DE295EE7036
:102E1000E85FFF2741905080A62DAE70A85FBB27CA
:102E20000D901C90D2010D921D92B083A29334CFCD
:102E3000019600C000C00000F8942EBC6EB47894D7
:102E4000A62DAE70A85FBB274D905C90E62DE29555
:102E5000EE70E85FFF270196F8942EBC6EB478946C
:102E6000460C521C67FC5A944192508215CF019631
:102E700000C000C00000F8942EBC6EB47894A62D5B
:102E8000AE70A85FBB274D905C90E62DE295EE708A
:102E9000E85FFF270196F8942EBC6EB47894460C38
:102EA000521C67FC5A94D2010C9001922082F4CEFD
:102EB000019600C000C00000F8942EBC6EB4789457
:102EC000A62DA295AE70A85FBB274D905C90E62D15
:102ED000EE70E85FFF2700800196F8942EBC6EB478
:102EE0007894460C521C67FC5A94D2010C92D4CEB2
:102EF000019600C000C00000F8942EBC6EB4789417
:102F0000A62DAE70A85FBB274D905C90E62DE29594
:102F1000EE70E85FFF270196F8942EBC6EB47894AB
:102F2000460C521C67FC5A94D2010D901C900192E1
:102F30001082B2CE019600C000C00000F8942EBCF2
:102F40006EB47894A62DA295AE70A85FBB274D9065
:102F50005C90E62DEE70E85FFF27019010800196EF
:102F6000F8942EBC6EB47894460C521C67FC5A94AC
:102F7000D2010D921C9290CEE62DE770EE0FE85F25
:102F8000FF270196F8942EBC6EB47894DE01A60D4E
:102F9000B21D0C90019220827FCEE62DE770EE0FDD
:102FA000E85FFF270196F8942EBC6EB478940080F9
:102FB000DE01A60DB21D0C926FCEE62DE770EE0F6E
:102FC000E85FFF270196F8942EBC6EB47894DE017A
:102FD000A60DB21D0D901C90019210825DCEE62DC3
:102FE000E770EE0FE85FFF270196F8942EBC6EB4F1
:102FF000789401901080DE01A60DB21D0D921C92F6
:103000004BCEE62DE770EE0FE85FFF270196F894B0
:103010002EBC4EB47894019600C000C000C000C021
:10302000C895F8942EBC5EB47894D2010C900192AD
:10303000208232CEE62DE770EE0FE85FFF27019683
:10304000F8942EBC4EB47894019600C000C000C025
:1030500000C0C895F8942EBC5EB478940080D2016C
:103060000C921ACEE62DE770EE0FE85FFF2701966F
:10307000F8942EBC4EB47894019600C000C000C0F5
:1030800000C0C895F8942EBC5EB47894D2010D901F
:103090001C900192108200CEE62DE770EE0FE85FE3
:1030A000FF270196F8942EBC4EB47894019600C088
:1030B00000C000C000C0C895F8942EBC5EB47894DF
:1030C00001901080D2010D921C92E6CDFCC86EB426
:1030D0002EBC0196679CF001FF5F0994599AE3E0CA
:1030E0005998EEBDA091000AA90FB091010AEAB566
:1030F000BE1F0BD0BEBD08D0AEBD06D08EBD04D065
:103100002EBC00C002D0089501D0C8950895F8944F
:10311000AFEFADBFAAE0AEBF2224A0E17A2EC0E09F
:10312000DAE033242ABC2BBC2092000A2092010A48
:103130002092020A2092030A2092040A2092050A91
:103140002092060AA0E5ACBDA1E0ADBD5E9A599AF9
:103150005998EBEADCD0599AE0D0E4E1F0E04591EF
:1031600055914831C1F45539B1F4B591A591A09369
:10317000000AB093010A45915591483121F555391E
:1031800011F5B591A591A093020AB093030AA1E0AD
:10319000A093060A18C06FEFBFEFA8EF442755278A
:1031A00087D088F06FEFBFEEA8EF40EF5FEF80D0E1
:1031B00008F07BC0A0EFBFEFA093020AB093030A10
:1031C000A1E0A093060AAA27B091000A6091010A23
:1031D00091D09BD0E13409F068C097D0E63509F072
:1031E00064C093D0ED3409F060C08FD0E13009F0B5
:1031F0005CC08BD0E13009F058C087D08E2F85D0CD
:103200009E2F83D0EABD81D00E2F7FD01E2F7DD080
:103210002E2F7BD03E2F79D04E2FE093040A75D00D
:103220005E2FE093050A599A2017310708F43DC034
:10323000343028F009F039C0222309F036C0543068
:1032400028F009F032C0442309F02FC0421552057E
:1032500021F0A091060AA0FF28C0A0E0B1E0A901DA
:103260004215520521F02D9241505040E1F70215D0
:10327000120589F0B091000A6091010AB39509F432
:103280006395AA2737D0A0E0B1E03FD0ED9301507D
:103290001040D9F7599A2BBC21DF6EB42EBC78941C
:1032A0000000679CF001FF5F0994F894599AFFCFE2
:1032B00021D02BD0E134D9F428D0E635C1F425D083
:1032C000E435A9F422D0E13091F41FD00E2E1DD0A8
:1032D0001E2E599A0214120459F0A42FB52FA019CA
:1032E000B109A093000AB093010A08940895599A6D
:1032F00088940895599A5998E3E009D0E62F07D0A9
:10330000EB2F05D0EA2F03D00895E22D00C0EEBDCB
:10331000FDB5F7FFFDCFEEB50895A0E2AA95F1F750
:103320000895A62DA770AA0FA85FBB27E62DE87306
:10333000E695E695E85FFF274C90542C550C550810
:1033400067FE552441925082BDC0A62DA770AA0FDA
:10335000A85FBB27E62DE873E695E695E695FF277F
:10336000ED54F64E099407C00AC00DC010C013C03A
:1033700016C019C01EC0EE2731FCE39520C0EE2711
:1033800031FEE3951CC0EE2730FCE39518C0EE2714
:1033900030FEE39514C0EE2734FCE39510C0EE2711
:1033A00034FEE3950CC0E32DE370E195EE27E21DBA
:1033B00006C0E32DE370E195E1E0E20900C0ED9382
:1033C0002C9280C044017EC045017CC046017AC079
:1033D000470178C0480176C0490174C04A0172C0F3
:1033E0004B0170C054016EC055016CC056016AC0DB
:1033F000570168C0580166C0590164C05A0162C0D3
:103400005B0160C064015EC065015CC066015AC0BA
:10341000670158C0680156C0690154C06A0152C0B2
:103420006B0150C074014EC075014CC076014AC09A
:10343000770148C0780146C0790144C07A0142C092
:103440007B0140C084013EC085013CC086013AC07A
:10345000870138C0880136C0890134C08A0132C072
:103460008B0130C094012EC095012CC096012AC05A
:10347000970128C0980126C0990124C09A0122C052
:103480009B0120C0A4011EC0A5011CC0A6011AC03A
:10349000A70118C0A80116C0A90114C0AA0112C032
:1034A000AB0110C0B4010EC0B5010CC0B6010AC01A
:1034B000B70108C0B80106C0B90104C0BA0102C012
:1034C000BB0100C06EB42EBC0196679CF001FF5F8B
:0234D00009945D
:00000001FF
