:100000000C9475000C9456000C9456000C945600F9
:100010000C9456000C9456000C9456000C94560008
:100020000C9456000C9456000C9456000C945600F8
:100030000C9456000C9456000C9456000C945600E8
:100040000C9456000C9456000C9456000C945600D8
:100050000C9456000C9457000C9456000C945600C7
:100060000C9456000C9456000C9456000C945600B8
:100070000C9456000C9456000C9456000C945600A8
:100080000C9456000C9456000C9456000C94560098
:100090000C9456000C9456000C9456000C94560088
:1000A0000C9456000C9456000C945600FFCF0F92FF
:1000B0000FB60F920090070A03940092070A89F482
:1000C0000090080A03940092080A59F40090090A63
:1000D00003940092090A29F400900A0A03940092FA
:1000E0000A0A0F900FBE0F9018950C94CB1A0000BF
:1000F0000000000000000000000000000000000000
:1001000000000000000000000000000000000000EF
:1001100000000000000000000000000000000000DF
:1001200000000000000000000000000000000000CF
:1001300000000000000000000000000000000000BF
:1001400000000000000000000000000000000000AF
:10015000000000000000000000000000000000009F
:10016000000000000000000000000000000000008F
:10017000000000000000000000000000000000007F
:10018000000000000000000000000000000000006F
:10019000000000000000000000000000000000005F
:1001A000000000000000000000000000000000004F
:1001B000000000000000000000000000000000003F
:1001C000000000000000000000000000000000002F
:1001D000000000000000000000000000000000001F
:1001E000000000000000000000000000000000000F
:1001F00000000000000000000000000000000000FF
:1002000088019CC500000000890198C5000000001D
:100210008A0194C5000000008B0190C50000000019
:1002200098018CC500000000990188C500000000FD
:100230009A0184C5000000009B0180C500000000F9
:10024000A8017CC500000000A90178C500000000DD
:10025000AA0174C500000000AB0170C500000000D9
:10026000B8016CC500000000B90168C500000000BD
:10027000BA0164C500000000BB0160C500000000B9
:10028000000F111F5CC50000020F131F58C50000AE
:10029000040F151F54C50000060F171F50C500009E
:1002A000200F311F4CC50000220F331F48C500002E
:1002B000240F351F44C50000260F371F40C500001E
:1002C000400F511F3CC50000420F531F38C50000AE
:1002D000440F551F34C50000460F571F30C500009E
:1002E000600F711F2CC50000620F731F28C500002E
:1002F000640F751F24C50000660F771F20C500001E
:10030000001B110B1CC50000021B130B18C50000BD
:10031000041B150B14C50000061B170B10C50000AD
:10032000201B310B0CC50000221B330B08C500003D
:10033000241B350B04C50000261B370B00C500002D
:10034000401B510BFCC40000421B530BF8C40000BF
:10035000441B550BF4C40000461B570BF0C40000AF
:10036000601B710BECC40000621B730BE8C400003F
:10037000641B750BE4C40000661B770BE0C400002F
:10038000001711078FB7CEC4021713078FB7CAC45F
:10039000041715078FB7C6C4061717078FB7C2C44F
:1003A000201731078FB7BEC4221733078FB7BAC4DF
:1003B000241735078FB7B6C4261737078FB7B2C4CF
:1003C000401751078FB7AEC4421753078FB7AAC45F
:1003D000441755078FB7A6C4461757078FB7A2C44F
:1003E000601771078FB79EC4621773078FB79AC4DF
:1003F000641775078FB796C4661777078FB792C4CF
:10040000D8010C911127A8C4D9010C911127A4C4BB
:10041000DA010C911127A0C4DB010C9111279CC4B7
:10042000D8012C91332798C4D9012C91332794C437
:10043000DA012C91332790C4DB012C9133278CC433
:10044000D8014C91552788C4D9014C91552784C4B3
:10045000DA014C91552780C4DB014C9155277CC4AF
:10046000D8016C91772778C4D9016C91772774C42F
:10047000DA016C91772770C4DB016C9177276CC42B
:10048000D8010C9368C40000D8012C9364C4000008
:10049000D8014C9360C40000D8016C935CC4000088
:1004A000D9010C9358C40000D9012C9354C4000006
:1004B000D9014C9350C40000D9016C934CC4000086
:1004C000DA010C9348C40000DA012C9344C4000004
:1004D000DA014C9340C40000DA016C933CC4000084
:1004E000DB010C9338C40000DB012C9334C4000002
:1004F000DB014C9330C40000DB016C932CC4000082
:10050000D8010D911C9129C4D9010D911C9125C4CC
:10051000DA010D911C9121C4DB010D911C911DC4C8
:10052000D8012D913C9119C4D9012D913C9115C44C
:10053000DA012D913C9111C4DB012D913C910DC448
:10054000D8014D915C9109C4D9014D915C9105C4CC
:10055000DA014D915C9101C4DB014D915C91FDC3C9
:10056000D8016D917C91F9C3D9016D917C91F5C34E
:10057000DA016D917C91F1C3DB016D917C91EDC34A
:10058000D8010D931C93E9C3D8012D933C93E5C387
:10059000D8014D935C93E1C3D8016D937C93DDC387
:1005A000D9010D931C93D9C3D9012D933C93D5C385
:1005B000D9014D935C93D1C3D9016D937C93CDC385
:1005C000DA010D931C93C9C3DA012D933C93C5C383
:1005D000DA014D935C93C1C3DA016D937C93BDC383
:1005E000DB010D931C93B9C3DB012D933C93B5C381
:1005F000DB014D935C93B1C3DB016D937C93ADC381
:10060000002311239CC300000223132398C300007E
:100610000423152394C300000623172390C300006E
:10062000202331238CC300002223332388C30000FE
:100630002423352384C300002623372380C30000EE
:10064000402351237CC300004223532378C300007E
:100650004423552374C300004623572370C300006E
:10066000602371236CC300006223732368C30000FE
:100670006423752364C300006623772360C30000EE
:10068000002B112B5CC30000022B132B58C300005E
:10069000042B152B54C30000062B172B50C300004E
:1006A000202B312B4CC30000222B332B48C30000DE
:1006B000242B352B44C30000262B372B40C30000CE
:1006C000402B512B3CC30000422B532B38C300005E
:1006D000442B552B34C30000462B572B30C300004E
:1006E000602B712B2CC30000622B732B28C30000DE
:1006F000642B752B24C30000662B772B20C30000CE
:10070000002711271CC300000227132718C300006D
:100710000427152714C300000627172710C300005D
:10072000202731270CC300002227332708C30000ED
:100730002427352704C300002627372700C30000DD
:1007400040275127FCC2000042275327F8C200006F
:1007500044275527F4C2000046275727F0C200005F
:1007600060277127ECC2000062277327E8C20000EF
:1007700064277527E4C2000066277727E0C20000DF
:100780009A928A92E9C20000BA92AA92E5C2000047
:10079000DA92CA92E1C20000FA92EA92DDC2000047
:1007A0001A930A93D9C200003A932A93D5C2000043
:1007B0005A934A93D1C200007A936A93CDC2000043
:1007C00089909990C9C20000A990B990C5C2000053
:1007D000C990D990C1C20000E990F990BDC2000053
:1007E00009911991B9C2000029913991B5C200004F
:1007F00049915991B1C2000069917991ADC200004F
:10080000E7EDF6E00000B2C2EAEDF6E00000AEC2AD
:10081000EDEDF6E00000AAC2E0EEF6E00000A6C2B0
:10082000E3EEF6E00000B1C2E6EEF6E00000ADC295
:10083000E9EEF6E00000A9C2ECEEF6E00000A5C289
:10084000EFEEF6E0000098C2E2EFF6E0000094C29E
:10085000E5EFF6E0000090C2E8EFF6E000008CC2A1
:10086000EBEFF6E0000088C2EFEFF6E0000084C294
:10087000E3E0F7E0000080C2E7E0F7E000007CC2C0
:10088000430C521C621CC7C2430C521C621CCBC2DC
:10089000430C521C621CCFC2430C521C621CD3C2BC
:1008A000430C521C621C0EC3430C521C621C16C328
:1008B000430C521C621C21C3430C521C621C5EC3BD
:1008C000430C521C621CC7C2430C521C621CCBC29C
:1008D00092E0430C521CDDC292E0430C521CD9C280
:1008E00091E0430C521CD5C291E0430C521CD1C282
:1008F00090E1430C521CCDC290E1430C521CC9C282
:10090000430C521C621C06C3430C521C621C02C3E3
:1009100000000000000018C3470C521C621C14C3E6
:1009200024016A2C00C076C426016E2C00C072C45B
:100930002801622E00C06EC42A01662E00C06AC45F
:10094000C401AA2D430C67C4C601AE2D430C63C479
:10095000C801A22F430C5FC4CA01A62F430C5BC47D
:1009600006C100000000000083C400000000000079
:100970007FC400000000000049905990699052C463
:100980009EE6E0E4FBE0A7C190E9EEEAFBE095C15A
:100990009CE6EEECFCE0A1C190E8E2E1FEE09DC146
:1009A00098EBEDEAFFE099C190E6E5EDF1E197C142
:1009B00090E5E5E5F3E193C190E9E5E9F4E191C162
:1009C00090E3ECE7F7E18DC13DC1000000000000BD
:1009D0000000E9E7F8E15DC1B2E0EDE6F9E18FC1C1
:1009E000B1E0EDE6F9E18BC1B0E1EDE6F9E187C1F7
:1009F00090E4EDEEF9E161C103C0000000000000E9
:100A0000430C521C621CBB27EAEAF8942EBC8EB53C
:100A100078948C3730F0803C08F465C08A3CC8F18B
:100A200062C0803608F1883608F00DC0A82FA37088
:100A3000AA0FAA0FA55F9C9182FD02C0905801C029
:100A40009F779C938AC1A82FA856A695A695AA23FE
:100A500021F4ECEBF0E20C94DF1DAA95ABBD982FCE
:100A600093709ABD0C94CB1CA82FA295A770A430AC
:100A700020F4F2E122D40C94731D982F9F7084FD12
:100A800090649BBD982F9695969593709ABD0C9403
:100A90001A1C430C521C621C982F905C00008EB5EF
:100AA0002EBCA82F943020F0983020F0993020F000
:100AB000AC7803C0A07F01C0A078A9F49830A1F061
:100AC000E8F4A92FA370E2EBF2E1F7D3943048F4F5
:100AD000923028F490FD0C942D1E0C94281E0C943A
:100AE000EB1D0C94E41DC5C3982F929597709ABD89
:100AF000982F9F7090689BBD0C941A1CE82FE2956C
:100B0000E770A82FA370AA0FAA0FA85FBB270D90AC
:100B10001D909D91AC91892F8F770128082A8A2FEB
:100B2000880F97FD816021F08F3F39F098E00DC06C
:100B300096E0002051F0939508C0002011F499E050
:100B400004C096FB992790F904C0A7FF02C09195B5
:100B5000955F81E0AA2793959A9519F0880FAA1FAF
:100B6000FBCFEE0FE85FFF278193A08395C3430C73
:100B7000521C621CB22DF22DF8942EBC8EB57894C6
:100B8000E82FE695E695EE70E85FA82FAA0FAE7005
:100B9000A85F00801180807CE82B8D919C91DC0106
:100BA000C001FA2FFB2BA9F1E7FF0FC0F92FE6FFD9
:100BB000FB27F7FDE06297FF03C08195921D919599
:100BC000B7FF03C0A195B21DB19500241124F92FE0
:100BD000FB2B41F1F8E0880F991F001C111C0A162D
:100BE0001B0618F00A1A1B0A8160880F991F001C47
:100BF000111C0A161B0618F00A1A1B0A8160FA95C6
:100C000051F7E6FDC001E5FF08C08195921D919561
:100C100004C0E6FD02C08FEF9FEFEF71F22D8193CC
:100C200090833AC3F4E0880F001C0A1610F00A1AE9
:100C30008160880F001C0A1610F00A1A8160FA956C
:100C400091F7DFCF430C521C621CB22DF22DF894A9
:100C50002EBC8EB57894A82FA295AE70A85FE82F11
:100C6000E695EE70E85F86950D901C909191B081AD
:100C700080FD0AC018F4092A1B2A02C009221B227F
:100C8000B22D1C920E9208C318F009261B26F8CF2D
:100C9000F0C2430C521CF8942EBC8EB57894621CA2
:100CA000803338F0A82F82958F707097E80FF21D6F
:100CB0000994880FE80FF21D0994430C521CF89414
:100CC0002EBC8EB57894621C8917C0F4E80FF21D13
:100CD000E80FF21D0994A1E006C0A3E004C0A4E05F
:100CE00002C0A5E000C08EB52EBC430C521C621C95
:100CF000891720F48A9FE00DF11D0994BAC2430CB4
:100D0000521C621CAEB52EBCA03858F49EB3A6FD92
:100D100090959B2329F0AF73AA0FEA0FF21D099457
:100D2000AAC2ECCF00008EBB430C8EB52EBC521C69
:100D3000621C879DF001FF5F09948EBB0000430C8D
:100D4000521C621CF8942EBC8EB57894879DF001DD
:100D5000FF5F0994000001C00000430C8EB52EBC5B
:100D6000521C621C879DF001FF5F0994430C521CCA
:100D7000621C8EB52EBC0994430C521C621C8EB5AD
:100D80002EBC992787FD90950994430C521C621C38
:100D90008EB52EBC430C521C621C64D2F8942EBC3F
:100DA0009EB57894099400C000000000C8CF082FB9
:100DB0001127F9CF282F3327F6CF482F5527F3CF08
:100DC000682F7727F0CF082F192FEECF282F392F34
:100DD000EBCF482F592FE8CF682F792FE5CF080F99
:100DE000191FE3CF280F391FE0CF480F591FDDCF60
:100DF000680F791FDACF081719078FB79ECF28170A
:100E000039078FB79ACF481759078FB796CF68170A
:100E100079078FB792CF00C0F8942EBC8EB5789426
:100E2000F19B29C02CC000C0F8942EBC8EB57894DC
:100E3000F19921C024C000C0F8942EBC8EB57894DE
:100E4000F09B19C01CC000C0F8942EBC8EB57894DD
:100E5000F49B11C014C000C0F8942EBC8EB57894D9
:100E6000F09909C00CC000C0F8942EBC8EB57894DF
:100E7000F49901C004C000C000C000C060CF992731
:100E800087FD9095430C521C621C480E591E691E2A
:100E9000C9C1621CBEB3F8942EBCAEB57894430CA5
:100EA000521C621C80FDB095B92341F400C000C003
:100EB00000C0F8942EBC8EB57894DDCF430C521C44
:100EC000621C38C0C895AEB59927A7FD9095430C14
:100ED000521C621C4A0E591E691EA4C1C895AEB5AB
:100EE0009927A7FD9095430C521C621C6A925A9256
:100EF0004A924A0E591E691E95C100C0F8942EBC34
:100F00008EB57894992787FD9095C80FD91F00C09A
:100F100000C015CF430C521CF8942EBCAEB578948B
:100F2000621C430C521C621C80FF0C94A2076A9244
:100F30005A924A929927BEB5B7FD90954A0E5B1E0C
:100F4000691E70C1C895F6CFB82F0000F8942EBC6A
:100F50008EB57894B0FF0C94BC076A925A924A926C
:100F600000C000C0F8942EBC9EB5789479D1AEB57F
:100F7000482E592E6A2E56C179D1F4CFE7ECF7E00E
:100F8000F8942EBC8EB57894E80FF21D099407C131
:100F900009C10AC110C11AC119C118C117C116C1AE
:100FA00015C114C113C112C111C110C1F0C0F1C0EB
:100FB000F2C0F3C05FC15EC15DC15CC15BC15AC11B
:100FC00059C158C157C156C155C154C153C152C16D
:100FD00051C150C14FC14EC14DC14CC14BC14AC19D
:100FE00049C148C147C146C145C144C143C142C1CD
:100FF00041C140C13FC13EC13DC13CC13BC13AC1FD
:1010000039C138C137C136C135C134C133C132C12C
:1010100031C130C12FC12EC12DC12CC12BC12AC15C
:1010200029C128C127C126C125C124C123C122C18C
:1010300021C120C11FC11EC11DC11CC11BC11AC1BC
:1010400019C118C117C116C115C114C113C112C1EC
:1010500011C110C10FC10EC10DC10CC10BC10AC11C
:1010600009C108C107C106C105C104C103C102C14C
:1010700001C100C1FFC0FEC0FDC0FCC0FBC0FAC082
:10108000F9C0F8C0F7C0F6C0F5C0F4C0F3C0F2C0B4
:10109000F1C0F0C0EFC0EEC0EDC0ECC0EBC0EAC0E4
:1010A000E9C0E8C0E7C0E6C0E5C0E4C0E3C0E2C014
:1010B000E1C0E0C0DFC0DEC0DDC0DCC0DBC0DAC044
:1010C000D9C0D8C0D7C0D6C0D5C0D4C0D3C0D2C074
:1010D000D1C0D0C0CFC0CEC0CDC0CCC0CBC0CAC0A4
:1010E000C9C0C8C0C7C0C6C0C5C0C4C0C3C0C2C0D4
:1010F000C1C0C0C0BFC0BEC0BDC0BCC0BBC0BAC004
:10110000B9C0B8C0B7C0B6C0B5C0B4C0B3C0B2C033
:10111000B1C0B0C0AFC0AEC0ADC0ACC0ABC0AAC063
:10112000A9C0A8C0A7C0A6C0A5C0A4C0A3C0A2C093
:10113000A1C0A0C09FC09EC09DC09CC09BC09AC0C3
:1011400099C098C097C096C095C094C093C092C0F3
:1011500091C090C08FC08EC08DC08CC08BC08AC023
:1011600089C088C087C086C085C084C083C082C053
:1011700081C080C07FC07EC07DC07CC07BC07AC083
:1011800079C078C077C076C075C074C073C00C9445
:1011900081240C948D240C94A1240C946824009335
:1011A000F100CDCD9895CACDF8940091070A109121
:1011B000080A7894D2CDF8940091070A1091080A91
:1011C0002091090A30910A0A7894C7CD8450880F7B
:1011D000EEEFF1E1E80FF21D0590F491E02D4F9351
:1011E0005F936F937F93C9019A01AB01B801099591
:1011F0008B019C017F916F915F914F91AECD7B21CF
:101200008121AC21E7217222E022A522E622EC22F4
:1012100038239E2307C0521C621C6A925A924A923B
:101220002C016A2E599AE3E05998EEBDA091000A6C
:10123000A50DB091010AB61D16D0BEBD0ED0AEBD33
:101240000CD04EBC0BD02EBC0AD0F8942EBC8EB560
:101250007894879DF001FF5F099400000000000072
:101260000000000000000000000000C00895FFCF53
:10127000FFCFFFCFFFCF000001C00000430C521C86
:10128000621CF8942EBC8EB57894879DF001FF5FA8
:10129000099402C08EBB0000430C8EB52EBC521CBC
:1012A000621C879DF001FF5F0994BF1EBE1E572080
:1012B000221FBD1FBB1F8A1F8F1FAA0FEA0FF21D1F
:1012C0000590A491E02DFA2F08958EB52EBC430C05
:1012D000521C621C0895A82F8EB52EBC430C521CC4
:1012E000621CA770AA0FA85FB22DFE01E80FF21DC5
:1012F00008958EB52EBC92E0490E521C621C00C0AF
:1013000000C000C000C000C000C09EB52EBC089543
:10131000EEB52EBC92E0490E521C621CA02DA770A7
:10132000AA0FA85FB22D00C000C0C895FEB52EBCA4
:101330000895CBDF882E992401CDC7DFA82EBB24CA
:10134000FDCCC3DFC82EDD24F9CCBFDFE82EFF249F
:10135000F5CCCFDF882E992E27CDCBDFA82EB92E46
:1013600023CDC7DFC82ED92E1FCDC3DFE82EF92E1F
:101370001BCDABDF992787FD9095880E991EECCC8D
:10138000A4DF992787FD9095A80EB91EE5CC9DDFB7
:10139000992787FD9095C80ED91EDECC96DF992738
:1013A00087FD9095E80EF91ED7CC8FDF992787FD32
:1013B0009095881699068FB7B6CC87DF992787FD59
:1013C0009095A816B9068FB7AECC7FDF992787FD19
:1013D0009095C816D9068FB7A6CC77DF992787FDD9
:1013E0009095E816F9068FB79ECC75DFED93FC93C8
:1013F000B4CC71DF00800D922C92AFCC6CDF0080FA
:101400000D92000C00080C92A8CC65DF0C900082B5
:10141000A4CC61DF019010800D921C929ECC5BDF0A
:101420000D901C900192108298CC00C095CC70DF7A
:1014300000800D922C928ECC6BDF0C900082F5CF49
:1014400067DF019010800D921C9286CC61DF0D90B9
:101450001C900192108280CC38DF032CD894E89441
:1014600045D073D02182DECE30DF032CD894E894AF
:101470003DD06BD0BB0FBB0BB183D4CE26DF032C8A
:10148000000CD894E89432D060D0CCCE1EDF072C6C
:101490000A945894E8942AD058D02182C3CE15DFFC
:1014A000072C5894E89422D050D0BCCE0EDF032CE9
:1014B000D89468941BD049D02182B4CE06DF032C87
:1014C000000CD894689412D040D0ACCEFEDE072C2D
:1014D0000A94589468940AD038D02182A3CEF5DEBD
:1014E000072C5894689402D030D09CCE982F15F4D5
:1014F000937301C0937141F5430C521C621C982FE9
:1015000092959F70985F192EE82FEF70E85FF22D8B
:1015100036F41E16C9F09E2F9E5F1916A9F0819110
:101520009191A191B081BB2379F456F4E350B82F87
:10153000B00DB193B92FB21DB193BA2FB21DB083C4
:10154000E12DF22D122C089594CE599AB3E05998BA
:10155000BEBDB091000A9B0FB091010AAB1F1FD016
:10156000AEBD19D09EBD17D08EBD16D02EBC0318AF
:10157000120800C0000051F000C013D0F8942EBC37
:10158000BEB57894B19303181208B9F709D0BEB567
:10159000B083599A0895000000C000C0000000C048
:1015A00000C008958956430CF8942EBC9EB57894DB
:1015B000521C621CA92FA17399F5A92FA295AF7097
:1015C000A85FB22DE92FEF70E85FF22D8823B9F004
:1015D00001901080F001813049F08D9181938D91BF
:1015E00081938D9181938C91808356CE81918D933F
:1015F00081918D9381918D9380818C934DCE91FDBE
:101600000FC00D901D908D919C91A1910A16A191F2
:101610001A06A1918A07A0819A078FB78EBB3CCE8C
:1016200028CE00FA430CF8942EBC1EB47894521CB9
:10163000621CA12DA295AE70A85FB22DE12DEE70B7
:10164000E85FF22D86F00E2E81919081FC01819150
:10165000992714FC91918D939C9310FE1DCEA02D83
:10166000ED93FC9319CE0D909C91A191B0810D92B8
:1016700014FC9D9310FE10CEB083A2930DCEF7CD37
:1016800058CE5BCE5ECE61CE64CE67CE6ACE6DCED6
:1016900070CE76CE7CCE82CE88CE8FCE96CE9DCEAC
:1016A000A4CEA3CEA2CEA1CEA0CE9FCE9ECE9DCEC6
:1016B000A0CE9FCE9ECE9DCE9CCE9BCE9ACE99CED6
:1016C0009DCE9CCE9BCE9ACE99CE98CE97CE96CEDE
:1016D0009CCE9BCE9ACE99CE98CE97CE96CE95CED6
:1016E00098CE97CE96CE95CE94CE93CE92CE91CEE6
:1016F00096CE95CE94CE93CE92CE91CE90CE8FCEE6
:1017000096CE95CE94CE93CE92CE91CE90CE8FCED5
:1017100093CE92CE91CE90CE8FCE8ECE8DCE8CCEDD
:101720008FCE8ECE8DCE8CCE8BCE8ACE89CE88CEED
:101730008DCE8CCE8BCE8ACE89CE88CE87CE86CEED
:101740008BCE92CE9BCEA2CEAACEB0CEB7CEBECE00
:10175000C6CE28CF27CF26CF64CF63CF44018DCD0F
:1017600045018BCD460189CD470187CD480185CD07
:10177000490183CD4A0181CD4B017FCD54017DCDFF
:1017800055017BCD560179CD570177CD580175CDE7
:10179000590173CD5A0171CD5B016FCD64016DCDDF
:1017A00065016BCD660169CD670167CD680165CDC7
:1017B000690163CD6A0161CD6B015FCD74015DCDBF
:1017C00075015BCD760159CD770157CD780155CDA7
:1017D000790153CD7A0151CD7B014FCD84014DCD9F
:1017E00085014BCD860149CD870147CD940145CD7B
:1017F000950143CD960141CD97013FCDA4013DCD4B
:10180000A5013BCDA60139CDA70137CDB40135CD1A
:10181000B50133CDB60131CDB7012FCD08832ECD23
:1018200028832CCD48832ACD688328CD098326CDF3
:10183000298324CD498322CD698320CD0A831ECDFF
:101840002A831CCD4A831ACD6A8318CD0B8316CD0B
:101850002B8314CD4B8312CD6B8310CD0C830ECD17
:101860002C830CCD4C830ACD6C8308CD0D8306CD23
:101870002D8304CD4D8302CD6D8300CD0E83FECC30
:101880002E83FCCC4E83FACC6E83F8CC0F83F6CC3F
:101890002F83F4CC4F83F2CC6F83F0CC0887EECC4F
:1018A0002887ECCC4887EACC6887E8CC0987E6CC67
:1018B0002987E4CC4987E2CC6987E0CC0A87DECC73
:1018C0002A87DCCC4A87DACC6A87D8CC0B87D6CC7F
:1018D0002B87D4CC4B87D2CC6B87D0CC0C87CECC8B
:1018E0002C87CCCC4C87CACC6C87C8CC0D87C6CC97
:1018F0002D87C4CC4D87C2CC6D87C0CC0E87BECCA3
:101900002E87BCCC4E87BACC6E87B8CC0F87B6CCAE
:101910002F87B4CC4F87B2CC6F87B0CC9924ADCC95
:10192000BB24ABCCDD24A9CCFF24A7CC1127A5CCAC
:101930003327A3CC5527A1CC77279FCC82949DCC6D
:10194000A2949BCCC29499CCE29497CC029595CC6E
:10195000229593CC429591CC62958FCC4E018DCC43
:101960005E018BCC6E0189CC7E0187CC8E0185CC4B
:101970009E0183CCAE0181CCBE017FCCE4017DCC45
:10198000E5017BCCE60179CCE70177CCE80175CCA9
:10199000E90173CCEA0171CCEB016FCC880C991C86
:1019A0006DCC8A0C9B1C6ACC8C0C9D1C67CC8E0C5D
:1019B0009F1C64CC800E911E61CC820E931E5ECC67
:1019C000840E951E5BCC860E971E58CCA80CB91CB5
:1019D00055CCAA0CBB1C52CCAC0CBD1C4FCCAE0CD5
:1019E000BF1C4CCCA00EB11E49CCA20EB31E46CCDF
:1019F000A40EB51E43CCA60EB71E40CCC80CD91CF5
:101A00003DCCCA0CDB1C3ACCCC0CDD1C37CCCE0C4C
:101A1000DF1C34CCC00ED11E31CCC20ED31E2ECC56
:101A2000C40ED51E2BCCC60ED71E28CCE80CF91C34
:101A300025CCEA0CFB1C22CCEC0CFD1C1FCCEE0CC4
:101A4000FF1C1CCCE00EF11E19CCE20EF31E16CCCE
:101A5000E40EF51E13CCE60EF71E10CC080D191D72
:101A60000DCC0A0D1B1D0ACC0C0D1D1D07CC0E0D37
:101A70001F1D04CC280D391D01CC2A0D3B1DFECBAA
:101A80002C0D3D1DFBCB2E0D3F1DF8CB480D591DD8
:101A9000F5CB4A0D5B1DF2CB4C0D5D1DEFCB4E0D12
:101AA0005F1DECCB680D791DE9CB6A0D7B1DE6CB84
:101AB0006C0D7D1DE3CB6E0D7F1DE0CB8818990862
:101AC000DDCB8A189B08DACB8C189D08D7CB8E18F3
:101AD0009F08D4CB801A910AD1CB821A930ACECB1D
:101AE000841A950ACBCB861A970AC8CBA818B908CE
:101AF000C5CBAA18BB08C2CBAC18BD08BFCBAE186B
:101B0000BF08BCCBA01AB10AB9CBA21AB30AB6CB94
:101B1000A41AB50AB3CBA61AB70AB0CBC818D9080D
:101B2000ADCBCA18DB08AACBCC18DD08A7CBCE18E2
:101B3000DF08A4CBC01AD10AA1CBC21AD30A9ECB0C
:101B4000C41AD50A9BCBC61AD70A98CBE818F9084D
:101B500095CBEA18FB0892CBEC18FD088FCBEE185A
:101B6000FF088CCBE01AF10A89CBE21AF30A86CB84
:101B7000E41AF50A83CBE61AF70A80CB081919098B
:101B80007DCB0A191B097ACB0C191D0977CB0E19CD
:101B90001F0974CB2819390971CB2A193B096ECB5F
:101BA0002C193D096BCB2E193F0968CB48195909EF
:101BB00065CB4A195B0962CB4C195D095FCB4E19A5
:101BC0005F095CCB6819790959CB6A197B0956CB37
:101BD0006C197D0953CB6E197F0950CB4401550117
:101BE0004DCB460157014ACB4801590147CB4A0129
:101BF0005B0144CB6401750141CB660177013ECBAB
:101C0000680179013BCB6A017B0138CB84019501E6
:101C100035CB8601970132CBA401B5012FCBA601AC
:101C2000B7012CCBD8018C9236CBD801AC9233CBF8
:101C3000D801CC9230CBD801EC922DCBD9018C922B
:101C40002ACBD901AC9227CBD901CC9224CBD90194
:101C5000EC9221CBDA018C921ECBDA01AC921BCB39
:101C6000DA01CC9218CBDA01EC9215CBDB018C9225
:101C700012CBDB01AC920FCBDB01CC920CCBDB01A6
:101C8000EC9209CB009F800106CB029F800103CB21
:101C9000049F800100CB069F8001FDCA209F900118
:101CA000FACA229F9001F7CA249F9001F4CA269F86
:101CB0009001F1CA409FA001EECA429FA001EBCA69
:101CC000449FA001E8CA469FA001E5CA609FB001F9
:101CD000E2CA629FB001DFCA649FB001DCCA669F9E
:101CE000B001D9CA00028001D6CA02028001D3CA5B
:101CF00004028001D0CA06028001CDCA20029001F0
:101D0000CACA22029001C7CA24029001C4CA26028C
:101D10009001C1CA4002A001BECA4202A001BBCAD2
:101D20004402A001B8CA4602A001B5CA6002B001CF
:101D3000B2CA6202B001AFCA6402B001ACCA6602A4
:101D4000B001A9CA00038001A6CA02038001A3CA88
:101D500004038001A0CA060380019DCA20039001EC
:101D60009ACA2203900197CA2403900194CA2603B9
:101D7000900191CA4003A0018ECA4203A0018BCA00
:101D80004403A00188CA4603A00185CA6003B001CC
:101D900082CA6203B0017FCA6403B0017CCA6603D1
:101DA000B00179CA0881112776CA2881332773CAFE
:101DB0004881552770CA688177276DCA0981112724
:101DC0006ACA2981332767CA4981552764CA69814C
:101DD000772761CA0A8111275ECA2A8133275BCA25
:101DE0004A81552758CA6A81772755CA0B8111271E
:101DF00052CA2B8133274FCA4B8155274CCA6B815E
:101E0000772749CA0C81112746CA2C81332743CA38
:101E10004C81552740CA6C8177273DCA0D81112717
:101E20003ACA2D81332737CA4D81552734CA6D816F
:101E3000772731CA0E8111272ECA2E8133272BCA4C
:101E40004E81552728CA6E81772725CA0F81112711
:101E500022CA2F8133271FCA4F8155271CCA6F8181
:101E6000772719CA0885112716CA2885332713CA68
:101E70004885552710CA688577270DCA0985112717
:101E80000ACA2985332707CA4985552704CA69859F
:101E9000772701CA0A851127FEC92A853327FBC97E
:101EA0004A855527F8C96A857727F5C90B85112713
:101EB000F2C92B853327EFC94B855527ECC96B85B4
:101EC0007727E9C90C851127E6C92C853327E3C993
:101ED0004C855527E0C96C857727DDC90D8511270D
:101EE000DAC92D853327D7C94D855527D4C96D85C6
:101EF0007727D1C90E851127CEC92E853327CBC9A7
:101F00004E855527C8C96E857727C5C90F85112706
:101F1000C2C92F853327BFC94F855527BCC96F85D7
:101F20007727B9C90000430C521C621CF8942EBCE0
:101F30008EB57894879DF001FF5F09948EBB02C037
:101F40008EBB0000430C8EB52EBC521C621C879DBC
:101F5000F001FF5F099493CB8CC908811981F2CFFE
:101F600028813981EFCF48815981ECCF688179810F
:101F7000E9CF09811A81E6CF29813A81E3CF4981EE
:101F80005A81E0CF69817A81DDCF0A811B81DACF66
:101F90002A813B81D7CF4A815B81D4CF6A817B8103
:101FA000D1CF0B811C81CECF2B813C81CBCF4B81FC
:101FB0005C81C8CF6B817C81C5CF0C811D81C2CF74
:101FC0002C813D81BFCF4C815D81BCCF6C817D81F7
:101FD000B9CF0D811E81B6CF2D813E81B3CF4D810A
:101FE0005E81B0CF6D817E81ADCF0E811F81AACF82
:101FF0002E813F81A7CF4E815F81A4CF6E817F81EB
:10200000A1CF0F8118859ECF2F8138859BCF4F811F
:10201000588598CF6F81788595CF0885198592CF9F
:10202000288539858FCF488559858CCF68857985F6
:1020300089CF09851A8586CF29853A8583CF498539
:102040005A8580CF69857A857DCF0A851B857ACFB1
:102050002A853B8577CF4A855B8574CF6A857B85EA
:1020600071CF0B851C856ECF2B853C856BCF4B8547
:102070005C8568CF6B857C8565CF0C851D8562CFBF
:102080002C853D855FCF4C855D855CCF6C857D85DE
:1020900059CF0D851E8556CF2D853E8553CF4D8555
:1020A0005E8550CF6D857E854DCF0E851F854ACFCD
:1020B0002E853F8547CF4E855F8544CF6E857F85D2
:1020C00041CF0F8518893ECF2F8538893BCF4F856B
:1020D000588938CF6F85788935CF0883198332CFF7
:1020E000288339832FCF488359832CCF6883798302
:1020F00029CF09831A8326CF29833A8323CF4983A3
:102100005A8320CF69837A831DCF0A831B831ACF1A
:102110002A833B8317CF4A835B8314CF6A837B83F5
:1021200011CF0B831C830ECF2B833C830BCF4B83B0
:102130005C8308CF6B837C8305CF0C831D8302CF28
:102140002C833D83FFCE4C835D83FCCE6C837D83EB
:10215000F9CE0D831E83F6CE2D833E83F3CE4D83C1
:102160005E83F0CE6D837E83EDCE0E831F83EACE39
:102170002E833F83E7CE4E835F83E4CE6E837F83DF
:10218000E1CE0F831887DECE2F833887DBCE4F83D7
:102190005887D8CE6F837887D5CE08871987D2CE57
:1021A00028873987CFCE48875987CCCE68877987EB
:1021B000C9CE09871A87C6CE29873A87C3CE4987F1
:1021C0005A87C0CE69877A87BDCE0A871B87BACE69
:1021D0002A873B87B7CE4A875B87B4CE6A877B87DF
:1021E000B1CE0B871C87AECE2B873C87ABCE4B87FF
:1021F0005C87A8CE6B877C87A5CE0C871D87A2CE77
:102200002C873D879FCE4C875D879CCE6C877D87D2
:1022100099CE0D871E8796CE2D873E8793CE4D870C
:102220005E8790CE6D877E878DCE0E871F878ACE84
:102230002E873F8787CE4E875F8784CE6E877F87C6
:1022400081CE0F87188B7ECE2F87388B7BCE4F8722
:10225000588B78CE6F87788B75CE880C991C63CE9F
:10226000AA0CBB1C60CECC0CDD1C5DCEEE0CFF1CA2
:102270005ACE000F111F57CE220F331F54CE440FDA
:10228000551F51CE660F771F4ECE969487944BCE36
:10229000B694A79448CED694C79445CEF694E794C6
:1022A00042CE169507953FCE369527953CCE56954E
:1022B000479539CE7695679536CE9594879433CEEB
:1022C000B594A79430CED594C7942DCEF594E794C9
:1022D0002ACE1595079527CE3595279524CE559569
:1022E000479521CE759567951ECE809490941BCE10
:1022F000A094B09418CEC094D09415CEE094F094ED
:1023000012CE009510950FCE209530950CCE4095AD
:10231000509509CE6095709506CE82148FB710CE79
:10232000A2148FB70DCEC2148FB70ACEE2148FB7A6
:1023300007CE02158FB704CE22158FB701CE4215F6
:102340008FB7FECD62158FB7FBCD830C921CEBCD02
:10235000A30CB21CE8CDC30CD21CE5CDE30CF21CDF
:10236000E2CD030D121DDFCD230D321DDCCD430D5B
:10237000521DD9CD630D721DD6CD83189208D3CDD1
:10238000A318B208D0CDC318D208CDCDE318F208F7
:10239000CACD03191209C7CD23193209C4CD431977
:1023A0005209C1CD63197209BECD881499048FB743
:1023B000C7CD8A149B048FB7C3CD8C149D048FB7EF
:1023C000BFCD8E149F048FB7BBCD801691068FB7FB
:1023D000B7CD821693068FB7B3CD841695068FB707
:1023E000AFCD861697068FB7ABCDA814B9048FB7BB
:1023F000A7CDAA14BB048FB7A3CDAC14BD048FB76F
:102400009FCDAE14BF048FB79BCDA016B1068FB77A
:1024100097CDA216B3068FB793CDA416B5068FB786
:102420008FCDA616B7068FB78BCDC814D9048FB73A
:1024300087CDCA14DB048FB783CDCC14DD048FB7EE
:102440007FCDCE14DF048FB77BCDC016D1068FB7FA
:1024500077CDC216D3068FB773CDC416D5068FB706
:102460006FCDC616D7068FB76BCDE814F9048FB7BA
:1024700067CDEA14FB048FB763CDEC14FD048FB76E
:102480005FCDEE14FF048FB75BCDE016F1068FB77A
:1024900057CDE216F3068FB753CDE416F5068FB786
:1024A0004FCDE616F7068FB74BCD081519058FB738
:1024B00047CD0A151B058FB743CD0C151D058FB7EA
:1024C0003FCD0E151F058FB73BCD281539058FB7AA
:1024D00037CD2A153B058FB733CD2C153D058FB76A
:1024E0002FCD2E153F058FB72BCD481559058FB72A
:1024F00027CD4A155B058FB723CD4C155D058FB7EA
:102500001FCD4E155F058FB71BCD681579058FB7A9
:1025100017CD6A157B058FB713CD6C157D058FB769
:102520000FCD6E157F058FB70BCDD8018C909924F8
:1025300009CDD801AC90BB2405CDD801CC90DD24C9
:1025400001CDD801EC90FF24FDCCD9018C909924C9
:10255000F9CCD901AC90BB24F5CCD901CC90DD24C9
:10256000F1CCD901EC90FF24EDCCDA018C909924C8
:10257000E9CCDA01AC90BB24E5CCDA01CC90DD24C7
:10258000E1CCDA01EC90FF24DDCCDB018C909924C6
:10259000D9CCDB01AC90BB24D5CCDB01CC90DD24C5
:1025A000D1CCDB01EC90FF24CDCCD8018D909C9058
:1025B000C9CCD801AD90BC90C5CCD801CD90DC90F1
:1025C000C1CCD801ED90FC90BDCCD9018D909C90F0
:1025D000B9CCD901AD90BC90B5CCD901CD90DC90EF
:1025E000B1CCD901ED90FC90ADCCDA018D909C90EE
:1025F000A9CCDA01AD90BC90A5CCDA01CD90DC90ED
:10260000A1CCDA01ED90FC909DCCDB018D909C90EB
:1026100099CCDB01AD90BC9095CCDB01CD90DC90EA
:1026200091CCDB01ED90FC908DCCD8018D929C92E9
:1026300089CCD801AD92BC9285CCD801CD92DC92E8
:1026400081CCD801ED92FC927DCCD9018D929C92E7
:1026500079CCD901AD92BC9275CCD901CD92DC92E6
:1026600071CCD901ED92FC926DCCDA018D929C92E5
:1026700069CCDA01AD92BC9265CCDA01CD92DC92E4
:1026800061CCDA01ED92FC925DCCDB018D929C92E3
:1026900059CCDB01AD92BC9255CCDB01CD92DC92E2
:1026A00051CCDB01ED92FC924DCCD8018D928D0185
:1026B00049CCD801AD928D0145CCD801CD928D0188
:1026C00041CCD801ED928D013DCCD8010D938D0107
:1026D00039CCD8012D938D0135CCD8014D938D0186
:1026E00031CCD8016D938D012DCCD9018D929D01F6
:1026F00029CCD901AD929D0125CCD901CD929D0166
:1027000021CCD901ED929D011DCCD9010D939D01E4
:1027100019CCD9012D939D0115CCD9014D939D0163
:1027200011CCD9016D939D010DCCDA018D92AD01D3
:1027300009CCDA01AD92AD0105CCDA01CD92AD0143
:1027400001CCDA01ED92AD01FDCBDA010D93AD01C3
:10275000F9CBDA012D93AD01F5CBDA014D93AD0143
:10276000F1CBDA016D93AD01EDCBDB018D92BD01B3
:10277000E9CBDB01AD92BD01E5CBDB01CD92BD0123
:10278000E1CBDB01ED92BD01DDCBDB010D93BD01A2
:10279000D9CBDB012D93BD01D5CBDB014D93BD0121
:1027A000D1CBDB016D93BD01CDCB882D892C982E2B
:1027B000C8CB8A2DAB2CB82EC4CB8C2DCD2CD82ECB
:1027C000C0CB8E2DEF2CF82EBCCB802F012F182FD5
:1027D000B8CB822F232F382FB4CB842F452F582FDF
:1027E000B0CB862F672F782FACCB821492048FB793
:1027F000A7CBA214B2048FB7A3CBC214D2048FB755
:102800009FCBE214F2048FB79BCB021512058FB752
:1028100097CB221532058FB793CB421552058FB750
:102820008FCB621572058FB78BCB009F002D1127C0
:1028300089CB029F002D112785CB049F002D1127E6
:1028400081CB069F002D11277DCB209F202D332784
:1028500079CB229F202D332775CB249F202D332722
:1028600071CB269F202D33276DCB409F402D5527C0
:1028700069CB429F402D552765CB449F402D55275E
:1028800061CB469F402D55275DCB609F602D7727FC
:1028900059CB629F602D772755CB649F602D77279A
:1028A00051CB669F602D77274DCB992487FC9A9456
:1028B00048CBBB24A7FCBA9444CBDD24C7FCDA94F4
:1028C00040CBFF24E7FCFA943CCB112707FD1A9577
:1028D00038CB332727FD3A9534CB552747FD5A95FA
:1028E00030CB772767FD7A952CCB8194921C9194FD
:1028F00028CBA194B21CB19424CBC194D21CD19406
:1029000020CBE194F21CF1941CCB0195121D119582
:1029100018CB2195321D319514CB4195521D5195FF
:1029200010CB6195721D71950CCBD8018D908D01E6
:102930009924D9C2D801AD908D01BB24D4C2D8014D
:10294000CD908D01DD24CFC2D801ED908D01FF2403
:10295000CAC202CB0000000000000000D8012D9187
:102960008D013327C0C2D8014D918D015527BBC2BF
:10297000D8016D918D017727B6C2D9018D909D0147
:102980009924B1C2D901AD909D01BB24ACC2D9013B
:10299000CD909D01DD24A7C2D901ED909D01FF24BA
:1029A000A2C2D9010D919D0111279DC2D5CA000077
:1029B000000000000000D9014D919D01552793C2F0
:1029C000D9016D919D0177278EC2DA018D90AD01FD
:1029D000992489C2DA01AD90AD01BB2484C2DA0129
:1029E000CD90AD01DD247FC2DA01ED90AD01FF2471
:1029F0007AC2DA010D91AD01112775C2DA012D916C
:102A0000AD01332770C2A8CA00000000000000001A
:102A1000DA016D91AD01772766C2DB018D90BD01B2
:102A2000992461C2DB01AD90BD01BB245CC2DB0116
:102A3000CD90BD01DD2457C2DB01ED90BD01FF2427
:102A400052C2DB010D91BD0111274DC2DB012D9159
:102A5000BD01332748C2DB014D91BD01552743C25B
:102A60007BCA0000000000000000D8018D909D90FE
:102A70008D0139C2D801AD90BD908D0134C2D8010D
:102A8000CD90DD908D012FC2D801ED90FD908D018C
:102A90002AC262CA0000000000000000D8012D9187
:102AA0003D918D0120C2D8014D915D918D011BC2D8
:102AB000D8016D917D918D0116C2D9018D909D90A7
:102AC0009D0111C2D901AD90BD909D010CC2D901EB
:102AD000CD90DD909D0107C2D901ED90FD909D0143
:102AE00002C2D9010D911D919D01FDC135CA0000A1
:102AF000000000000000D9014D915D919D01F3C1DE
:102B0000D9016D917D919D01EEC1DA018D909D906D
:102B1000AD01E9C1DA01AD90BD90AD01E4C1DA01CA
:102B2000CD90DD90AD01DFC1DA01ED90FD90AD01FA
:102B3000DAC1DA010D911D91AD01D5C1DA012D91F6
:102B40003D91AD01D0C108CA0000000000000000A6
:102B5000DA016D917D91AD01C6C1DB018D909D9033
:102B6000BD01C1C1DB01AD90BD90BD01BCC1DB01A8
:102B7000CD90DD90BD01B7C1DB01ED90FD90BD01B1
:102B8000B2C1DB010D911D91BD01ADC1DB012D91E4
:102B90003D91BD01A8C1DB014D915D91BD01A3C176
:102BA000DBC90000000000000000D8018D929D925A
:102BB0008D0199C1D801AD92BD928D0194C1D8010A
:102BC000CD92DD928D018FC1D801ED92FD928D01E4
:102BD0008AC1D8010D931D938D0185C1D8012D9314
:102BE0003D938D0180C1D8014D935D938D017BC1D3
:102BF000D8016D937D938D0176C1D9018D929D92FF
:102C00009D0171C1D901AD92BD929D016CC1D901E7
:102C1000CD92DD929D0167C1D901ED92FD929D019A
:102C200062C1D9010D931D939D015DC1D9012D9301
:102C30003D939D0158C1D9014D935D939D0153C1B1
:102C4000D9016D937D939D014EC1DA018D929D92C4
:102C5000AD0149C1DA01AD92BD92AD0144C1DA01C5
:102C6000CD92DD92AD013FC1DA01ED92FD92AD0151
:102C70003AC1DA010D931D93AD0135C1DA012D93EF
:102C80003D93AD0130C1DA014D935D93AD012BC190
:102C9000DA016D937D93AD0126C1DB018D929D928A
:102CA000BD0121C1DB01AD92BD92BD011CC1DB01A3
:102CB000CD92DD92BD0117C1DB01ED92FD92BD0108
:102CC00012C1DB010D931D93BD010DC1DB012D93DD
:102CD0003D93BD0108C1DB014D935D93BD0103C16F
:102CE000DB016D937D93BD01FEC0880C991CAA1C6D
:102CF000BB1CF9C08C0C9D1CAE1CBF1CF4C0800E0C
:102D0000911EA21EB31EEFC0840E951EA61EB71EF6
:102D1000EAC0C80CD91CEA1CFB1CE5C0CC0CDD1CAD
:102D2000EE1CFF1CE0C0C00ED11EE21EF31EDBC075
:102D3000C40ED51EE61EF71ED6C0080D191D2A1D8D
:102D40003B1DD1C00C0D1D1D2E1D3F1DCCC0000F05
:102D5000111F221F331FC7C0040F151F261F371F47
:102D6000C2C0480D591D6A1D7B1DBDC04C0D5D1DA7
:102D70006E1D7F1DB8C0400F511F621F731FB3C06F
:102D8000440F551F661F771FAEC088189908AA0800
:102D9000BB08A9C08C189D08AE08BF08A4C0801A43
:102DA000910AA20AB30A9FC0841A950AA60AB70A12
:102DB0009AC0C818D908EA08FB0895C0CC18DD08E5
:102DC000EE08FF0890C0C01AD10AE20AF30A8BC0CD
:102DD000C41AD50AE60AF70A86C0081919092A0989
:102DE0003B0981C00C191D092E093F097CC0001B3D
:102DF000110B220B330B77C0041B150B260B370B63
:102E000072C0481959096A097B096DC04C195D09DE
:102E10006E097F0968C0401B510B620B730B63C0C6
:102E2000441B550B660B770B5EC0B694A794979422
:102E3000879459C0F694E794D794C79454C03695B4
:102E40002795179507954FC07695679557954795A0
:102E50004AC0B594A7949794879445C0F594E79495
:102E6000D794C79440C035952795179507953BC0D3
:102E7000759567955795479536C08928992482108E
:102E8000832C31C0AB28BB24A210A32C2CC0CD288E
:102E9000DD24C210C32C27C0EF28FF24E210E32C4E
:102EA00022C0012B11270211032D1DC0232B332714
:102EB0002211232D18C0452B55274211432D13C035
:102EC000672B77276211632D0EC00000430C521C44
:102ED000621CF8942EBC8EB57894879DF001FF5F3C
:102EE000099401C00000430C8EB52EBC521C621C1C
:102EF000879DF001FF5F099488249924F199832C20
:102F0000F2CFAA24BB24F199A32CEDCFCC24DD244D
:102F1000F199C32CE8CFEE24FF24F199E32CE3CF01
:102F200000271127F199032DDECF22273327F199AE
:102F3000232DD9CF44275527F199432DD4CF662788
:102F40007727F199632DCFCF88249924F19B832C87
:102F5000CACFAA24BB24F19BA32CC5CFCC24DD244B
:102F6000F19BC32CC0CFEE24FF24F19BE32CBBCFFD
:102F700000271127F19B032DB6CF22273327F19B82
:102F8000232DB1CF44275527F19B432DACCF662786
:102F90007727F19B632DA7CF88249924F099832C60
:102FA000A2CFAA24BB24F099A32C9DCFCC24DD244E
:102FB000F099C32C98CFEE24FF24F099E32C93CF03
:102FC00000271127F099032D8ECF22273327F09960
:102FD000232D89CF44275527F099432D84CF662789
:102FE0007727F099632D7FCF88249924F09B832C39
:102FF0007ACFAA24BB24F09BA32C75CFCC24DD244C
:10300000F09BC32C70CFEE24FF24F09BE32C6BCFFE
:1030100000271127F09B032D66CF22273327F09B33
:10302000232D61CF44275527F09B432D5CCF662786
:103030007727F09B632D57CF88249924F499832C0C
:1030400052CFAA24BB24F499A32C4DCFCC24DD2449
:10305000F499C32C48CFEE24FF24F499E32C43CFFA
:1030600000271127F499032D3ECF22273327F49907
:10307000232D39CF44275527F499432D34CF662784
:103080007727F499632D2FCF88249924F49B832CE0
:103090002ACFAA24BB24F49BA32C25CFCC24DD2447
:1030A000F49BC32C20CFEE24FF24F49BE32C1BCFF6
:1030B00000271127F49B032D16CF22273327F49BDB
:1030C000232D11CF44275527F49B432D0CCF662782
:1030D0007727F49B632D07CF6CC077C082C08DC06B
:1030E00098C0A3C0AEC0B9C0C4C0D0C0DCC0E8C0E6
:1030F000FFCFA02F5EC0A22F5CC0A42F5AC0A62F66
:1031000058C0A02F62C0A22F60C0A42F5EC0A62FFF
:103110005CC0A02F66C0A22F64C0A42F62C0A62FDF
:1031200060C0A02F6AC0A22F68C0A42F66C0A62FBF
:1031300064C0A02F6EC0A22F6CC0A42F6AC0A62F9F
:1031400068C0A02F72C0A22F70C0A42F6EC0A62F7F
:103150006CC0A02F76C0A22F74C0A42F72C0A62F5F
:1031600070C0A02F7AC0A22F78C0A42F76C0A62F3F
:1031700074C0A02F7EC0A22F7CC0A42F7AC0A62F1F
:1031800078C0A02F83C0A22F81C0A42F7FC0A62FFC
:103190007DC0A02F88C0A22F86C0A42F84C0A62FD8
:1031A00082C0A02F8DC0A22F8BC0A42F89C0A62FB4
:1031B00087C0AF70A3FF03C0102F0027A77021F0B6
:1031C000000F111FAA95E1F78ECEAF70A3FF03C0C9
:1031D000322F2227A77021F0220F331FAA95E1F783
:1031E00082CEAF70A3FF03C0542F4427A77021F0F5
:1031F000440F551FAA95E1F776CEAF70A3FF03C029
:10320000762F6627A77021F0660F771FAA95E1F742
:103210006ACEAF70A3FF03C0012F1127A77021F062
:1032200016950795AA95E1F75ECEAF70A3FF03C090
:10323000232F3327A77021F036952795AA95E1F71C
:1032400052CEAF70A3FF03C0452F5527A77021F0C2
:1032500056954795AA95E1F746CEAF70A3FF03C0F8
:10326000672F7727A77021F076956795AA95E1F7E4
:103270003ACEAF70A3FF04C0012F110F110BA7703E
:1032800021F015950795AA95E1F72DCEAF70A3FF14
:1032900004C0232F330F330BA77021F035952795EA
:1032A000AA95E1F720CEAF70A3FF04C0452F550FBC
:1032B000550BA77021F055954795AA95E1F713CEC8
:1032C000AF70A3FF04C0672F770F770BA77021F0B3
:1032D00075956795AA95E1F706CE440104CE4501A0
:1032E00002CE460100CE4701FECD4801FCCD49018A
:1032F000FACD4A01F8CD4B01F6CD5401F4CD55017C
:10330000F2CD5601F0CD5701EECD5801ECCD59016B
:10331000EACD5A01E8CD5B01E6CD6401E4CD65015B
:10332000E2CD6601E0CD6701DECD6801DCCD69014B
:10333000DACD6A01D8CD6B01D6CD7401D4CD75013B
:10334000D2CD7601D0CD7701CECD7801CCCD79012B
:10335000CACD7A01C8CD7B01C6CD8401C4CD85011B
:10336000C2CD8601C0CD8701BECD8801BCCD89010B
:10337000BACD8A01B8CD8B01B6CD9401B4CD9501FB
:10338000B2CD9601B0CD9701AECD9801ACCD9901EB
:10339000AACD9A01A8CD9B01A6CDA401A4CDA501DB
:1033A000A2CDA601A0CDA7019ECDA8019CCDA901CB
:1033B0009ACDAA0198CDAB0196CDB40194CDB501BB
:1033C00092CDB60190CDB7018ECDB8018CCDB901AB
:1033D0008ACDBA0188CDBB0186CDD4017EC0D5018E
:1033E0007CC0D6017AC0D70178C0D80176C0D90197
:1033F00074C0DA0172C0DB0170C0D40176C0D5019F
:1034000074C0D60172C0D70170C0D8016EC0D90196
:103410006CC0DA016AC0DB0168C0D4016EC0D5019E
:103420006CC0D6016AC0D70168C0D80166C0D90196
:1034300064C0DA0162C0DB0160C0D40166C0D5019E
:1034400064C0D60162C0D70160C0D8015EC0D90196
:103450005CC0DA015AC0DB0158C0D4015EC0D5019E
:103460005CC0D6015AC0D70158C0D80156C0D90196
:1034700054C0DA0152C0DB0150C0D40156C0D5019E
:1034800054C0D60152C0D70150C0D8014EC0D90196
:103490004CC0DA014AC0DB0148C0D4014EC0D5019E
:1034A0004CC0D6014AC0D70148C0D80146C0D90196
:1034B00044C0DA0142C0DB0140C0D40146C0D5019E
:1034C00044C0D60142C0D70140C0D8013EC0D90196
:1034D0003CC0DA013AC0DB0138C0F401EA9F400188
:1034E000FA9F900CEB9F900CFECCF501EA9F5001E7
:1034F000FA9FB00CEB9FB00CF6CCF601EA9F60018E
:10350000FA9FD00CEB9FD00CEECCF701EA9F700134
:10351000FA9FF00CEB9FF00CE6CCF801EA9F8001DB
:10352000FA9F100DEB9F100DDECCF901EA9F900180
:10353000FA9F300DEB9F300DD6CCFA01EA9FA00127
:10354000FA9F500DEB9F500DCECCFB01EA9FB001CE
:10355000FA9F700DEB9F700DC6CC599AE3E0599815
:10356000EEBDA091000AA50DB091010AB61D10D0C4
:10357000BEBD08D0AEBD06D04EBC04D02EBC00C02F
:1035800007D00895000000C0000000000000000007
:10359000000000C00895F894AFEFADBFAAE0AEBF41
:1035A0002224A1E03A2EA4E07A2E2092060A20924C
:1035B000070A2092080A2092090A20920A0AC0E00B
:1035C000DAE02EBAE9D0A0E5ACBDA1E0ADBD1BD1DB
:1035D0005998EBEAD7D0599ADBD0E4E1F0E0459175
:1035E00055914831C1F45539B1F4B591A591A093E5
:1035F000000AB093010A45915591483121F555399A
:1036000011F5B591A591A093020AB093030AA1E028
:10361000A093060A18C06FEFBFEFA8EF4427552705
:1036200082D088F06FEFBFEEA8EF40EF5FEF7BD066
:1036300008F066C0A0EFBFEFA093020AB093030AA0
:10364000A1E0A093060AAA27B091000A6091010A9E
:103650008CD096D0E13409F053C092D0E63509F011
:103660004FC08ED0ED3409F04BC08AD0E13009F064
:1036700047C086D0E13009F043C082D04E2E80D0C2
:103680005E2E7ED06E2E7CD00E2F7AD01E2F78D05C
:103690004E2FE093040A74D05E2FE093050A599AE6
:1036A0000417150708F42CC0143028F009F028C0BE
:1036B000002309F025C04215520521F0A091060A09
:1036C000A0FF1EC00215120589F0B091000A60919A
:1036D000010AB39509F46395AA2747D0A0E0B1E0A9
:1036E0004FD0ED9301501040D9F7599A0CD035DFE7
:1036F0008EB52EBC78940000879DF001FF5F099481
:10370000F894599AFFCF25BC20926E00A2E0A4BD88
:1037100026BCA9EFA7BDA2E0A5BBA2E0A0936E00C6
:10372000A3E0A5BD089521D02BD0E134D9F428D051
:10373000E635C1F425D0E435A9F422D0E13091F486
:103740001FD00E2E1DD01E2E599A0214120459F0AD
:10375000A42FB52FA019B109A093000AB093010AB4
:1037600008940895599A88940895599A5998E3E0CD
:1037700009D0E62F07D0EB2F05D0EA2F03D008950C
:10378000E22D00C0EEBDFDB5F7FFFDCFEEB508950B
:10379000A0E2AA95F1F708952998219A2A98229AE9
:1037A00023982B98599A519A5E98569A5C9A549AF3
:1037B0005F98579A2E9A269A2F9A279A2D9A259A89
:1037C0005D9A559A289A209A85988D9A86988E9A0D
:1037D00087988F9A84988C9A6E98769A24982C9AC7
:1037E00081988998A1ECA0937C00089588E6992798
:1037F0009A95F1F78A95D9F70895AEBDBDB5B7FF93
:10380000FDCFAEB50895F2DF5F9AF0DF5E985C9869
:10381000E6E2F8E38DE0A591F0DF8A95E1F75C9AA6
:103820005E9A599A0895D5F08D14A1C881CFD9F127
:10383000AF200000EBB5E695E695E370E1FD08C02A
:10384000E0FD03C0D401C5010AC0D601C70107C00D
:10385000E0FD03C0D801C90102C0DA01CB01EBB51C
:10386000E370E1FD08C0E0FD03C00401F5010AC0FA
:103870000601F70107C0E0FD03C00801F90102C01D
:103880000A01FB012BB497FB9F779F3781F487FFD9
:103890000EC08F7799279A2B9B2B982B21F080684D
:1038A0009FE797F906C080689FE797F905C097F9E9
:1038B00003C027FC6BC05CC0F7FBFF77FF3781F4C8
:1038C000E7FF0EC0EF77FF27F029F129FE2B21F04B
:1038D000E068FFE7F7F906C0E068FFE7F7F905C021
:1038E000F7F903C027FC52C045C027FE14C0AA2325
:1038F00091F4BB2381F4882371F4903011F0903857
:1039000051F4002041F4112031F4EE2321F4F03081
:1039100011F1F03801F197FD03C0F7FD24C00FC08D
:10392000F7FF1CC09F17F8F0C9F48E17E0F0B1F450
:10393000B115C8F099F4A015B0F081F40CC09F1730
:1039400068F089F48E1750F071F4B11538F059F41D
:10395000A01520F041F427FC13C00CC027FC0DC0BB
:1039600026FC06C007C027FC0EC026FC03C000C012
:10397000D001CF012224EAB5D8C18FEF9FEF08C054
:103980008827992705C081E0992702C082E09927FE
:103990002224EAB5ECC10AB401FC08C000FC03C053
:1039A000D401C5010AC0D601C70107C000FC03C08D
:1039B000D801C90102C0DA01CB012BB4E92FEE0F07
:1039C00087FDE160E63908F08BC0EF3700F5F92F8D
:1039D000FF77F82BFB2BFA2B09F482C0222091F001
:1039E00021FC03C097FF0EC007C020FC03C097FD59
:1039F00009C002C0EE3730F0AA27BB2780E89078D4
:103A00009F636EC0AA27BB278827907869C0F6E914
:103A1000FE1B97FB9F77EF2FE770F83090F0F031A7
:103A200048F0232C220C082E1A2E1B2AEE2361F4B8
:103A30000B2E2AC0232C0B2E1A2EEE2329F40A2E2D
:103A400023C022240A2E1124F1E0FF0FEA95E9F7A2
:103A5000EF2FE695E02111F0E2E001C0EE27FA95A4
:103A60000F22102809F0E160F095222049F023147C
:103A700021F08F23BB27AA2704C0BF23AA2701C098
:103A8000AF23F095F3950BC0F1E0EE2707FCE26061
:103A9000112009F0E160231409F0BB27AA27E0FFF9
:103AA0001DC00BB40020D1F001FC02C0BEF406C062
:103AB00000FC02C09EF002C0E1FF10C011242220D1
:103AC00049F0231419F08F0F911D08C0BF0F811DFD
:103AD000911D04C0AF0FB11D811D911D97F900C04C
:103AE0002224EAB522C183FD07C02F933F934F9351
:103AF0005F936F937F9309C082FD05C04F935F93DF
:103B00006F937F9302C02F933F93DF01982F9F7095
:103B1000E5E09E9FEFE8FDE1E00DF21D09949401C0
:103B2000A501B401C501BDC09601A701B401C5013D
:103B3000B8C0A9019801B401C501B3C09A01AB0195
:103B4000B401C501AEC09401A501B601C701B4C05E
:103B50009601A701B601C701AFC0A9019801B6013E
:103B6000C701AAC09A01AB01B601C701A5C0A50152
:103B7000B801C9019401ABC0A701B801C901960100
:103B8000A6C0A9019801B801CA01A1C0C9019A0142
:103B9000AB01B8019CC09401CB01BA01A501A0C042
:103BA0009601CB01BA01A7019BC0CB01BA01A901C3
:103BB000980196C09A01AB01B901CA0191C0982F32
:103BC00093709ABD11240EC0982F96959695937078
:103BD0009ABD132C19C0982F929597709ABD132CEB
:103BE000110C12C0923041F060F42F933F934F9329
:103BF0005F936F937F9313C04F935F936F937F9304
:103C00000EC02F933F930BC011FC05C0933039F0C9
:103C10006F937F9304C0973011F06F937F93DF0110
:103C2000837081FD08C080FD03C0B401C5010AC0D6
:103C3000B601C70107C080FD03C0B801C90102C0B9
:103C4000CB01BA01112009F452C011FC88C065C033
:103C5000982F93709ABD112404C0982F93709ABD29
:103C6000132C933011F06F937F9310FC0EC0A82F8C
:103C7000A295A770AA0FA75FBB277C916E91872F93
:103C8000880F880B982FDF0148C0A82FA295A77036
:103C9000AA0FA75FBB277C916E9188279927DF0128
:103CA0003CC0FD0109954B015C017F916F915F91D3
:103CB0004F913F912F913FC0FD0109956B017C0110
:103CC0007F916F915F914F913F912F9134C0FD0192
:103CD00009958B019C017F916F915F914F912BC052
:103CE000FD010995AB01BC013F912F9124C0FD015D
:103CF0000995EAB5DB01E23041F060F47F916F9104
:103D00005F914F913F912F9110C07F916F915F9183
:103D10004F910BC03F912F9108C0FD010995EAB565
:103D2000DB01E33011F07F916F91E1FD10C0E0FD08
:103D30000BC04D015C01430C8EB52EBC521C621CA5
:103D4000879DF001FF5F09946D017C01F4CFE0FDD8
:103D500003C08D019C01EFCFAD01BC01ECCFFD0193
:103D60000995EAB5CB01E73011F07F916F91E770CB
:103D7000EE0FE85FFF2781939083DDCF5058BB277C
:103D8000AA270ED05AC14BD130F050D120F031F4D7
:103D90009F3F11F41EF440C10EF4E095E7FB28C1EB
:103DA000E92F5CD180F3BA17620773078407950780
:103DB00018F069F496F574C10EF4E0950B2EBA2F45
:103DC000A02D0B01B90190010C01CA01A001FF2730
:103DD000591B99F0593F50F4503E68F12A16F040B3
:103DE000A22F232F342F4427585FF3CF46953795C2
:103DF0002795A795F0405395C9F77EF42F16BA0B77
:103E0000620B730B840BBAF09150A1F0FF0FBB1F34
:103E1000661F771F881FC2F70EC0BA0F621F731F7D
:103E2000841F48F4879577956795B795F7959E3FDA
:103E300008F0B4CF9395880F08F09927EE0F979567
:103E4000879508950CD0F9C0F1D040F0E8D030F05B
:103E500021F45F3F19F0CCC0521123C1DDC0FED068
:103E600098F39923C9F35523B1F3951B550BBB2741
:103E7000AA2762177307840738F09F5F5F4F220FEE
:103E8000331F441FAA1FA9F333D00E2E3AF0E0E8E7
:103E900030D091505040E695001CCAF729D0FE2F33
:103EA00027D0660F771F881FBB1F261737074807C5
:103EB000AB07B0E809F0BB0B802DBF01FF2793587B
:103EC0005F4F2AF09E3F520568F092C0EAC05F3F04
:103ED000ECF3983EDCF3869577956795B795F79563
:103EE0009F5FC9F7880F921D9695879597F908955A
:103EF000E1E0660F771F881FBB1F621773078407F7
:103F0000BA0720F0621B730B840BBA0BEE1F88F705
:103F1000E095089504D06894B211C3C00895A6D066
:103F200088F09F5790F0B92F9927B751A0F0D1F0A2
:103F3000660F771F881F991F1AF0BA95C9F712C02C
:103F4000B13081F0ADD0B1E00895AAC0672F782FCD
:103F50008827B85F39F0B93FCCF386957795679598
:103F6000B395D9F73EF490958095709561957F4F04
:103F70008F4F9F4F0895E89409C097FB3EF49095AA
:103F80008095709561957F4F8F4F9F4F9923A9F032
:103F9000F92F96E9BB279395F695879577956795C1
:103FA000B795F211F8CFFAF4BB0F11F460FF1BC004
:103FB0006F5F7F4F8F4F9F4F16C0882311F096E998
:103FC00011C0772321F09EE8872F762F05C0662346
:103FD00071F096E8862F70E060E02AF09A95660FFF
:103FE000771F881FDAF7880F9695879597F90895B8
:103FF00097F99F6780E870E060E008959F3F31F097
:10400000915020F4879577956795B795880F921D05
:104010009695879597F908959FEF80EC0895002471
:104020000A942616270628060906089500240A94ED
:1040300022162306240605060895092E0394000C73
:1040400011F4882352F0BB0F40F4BF2B11F460FF32
:1040500004C06F5F7F4F8F4F9F4F089557FD90585B
:10406000440F551F59F05F3F71F04795880F97FB3C
:10407000991F61F09F3F79F08795089522162306D6
:104080002406551FF2CF4695F1DF08C026162706F5
:104090002806991FF1CF8695720562050894089548
:1040A000E894BB2766277727CB0197F908950AD0B4
:1040B000C4CFB5DF28F0BADF18F0952309F098CF08
:1040C000ABCFEFCFCBDFA8F3959FD9F3950F50E09F
:1040D000551F629FF001729FBB27F00DB11D639FBA
:1040E000AA27F00DB11DAA1F649F6627B00DA11D60
:1040F000661F829F2227B00DA11D621F739FB00D06
:10410000A11D621F839FA00D611D221F749F332775
:10411000A00D611D231F849F600D211D822F762F0E
:104120006A2F9F5750408AF0E1F088234AF0EE0F43
:10413000FF1FBB1F661F771F881F91505040A9F7B4
:104140009E3F520570F054CFACCF5F3FECF3983EEA
:10415000DCF3869577956795B795F795E7959F5F1B
:10416000C1F7FE2B880F921D9695879597F90895B4
:1041700011F40EF451CF42CF79DFD0F39923D9F364
:10418000CEF39F57550B87FF36D00024122CA0E6A4
:1041900040EA900180585695979528F4805C660F08
:1041A000771F881F20F026173707480730F4621B57
:1041B000730B840B202931294A2BA6951794079459
:1041C000202531254A2758F7660F771F881F20F0D2
:1041D00026173707480730F4620B730B840B200D4A
:1041E000311D411DA09581F7B901842F9158880F89
:1041F00096958795089591505040660F771F881FB8
:10420000D2F708959B01AC0152CF9B01AC0160E055
:1042100070E080E89FE316CEDF93CF931F930F9358
:10422000FF92EF92DF927B018C01689405C0DA2E39
:10423000EF0148DFFE01E894A59125913591459164
:104240005591AEF3EF01ACDDFE019701A801DA94C0
:1042500079F7DF90EF90FF900F911F91CF91DF9151
:1042600008959F938F937F936F93FF93EF939B0199
:10427000AC011DDFEF91FF91CFDF2F913F914F9167
:104280005F9115CFF3DE08F4C7CEE894E0E0BB27DA
:104290009F57F0F02AED3FE049EC06C0EE0FBB0F50
:1042A000661F771F881F28F0B23A620773078407DA
:1042B00028F0B25A620B730B840BE3959A9572F750
:1042C000803830F49A95BB0F661F771F881FD2F78E
:1042D000904896CEEF93E0FF06C0A2EA2AED3FE0B9
:1042E00049EC5FEB5DDDA9DE0F90039401FC905873
:1042F000E0EEF7E4B6CF9F93C5DF0F9007FCEE5FCB
:10430000E9CFC0DFE395E6CFDF93DD27B92FBF7795
:1043100040E85FE32616270648075B0710F4D92F0D
:1043200074DF9F938F937F936F936CDFEEEFF7E4CF
:1043300073DF83DE2F913F914F915F91C3DEDD23C9
:1043400049F09058A2EA2AED3FE049EC5FE3D078CB
:104350005D2726DDDF9171CEE92FE0787FDE08F45E
:1043600027C0092E052A91F1261737074807590754
:1043700038F00E2E07F8E02569F0E025E0640AC069
:10438000EF6307F8009407FADB01B9019D01DC0136
:10439000CA01AD01EF9365DD50DEB6DF5F915523B5
:1043A00031F02BED3FE049E450FD49ECE8CC0895B5
:1043B00036DE58F080E891E009F49EEF37DE28F011
:1043C00040E851E089F65EEFCFCF26CE69CEDF938D
:1043D000D92F58DFE695D7952AED3FE049E45FE312
:1043E000B33A6207730784079507D7952AF0A2EAC4
:1043F00049EC9068D5DC21DEEBE2F8E432DFDD0F3A
:104400000BF003DFDD0F0BF49058DF910895FA01F4
:10441000DC01AA0FBB1F9B01AC01BF5728F4222768
:104420003327442750781FC0B75188F4AB2F00249E
:10443000469537952795021CA395D2F3002069F085
:10444000220F331F441FB395DAF30DD097CC6130A0
:104450007205A0E88A07B94630F49B01AC016627D3
:10446000772788279078309621F020833183428304
:1044700053830895FBDD08F4C1CD992309F4BECD23
:10448000940F521D0BF4B4CD915050409CF061F04C
:10449000882332F0660F771F881F91505040C1F774
:1044A0009E3F52050CF0A4CD880F921D96958795DE
:1044B00097F908955F3FA9F4983E98F0BB27869539
:1044C00077956795B79508F4B1609395C1F7BB0FE1
:1044D00058F711F460FFE8CF6F5F7F4F8F4F9F4F0A
:1044E000E3CFDFCDC3DD28F411F416F081CD94CDF8
:1044F000D7CD963810F0E6F37BCD07F80F92E8940D
:104500002BE33AEA48EB5FE7DFDD0F920F920F9261
:104510004DB75EB70F927BDFEEE4F8E47DDE4F919E
:104520005F91EF91FF91E595EE1FFF1F49F0FE5758
:10453000E0684427EE0F441FFA95E1F74195550BCB
:1045400099DF0F9007FC089560CE90DD28F40EF0FF
:1045500055CD62CD68944CCD9923E1F3D6F3DF932A
:10456000CF93C92FDD2788232AF02197660F771F65
:10457000881FDAF720E030E040E85FEB9FE3803C03
:1045800020F4FDDBE6E7F8E405C08F772196F7DB42
:10459000E3EAF8E441DEBF937F936F93BE01EC0141
:1045A0006F577040771F880B990B7795E6DC2F913A
:1045B0003F91AF91AE01CF91DF91BB27F1DB3DCDB4
:1045C000C4DF28E132E741E35FE371CDBEDF2BE9D1
:1045D00030E24AE95EE36BCDFA01EE0FFF1F309641
:1045E0002205320599F16215720561F48038BFE346
:1045F0009B0749F168949038820561F08038BFEFDD
:104600009B0741F0992342F5FF3FE2053205220561
:1046100011F1E8940894E795D901AA2329F4AB2F66
:10462000BE2FF85FD0F310C0FF5F70F4A695E0F7DF
:10463000F73950F019F0FF3A38F49F779F930CD078
:104640000F9007FC905808953EF0E6CC60E070E0D3
:1046500080E89FE308954FE79F775F934F933F93E1
:104660002F93AEDF2F913F914F915F9120DD3ACF95
:104670009F775F77F3DC08F45BC0992309F455C09A
:10468000552309F454C0FF27951760F4E52FE91B63
:10469000ED3008F04AC05E3B10F0F1E41DC09034EC
:1046A000E8F40BC0E92FE51BED3008F040C09E3B5D
:1046B00010F0F1E411C0503488F4F9EA88232AF0AC
:1046C0009A95660F771F881FDAF744232AF05A95C8
:1046D000220F331F441FDAF79F1B5F1BFF931F93AB
:1046E0000F93FF92EF9279018A01BB27AB2F9B01B9
:1046F000AC01EADC9701A801BF937B018C01AA27DA
:10470000BA2FB901CA01E0DCAF919701A801EF907F
:10471000FF900F911F9144DB90DC2EDD4F9140FF05
:104720000895552747FD5095A5CEB901CA0166CC1D
:1047300076DC19F07BDC09F06FCC5ACCE92F8EDCEB
:1047400008F446C0552309F449C0E7FB6217730714
:1047500084079507B0F109F442C0E92FFF278823A9
:104760002AF03197660F771F881FDAF7952F5527A4
:10477000442332F091505040220F331F441FD2F790
:10478000BB27E91BF50B621B730B840BB20939F1D4
:1047900022F4620F731F841FB21D31972AF0660F37
:1047A000771F881FBB1FEFCF915050405AF041F048
:1047B000882332F0660F771F881F91505040C1F751
:1047C00093951CCC8695779567959F5FD9F7F8CF21
:1047D00026DC20F019F02ADC08F0B7CF1DCC61CC24
:1047E00005A84CCDB2D44EB93836A9020C50B991B7
:1047F0008688083CA6AAAA2ABE000000803F084A74
:10480000D73B3BCE016E84BCBFFDC12F3D6C7431E4
:104810009ABD56833DDA3D00C77F11BED9E4BB4C3B
:104820003E916BAAAABE000000803F0664EC1B3CD0
:1048300004BC163E3BE5B93CC93C37C29E5A3D66B6
:104840000498083EEA69AAAA3E000000803F076378
:104850004236B79BD8A71A39685618AEBAAB558CF2
:104860001D3CB7CC5763BD6DEDFD753EF61772313B
:10487000BF000000803F089C1A22BDA09220003E8D
:10488000BECCD558BE94DEA0903EA0A54BB8BE20AD
:10489000A932F63E802AAA38BF223BAAB83F0000C0
:1048A000000000083C5BF7BEDAD7AA713D8C778622
:1048B0008CBE2EEE93913E7A9FCEB8BE102437F672
:1048C0003EFA3CAA38BF283BAAB83F0000000000CF
:1048D000F801D901CA01082E092AE9F0EA17FB07F5
:1048E000D1F0A8F00F010A1A1B0A0816190678F46D
:1048F000A80FB91FE80FF91F0E9002920197E1F778
:104900000AC0F801D901CA01182E192A21F00D9008
:1049100001920197E1F70C94AD06772311F00C9406
:104920003A090901B02DB12951F0430C521C621C07
:10493000F801CA01A62F0E94A50A0C9412090C9432
:10494000AD06F801CA01022E182E192A19F001929B
:084950000197E9F70C94AD0694
:00000001FF
