:100000000C9457000C9456000C9456000C94560017
:100010000C9456000C9456000C9456000C94560008
:100020000C9456000C9456000C9456000C945600F8
:100030000C9456000C9456000C9456000C945600E8
:100040000C9456000C9456000C9456000C945600D8
:100050000C9456000C9456000C9456000C945600C8
:100060000C9456000C9456000C9456000C945600B8
:100070000C9456000C9456000C9456000C945600A8
:100080000C9456000C9456000C9456000C94560098
:100090000C9456000C9456000C9456000C94560088
:1000A0000C9456000C9456000C945600FFCF0C9400
:1000B0006A130000000000000000000000000000C3
:1000C0000000000000000000000000000000000030
:1000D0000000000000000000000000000000000020
:1000E0000000000000000000000000000000000010
:1000F0000000000000000000000000000000000000
:1001000000000000000000000000000000000000EF
:1001100000000000000000000000000000000000DF
:1001200000000000000000000000000000000000CF
:1001300000000000000000000000000000000000BF
:1001400000000000000000000000000000000000AF
:10015000000000000000000000000000000000009F
:10016000000000000000000000000000000000008F
:10017000000000000000000000000000000000007F
:10018000000000000000000000000000000000006F
:10019000000000000000000000000000000000005F
:1001A000000000000000000000000000000000004F
:1001B000000000000000000000000000000000003F
:1001C000000000000000000000000000000000002F
:1001D000000000000000000000000000000000001F
:1001E000000000000000000000000000000000000F
:1001F00000000000000000000000000000000000FF
:10020000C895002711270196F8942EBC6EB47894F7
:10021000679CF001FF5F09940000000000000000EF
:1002200000C000C089010196F8942EBC6EB4789489
:10023000679CF001FF5F09940000000000000000CF
:1002400000C000C08A010196F8942EBC6EB4789468
:10025000679CF001FF5F09940000000000000000AF
:1002600000C000C08B010196F8942EBC6EB4789447
:10027000679CF001FF5F099400000000000000008F
:1002800000C000C098010196F8942EBC6EB478941A
:10029000679CF001FF5F099400000000000000006F
:1002A000C895222733270196F8942EBC6EB4789413
:1002B000679CF001FF5F099400000000000000004F
:1002C00000C000C09A010196F8942EBC6EB47894D8
:1002D000679CF001FF5F099400000000000000002F
:1002E00000C000C09B010196F8942EBC6EB47894B7
:1002F000679CF001FF5F099400000000000000000F
:1003000000C000C0A8010196F8942EBC6EB4789489
:10031000679CF001FF5F09940000000000000000EE
:1003200000C000C0A9010196F8942EBC6EB4789468
:10033000679CF001FF5F09940000000000000000CE
:10034000C895442755270196F8942EBC6EB478942E
:10035000679CF001FF5F09940000000000000000AE
:1003600000C000C0AB010196F8942EBC6EB4789426
:10037000679CF001FF5F099400000000000000008E
:1003800000C000C0B8010196F8942EBC6EB47894F9
:10039000679CF001FF5F099400000000000000006E
:1003A00000C000C0B9010196F8942EBC6EB47894D8
:1003B000679CF001FF5F099400000000000000004E
:1003C00000C000C0BA010196F8942EBC6EB47894B7
:1003D000679CF001FF5F099400000000000000002E
:1003E000C895662777270196F8942EBC6EB478944A
:1003F000679CF001FF5F099400000000000000000E
:100400000000D8010C9111270196F8942EBC6EB40F
:100410007894679CF001FF5F0994000000000000E1
:100420000000D9010C9111270196F8942EBC6EB4EE
:100430007894679CF001FF5F0994000000000000C1
:100440000000DA010C9111270196F8942EBC6EB4CD
:100450007894679CF001FF5F0994000000000000A1
:100460000000DB010C9111270196F8942EBC6EB4AC
:100470007894679CF001FF5F099400000000000081
:100480000000D8012C9133270196F8942EBC6EB44D
:100490007894679CF001FF5F099400000000000061
:1004A0000000D9012C9133270196F8942EBC6EB42C
:1004B0007894679CF001FF5F099400000000000041
:1004C0000000DA012C9133270196F8942EBC6EB40B
:1004D0007894679CF001FF5F099400000000000021
:1004E0000000DB012C9133270196F8942EBC6EB4EA
:1004F0007894679CF001FF5F099400000000000001
:100500000000D8014C9155270196F8942EBC6EB48A
:100510007894679CF001FF5F0994000000000000E0
:100520000000D9014C9155270196F8942EBC6EB469
:100530007894679CF001FF5F0994000000000000C0
:100540000000DA014C9155270196F8942EBC6EB448
:100550007894679CF001FF5F0994000000000000A0
:100560000000DB014C9155270196F8942EBC6EB427
:100570007894679CF001FF5F099400000000000080
:100580000000D8016C9177270196F8942EBC6EB4C8
:100590007894679CF001FF5F099400000000000060
:1005A0000000D9016C9177270196F8942EBC6EB4A7
:1005B0007894679CF001FF5F099400000000000040
:1005C0000000DA016C9177270196F8942EBC6EB486
:1005D0007894679CF001FF5F099400000000000020
:1005E0000000DB016C9177270196F8942EBC6EB465
:1005F0007894679CF001FF5F099400000000000000
:1006000000C0D8010C930196F8942EBC6EB4789477
:10061000679CF001FF5F09940000000000000000EB
:1006200000C0D8012C930196F8942EBC6EB4789437
:10063000679CF001FF5F09940000000000000000CB
:1006400000C0D8014C930196F8942EBC6EB47894F7
:10065000679CF001FF5F09940000000000000000AB
:1006600000C0D8016C930196F8942EBC6EB47894B7
:10067000679CF001FF5F099400000000000000008B
:1006800000C0D9010C930196F8942EBC6EB47894F6
:10069000679CF001FF5F099400000000000000006B
:1006A00000C0D9012C930196F8942EBC6EB47894B6
:1006B000679CF001FF5F099400000000000000004B
:1006C00000C0D9014C930196F8942EBC6EB4789476
:1006D000679CF001FF5F099400000000000000002B
:1006E00000C0D9016C930196F8942EBC6EB4789436
:1006F000679CF001FF5F099400000000000000000B
:1007000000C0DA010C930196F8942EBC6EB4789474
:10071000679CF001FF5F09940000000000000000EA
:1007200000C0DA012C930196F8942EBC6EB4789434
:10073000679CF001FF5F09940000000000000000CA
:1007400000C0DA014C930196F8942EBC6EB47894F4
:10075000679CF001FF5F09940000000000000000AA
:1007600000C0DA016C930196F8942EBC6EB47894B4
:10077000679CF001FF5F099400000000000000008A
:1007800000C0DB010C930196F8942EBC6EB47894F3
:10079000679CF001FF5F099400000000000000006A
:1007A00000C0DB012C930196F8942EBC6EB47894B3
:1007B000679CF001FF5F099400000000000000004A
:1007C00000C0DB014C930196F8942EBC6EB4789473
:1007D000679CF001FF5F099400000000000000002A
:1007E00000C0DB016C930196F8942EBC6EB4789433
:1007F000679CF001FF5F099400000000000000000A
:10080000D8010D911C910196F8942EBC6EB4789489
:10081000679CF001FF5F09940000000000000000E9
:10082000D9010D911C910196F8942EBC6EB4789468
:10083000679CF001FF5F09940000000000000000C9
:10084000DA010D911C910196F8942EBC6EB4789447
:10085000679CF001FF5F09940000000000000000A9
:10086000DB010D911C910196F8942EBC6EB4789426
:10087000679CF001FF5F0994000000000000000089
:10088000D8012D913C910196F8942EBC6EB47894C9
:10089000679CF001FF5F0994000000000000000069
:1008A000D9012D913C910196F8942EBC6EB47894A8
:1008B000679CF001FF5F0994000000000000000049
:1008C000DA012D913C910196F8942EBC6EB4789487
:1008D000679CF001FF5F0994000000000000000029
:1008E000DB012D913C910196F8942EBC6EB4789466
:1008F000679CF001FF5F0994000000000000000009
:10090000D8014D915C910196F8942EBC6EB4789408
:10091000679CF001FF5F09940000000000000000E8
:10092000D9014D915C910196F8942EBC6EB47894E7
:10093000679CF001FF5F09940000000000000000C8
:10094000DA014D915C910196F8942EBC6EB47894C6
:10095000679CF001FF5F09940000000000000000A8
:10096000DB014D915C910196F8942EBC6EB47894A5
:10097000679CF001FF5F0994000000000000000088
:10098000D8016D917C910196F8942EBC6EB4789448
:10099000679CF001FF5F0994000000000000000068
:1009A000D9016D917C910196F8942EBC6EB4789427
:1009B000679CF001FF5F0994000000000000000048
:1009C000DA016D917C910196F8942EBC6EB4789406
:1009D000679CF001FF5F0994000000000000000028
:1009E000DB016D917C910196F8942EBC6EB47894E5
:1009F000679CF001FF5F0994000000000000000008
:100A0000D8010D931C930196F8942EBC6EB4789483
:100A1000679CF001FF5F09940000000000000000E7
:100A2000D8012D933C930196F8942EBC6EB4789423
:100A3000679CF001FF5F09940000000000000000C7
:100A4000D8014D935C930196F8942EBC6EB47894C3
:100A5000679CF001FF5F09940000000000000000A7
:100A6000D8016D937C930196F8942EBC6EB4789463
:100A7000679CF001FF5F0994000000000000000087
:100A8000D9010D931C930196F8942EBC6EB4789402
:100A9000679CF001FF5F0994000000000000000067
:100AA000D9012D933C930196F8942EBC6EB47894A2
:100AB000679CF001FF5F0994000000000000000047
:100AC000D9014D935C930196F8942EBC6EB4789442
:100AD000679CF001FF5F0994000000000000000027
:100AE000D9016D937C930196F8942EBC6EB47894E2
:100AF000679CF001FF5F0994000000000000000007
:100B0000DA010D931C930196F8942EBC6EB4789480
:100B1000679CF001FF5F09940000000000000000E6
:100B2000DA012D933C930196F8942EBC6EB4789420
:100B3000679CF001FF5F09940000000000000000C6
:100B4000DA014D935C930196F8942EBC6EB47894C0
:100B5000679CF001FF5F09940000000000000000A6
:100B6000DA016D937C930196F8942EBC6EB4789460
:100B7000679CF001FF5F0994000000000000000086
:100B8000DB010D931C930196F8942EBC6EB47894FF
:100B9000679CF001FF5F0994000000000000000066
:100BA000DB012D933C930196F8942EBC6EB478949F
:100BB000679CF001FF5F0994000000000000000046
:100BC000DB014D935C930196F8942EBC6EB478943F
:100BD000679CF001FF5F0994000000000000000026
:100BE000DB016D937C930196F8942EBC6EB47894DF
:100BF000679CF001FF5F0994000000000000000006
:100C0000FFCF000000000000000000000000000016
:100C100000000000000000000000000000000000D4
:100C2000FFCF0000000000000000000000000000F6
:100C300000000000000000000000000000000000B4
:100C4000FFCF0000000000000000000000000000D6
:100C50000000000000000000000000000000000094
:100C6000FFCF0000000000000000000000000000B6
:100C70000000000000000000000000000000000074
:100C8000FFCF000000000000000000000000000096
:100C90000000000000000000000000000000000054
:100CA000FFCF000000000000000000000000000076
:100CB0000000000000000000000000000000000034
:100CC000FFCF000000000000000000000000000056
:100CD0000000000000000000000000000000000014
:100CE000FFCF000000000000000000000000000036
:100CF00000000000000000000000000000000000F4
:100D0000FFCF000000000000000000000000000015
:100D100000000000000000000000000000000000D3
:100D2000FFCF0000000000000000000000000000F5
:100D300000000000000000000000000000000000B3
:100D4000FFCF0000000000000000000000000000D5
:100D50000000000000000000000000000000000093
:100D6000FFCF0000000000000000000000000000B5
:100D70000000000000000000000000000000000073
:100D8000FFCF000000000000000000000000000095
:100D90000000000000000000000000000000000053
:100DA000FFCF000000000000000000000000000075
:100DB0000000000000000000000000000000000033
:100DC000FFCF000000000000000000000000000055
:100DD0000000000000000000000000000000000013
:100DE000FFCF000000000000000000000000000035
:100DF00000000000000000000000000000000000F3
:100E0000FFCF000000000000000000000000000014
:100E100000000000000000000000000000000000D2
:100E2000FFCF0000000000000000000000000000F4
:100E300000000000000000000000000000000000B2
:100E4000FFCF0000000000000000000000000000D4
:100E50000000000000000000000000000000000092
:100E6000FFCF0000000000000000000000000000B4
:100E70000000000000000000000000000000000072
:100E8000FFCF000000000000000000000000000094
:100E90000000000000000000000000000000000052
:100EA000FFCF000000000000000000000000000074
:100EB0000000000000000000000000000000000032
:100EC000FFCF000000000000000000000000000054
:100ED0000000000000000000000000000000000012
:100EE000FFCF000000000000000000000000000034
:100EF00000000000000000000000000000000000F2
:100F0000FFCF000000000000000000000000000013
:100F100000000000000000000000000000000000D1
:100F2000FFCF0000000000000000000000000000F3
:100F300000000000000000000000000000000000B1
:100F4000FFCF0000000000000000000000000000D3
:100F50000000000000000000000000000000000091
:100F6000FFCF0000000000000000000000000000B3
:100F70000000000000000000000000000000000071
:100F8000FFCF000000000000000000000000000093
:100F90000000000000000000000000000000000051
:100FA000FFCF000000000000000000000000000073
:100FB0000000000000000000000000000000000031
:100FC000FFCF000000000000000000000000000053
:100FD0000000000000000000000000000000000011
:100FE000FFCF000000000000000000000000000033
:100FF00000000000000000000000000000000000F1
:1010000000009A928A920196F8942EBC6EB478945D
:10101000679CF001FF5F09940000000000000000E1
:101020000000BA92AA920196F8942EBC6EB47894FD
:10103000679CF001FF5F09940000000000000000C1
:101040000000DA92CA920196F8942EBC6EB478949D
:10105000679CF001FF5F09940000000000000000A1
:101060000000FA92EA920196F8942EBC6EB478943D
:10107000679CF001FF5F0994000000000000000081
:1010800000001A930A930196F8942EBC6EB47894DB
:10109000679CF001FF5F0994000000000000000061
:1010A00000003A932A930196F8942EBC6EB478947B
:1010B000679CF001FF5F0994000000000000000041
:1010C00000005A934A930196F8942EBC6EB478941B
:1010D000679CF001FF5F0994000000000000000021
:1010E00000007A936A930196F8942EBC6EB47894BB
:1010F000679CF001FF5F0994000000000000000001
:101100000000899099900196F8942EBC6EB4789462
:10111000679CF001FF5F09940000000000000000E0
:101120000000A990B9900196F8942EBC6EB4789402
:10113000679CF001FF5F09940000000000000000C0
:101140000000C990D9900196F8942EBC6EB47894A2
:10115000679CF001FF5F09940000000000000000A0
:101160000000E990F9900196F8942EBC6EB4789442
:10117000679CF001FF5F0994000000000000000080
:101180000000099119910196F8942EBC6EB47894E0
:10119000679CF001FF5F0994000000000000000060
:1011A0000000299139910196F8942EBC6EB4789480
:1011B000679CF001FF5F0994000000000000000040
:1011C0000000499159910196F8942EBC6EB4789420
:1011D000679CF001FF5F0994000000000000000020
:1011E0000000699179910196F8942EBC6EB47894C0
:1011F000679CF001FF5F0994000000000000000000
:1012000000C0000F111F3FB60196F8942EBC6EB4BB
:101210007894679CF001FF5F0994000000000000D3
:1012200000C0020F131F3FB60196F8942EBC6EB497
:101230007894679CF001FF5F0994000000000000B3
:1012400000C0040F151F3FB60196F8942EBC6EB473
:101250007894679CF001FF5F099400000000000093
:1012600000C0060F171F3FB60196F8942EBC6EB44F
:101270007894679CF001FF5F099400000000000073
:1012800000C0200F311F3FB60196F8942EBC6EB4FB
:101290007894679CF001FF5F099400000000000053
:1012A00000C0220F331F3FB60196F8942EBC6EB4D7
:1012B0007894679CF001FF5F099400000000000033
:1012C00000C0240F351F3FB60196F8942EBC6EB4B3
:1012D0007894679CF001FF5F099400000000000013
:1012E00000C0260F371F3FB60196F8942EBC6EB48F
:1012F0007894679CF001FF5F0994000000000000F3
:1013000000C0400F511F3FB60196F8942EBC6EB43A
:101310007894679CF001FF5F0994000000000000D2
:1013200000C0420F531F3FB60196F8942EBC6EB416
:101330007894679CF001FF5F0994000000000000B2
:1013400000C0440F551F3FB60196F8942EBC6EB4F2
:101350007894679CF001FF5F099400000000000092
:1013600000C0460F571F3FB60196F8942EBC6EB4CE
:101370007894679CF001FF5F099400000000000072
:1013800000C0600F711F3FB60196F8942EBC6EB47A
:101390007894679CF001FF5F099400000000000052
:1013A00000C0620F731F3FB60196F8942EBC6EB456
:1013B0007894679CF001FF5F099400000000000032
:1013C00000C0640F751F3FB60196F8942EBC6EB432
:1013D0007894679CF001FF5F099400000000000012
:1013E00000C0660F771F3FB60196F8942EBC6EB40E
:1013F0007894679CF001FF5F0994000000000000F2
:1014000000C0001B110B3FB60196F8942EBC6EB4C1
:101410007894679CF001FF5F0994000000000000D1
:1014200000C0021B130B3FB60196F8942EBC6EB49D
:101430007894679CF001FF5F0994000000000000B1
:1014400000C0041B150B3FB60196F8942EBC6EB479
:101450007894679CF001FF5F099400000000000091
:1014600000C0061B170B3FB60196F8942EBC6EB455
:101470007894679CF001FF5F099400000000000071
:1014800000C0201B310B3FB60196F8942EBC6EB401
:101490007894679CF001FF5F099400000000000051
:1014A00000C0221B330B3FB60196F8942EBC6EB4DD
:1014B0007894679CF001FF5F099400000000000031
:1014C00000C0241B350B3FB60196F8942EBC6EB4B9
:1014D0007894679CF001FF5F099400000000000011
:1014E00000C0261B370B3FB60196F8942EBC6EB495
:1014F0007894679CF001FF5F0994000000000000F1
:1015000000C0401B510B3FB60196F8942EBC6EB440
:101510007894679CF001FF5F0994000000000000D0
:1015200000C0421B530B3FB60196F8942EBC6EB41C
:101530007894679CF001FF5F0994000000000000B0
:1015400000C0441B550B3FB60196F8942EBC6EB4F8
:101550007894679CF001FF5F099400000000000090
:1015600000C0461B570B3FB60196F8942EBC6EB4D4
:101570007894679CF001FF5F099400000000000070
:1015800000C0601B710B3FB60196F8942EBC6EB480
:101590007894679CF001FF5F099400000000000050
:1015A00000C0621B730B3FB60196F8942EBC6EB45C
:1015B0007894679CF001FF5F099400000000000030
:1015C00000C0641B750B3FB60196F8942EBC6EB438
:1015D0007894679CF001FF5F099400000000000010
:1015E00000C0661B770B3FB60196F8942EBC6EB414
:1015F0007894679CF001FF5F0994000000000000F0
:1016000030FA021512053FB630F80196F8942EBC58
:101610006EB47894679CF001FF5F099400000000AD
:1016200000C0021713073FB60196F8942EBC6EB4A3
:101630007894679CF001FF5F0994000000000000AF
:1016400000C0041715073FB60196F8942EBC6EB47F
:101650007894679CF001FF5F09940000000000008F
:1016600000C0061717073FB60196F8942EBC6EB45B
:101670007894679CF001FF5F09940000000000006F
:1016800000C0201731073FB60196F8942EBC6EB407
:101690007894679CF001FF5F09940000000000004F
:1016A00030FA221532053FB630F80196F8942EBC78
:1016B0006EB47894679CF001FF5F0994000000000D
:1016C00000C0241735073FB60196F8942EBC6EB4BF
:1016D0007894679CF001FF5F09940000000000000F
:1016E00000C0261737073FB60196F8942EBC6EB49B
:1016F0007894679CF001FF5F0994000000000000EF
:1017000000C0401751073FB60196F8942EBC6EB446
:101710007894679CF001FF5F0994000000000000CE
:1017200000C0421753073FB60196F8942EBC6EB422
:101730007894679CF001FF5F0994000000000000AE
:1017400030FA421552053FB630F80196F8942EBC97
:101750006EB47894679CF001FF5F0994000000006C
:1017600000C0461757073FB60196F8942EBC6EB4DA
:101770007894679CF001FF5F09940000000000006E
:1017800000C0601771073FB60196F8942EBC6EB486
:101790007894679CF001FF5F09940000000000004E
:1017A00000C0621773073FB60196F8942EBC6EB462
:1017B0007894679CF001FF5F09940000000000002E
:1017C00000C0641775073FB60196F8942EBC6EB43E
:1017D0007894679CF001FF5F09940000000000000E
:1017E00030FA621572053FB630F80196F8942EBCB7
:1017F0006EB47894679CF001FF5F099400000000CC
:10180000000030FA00233FB630F80196F8942EBC61
:101810006EB47894679CF001FF5F099400000000AB
:10182000C89502173FB60196F8942EBC6EB4789412
:10183000679CF001FF5F09940000000000000000B9
:10184000C89504173FB60196F8942EBC6EB47894F0
:10185000679CF001FF5F0994000000000000000099
:10186000C89506173FB60196F8942EBC6EB47894CE
:10187000679CF001FF5F0994000000000000000079
:10188000C89520173FB60196F8942EBC6EB4789494
:10189000679CF001FF5F0994000000000000000059
:1018A000000030FA22233FB630F80196F8942EBC9F
:1018B0006EB47894679CF001FF5F0994000000000B
:1018C000C89524173FB60196F8942EBC6EB4789450
:1018D000679CF001FF5F0994000000000000000019
:1018E000C89526173FB60196F8942EBC6EB478942E
:1018F000679CF001FF5F09940000000000000000F9
:10190000C89540173FB60196F8942EBC6EB47894F3
:10191000679CF001FF5F09940000000000000000D8
:10192000C89542173FB60196F8942EBC6EB47894D1
:10193000679CF001FF5F09940000000000000000B8
:10194000000030FA44233FB630F80196F8942EBCDC
:101950006EB47894679CF001FF5F0994000000006A
:10196000C89546173FB60196F8942EBC6EB478948D
:10197000679CF001FF5F0994000000000000000078
:10198000C89560173FB60196F8942EBC6EB4789453
:10199000679CF001FF5F0994000000000000000058
:1019A000C89562173FB60196F8942EBC6EB4789431
:1019B000679CF001FF5F0994000000000000000038
:1019C000C89564173FB60196F8942EBC6EB478940F
:1019D000679CF001FF5F0994000000000000000018
:1019E000000030FA66233FB630F80196F8942EBC1A
:1019F0006EB47894679CF001FF5F099400000000CA
:101A000031FE00C40196885090404BD66EB42EBC77
:101A1000679CF001FE5F09940000000000000000D8
:101A200031FEF0C30196875090403BD66EB42EBC79
:101A3000679CF001FE5F09940000000000000000B8
:101A400031FEE0C30196865090402BD66EB42EBC7A
:101A5000679CF001FE5F0994000000000000000098
:101A600031FED0C30196855090401BD66EB42EBC7B
:101A7000679CF001FE5F0994000000000000000078
:101A800031FEC0C30196845090400BD66EB42EBC7C
:101A9000679CF001FE5F0994000000000000000058
:101AA00031FEB0C3019683509040FBD56EB42EBC7E
:101AB000679CF001FE5F0994000000000000000038
:101AC00031FEA0C3019682509040EBD56EB42EBC7F
:101AD000679CF001FE5F0994000000000000000018
:101AE00031FE90C3019681509040DBD56EB42EBC80
:101AF000679CF001FE5F09940000000000000000F8
:101B000031FE80C301968F5F9F4FCBD56EB42EBC44
:101B1000679CF001FE5F09940000000000000000D7
:101B200031FE70C301968E5F9F4FBBD56EB42EBC45
:101B3000679CF001FE5F09940000000000000000B7
:101B400031FE60C301968D5F9F4FABD56EB42EBC46
:101B5000679CF001FE5F0994000000000000000097
:101B600031FE50C301968C5F9F4F9BD56EB42EBC47
:101B7000679CF001FE5F0994000000000000000077
:101B800031FE40C301968B5F9F4F8BD56EB42EBC48
:101B9000679CF001FE5F0994000000000000000057
:101BA00031FE30C301968A5F9F4F7BD56EB42EBC49
:101BB000679CF001FE5F0994000000000000000037
:101BC00031FE20C30196895F9F4F6BD56EB42EBC4A
:101BD000679CF001FE5F0994000000000000000017
:101BE00031FE10C30196885F9F4F5BD56EB42EBC4B
:101BF000679CF001FE5F09940000000000000000F7
:101C000031FC00C30196885090404BD56EB42EBC79
:101C1000679CF001FE5F09940000000000000000D6
:101C200031FCF0C20196875090403BD56EB42EBC7B
:101C3000679CF001FE5F09940000000000000000B6
:101C400031FCE0C20196865090402BD56EB42EBC7C
:101C5000679CF001FE5F0994000000000000000096
:101C600031FCD0C20196855090401BD56EB42EBC7D
:101C7000679CF001FE5F0994000000000000000076
:101C800031FCC0C20196845090400BD56EB42EBC7E
:101C9000679CF001FE5F0994000000000000000056
:101CA00031FCB0C2019683509040FBD46EB42EBC80
:101CB000679CF001FE5F0994000000000000000036
:101CC00031FCA0C2019682509040EBD46EB42EBC81
:101CD000679CF001FE5F0994000000000000000016
:101CE00031FC90C2019681509040DBD46EB42EBC82
:101CF000679CF001FE5F09940000000000000000F6
:101D000031FC80C201968F5F9F4FCBD46EB42EBC46
:101D1000679CF001FE5F09940000000000000000D5
:101D200031FC70C201968E5F9F4FBBD46EB42EBC47
:101D3000679CF001FE5F09940000000000000000B5
:101D400031FC60C201968D5F9F4FABD46EB42EBC48
:101D5000679CF001FE5F0994000000000000000095
:101D600031FC50C201968C5F9F4F9BD46EB42EBC49
:101D7000679CF001FE5F0994000000000000000075
:101D800031FC40C201968B5F9F4F8BD46EB42EBC4A
:101D9000679CF001FE5F0994000000000000000055
:101DA00031FC30C201968A5F9F4F7BD46EB42EBC4B
:101DB000679CF001FE5F0994000000000000000035
:101DC00031FC20C20196895F9F4F6BD46EB42EBC4C
:101DD000679CF001FE5F0994000000000000000015
:101DE00031FC10C20196885F9F4F5BD46EB42EBC4D
:101DF000679CF001FE5F09940000000000000000F5
:101E000030FAA1E08A0E921C3FB630F843C40000BD
:101E100000000000000000000000000000000000C2
:101E200030FAA1E0AA0EB21C3FB630F833C400006D
:101E300000000000000000000000000000000000A2
:101E400030FAA1E0CA0ED21C3FB630F823C400001D
:101E50000000000000000000000000000000000082
:101E600030FAA1E0EA0EF21C3FB630F813C40000CD
:101E70000000000000000000000000000000000062
:101E800030FAA1E00A0F121D3FB630F803C400007B
:101E90000000000000000000000000000000000042
:101EA00030FAA1E02A0F321D3FB630F8F3C300002C
:101EB0000000000000000000000000000000000022
:101EC00030FAA1E04A0F521D3FB630F8E3C30000DC
:101ED0000000000000000000000000000000000002
:101EE00030FAA1E06A0F721D3FB630F8D3C300008C
:101EF00000000000000000000000000000000000E2
:101F000030FAA1E08A1A92083FB630F8C3C3000045
:101F100000000000000000000000000000000000C1
:101F200030FAA1E0AA1AB2083FB630F8B3C30000F5
:101F300000000000000000000000000000000000A1
:101F400030FAA1E0CA1AD2083FB630F8A3C30000A5
:101F50000000000000000000000000000000000081
:101F600030FAA1E0EA1AF2083FB630F893C3000055
:101F70000000000000000000000000000000000061
:101F800030FAA1E00A1B12093FB630F883C3000003
:101F90000000000000000000000000000000000041
:101FA00030FAA1E02A1B32093FB630F873C30000B3
:101FB0000000000000000000000000000000000021
:101FC00030FAA1E04A1B52093FB630F863C3000063
:101FD0000000000000000000000000000000000001
:101FE00030FAA1E06A1B72093FB630F853C3000013
:101FF00000000000000000000000000000000000E1
:1020000000C000C0C895F8942EBC0EB57894019617
:102010001127F6C0000000000000000000000000D2
:1020200000C000C0C895F8942EBC2EB578940196D7
:102030003327E6C0000000000000000000000000A0
:1020400000C000C0C895F8942EBC4EB57894019697
:102050005527D6C00000000000000000000000006E
:1020600000C000C0C895F8942EBC6EB57894019657
:102070007727C6C00000000000000000000000003C
:102080000196C895C9C000000000000000000000D3
:102090000000000000000000000000000000000040
:1020A000019600C000C00000F8942EBC6EB4789475
:1020B00031FEE0C2E1C200000000000000000000AC
:1020C000019600C000C00000F8942EBC6EB4789455
:1020D00031FCD0C2D1C200000000000000000000AE
:1020E000019600C000C00000F8942EBC6EB4789435
:1020F00030FEC0C2C1C200000000000000000000AD
:10210000019600C000C00000F8942EBC6EB4789414
:1021100030FCB0C2B1C200000000000000000000AE
:10212000019600C000C00000F8942EBC6EB47894F4
:1021300034FEA0C2A1C200000000000000000000A8
:10214000019600C000C00000F8942EBC6EB47894D4
:1021500034FC90C291C200000000000000000000AA
:10216000019600C000C00000F8942EBC6EB47894B4
:10217000A32DA37009F47EC27FC2000000000000FE
:10218000019600C000C00000F8942EBC6EB4789494
:10219000A32DA37009F06EC26FC200000000000002
:1021A0000196C89545C10000000000000000000035
:1021B000000000000000000000000000000000001F
:1021C000000000000000000000000000000000000F
:1021D00000000000000000000000000000000000FF
:1021E00000000000000000000000000000000000EF
:1021F00000000000000000000000000000000000DF
:1022000000C000C000C00196F8942EBC6EB4789453
:10221000679CF001FF5F0994F8942EBC6EB478942B
:10222000E5E1F1E1E60DF21D0994FFC0FEC0FDC03D
:10223000FCC0FBC0FAC0F9C0F8C0F7C0F6C0F5C0DA
:10224000F4C0F3C0F2C0F1C0F0C0EFC0EEC0EDC00A
:10225000ECC0EBC0EAC0E9C0E8C0E7C0E6C0E5C03A
:10226000E4C0E3C0E2C0E1C0E0C0DFC0DEC0DDC06A
:10227000DCC0DBC0DAC0D9C0D8C0D7C0D6C0D5C09A
:10228000D4C0D3C0D2C0D1C0D0C0CFC0CEC0CDC0CA
:10229000CCC0CBC0CAC0C9C0C8C0C7C0C6C0C5C0FA
:1022A000C4C0C3C0C2C0C1C0C0C0BFC0BEC0BDC02A
:1022B000BCC0BBC0BAC0B9C0B8C0B7C0B6C0B5C05A
:1022C000B4C0B3C0B2C0B1C0B0C0AFC0AEC0ADC08A
:1022D000ACC0ABC0AAC0A9C0A8C0A7C0A6C0A5C0BA
:1022E000A4C0A3C0A2C0A1C0A0C09FC09EC09DC0EA
:1022F0009CC09BC09AC099C098C097C096C095C01A
:1023000094C093C092C0C5C1C4C18FC08EC08DC0DF
:102310008CC08BC08AC089C088C087C086C085C079
:1023200084C083C082C081C080C07FC07EC07DC0A9
:102330007CC07BC07AC079C078C077C076C075C0D9
:1023400074C073C072C071C070C06FC06EC06DC009
:102350006CC06BC06AC069C068C067C066C065C039
:1023600064C063C062C061C060C05FC05EC05DC069
:102370005CC05BC05AC059C058C057C056C055C099
:1023800054C053C052C051C050C04FC04EC04DC0C9
:102390004CC04BC04AC049C048C047C046C045C0F9
:1023A00044C050C142C041C040C03FC03EC03DC01B
:1023B0003CC03BC03AC039C038C037C036C035C059
:1023C00034C033C032C031C030C02FC02EC02DC089
:1023D0002CC02BC02AC029C028C027C026C025C0B9
:1023E00024C023C022C021C020C01FC01EC01DC0E9
:1023F0001CC01BC01AC019C018C017C016C015C019
:1024000014C013C012C011C010C00FC00EC00DC048
:102410000DC00BC03EC13DC13CC13BC106C005C0A3
:1024200038C137C136C135C134C132C100C0EBCE6D
:10243000F8942EBC6EB47894E1E2F2E1E60DF21D60
:102440000994FFC0FEC0FDC0FCC0FBC0FAC0F9C0CB
:10245000F8C0F7C0F6C0F5C0F4C0F3C01AC119C186
:1024600018C1EFC0EEC0EDC0ECC0EBC0EAC0E9C0DF
:10247000E8C0E7C0E6C0E5C0E4C0E3C0E2C0E1C038
:10248000E0C0DFC0DEC0DDC0DCC0DBC0DAC0D9C068
:10249000D8C0D7C0D6C0D5C0D4C0D3C0D2C0D1C098
:1024A000D0C0CFC0CEC0CDC0CCC0CBC0CAC0C9C0C8
:1024B000C8C0C7C0C6C0C5C0C4C0C3C0C2C0C1C0F8
:1024C000C0C0BFC0BEC0BDC0BCC0BBC0BAC0B9C028
:1024D000B8C0B7C0B6C0B5C0B4C0B3C0B2C0B1C058
:1024E000B0C0D7C0D6C0D5C0D4C0D3C0D2C0D1C070
:1024F000D0C0CFC0CEC0CDC0CCC0CBC0CAC0C9C078
:10250000C8C0C7C0C6C0C5C0C4C0C3C0C2C0C1C0A7
:10251000C0C0BFC0BEC0BDC0BCC0BBC0BAC0B9C0D7
:10252000B8C0B7C0B6C0B5C0B4C0B3C0B2C0B1C007
:10253000B0C0AFC0AEC0ADC0ACC0ABC0AAC0A9C037
:10254000A8C07FC07EC07DC07CC0A3C0A2C0A1C007
:10255000A0C09FC09EC09DC09CC09BC09AC099C097
:1025600098C097C096C095C094C093C092C091C0C7
:1025700090C08FC08EC08DC08CC08BC08AC089C0F7
:1025800088C087C086C085C084C083C082C081C027
:1025900080C07FC07EC07DC07CC07BC07AC079C057
:1025A00078C077C076C075C074C073C072C071C087
:1025B00070C06FC06EC06DC06CC06BC06AC069C0B7
:1025C00068C067C066C065C064C063C062C061C0E7
:1025D00060C05FC05EC05DC05CC05BC05AC059C017
:1025E00058C057C056C055C054C053C052C051C047
:1025F00050C04FC04EC04DC04CC04BC04AC049C077
:1026000048C047C046C045C044C043C042C041C0A6
:1026100040C03FC03EC03DC03CC03BC03AC039C0D6
:1026200038C037C036C035C034C033C032C031C006
:1026300030C02FC02EC02DC02CC02BC02AC029C036
:1026400028C026C0019600C000C000C0F8942EBC6F
:102650006EB47894A62DA370AA0FA05FBB276594D3
:1026600065944D905C90062C000C000846145004B4
:102670003FB610C02ED0C7CD0196860D921D67FCC7
:102680009A950FD06EB42EBC679CF001FE5F099442
:10269000FFCFFFCF6EB42EBC0196679CF001FF5FA9
:1026A00009945A9AE3E05A98EEBDA091000AA90F46
:1026B000B091010AEAB5BE1F0BD0BEBD08D0AEBDB9
:1026C00006D08EBD04D02EBC00C002D0089501D02B
:1026D000C8950895F894AFEFADBFAAE0AEBF22242D
:1026E000A0E17A2EC0E0DAE033242ABC2BBC209291
:1026F000000A2092010A2092020A2092030A2092E4
:10270000040A2092050A2092060AA0E5ACBDA1E0C9
:10271000ADBD5E9A5A9A5A98EBEADCD05A9AE0D04C
:10272000E4E1F0E0459155914831C1F45539B1F4F7
:10273000B591A591A093000AB093010A45915591D6
:10274000483121F5553911F5B591A591A093020AAB
:10275000B093030AA1E0A093060A18C06FEFBFEF81
:10276000A8EF4427552787D088F06FEFBFEEA8EF7A
:1027700040EF5FEF80D008F07BC0A0EFBFEFA093E9
:10278000020AB093030AA1E0A093060AAA27B09117
:10279000000A6091010A91D09BD0E13409F068C031
:1027A00097D0E63509F064C093D0ED3409F060C0ED
:1027B0008FD0E13009F05CC08BD0E13009F058C017
:1027C00087D08E2F85D09E2F83D0EABD81D00E2F4B
:1027D0007FD01E2F7DD02E2F7BD03E2F79D04E2F35
:1027E000E093040A75D05E2FE093050A5A9A2017E9
:1027F000310708F43DC0343028F009F039C02223F5
:1028000009F036C0543028F009F032C0442309F0F2
:102810002FC04215520521F0A091060AA0FF28C042
:10282000A0E0B1E0A9014215520521F02D924150DE
:102830005040E1F70215120589F0B091000A60914D
:10284000010AB39509F44394AA2737D0A0E0B1E078
:102850003FD0ED9301501040D9F75A9A2BBC21DF9D
:102860006EB42EBC78940000679CF001FF5F099461
:10287000F8945A9AFFCF21D02BD0E134D9F428D044
:10288000E635C1F425D0E435A9F422D0E13091F445
:102890001FD00E2E1DD01E2E5A9A0214120459F06B
:1028A000A42FB52FA019B109A093000AB093010A73
:1028B000089408955A9A889408955A9A5A98E3E089
:1028C00009D0E62F07D0EB2F05D0EA2F03D00895CB
:1028D000E22D00C0EEBDFDB5F7FFFDCFEEB50895CA
:0828E000A0E2AA95F1F70895AA
:00000001FF
