:100000000C9475000C9456000C9456000C945600F9
:100010000C9456000C9456000C9456000C94560008
:100020000C9456000C9456000C9456000C945600F8
:100030000C9456000C9456000C9456000C945600E8
:100040000C9456000C9456000C9456000C945600D8
:100050000C9456000C9457000C9456000C945600C7
:100060000C9456000C9456000C9456000C945600B8
:100070000C9456000C9456000C9456000C945600A8
:100080000C9456000C9456000C9456000C94560098
:100090000C9456000C9456000C9456000C94560088
:1000A0000C9456000C9456000C945600FFCF0F92FF
:1000B0000FB60F920090070A03940092070A89F482
:1000C0000090080A03940092080A59F40090090A63
:1000D00003940092090A29F400900A0A03940092FA
:1000E0000A0A0F900FBE0F9018950C945906000045
:1000F0000000000000000000000000000000000000
:1001000000000000000000000000000000000000EF
:1001100000000000000000000000000000000000DF
:1001200000000000000000000000000000000000CF
:1001300000000000000000000000000000000000BF
:1001400000000000000000000000000000000000AF
:10015000000000000000000000000000000000009F
:10016000000000000000000000000000000000008F
:10017000000000000000000000000000000000007F
:10018000000000000000000000000000000000006F
:10019000000000000000000000000000000000005F
:1001A000000000000000000000000000000000004F
:1001B000000000000000000000000000000000003F
:1001C000000000000000000000000000000000002F
:1001D000000000000000000000000000000000001F
:1001E000000000000000000000000000000000000F
:1001F00000000000000000000000000000000000FF
:1002000037C500000000000033C5000000000000FA
:100210002FC50000000000002BC5000000000000FA
:1002200027C500000000000023C5000000000000FA
:100230001FC50000000000001BC5000000000000FA
:1002400017C500000000000013C5000000000000FA
:100250000FC50000000000000BC5000000000000FA
:1002600007C500000000000003C5000000000000FA
:10027000FFC4000000000000FBC4000000000000FC
:10028000F7C4000000000000F3C4000000000000FC
:10029000EFC4000000000000EBC4000000000000FC
:1002A000E7C4000000000000E3C4000000000000FC
:1002B000DFC4000000000000DBC4000000000000FC
:1002C000D7C4000000000000D3C4000000000000FC
:1002D000CFC4000000000000CBC4000000000000FC
:1002E000C7C4000000000000C3C4000000000000FC
:1002F000BFC4000000000000BBC4000000000000FC
:10030000B7C4000000000000B3C4000000000000FB
:10031000AFC4000000000000ABC4000000000000FB
:10032000A7C4000000000000A3C4000000000000FB
:100330009FC40000000000009BC4000000000000FB
:1003400097C400000000000093C4000000000000FB
:100350008FC40000000000008BC4000000000000FB
:1003600087C400000000000083C4000000000000FB
:100370007FC40000000000007BC4000000000000FB
:1003800077C400000000000073C4000000000000FB
:100390006FC40000000000006BC4000000000000FB
:1003A00067C400000000000063C4000000000000FB
:1003B0005FC40000000000005BC4000000000000FB
:1003C00057C400000000000053C4000000000000FB
:1003D0004FC40000000000004BC4000000000000FB
:1003E00047C400000000000043C4000000000000FB
:1003F0003FC40000000000003BC4000000000000FB
:1004000037C400000000000033C4000000000000FA
:100410002FC40000000000002BC4000000000000FA
:1004200027C400000000000023C4000000000000FA
:100430001FC40000000000001BC4000000000000FA
:1004400017C400000000000013C4000000000000FA
:100450000FC40000000000000BC4000000000000FA
:1004600007C400000000000003C4000000000000FA
:10047000FFC3000000000000FBC3000000000000FC
:10048000F7C3000000000000F3C3000000000000FC
:10049000EFC3000000000000EBC3000000000000FC
:1004A000E7C3000000000000E3C3000000000000FC
:1004B000DFC3000000000000DBC3000000000000FC
:1004C000D7C3000000000000D3C3000000000000FC
:1004D000CFC3000000000000CBC3000000000000FC
:1004E000C7C3000000000000C3C3000000000000FC
:1004F000BFC3000000000000BBC3000000000000FC
:10050000B7C3000000000000B3C3000000000000FB
:10051000AFC3000000000000ABC3000000000000FB
:10052000A7C3000000000000A3C3000000000000FB
:100530009FC30000000000009BC3000000000000FB
:1005400097C300000000000093C3000000000000FB
:100550008FC30000000000008BC3000000000000FB
:1005600087C300000000000083C3000000000000FB
:100570007FC30000000000007BC3000000000000FB
:1005800077C300000000000073C3000000000000FB
:100590006FC30000000000006BC3000000000000FB
:1005A00067C300000000000063C3000000000000FB
:1005B0005FC30000000000005BC3000000000000FB
:1005C00057C300000000000053C3000000000000FB
:1005D0004FC30000000000004BC3000000000000FB
:1005E00047C300000000000043C3000000000000FB
:1005F0003FC30000000000003BC3000000000000FB
:1006000037C300000000000033C3000000000000FA
:100610002FC30000000000002BC3000000000000FA
:1006200027C300000000000023C3000000000000FA
:100630001FC30000000000001BC3000000000000FA
:1006400017C300000000000013C3000000000000FA
:100650000FC30000000000000BC3000000000000FA
:1006600007C300000000000003C3000000000000FA
:10067000FFC2000000000000FBC2000000000000FC
:10068000F7C2000000000000F3C2000000000000FC
:10069000EFC2000000000000EBC2000000000000FC
:1006A000E7C2000000000000E3C2000000000000FC
:1006B000DFC2000000000000DBC2000000000000FC
:1006C000D7C2000000000000D3C2000000000000FC
:1006D000CFC2000000000000CBC2000000000000FC
:1006E000C7C2000000000000C3C2000000000000FC
:1006F000BFC2000000000000BBC2000000000000FC
:10070000B7C2000000000000B3C2000000000000FB
:10071000AFC2000000000000ABC2000000000000FB
:10072000A7C2000000000000A3C2000000000000FB
:100730009FC20000000000009BC2000000000000FB
:1007400097C200000000000093C2000000000000FB
:100750008FC20000000000008BC2000000000000FB
:1007600087C200000000000083C2000000000000FB
:100770007FC20000000000007BC2000000000000FB
:1007800077C200000000000073C2000000000000FB
:100790006FC20000000000006BC2000000000000FB
:1007A00067C200000000000063C2000000000000FB
:1007B0005FC20000000000005BC2000000000000FB
:1007C00057C200000000000053C2000000000000FB
:1007D0004FC20000000000004BC2000000000000FB
:1007E00047C200000000000043C2000000000000FB
:1007F0003FC20000000000003BC2000000000000FB
:1008000037C200000000000033C2000000000000FA
:100810002FC20000000000002BC2000000000000FA
:1008200027C200000000000023C2000000000000FA
:100830001FC20000000000001BC2000000000000FA
:1008400017C200000000000013C2000000000000FA
:100850000FC20000000000000BC2000000000000FA
:1008600007C200000000000003C2000000000000FA
:10087000FFC1000000000000FBC1000000000000FC
:10088000F7C1000000000000F3C1000000000000FC
:10089000EFC1000000000000EBC1000000000000FC
:1008A000E7C1000000000000E3C1000000000000FC
:1008B000DFC1000000000000430C521C621CB8C0E5
:1008C000D8C1000000000000D4C1000000000000FA
:1008D000D0C1000000000000CCC1000000000000FA
:1008E000C8C1000000000000C4C1000000000000FA
:1008F000C0C1000000000000BCC1000000000000FA
:10090000B7C1000000000000B3C1000000000000FB
:10091000AFC1000000000000ABC1000000000000FB
:10092000A7C1000000000000A3C1000000000000FB
:100930009FC10000000000009BC1000000000000FB
:1009400097C100000000000093C1000000000000FB
:100950008FC10000000000008BC1000000000000FB
:1009600088C100000000000084C1000000000000F9
:1009700080C10000000000007BC1000000000000FA
:1009800077C100000000000073C1000000000000FB
:100990006FC10000000000006BC1000000000000FB
:1009A00067C100000000000063C1000000000000FB
:1009B0005FC10000000000005BC1000000000000FB
:1009C00057C100000000000053C1000000000000FB
:1009D0004FC10000000000004BC1000000000000FB
:1009E00047C100000000000043C1000000000000FB
:1009F0003FC10000000000003CC1000000000000FA
:100A00000000430CF8942EBC8EB57894521C621CE6
:100A1000879DF001FF5F0994000001C000008EB5C2
:100A20002EBC430C521C621C879DF001FF5F099491
:100A3000F8942EBC8EB57894E1E2F5E0E80FF21D53
:100A40000994FFC001C102C108C115C114C113C17D
:100A500012C111C110C10FC10EC10DC10CC10BC11A
:100A60000AC109C108C107C106C105C104C103C14A
:100A700002C101C100C1FFC0FEC0FDC0FCC0FBC07F
:100A8000FAC0F9C0F8C0F7C0F6C0F5C0F4C0F3C0B2
:100A9000F2C0F1C0F0C0EFC0EEC0EDC0ECC0EBC0E2
:100AA000EAC0E9C0E8C0E7C0E6C0E5C0E4C0E3C012
:100AB000E2C0E1C0E0C0DFC0DEC0DDC0DCC0DBC042
:100AC000DAC0D9C0D8C0D7C0D6C0D5C0D4C0D3C072
:100AD000D2C0D1C0D0C0CFC0CEC0CDC0CCC0CBC0A2
:100AE000CAC0C9C0C8C0C7C0C6C0C5C0C4C0C3C0D2
:100AF000C2C0C1C0C0C0BFC0BEC0BDC0BCC0BBC002
:100B0000BAC0B9C0B8C0B7C0B6C0B5C0B4C0B3C031
:100B1000B2C0B1C0B0C0AFC0AEC0ADC0ACC0ABC061
:100B2000AAC0A9C0A8C0A7C0A6C0A5C0A4C0A3C091
:100B3000A2C0A1C0A0C09FC09EC09DC09CC09BC0C1
:100B40009AC099C098C097C096C095C094C093C0F1
:100B500092C091C090C08FC08EC08DC08CC08BC021
:100B60008AC089C088C087C086C085C084C083C051
:100B700082C081C080C07FC07EC07DC07CC07BC081
:100B80007AC079C078C077C076C075C074C073C0B1
:100B900072C071C070C06FC06EC06DC06CC06BC0E1
:100BA0006AC069C068C067C066C065C064C063C011
:100BB00062C061C060C05FC05EC05DC05CC05BC041
:100BC0005AC059C058C057C056C055C054C053C071
:100BD00052C051C050C04FC04EC04DC04CC04BC0A1
:100BE0004AC049C048C047C046C045C044C043C0D1
:100BF00042C041C040C03FC03EC03DC03CC03BC001
:100C00003AC039C038C037C036C035C034C033C030
:100C100032C031C030C02FC02EC02DC02CC02BC060
:100C20002AC029C028C027C026C025C024C023C090
:100C300022C021C020C01FC01EC01DC01CC01BC0C0
:100C40001AC00093F100E9CE9895E6CEF894009191
:100C5000070A1091080A7894E2CEF8940091070AE6
:100C60001091080A2091090A30910A0A7894D7CE87
:100C7000FFCFFFCFFFCFFFCF599AE3E05998EEBDEA
:100C8000A091000AA50DB091010AB61D0FD0BEBDFE
:100C900008D0AEBD06D04EBC04D02EBC00C006D0DD
:100CA0000895000000C000C000000000000000C067
:100CB0000895F894AFEFADBFAAE0AEBF2224A1E043
:100CC0003A2EA4E07A2EA0E0B1E02D92A030E9F710
:100CD000BB30D9F7C0E0DAE02EBAF4D0A0E5ACBD65
:100CE000A1E0ADBD26D15998EBEAE2D0599AE6D001
:100CF000E4E1F0E0459155914831C1F45539B1F442
:100D0000B591A591A093000AB093010A4591559120
:100D1000483121F5553911F5B591A591A093020AF5
:100D2000B093030AA1E0A093060A18C06FEFBFEFCB
:100D3000A8EF442755278DD088F06FEFBFEEA8EFBE
:100D400040EF5FEF86D008F071C0A0EFBFEFA09337
:100D5000020AB093030AA1E0A093060AAA27B09161
:100D6000000A6091010A97D0A1D0E13409F05EC079
:100D70009DD0E63509F05AC099D0ED3409F056C03F
:100D800095D0E13009F052C091D0E13009F04EC069
:100D90008DD04E2E8BD05E2E89D06E2E87D00E2F0A
:100DA00085D01E2F83D02E2F81D03E2F7FD04E2F67
:100DB000E093040A7BD05E2FE093050A599A20172E
:100DC000310708F433C0343028F009F02FC0222353
:100DD00009F02CC0543028F009F028C0442309F051
:100DE00025C04215520521F0A091060AA0FF1EC0A1
:100DF0000215120589F0B091000A6091010AB395BD
:100E000009F46395AA2747D0A0E0B1E04FD0ED9355
:100E100001501040D9F7599A0CD02EDF8EB52EBC58
:100E200078940000879DF001FF5F0994F894599A27
:100E3000FFCF25BC20926E00A2E0A4BD26BCA9EF86
:100E4000A7BDA2E0A5BBA2E0A0936E00A3E0A5BD54
:100E5000089521D02BD0E134D9F428D0E635C1F45F
:100E600025D0E435A9F422D0E13091F41FD00E2E24
:100E70001DD01E2E599A0214120459F0A42FB52F1A
:100E8000A019B109A093000AB093010A089408952B
:100E9000599A88940895599A5998E3E009D0E62F11
:100EA00007D0EB2F05D0EA2F03D00895E22D00C024
:100EB000EEBDFDB5F7FFFDCFEEB50895A0E2AA9512
:100EC000F1F708952998219A2A98229A23982B9825
:100ED000599A519A5E98569A5C9A549A5F98579A82
:100EE0002E9A269A2F9A279A2D9A259A5D9A559A84
:100EF000289A209A85988D9A86988E9A87988F9AA4
:100F000084988C9A6E98769A24982C9A81988998CD
:100F1000A1ECA0937C00089588E699279A95F1F7B3
:100F20008A95D9F70895AEBDBDB5B7FFFDCFAEB573
:100F30000895F2DF5F9AF0DF5E985C98E2E5FFE0EB
:100F40008DE0A591F0DF8A95E1F75C9A5E9A599A57
:100F50000895D5F08D14A1C881CFD9F1AF2000003C
:00000001FF
