:100000000C9475000C9456000C9456000C945600F9
:100010000C9456000C9456000C9456000C94560008
:100020000C9456000C9456000C9456000C945600F8
:100030000C9456000C9456000C9456000C945600E8
:100040000C9456000C9456000C9456000C945600D8
:100050000C9456000C9457000C9456000C945600C7
:100060000C9456000C9456000C9456000C945600B8
:100070000C9456000C9456000C9456000C945600A8
:100080000C9456000C9456000C9456000C94560098
:100090000C9456000C9456000C9456000C94560088
:1000A0000C9456000C9456000C945600FFCF0F92FF
:1000B0000FB60F920090070A03940092070A89F482
:1000C0000090080A03940092080A59F40090090A63
:1000D00003940092090A29F400900A0A03940092FA
:1000E0000A0A0F900FBE0F9018950C946707000036
:1000F0000000000000000000000000000000000000
:1001000000000000000000000000000000000000EF
:1001100000000000000000000000000000000000DF
:1001200000000000000000000000000000000000CF
:1001300000000000000000000000000000000000BF
:1001400000000000000000000000000000000000AF
:10015000000000000000000000000000000000009F
:10016000000000000000000000000000000000008F
:10017000000000000000000000000000000000007F
:10018000000000000000000000000000000000006F
:10019000000000000000000000000000000000005F
:1001A000000000000000000000000000000000004F
:1001B000000000000000000000000000000000003F
:1001C000000000000000000000000000000000002F
:1001D000000000000000000000000000000000001F
:1001E000000000000000000000000000000000000F
:1001F00000000000000000000000000000000000FF
:10020000880109C400000000890105C40000000045
:100210008A0101C4000000008B01FDC30000000042
:100220009801F9C3000000009901F5C30000000027
:100230009A01F1C3000000009B01EDC30000000023
:10024000A801E9C300000000A901E5C30000000007
:10025000AA01E1C300000000AB01DDC30000000003
:10026000B801D9C300000000B901D5C300000000E7
:10027000BA01D1C300000000BB01CDC300000000E3
:10028000000F111FC9C30000020F131FC5C30000D8
:10029000040F151FC1C30000060F171FBDC30000C8
:1002A000200F311FB9C30000220F331FB5C3000058
:1002B000240F351FB1C30000260F371FADC3000048
:1002C000400F511FA9C30000420F531FA5C30000D8
:1002D000440F551FA1C30000460F571F9DC30000C8
:1002E000600F711F99C30000620F731F95C3000058
:1002F000640F751F91C30000660F771F8DC3000048
:10030000001B110B89C30000021B130B85C30000E7
:10031000041B150B81C30000061B170B7DC30000D7
:10032000201B310B79C30000221B330B75C3000067
:10033000241B350B71C30000261B370B6DC3000057
:10034000401B510B69C30000421B530B65C30000E7
:10035000441B550B61C30000461B570B5DC30000D7
:10036000601B710B59C30000621B730B55C3000067
:10037000641B750B51C30000661B770B4DC3000057
:10038000001711078FB73CC3021713078FB738C385
:10039000041715078FB734C3061717078FB730C375
:1003A000201731078FB72CC3221733078FB728C305
:1003B000241735078FB724C3261737078FB720C3F5
:1003C000401751078FB71CC3421753078FB718C385
:1003D000441755078FB714C3461757078FB710C375
:1003E000601771078FB70CC3621773078FB708C305
:1003F000641775078FB704C3661777078FB700C3F5
:10040000D8010C91112715C3D9010C91112711C3E3
:10041000DA010C9111270DC3DB010C91112709C3DF
:10042000D8012C91332705C3D9012C91332701C35F
:10043000DA012C913327FDC2DB012C913327F9C25D
:10044000D8014C915527F5C2D9014C915527F1C2DD
:10045000DA014C915527EDC2DB014C915527E9C2D9
:10046000D8016C917727E5C2D9016C917727E1C259
:10047000DA016C917727DDC2DB016C917727D9C255
:10048000D8010C93D5C20000D8012C93D1C2000032
:10049000D8014C93CDC20000D8016C93C9C20000B2
:1004A000D9010C93C5C20000D9012C93C1C2000030
:1004B000D9014C93BDC20000D9016C93B9C20000B0
:1004C000DA010C93B5C20000DA012C93B1C200002E
:1004D000DA014C93ADC20000DA016C93A9C20000AE
:1004E000DB010C93A5C20000DB012C93A1C200002C
:1004F000DB014C939DC20000DB016C9399C20000AC
:10050000D8010D911C9196C2D9010D911C9192C2F6
:10051000DA010D911C918EC2DB010D911C918AC2F2
:10052000D8012D913C9186C2D9012D913C9182C276
:10053000DA012D913C917EC2DB012D913C917AC272
:10054000D8014D915C9176C2D9014D915C9172C2F6
:10055000DA014D915C916EC2DB014D915C916AC2F2
:10056000D8016D917C9166C2D9016D917C9162C276
:10057000DA016D917C915EC2DB016D917C915AC272
:10058000D8010D931C9356C2D8012D933C9352C2AF
:10059000D8014D935C934EC2D8016D937C934AC2AF
:1005A000D9010D931C9346C2D9012D933C9342C2AD
:1005B000D9014D935C933EC2D9016D937C933AC2AD
:1005C000DA010D931C9336C2DA012D933C9332C2AB
:1005D000DA014D935C932EC2DA016D937C932AC2AB
:1005E000DB010D931C9326C2DB012D933C9322C2A9
:1005F000DB014D935C931EC2DB016D937C931AC2A9
:100600000023112309C200000223132305C20000A6
:100610000423152301C2000006231723FDC1000097
:1006200020233123F9C1000022233323F5C1000028
:1006300024233523F1C1000026233723EDC1000018
:1006400040235123E9C1000042235323E5C10000A8
:1006500044235523E1C1000046235723DDC1000098
:1006600060237123D9C1000062237323D5C1000028
:1006700064237523D1C1000066237723CDC1000018
:10068000002B112BC9C10000022B132BC5C1000088
:10069000042B152BC1C10000062B172BBDC1000078
:1006A000202B312BB9C10000222B332BB5C1000008
:1006B000242B352BB1C10000262B372BADC10000F8
:1006C000402B512BA9C10000422B532BA5C1000088
:1006D000442B552BA1C10000462B572B9DC1000078
:1006E000602B712B99C10000622B732B95C1000008
:1006F000642B752B91C10000662B772B8DC10000F8
:100700000027112789C100000227132785C1000097
:100710000427152781C10000062717277DC1000087
:100720002027312779C100002227332775C1000017
:100730002427352771C10000262737276DC1000007
:100740004027512769C100004227532765C1000097
:100750004427552761C10000462757275DC1000087
:100760006027712759C100006227732755C1000017
:100770006427752751C10000662777274DC1000007
:100780009A928A9256C10000BA92AA9252C100006F
:10079000DA92CA924EC10000FA92EA924AC100006F
:1007A0001A930A9346C100003A932A9342C100006B
:1007B0005A934A933EC100007A936A933AC100006B
:1007C0008990999036C10000A990B99032C100007B
:1007D000C990D9902EC10000E990F9902AC100007B
:1007E0000991199126C100002991399122C1000077
:1007F000499159911EC10000699179911AC1000077
:10080000EBE4F5E020C10000EEE4F5E01CC10000DF
:10081000E1E5F5E018C10000E4E5F5E014C10000F1
:10082000E7E5F5E01FC10000EAE5F5E01BC10000C7
:10083000EDE5F5E017C10000E0E6F5E013C10000CA
:10084000E3E6F5E006C10000E6E6F5E002C10000DF
:10085000E9E6F5E0FEC00000ECE6F5E0FAC00000D5
:10086000EFE6F5E0F6C00000E3E7F5E0F2C00000D7
:10087000E7E7F5E0EEC00000EBE7F5E0EAC00000D6
:10088000430C521C621C3BC1430C521C621C3FC1F6
:10089000430C521C621C43C1430C521C621C47C1D6
:1008A000430C521C621C57C1430C521C621C5FC19A
:1008B000430C521C621C6AC1430C521C621CA6C130
:1008C000E5C2000000000000E1C2000000000000DE
:1008D000DDC2000000000000D9C2000000000000DE
:1008E000D5C2000000000000D1C2000000000000DE
:1008F000CDC2000000000000C9C2000000000000DE
:10090000430C521C621C4FC1430C521C621C4BC155
:1009100000000000000061C1470C521C621C5DC158
:1009200024016A2CC89593C226016E2CC8958FC2EB
:100930002801622EC8958BC22A01662EC89587C2EF
:10094000A4C2000000000000A0C2000000000000DF
:100950009CC200000000000098C2000000000000DF
:1009600095C200000000000091C2000000000000DD
:100970008DC200000000000088C2000000000000DE
:1009800084C200000000000080C2000000000000DF
:100990007CC200000000000078C2000000000000DF
:1009A00074C200000000000070C2000000000000DF
:1009B0006CC200000000000068C2000000000000DF
:1009C00064C200000000000060C2000000000000DF
:1009D0005CC200000000000058C2000000000000DF
:1009E00054C200000000000050C2000000000000DF
:1009F0004CC200000000000049C2000000000000DE
:100A000000008EBB8EB52EBC430C521C621C879D11
:100A1000F001FF5F09940000430CF8942EBC8EB5E2
:100A20007894521C621C879DF001FF5F09940000BE
:100A300001C000008EB52EBC430C521C621C879D69
:100A4000F001FF5F0994430C521C621C8EB52EBC52
:100A50000994430C521C621C8EB52EBC992787FD4D
:100A600090950994430C521C621C8EB52EBC430C0D
:100A7000521C621C27D2F8942EBC9EB5789409941F
:100A800000C000C0C895D6CFC895D2CF00C000C066
:100A9000D1CF00C0B6CF082F1127F2CF282F332790
:100AA000EFCF482F5527ECCF682F7727E9CF082FB6
:100AB000192FEACF282F392FE7CF482F592FE4CF0E
:100AC000682F792FE1CF080F191FE0CF280F391FAA
:100AD000DDCF480F591FDACF680F791FD7CF08171E
:100AE00019078FB7D6CF281739078FB7D2CF481736
:100AF00059078FB7CECF681779078FB7CACF0000D5
:100B0000F8942EBC8EB57894F19B19C01AC00000E1
:100B1000F8942EBC8EB57894F19911C012C00000E3
:100B2000F8942EBC8EB57894F09B09C00AC00000E2
:100B3000F8942EBC8EB57894F49B01C002C0C6D147
:100B40006BCF992787FD9095430C521C621C480E71
:100B5000591E691E7CC100C0AEB59927A7FD9095AE
:100B6000430C521C621C4A0E591E691E70C100C003
:100B7000AEB59927A7FD9095430C521C621C6A9252
:100B80005A924A924A0E591E691E61C10000F89499
:100B90002EBC8EB57894992787FD9095C80FD91FE4
:100BA00000C000C038CF430CF8942EBCAEB578948A
:100BB000521C621C430C521C621C80FF0C94EB05FF
:100BC0006A925A924A92BEB59927B7FD90954A0EFD
:100BD0005B1E691E3CC1C895F6CFB82FF8942EBC99
:100BE0008EB57894B0FF0C9404066A925A924A9299
:100BF00000C000C0F8942EBC9EB5789461D1AEB50B
:100C0000482E592E6A2E23C161D1F4CF0000F894EA
:100C10002EBC8EB57894E0E1F6E0E80FF21D099461
:100C2000FFC001C102C108C133C132C131C130C1ED
:100C30002FC12EC12DC12CC12BC12AC129C128C150
:100C400027C126C125C124C123C122C121C120C180
:100C50001FC11EC11DC11CC11BC11AC119C118C1B0
:100C600017C116C115C114C113C112C111C110C1E0
:100C70000FC10EC10DC10CC10BC10AC109C108C110
:100C800007C106C105C104C103C102C101C100C140
:100C9000FFC0FEC0FDC0FCC0FBC0FAC0F9C0F8C078
:100CA000F7C0F6C0F5C0F4C0F3C0F2C0F1C0F0C0A8
:100CB000EFC0EEC0EDC0ECC0EBC0EAC0E9C0E8C0D8
:100CC000E7C0E6C0E5C0E4C0E3C0E2C0E1C0E0C008
:100CD000DFC0DEC0DDC0DCC0DBC0DAC0D9C0D8C038
:100CE000D7C0D6C0D5C0D4C0D3C0D2C0D1C0D0C068
:100CF000CFC0CEC0CDC0CCC0CBC0CAC0C9C0C8C098
:100D0000C7C0C6C0C5C0C4C0C3C0C2C0C1C0C0C0C7
:100D1000BFC0BEC0BDC0BCC0BBC0BAC0B9C0B8C0F7
:100D2000B7C0B6C0B5C0B4C0B3C0B2C0B1C0B0C027
:100D3000AFC0AEC0ADC0ACC0ABC0AAC0A9C0A8C057
:100D4000A7C0A6C0A5C0A4C0A3C0A2C0A1C0A0C087
:100D50009FC09EC09DC09CC09BC09AC099C098C0B7
:100D600097C096C095C094C093C092C091C090C0E7
:100D70008FC08EC08DC08CC08BC08AC089C088C017
:100D800087C086C085C084C083C082C081C080C047
:100D90007FC07EC07DC07CC07BC07AC079C078C077
:100DA00077C076C075C074C073C072C071C070C0A7
:100DB0006FC06EC06DC06CC06BC06AC069C068C0D7
:100DC00067C066C065C064C063C062C061C060C007
:100DD0005FC05EC05DC05CC05BC05AC059C058C037
:100DE00057C056C055C054C053C052C051C050C067
:100DF0004FC04EC04DC04CC04BC04AC049C048C097
:100E000047C046C045C044C043C042C041C040C0C6
:100E10003FC03EC03DC03CC03BC03AC039C038C0F6
:100E20000093F10005CE989502CEF8940091070A40
:100E30001091080A7894FECDF8940091070A109159
:100E4000080A2091090A30910A0A7894F3CD599A38
:100E5000E3E05998EEBDA091000AA50DB091010AFA
:100E6000B61D32D0BEBD2AD0AEBD28D04EBC27D0D4
:100E70002EBC26D0430CF8942EBC8EB57894521C10
:100E8000621C879DF001FF5F0994FFCFFFCFFFCF6A
:100E9000FFCF599AE3E05998EEBDA091000AA50D45
:100EA000B091010AB61D10D0BEBD08D0AEBD06D0AF
:100EB0004EBC04D02EBC00C007D00895000000C076
:100EC0000000000000000000000000C00895F89439
:100ED000AFEFADBFAAE0AEBF2224A1E03A2EA4E05E
:100EE0007A2EA0E0B1E02D92A030E9F7BB30D9F71F
:100EF000C0E0DAE02EBAF4D0A0E5ACBDA1E0ADBD13
:100F000026D15998EBEAE2D0599AE6D0E4E1F0E034
:100F1000459155914831C1F45539B1F4B591A59138
:100F2000A093000AB093010A45915591483121F5EB
:100F3000553911F5B591A591A093020AB093030A12
:100F4000A1E0A093060A18C06FEFBFEFA8EF4427F7
:100F500055278DD088F06FEFBFEEA8EF40EF5FEF21
:100F600086D008F071C0A0EFBFEFA093020AB09343
:100F7000030AA1E0A093060AAA27B091000A609193
:100F8000010A97D0A1D0E13409F05EC09DD0E635CA
:100F900009F05AC099D0ED3409F056C095D0E1302F
:100FA00009F052C091D0E13009F04EC08DD04E2EE4
:100FB0008BD05E2E89D06E2E87D00E2F85D01E2F1F
:100FC00083D02E2F81D03E2F7FD04E2FE093040A66
:100FD0007BD05E2FE093050A599A2017310708F459
:100FE00033C0343028F009F02FC0222309F02CC080
:100FF000543028F009F028C0442309F025C04215D8
:10100000520521F0A091060AA0FF1EC0021512058C
:1010100089F0B091000A6091010AB39509F46395D3
:10102000AA2747D0A0E0B1E04FD0ED930150104087
:10103000D9F7599A0CD02DDF8EB52EBC78940000CC
:10104000879DF001FF5F0994F894599AFFCF25BC62
:1010500020926E00A2E0A4BD26BCA9EFA7BDA2E02D
:10106000A5BBA2E0A0936E00A3E0A5BD089521D08A
:101070002BD0E134D9F428D0E635C1F425D0E435BD
:10108000A9F422D0E13091F41FD00E2E1DD01E2ED7
:10109000599A0214120459F0A42FB52FA019B109BE
:1010A000A093000AB093010A08940895599A88946D
:1010B0000895599A5998E3E009D0E62F07D0EB2F0D
:1010C00005D0EA2F03D00895E22D00C0EEBDFDB596
:1010D000F7FFFDCFEEB50895A0E2AA95F1F70895C8
:1010E0002998219A2A98229A23982B98599A519AAA
:1010F0005E98569A5C9A549A5F98579A2E9A269AB6
:101100002F9A279A2D9A259A5D9A559A289A209A6D
:1011100085988D9A86988E9A87988F9A84988C9ABB
:101120006E98769A24982C9A81988998A1ECA0932D
:101130007C00089588E699279A95F1F78A95D9F762
:101140000895AEBDBDB5B7FFFDCFAEB50895F2DFD2
:101150005F9AF0DF5E985C98EEE6F1E18DE0A59194
:10116000F0DF8A95E1F75C9A5E9A599A0895D5F076
:0C1170008D14A1C881CFD9F1AF20000080
:00000001FF
