:100000000C9475000C9456000C9456000C945600F9
:100010000C9456000C9456000C9456000C94560008
:100020000C9456000C9456000C9456000C945600F8
:100030000C9456000C9456000C9456000C945600E8
:100040000C9456000C9456000C9456000C945600D8
:100050000C9456000C9457000C9456000C945600C7
:100060000C9456000C9456000C9456000C945600B8
:100070000C9456000C9456000C9456000C945600A8
:100080000C9456000C9456000C9456000C94560098
:100090000C9456000C9456000C9456000C94560088
:1000A0000C9456000C9456000C945600FFCF0F92FF
:1000B0000FB60F920090070A03940092070A89F482
:1000C0000090080A03940092080A59F40090090A63
:1000D00003940092090A29F400900A0A03940092FA
:1000E0000A0A0F900FBE0F9018950C94A01A0000EA
:1000F0000000000000000000000000000000000000
:1001000000000000000000000000000000000000EF
:1001100000000000000000000000000000000000DF
:1001200000000000000000000000000000000000CF
:1001300000000000000000000000000000000000BF
:1001400000000000000000000000000000000000AF
:10015000000000000000000000000000000000009F
:10016000000000000000000000000000000000008F
:10017000000000000000000000000000000000007F
:10018000000000000000000000000000000000006F
:10019000000000000000000000000000000000005F
:1001A000000000000000000000000000000000004F
:1001B000000000000000000000000000000000003F
:1001C000000000000000000000000000000000002F
:1001D000000000000000000000000000000000001F
:1001E000000000000000000000000000000000000F
:1001F00000000000000000000000000000000000FF
:1002000088019DC500000000890199C5000000001B
:100210008A0195C5000000008B0191C50000000017
:1002200098018DC500000000990189C500000000FB
:100230009A0185C5000000009B0181C500000000F7
:10024000A8017DC500000000A90179C500000000DB
:10025000AA0175C500000000AB0171C500000000D7
:10026000B8016DC500000000B90169C500000000BB
:10027000BA0165C500000000BB0161C500000000B7
:10028000000F111F5DC50000020F131F59C50000AC
:10029000040F151F55C50000060F171F51C500009C
:1002A000200F311F4DC50000220F331F49C500002C
:1002B000240F351F45C50000260F371F41C500001C
:1002C000400F511F3DC50000420F531F39C50000AC
:1002D000440F551F35C50000460F571F31C500009C
:1002E000600F711F2DC50000620F731F29C500002C
:1002F000640F751F25C50000660F771F21C500001C
:10030000001B110B1DC50000021B130B19C50000BB
:10031000041B150B15C50000061B170B11C50000AB
:10032000201B310B0DC50000221B330B09C500003B
:10033000241B350B05C50000261B370B01C500002B
:10034000401B510BFDC40000421B530BF9C40000BD
:10035000441B550BF5C40000461B570BF1C40000AD
:10036000601B710BEDC40000621B730BE9C400003D
:10037000641B750BE5C40000661B770BE1C400002D
:10038000001711078FB7CFC4021713078FB7CBC45D
:10039000041715078FB7C7C4061717078FB7C3C44D
:1003A000201731078FB7BFC4221733078FB7BBC4DD
:1003B000241735078FB7B7C4261737078FB7B3C4CD
:1003C000401751078FB7AFC4421753078FB7ABC45D
:1003D000441755078FB7A7C4461757078FB7A3C44D
:1003E000601771078FB79FC4621773078FB79BC4DD
:1003F000641775078FB797C4661777078FB793C4CD
:10040000D8010C911127A9C4D9010C911127A5C4B9
:10041000DA010C911127A1C4DB010C9111279DC4B5
:10042000D8012C91332799C4D9012C91332795C435
:10043000DA012C91332791C4DB012C9133278DC431
:10044000D8014C91552789C4D9014C91552785C4B1
:10045000DA014C91552781C4DB014C9155277DC4AD
:10046000D8016C91772779C4D9016C91772775C42D
:10047000DA016C91772771C4DB016C9177276DC429
:10048000D8010C9369C40000D8012C9365C4000006
:10049000D8014C9361C40000D8016C935DC4000086
:1004A000D9010C9359C40000D9012C9355C4000004
:1004B000D9014C9351C40000D9016C934DC4000084
:1004C000DA010C9349C40000DA012C9345C4000002
:1004D000DA014C9341C40000DA016C933DC4000082
:1004E000DB010C9339C40000DB012C9335C4000000
:1004F000DB014C9331C40000DB016C932DC4000080
:10050000D8010D911C912AC4D9010D911C9126C4CA
:10051000DA010D911C9122C4DB010D911C911EC4C6
:10052000D8012D913C911AC4D9012D913C9116C44A
:10053000DA012D913C9112C4DB012D913C910EC446
:10054000D8014D915C910AC4D9014D915C9106C4CA
:10055000DA014D915C9102C4DB014D915C91FEC3C7
:10056000D8016D917C91FAC3D9016D917C91F6C34C
:10057000DA016D917C91F2C3DB016D917C91EEC348
:10058000D8010D931C93EAC3D8012D933C93E6C385
:10059000D8014D935C93E2C3D8016D937C93DEC385
:1005A000D9010D931C93DAC3D9012D933C93D6C383
:1005B000D9014D935C93D2C3D9016D937C93CEC383
:1005C000DA010D931C93CAC3DA012D933C93C6C381
:1005D000DA014D935C93C2C3DA016D937C93BEC381
:1005E000DB010D931C93BAC3DB012D933C93B6C37F
:1005F000DB014D935C93B2C3DB016D937C93AEC37F
:10060000002311239DC300000223132399C300007C
:100610000423152395C300000623172391C300006C
:10062000202331238DC300002223332389C30000FC
:100630002423352385C300002623372381C30000EC
:10064000402351237DC300004223532379C300007C
:100650004423552375C300004623572371C300006C
:10066000602371236DC300006223732369C30000FC
:100670006423752365C300006623772361C30000EC
:10068000002B112B5DC30000022B132B59C300005C
:10069000042B152B55C30000062B172B51C300004C
:1006A000202B312B4DC30000222B332B49C30000DC
:1006B000242B352B45C30000262B372B41C30000CC
:1006C000402B512B3DC30000422B532B39C300005C
:1006D000442B552B35C30000462B572B31C300004C
:1006E000602B712B2DC30000622B732B29C30000DC
:1006F000642B752B25C30000662B772B21C30000CC
:10070000002711271DC300000227132719C300006B
:100710000427152715C300000627172711C300005B
:10072000202731270DC300002227332709C30000EB
:100730002427352705C300002627372701C30000DB
:1007400040275127FDC2000042275327F9C200006D
:1007500044275527F5C2000046275727F1C200005D
:1007600060277127EDC2000062277327E9C20000ED
:1007700064277527E5C2000066277727E1C20000DD
:100780009A928A92EAC20000BA92AA92E6C2000045
:10079000DA92CA92E2C20000FA92EA92DEC2000045
:1007A0001A930A93DAC200003A932A93D6C2000041
:1007B0005A934A93D2C200007A936A93CEC2000041
:1007C00089909990CAC20000A990B990C6C2000051
:1007D000C990D990C2C20000E990F990BEC2000051
:1007E00009911991BAC2000029913991B6C200004D
:1007F00049915991B2C2000069917991AEC200004D
:10080000E8EDF6E00000B3C2EBEDF6E00000AFC2A9
:10081000EEEDF6E00000ABC2E1EEF6E00000A7C2AC
:10082000E4EEF6E00000B2C2E7EEF6E00000AEC291
:10083000EAEEF6E00000AAC2EDEEF6E00000A6C285
:10084000E0EFF6E0000099C2E3EFF6E0000095C2A9
:10085000E6EFF6E0000091C2E9EFF6E000008DC29D
:10086000ECEFF6E0000089C2E0E0F7E0000085C2AE
:10087000E4E0F7E0000081C2E8E0F7E000007DC2BC
:10088000430C521C621CC8C2430C521C621CCCC2DA
:10089000430C521C621CD0C2430C521C621CD4C2BA
:1008A000430C521C621C0FC3430C521C621C17C326
:1008B000430C521C621C22C3430C521C621C5FC3BB
:1008C000430C521C621CC8C2430C521C621CCCC29A
:1008D00092E0430C521CDEC292E0430C521CDAC27E
:1008E00091E0430C521CD6C291E0430C521CD2C280
:1008F00090E1430C521CCEC290E1430C521CCAC280
:10090000430C521C621C07C3430C521C621C03C3E1
:1009100000000000000019C3470C521C621C15C3E4
:1009200024016A2C00C04BC426016E2C00C047C4B1
:100930002801622E00C043C42A01662E00C03FC4B5
:10094000C401AA2D430C3CC4C601AE2D430C38C4CF
:10095000C801A22F430C34C4CA01A62F430C30C4D3
:1009600007C100000000000058C4000000000000A3
:1009700054C400000000000049905990699027C4B9
:100980009EE6E5E1FBE0A8C190E9E3E8FBE096C163
:100990009CE6E3EAFCE0A2C190E8E7EEFDE09EC140
:1009A00098EBE2E8FFE09AC190E6EAEAF1E198C14B
:1009B00090E5EAE2F3E194C190E9EAE6F4E192C15C
:1009C00090E3E1E5F7E18EC13EC1000000000000C8
:1009D0000000EEE4F8E15EC1B2E0E2E4F9E190C1CA
:1009E000B1E0E2E4F9E18CC1B0E1E2E4F9E188C10F
:1009F00090E4E2ECF9E162C103C0000000000000F5
:100A0000430C521C621C1124BB27F8942EBC8EB5DB
:100A100078948C3730F0803C08F466C08A3CD0F182
:100A200063C0803608F1883608F00DC0A82FA37087
:100A3000AA0FAA0FA55F9C9182FD02C0905801C029
:100A40009F779C938BC1A82FA856A695A695AA23FD
:100A500021F4E3EAF0E20C94B71DAA95ABBD982F00
:100A600093709ABD0C94A11CA82FA295A770A430D6
:100A700028F4E4E5F2E1F6D30C94491D982F9F7019
:100A800084FD90649BBD982F9695969593709ABD22
:100A90000C94F01B430C521C621C982F905C0000BD
:100AA0008EB52EBCA82F943020F0983020F09930CD
:100AB00020F0AC7803C0A07F01C0A078A9F49830E2
:100AC000A1F0E8F4A92FA370ECE5F2E1CBD39430C8
:100AD00048F4923028F490FD0C94051E0C94001EEE
:100AE0000C94C31D0C94BC1D99C3982F92959770BC
:100AF0009ABD982F9F7090689BBD0C94F01BE82FB7
:100B0000E295E770A82FA370AA0FAA0FA85FBB27D2
:100B10000D901D909D91AC91892F8F770128082A07
:100B20008A2F880F97FD816021F08F3F39F098E080
:100B30000DC096E0002051F0939508C0002011F4FC
:100B400099E004C096FB992790F904C0A7FF02C062
:100B50009195955F81E0AA2793959A9519F0880F52
:100B6000AA1FFBCFEE0FE85FFF278193A08369C325
:100B7000430C521C621CB22DF22DF8942EBC8EB583
:100B80007894E82FE695E695EE70E85FA82FAA0F17
:100B9000AE70A85F00801180807CE82B8D919C91C5
:100BA000DC01C001FA2FFB2BA9F1E7FF0FC0F92FE1
:100BB000E6FFFB27F7FDE06297FF03C08195921DDA
:100BC0009195B7FF03C0A195B21DB19500241124E2
:100BD000F92FFB2B41F1F8E0880F991F001C111C25
:100BE0000A161B0618F00A1A1B0A8160880F991F43
:100BF000001C111C0A161B0618F00A1A1B0A816039
:100C0000FA9551F7E6FDC001E5FF08C08195921DF8
:100C1000919504C0E6FD02C08FEF9FEFEF71F22DBA
:100C2000819390830EC3F4E0880F001C0A1610F025
:100C30000A1A8160880F001C0A1610F00A1A8160D7
:100C4000FA9591F7DFCF430C521C621CB22DF22DA6
:100C5000F8942EBC8EB57894A82FA295AE70A85F9C
:100C6000E82FE695EE70E85F86950D901C909191C7
:100C7000B08180FD0AC018F4092A1B2A02C009228B
:100C80001B22B22D1C920E92DCC218F009261B26E4
:100C9000F8CFC4C2430C521CF8942EBC8EB5789485
:100CA000621C803338F0A82F82958F707097E80F00
:100CB000F21D0994880FE80FF21D0994430C521C91
:100CC000F8942EBC8EB57894621C8917C0F4E80F96
:100CD000F21DE80FF21D0994A1E006C0A3E004C0D4
:100CE000A4E002C0A5E000C08EB52EBC430C521C8F
:100CF000621C891720F48A9FE00DF11D09948EC2B1
:100D0000430C521C621CAEB52EBCA03858F49EB3E6
:100D1000A6FD90959B2329F0AF73AA0FEA0FF21D51
:100D200009947EC2ECCF00008EBB430C8EB52EBC66
:100D3000521C621C879DF001FF5F09948EBB00006E
:100D4000430C521C621CF8942EBC8EB57894879D7F
:100D5000F001FF5F0994000001C00000430C8EB554
:100D60002EBC521C621C879DF001FF5F0994430C4E
:100D7000521C621C8EB52EBC0994430C521C621C82
:100D80008EB52EBC992787FD90950994430C521C73
:100D9000621C8EB52EBC430C521C621C38D2F894D7
:100DA0002EBC9EB57894099400C000000000C8CF06
:100DB000082F1127F9CF282F3327F6CF482F552793
:100DC000F3CF682F7727F0CF082F192FEECF282FDA
:100DD000392FEBCF482F592FE8CF682F792FE5CF48
:100DE000080F191FE3CF280F391FE0CF480F591FF5
:100DF000DDCF680F791FDACF081719078FB79ECF9D
:100E0000281739078FB79ACF481759078FB796CF4A
:100E1000681779078FB792CF00C0F8942EBC8EB5B3
:100E20007894F19B29C02CC000C0F8942EBC8EB5DC
:100E30007894F19921C024C000C0F8942EBC8EB5DE
:100E40007894F09B19C01CC000C0F8942EBC8EB5DD
:100E50007894F49B11C014C000C0F8942EBC8EB5D9
:100E60007894F09909C00CC000C0F8942EBC8EB5DF
:100E70007894F49901C004C000C000C000C060CFE5
:100E8000992787FD9095430C521C621C480E591EF1
:100E9000691E9DC1621CBEB3F8942EBCAEB5789499
:100EA000430C521C621C80FDB095B92341F400C074
:100EB00000C000C0F8942EBC8EB57894DDCF430CF2
:100EC000521C621C38C0C895AEB59927A7FD9095F5
:100ED000430C521C621C4A0E591E691E78C1C895EB
:100EE000AEB59927A7FD9095430C521C621C6A92DF
:100EF0005A924A924A0E591E691E69C100C0F8945E
:100F00002EBC8EB57894992787FD9095C80FD91F70
:100F100000C000C015CF430C521CF8942EBCAEB5D7
:100F20007894621C430C521C621C80FF0C94A30733
:100F30006A925A924A929927BEB5B7FD90954A0E89
:100F40005B1E691E44C1C895F6CFB82F0000F89407
:100F50002EBC8EB57894B0FF0C94BD076A925A925D
:100F60004A9200C000C0F8942EBC9EB578944DD132
:100F7000AEB5482E592E6A2E2AC14DD1F4CFE8ECD9
:100F8000F7E0F8942EBC8EB57894E80FF21D099422
:100F9000FFC001C102C108C142C141C140C13FC13E
:100FA0003EC13DC13CC13BC13AC139C138C137C165
:100FB00036C135C134C133C132C131C130C12FC195
:100FC0002EC12DC12CC12BC12AC129C128C127C1C5
:100FD00026C125C124C123C122C121C120C11FC1F5
:100FE0001EC11DC11CC11BC11AC119C118C117C125
:100FF00016C115C114C113C112C111C110C10FC155
:101000000EC10DC10CC10BC10AC109C108C107C184
:1010100006C105C104C103C102C101C100C1FFC0B5
:10102000FEC0FDC0FCC0FBC0FAC0F9C0F8C0F7C0EC
:10103000F6C0F5C0F4C0F3C0F2C0F1C0F0C0EFC01C
:10104000EEC0EDC0ECC0EBC0EAC0E9C0E8C0E7C04C
:10105000E6C0E5C0E4C0E3C0E2C0E1C0E0C0DFC07C
:10106000DEC0DDC0DCC0DBC0DAC0D9C0D8C0D7C0AC
:10107000D6C0D5C0D4C0D3C0D2C0D1C0D0C0CFC0DC
:10108000CEC0CDC0CCC0CBC0CAC0C9C0C8C0C7C00C
:10109000C6C0C5C0C4C0C3C0C2C0C1C0C0C0BFC03C
:1010A000BEC0BDC0BCC0BBC0BAC0B9C0B8C0B7C06C
:1010B000B6C0B5C0B4C0B3C0B2C0B1C0B0C0AFC09C
:1010C000AEC0ADC0ACC0ABC0AAC0A9C0A8C0A7C0CC
:1010D000A6C0A5C0A4C0A3C0A2C0A1C0A0C09FC0FC
:1010E0009EC09DC09CC09BC09AC099C098C097C02C
:1010F00096C095C094C093C092C091C090C08FC05C
:101100008EC08DC08CC08BC08AC089C088C087C08B
:1011100086C085C084C083C082C081C080C07FC0BB
:101120007EC07DC07CC07BC07AC079C078C077C0EB
:1011300076C075C074C073C072C071C070C06FC01B
:101140006EC06DC06CC06BC06AC069C068C067C04B
:1011500066C065C064C063C062C061C060C05FC07B
:101160005EC05DC05CC05BC05AC059C058C057C0AB
:1011700056C055C054C053C052C051C050C04FC0DB
:101180004EC04DC04CC04BC04AC049C048C047C00B
:101190000093F100D5CD9895D2CDF8940091070A2F
:1011A0001091080A7894DACDF8940091070A10910A
:1011B000080A2091090A30910A0A7894CFCD07C015
:1011C000521C621C6A925A924A922C016A2E599AB7
:1011D000E3E05998EEBDA091000AA50DB091010A77
:1011E000B61D16D0BEBD0ED0AEBD0CD04EBC0BD0C1
:1011F0002EBC0AD0F8942EBC8EB57894879DF00151
:10120000FF5F0994000000000000000000000000E3
:101210000000000000C00895FFCFFFCFFFCFFFCF39
:10122000000001C00000430C521C621CF8942EBC4C
:101230008EB57894879DF001FF5F099402C08EBB44
:101240000000430C8EB52EBC521C621C879DF00121
:10125000FF5F0994A31EA21E3C20071FA21FA01F10
:101260006F1F741FAA0FEA0FF21D0590A491E02DC5
:10127000FA2F08958EB52EBC430C521C621C0895A3
:10128000A82F8EB52EBC430C521C621CA770AA0F4F
:10129000A85FB22DFE01E80FF21D08958EB52EBC99
:1012A00092E0490E521C621C00C000C000C000C089
:1012B00000C000C09EB52EBC0895EEB52EBC92E0D5
:1012C000490E521C621CA02DA770AA0FA85FB22D58
:1012D00000C000C0C895FEB52EBC0895CBDF882E97
:1012E00099242DCDC7DFA82EBB2429CDC3DFC82E5E
:1012F000DD2425CDBFDFE82EFF2421CDCFDF882ED2
:10130000992E53CDCBDFA82EB92E4FCDC7DFC82ED7
:10131000D92E4BCDC3DFE82EF92E47CDABDF992771
:1013200087FD9095880E991E18CDA4DF992787FD1B
:101330009095A80EB91E11CD9DDF992787FD909538
:10134000C80ED91E0ACD96DF992787FD9095E80E25
:10135000F91E03CD8FDF992787FD90958816990692
:101360008FB7E2CC87DF992787FD9095A816B9063D
:101370008FB7DACC7FDF992787FD9095C816D906FD
:101380008FB7D2CC77DF992787FD9095E816F906BD
:101390008FB7CACC75DFED93FC93E0CC71DF008092
:1013A0000D922C92DBCC6CDF00800D92000C0008BB
:1013B0000C92D4CC65DF0C900082D0CC61DF019020
:1013C00010800D921C92CACC5BDF0D901C90019294
:1013D0001082C4CC00C0C1CC70DF00800D922C9272
:1013E000BACC6BDF0C900082F5CF67DF01901080E4
:1013F0000D921C92B2CC61DF0D901C900192108274
:10140000ACCC38DF032CD894E89445D073D021823B
:10141000DECE30DF032CD894E8943DD06BD0BB0FE8
:10142000BB0BB183D4CE26DF032C000CD894E894F8
:1014300032D060D0CCCE1EDF072C0A945894E894AA
:101440002AD058D02182C3CE15DF072C5894E894B7
:1014500022D050D0BCCE0EDF032CD89468941BD081
:1014600049D02182B4CE06DF032C000CD8946894B6
:1014700012D040D0ACCEFEDE072C0A94589468946B
:101480000AD038D02182A3CEF5DE072C5894689478
:1014900002D030D09CCE982F15F4937301C0937175
:1014A00041F5430C521C621C982F92959F70985FD7
:1014B000192EE82FEF70E85FF22D36F41E16C9F0F2
:1014C0009E2F9E5F1916A9F081919191A191B081F3
:1014D000BB2379F456F4E350B82FB00DB193B92F74
:1014E000B21DB193BA2FB21DB083E12DF22D122C93
:1014F000089594CE599AB3E05998BEBDB091000AB0
:101500009B0FB091010AAB1F1FD0AEBD19D09EBD7D
:1015100017D08EBD16D02EBC0318120800C00000D4
:1015200051F000C013D0F8942EBCBEB57894B1939E
:1015300003181208B9F709D0BEB5B083599A0895B7
:10154000000000C000C0000000C000C0089589561F
:10155000430CF8942EBC9EB57894521C621CA92FA3
:10156000A17399F5A92FA295AF70A85FB22DE92FAD
:10157000EF70E85FF22D8823B9F001901080F00140
:10158000813049F08D9181938D9181938D918193DB
:101590008C91808356CE81918D9381918D93819191
:1015A0008D9380818C934DCE91FD0FC00D901D9039
:1015B0008D919C91A1910A16A1911A06A1918A0779
:1015C000A0819A078FB78EBB3CCE28CE00FA430C81
:1015D000F8942EBC1EB47894521C621CA12DA295C6
:1015E000AE70A85FB22DE12DEE70E85FF22D86F0AF
:1015F0000E2E81919081FC018191992714FC91918B
:101600008D939C9310FE1DCEA02DED93FC9319CECF
:101610000D909C91A191B0810D9214FC9D9310FEB0
:1016200010CEB083A2930DCEF7CD58CE5BCE5ECE5A
:1016300061CE64CE67CE6ACE6DCE70CE76CE7CCED5
:1016400082CE88CE8FCE96CE9DCEA4CEA3CEA2CE75
:10165000A1CEA0CE9FCE9ECE9DCEA0CE9FCE9ECE22
:101660009DCE9CCE9BCE9ACE99CE9DCE9CCE9BCE2F
:101670009ACE99CE98CE97CE96CE9CCE9BCE9ACE31
:1016800099CE98CE97CE96CE95CE98CE97CE96CE32
:1016900095CE94CE93CE92CE91CE96CE95CE94CE3C
:1016A00093CE92CE91CE90CE8FCE96CE95CE94CE36
:1016B00093CE92CE91CE90CE8FCE93CE92CE91CE2F
:1016C00090CE8FCE8ECE8DCE8CCE8FCE8ECE8DCE3A
:1016D0008CCE8BCE8ACE89CE88CE8DCE8CCE8BCE44
:1016E0008ACE89CE88CE87CE86CE8BCE92CE9BCE2A
:1016F000A2CEAACEB0CEB7CEBECEC6CE28CF27CFF2
:1017000026CF64CF63CF44018DCD45018BCD4601FB
:1017100089CD470187CD480185CD490183CD4A0157
:1017200081CD4B017FCD54017DCD55017BCD56013F
:1017300079CD570177CD580175CD590173CD5A0137
:1017400071CD5B016FCD64016DCD65016BCD66011F
:1017500069CD670167CD680165CD690163CD6A0117
:1017600061CD6B015FCD74015DCD75015BCD7601FF
:1017700059CD770157CD780155CD790153CD7A01F7
:1017800051CD7B014FCD84014DCD85014BCD8601DF
:1017900049CD870147CD940145CD950143CD9601B3
:1017A00041CD97013FCDA4013DCDA5013BCDA60183
:1017B00039CDA70137CDB40135CDB50133CDB60153
:1017C00031CDB7012FCD08832ECD28832CCD488372
:1017D0002ACD688328CD098326CD298324CD49834A
:1017E00022CD698320CD0A831ECD2A831CCD4A8356
:1017F0001ACD6A8318CD0B8316CD2B8314CD4B8362
:1018000012CD6B8310CD0C830ECD2C830CCD4C836D
:101810000ACD6C8308CD0D8306CD2D8304CD4D8379
:1018200002CD6D8300CD0E83FECC2E83FCCC4E8387
:10183000FACC6E83F8CC0F83F6CC2F83F4CC4F8395
:10184000F2CC6F83F0CC0887EECC2887ECCC4887AD
:10185000EACC6887E8CC0987E6CC2987E4CC4987BD
:10186000E2CC6987E0CC0A87DECC2A87DCCC4A87C9
:10187000DACC6A87D8CC0B87D6CC2B87D4CC4B87D5
:10188000D2CC6B87D0CC0C87CECC2C87CCCC4C87E1
:10189000CACC6C87C8CC0D87C6CC2D87C4CC4D87ED
:1018A000C2CC6D87C0CC0E87BECC2E87BCCC4E87F9
:1018B000BACC6E87B8CC0F87B6CC2F87B4CC4F8705
:1018C000B2CC6F87B0CC9924ADCCBB24ABCCDD249B
:1018D000A9CCFF24A7CC1127A5CC3327A3CC55270F
:1018E000A1CC77279FCC82949DCCA2949BCCC29410
:1018F00099CCE29497CC029595CC229593CC4295C5
:1019000091CC62958FCC4E018DCC5E018BCC6E015B
:1019100089CC7E0187CC8E0185CC9E0183CCAE0123
:1019200081CCBE017FCCE4017DCCE5017BCCE6011E
:1019300079CCE70177CCE80175CCE90173CCEA01F9
:1019400071CCEB016FCC880C991C6DCC8A0C9B1C64
:101950006ACC8C0C9D1C67CC8E0C9F1C64CC800EBA
:10196000911E61CC820E931E5ECC840E951E5BCCC4
:10197000860E971E58CCA80CB91C55CCAA0CBB1CC3
:1019800052CCAC0CBD1C4FCCAE0CBF1C4CCCA00E32
:10199000B11E49CCA20EB31E46CCA40EB51E43CC3C
:1019A000A60EB71E40CCC80CD91C3DCCCA0CDB1C03
:1019B0003ACCCC0CDD1C37CCCE0CDF1C34CCC00EAA
:1019C000D11E31CCC20ED31E2ECCC40ED51E2BCCB4
:1019D000C60ED71E28CCE80CF91C25CCEA0CFB1C43
:1019E00022CCEC0CFD1C1FCCEE0CFF1C1CCCE00E22
:1019F000F11E19CCE20EF31E16CCE40EF51E13CC2C
:101A0000E60EF71E10CC080D191D0DCC0A0D1B1D7E
:101A10000ACC0C0D1D1D07CC0E0D1F1D04CC280D6E
:101A2000391D01CC2A0D3B1DFECB2C0D3D1DFBCBE2
:101A30002E0D3F1DF8CB480D591DF5CB4A0D5B1DF2
:101A4000F2CB4C0D5D1DEFCB4E0D5F1DECCB680D49
:101A5000791DE9CB6A0D7B1DE6CB6C0D7D1DE3CBBB
:101A60006E0D7F1DE0CB88189908DDCB8A189B0886
:101A7000DACB8C189D08D7CB8E189F08D4CB801A50
:101A8000910AD1CB821A930ACECB841A950ACBCB7A
:101A9000861A970AC8CBA818B908C5CBAA18BB08DC
:101AA000C2CBAC18BD08BFCBAE18BF08BCCBA01AC8
:101AB000B10AB9CBA21AB30AB6CBA41AB50AB3CBF2
:101AC000A61AB70AB0CBC818D908ADCBCA18DB081C
:101AD000AACBCC18DD08A7CBCE18DF08A4CBC01A40
:101AE000D10AA1CBC21AD30A9ECBC41AD50A9BCB6A
:101AF000C61AD70A98CBE818F90895CBEA18FB085C
:101B000092CBEC18FD088FCBEE18FF088CCBE01AB7
:101B1000F10A89CBE21AF30A86CBE41AF50A83CBE1
:101B2000E61AF70A80CB081919097DCB0A191B0997
:101B30007ACB0C191D0977CB0E191F0974CB281904
:101B4000390971CB2A193B096ECB2C193D096BCB96
:101B50002E193F0968CB4819590965CB4A195B0909
:101B600062CB4C195D095FCB4E195F095CCB6819DC
:101B7000790959CB6A197B0956CB6C197D0953CB6E
:101B80006E197F0950CB440155014DCB46015701D9
:101B90004ACB4801590147CB4A015B0144CB640160
:101BA000750141CB660177013ECB680179013BCBE2
:101BB0006A017B0138CB8401950135CB8601970101
:101BC00032CBA401B5012FCBA601B7012CCBD80194
:101BD0008C9236CBD801AC9233CBD801CC9230CB9F
:101BE000D801EC922DCBD9018C922ACBD901AC92A1
:101BF00027CBD901CC9224CBD901EC9221CBDA01AD
:101C00008C921ECBDA01AC921BCBDA01CC9218CBB2
:101C1000DA01EC9215CBDB018C9212CBDB01AC929A
:101C20000FCBDB01CC920CCBDB01EC9209CB009FFC
:101C3000800106CB029F800103CB049F800100CB73
:101C4000069F8001FDCA209F9001FACA229F900141
:101C5000F7CA249F9001F4CA269F9001F1CA409FC1
:101C6000A001EECA429FA001EBCA449FA001E8CAAE
:101C7000469FA001E5CA609FB001E2CA629FB00121
:101C8000DFCA649FB001DCCA669FB001D9CA0002F6
:101C90008001D6CA02028001D3CA04028001D0CAE0
:101CA00006028001CDCA20029001CACA2202900118
:101CB000C7CA24029001C4CA26029001C1CA4002C8
:101CC000A001BECA4202A001BBCA4402A001B8CA18
:101CD0004602A001B5CA6002B001B2CA6202B001F8
:101CE000AFCA6402B001ACCA6602B001A9CA00035F
:101CF0008001A6CA02038001A3CA04038001A0CA0E
:101D0000060380019DCA200390019ACA2203900114
:101D100097CA2403900194CA2603900191CA4003F4
:101D2000A0018ECA4203A0018BCA4403A00188CA45
:101D30004603A00185CA6003B00182CA6203B001F4
:101D40007FCA6403B0017CCA6603B00179CA088106
:101D5000112776CA2881332773CA4881552770CA4C
:101D6000688177276DCA098111276ACA29813327BB
:101D700067CA4981552764CA6981772761CA0A8180
:101D800011275ECA2A8133275BCA4A81552758CA60
:101D90006A81772755CA0B81112752CA2B813327B5
:101DA0004FCA4B8155274CCA6B81772749CA0C8192
:101DB000112746CA2C81332743CA4C81552740CA74
:101DC0006C8177273DCA0D8111273ACA2D813327AF
:101DD00037CA4D81552734CA6D81772731CA0E81A4
:101DE00011272ECA2E8133272BCA4E81552728CA88
:101DF0006E81772725CA0F81112722CA2F813327A9
:101E00001FCA4F8155271CCA6F81772719CA0885B9
:101E1000112716CA2885332713CA4885552710CAA3
:101E2000688577270DCA098511270ACA29853327AE
:101E300007CA4985552704CA6985772701CA0A85D3
:101E40001127FEC92A853327FBC94A855527F8C9BA
:101E50006A857727F5C90B851127F2C92B853327AA
:101E6000EFC94B855527ECC96B857727E9C90C85E8
:101E70001127E6C92C853327E3C94C855527E0C9CE
:101E80006C857727DDC90D851127DAC92D853327A4
:101E9000D7C94D855527D4C96D857727D1C90E85FA
:101EA0001127CEC92E853327CBC94E855527C8C9E2
:101EB0006E857727C5C90F851127C2C92F8533279E
:101EC000BFC94F855527BCC96F857727B9C90000A1
:101ED000430C521C621CF8942EBC8EB57894879DDE
:101EE000F001FF5F09948EBB02C08EBB0000430C63
:101EF0008EB52EBC521C621C879DF001FF5F0994B9
:101F000093CB8CC908811981F2CF28813981EFCF19
:101F100048815981ECCF68817981E9CF09811A81A3
:101F2000E6CF29813A81E3CF49815A81E0CF6981A7
:101F30007A81DDCF0A811B81DACF2A813B81D7CF1D
:101F40004A815B81D4CF6A817B81D1CF0B811C8197
:101F5000CECF2B813C81CBCF4B815C81C8CF6B81B5
:101F60007C81C5CF0C811D81C2CF2C813D81BFCF2B
:101F70004C815D81BCCF6C817D81B9CF0D811E818B
:101F8000B6CF2D813E81B3CF4D815E81B0CF6D81C3
:101F90007E81ADCF0E811F81AACF2E813F81A7CF39
:101FA0004E815F81A4CF6E817F81A1CF0F81188583
:101FB0009ECF2F8138859BCF4F81588598CF6F81D9
:101FC000788595CF0885198592CF288539858FCF5B
:101FD000488559858CCF6885798589CF09851A858B
:101FE00086CF29853A8583CF49855A8580CF6985F3
:101FF0007A857DCF0A851B857ACF2A853B8577CF69
:102000004A855B8574CF6A857B8571CF0B851C857E
:102010006ECF2B853C856BCF4B855C8568CF6B8500
:102020007C8565CF0C851D8562CF2C853D855FCF76
:102030004C855D855CCF6C857D8559CF0D851E8572
:1020400056CF2D853E8553CF4D855E8550CF6D850E
:102050007E854DCF0E851F854ACF2E853F8547CF84
:102060004E855F8544CF6E857F8541CF0F8518896A
:102070003ECF2F8538893BCF4F85588938CF6F8524
:10208000788935CF0883198332CF288339832FCFBE
:10209000488359832CCF6883798329CF09831A8396
:1020A00026CF29833A8323CF49835A8320CF69835C
:1020B0007A831DCF0A831B831ACF2A833B8317CFD2
:1020C0004A835B8314CF6A837B8311CF0B831C838A
:1020D0000ECF2B833C830BCF4B835C8308CF6B836A
:1020E0007C8305CF0C831D8302CF2C833D83FFCEE1
:1020F0004C835D83FCCE6C837D83F9CE0D831E8380
:10210000F6CE2D833E83F3CE4D835E83F0CE6D837A
:102110007E83EDCE0E831F83EACE2E833F83E7CEF0
:102120004E835F83E4CE6E837F83E1CE0F83188777
:10213000DECE2F833887DBCE4F835887D8CE6F8390
:102140007887D5CE08871987D2CE28873987CFCE12
:1021500048875987CCCE68877987C9CE09871A877F
:10216000C6CE29873A87C3CE49875A87C0CE6987AA
:102170007A87BDCE0A871B87BACE2A873B87B7CE20
:102180004A875B87B4CE6A877B87B1CE0B871C8773
:10219000AECE2B873C87ABCE4B875C87A8CE6B87B8
:1021A0007C87A5CE0C871D87A2CE2C873D879FCE2E
:1021B0004C875D879CCE6C877D8799CE0D871E8767
:1021C00096CE2D873E8793CE4D875E8790CE6D87C6
:1021D0007E878DCE0E871F878ACE2E873F8787CE3C
:1021E0004E875F8784CE6E877F8781CE0F87188B5F
:1021F0007ECE2F87388B7BCE4F87588B78CE6F87DC
:10220000788B75CE880C991C63CEAA0CBB1C60CE53
:10221000CC0CDD1C5DCEEE0CFF1C5ACE000F111F46
:1022200057CE220F331F54CE440F551F51CE660F89
:10223000771F4ECE969487944BCEB694A79448CEF3
:10224000D694C79445CEF694E79442CE169507955A
:102250003FCE369527953CCE5695479539CE769507
:10226000679536CE9594879433CEB594A79430CEA7
:10227000D594C7942DCEF594E7942ACE159507955D
:1022800027CE3595279524CE5595479521CE759522
:1022900067951ECE809490941BCEA094B09418CED7
:1022A000C094D09415CEE094F09412CE0095109581
:1022B0000FCE209530950CCE4095509509CE609567
:1022C000709506CE82148FB710CEA2148FB70DCEA4
:1022D000C2148FB70ACEE2148FB707CE02158FB79C
:1022E00004CE22158FB701CE42158FB7FECD6215F1
:1022F0008FB7FBCD830C921CEBCDA30CB21CE8CDA9
:10230000C30CD21CE5CDE30CF21CE2CD030D121D73
:10231000DFCD230D321DDCCD430D521DD9CD630D14
:10232000721DD6CD83189208D3CDA318B208D0CD94
:10233000C318D208CDCDE318F208CACD031912098B
:10234000C7CD23193209C4CD43195209C1CD631930
:102350007209BECD881499048FB7C7CD8A149B0427
:102360008FB7C3CD8C149D048FB7BFCD8E149F043F
:102370008FB7BBCD801691068FB7B7CD8216930667
:102380008FB7B3CD841695068FB7AFCD8616970657
:102390008FB7ABCDA814B9048FB7A7CDAA14BB04CF
:1023A0008FB7A3CDAC14BD048FB79FCDAE14BF04BF
:1023B0008FB79BCDA016B1068FB797CDA216B306E7
:1023C0008FB793CDA416B5068FB78FCDA616B706D7
:1023D0008FB78BCDC814D9048FB787CDCA14DB044F
:1023E0008FB783CDCC14DD048FB77FCDCE14DF043F
:1023F0008FB77BCDC016D1068FB777CDC216D30667
:102400008FB773CDC416D5068FB76FCDC616D70656
:102410008FB76BCDE814F9048FB767CDEA14FB04CE
:102420008FB763CDEC14FD048FB75FCDEE14FF04BE
:102430008FB75BCDE016F1068FB757CDE216F306E6
:102440008FB753CDE416F5068FB74FCDE616F706D6
:102450008FB74BCD081519058FB747CD0A151B054A
:102460008FB743CD0C151D058FB73FCD0E151F053A
:102470008FB73BCD281539058FB737CD2A153B05CA
:102480008FB733CD2C153D058FB72FCD2E153F05BA
:102490008FB72BCD481559058FB727CD4A155B054A
:1024A0008FB723CD4C155D058FB71FCD4E155F053A
:1024B0008FB71BCD681579058FB717CD6A157B05CA
:1024C0008FB713CD6C157D058FB70FCD6E157F05BA
:1024D0008FB70BCDD8018C90992409CDD801AC9041
:1024E000BB2405CDD801CC90DD2401CDD801EC90E2
:1024F000FF24FDCCD9018C909924F9CCD901AC9062
:10250000BB24F5CCD901CC90DD24F1CCD901EC90E1
:10251000FF24EDCCDA018C909924E9CCDA01AC905F
:10252000BB24E5CCDA01CC90DD24E1CCDA01EC90DF
:10253000FF24DDCCDB018C909924D9CCDB01AC905D
:10254000BB24D5CCDB01CC90DD24D1CCDB01EC90DD
:10255000FF24CDCCD8018D909C90C9CCD801AD90F2
:10256000BC90C5CCD801CD90DC90C1CCD801ED9009
:10257000FC90BDCCD9018D909C90B9CCD901AD9087
:10258000BC90B5CCD901CD90DC90B1CCD901ED9007
:10259000FC90ADCCDA018D909C90A9CCDA01AD9085
:1025A000BC90A5CCDA01CD90DC90A1CCDA01ED9005
:1025B000FC909DCCDB018D909C9099CCDB01AD9083
:1025C000BC9095CCDB01CD90DC9091CCDB01ED9003
:1025D000FC908DCCD8018D929C9289CCD801AD9283
:1025E000BC9285CCD801CD92DC9281CCD801ED9201
:1025F000FC927DCCD9018D929C9279CCD901AD927F
:10260000BC9275CCD901CD92DC9271CCD901ED92FE
:10261000FC926DCCDA018D929C9269CCDA01AD927C
:10262000BC9265CCDA01CD92DC9261CCDA01ED92FC
:10263000FC925DCCDB018D929C9259CCDB01AD927A
:10264000BC9255CCDB01CD92DC9251CCDB01ED92FA
:10265000FC924DCCD8018D928D0149CCD801AD9220
:102660008D0145CCD801CD928D0141CCD801ED92A0
:102670008D013DCCD8010D938D0139CCD8012D931E
:102680008D0135CCD8014D938D0131CCD8016D939E
:102690008D012DCCD9018D929D0129CCD901AD920E
:1026A0009D0125CCD901CD929D0121CCD901ED927E
:1026B0009D011DCCD9010D939D0119CCD9012D93FC
:1026C0009D0115CCD9014D939D0111CCD9016D937C
:1026D0009D010DCCDA018D92AD0109CCDA01AD92EC
:1026E000AD0105CCDA01CD92AD0101CCDA01ED925C
:1026F000AD01FDCBDA010D93AD01F9CBDA012D93DC
:10270000AD01F5CBDA014D93AD01F1CBDA016D935B
:10271000AD01EDCBDB018D92BD01E9CBDB01AD92CB
:10272000BD01E5CBDB01CD92BD01E1CBDB01ED923B
:10273000BD01DDCBDB010D93BD01D9CBDB012D93B9
:10274000BD01D5CBDB014D93BD01D1CBDB016D9339
:10275000BD01CDCB882D892C982EC8CB8A2DAB2CD2
:10276000B82EC4CB8C2DCD2CD82EC0CB8E2DEF2CDB
:10277000F82EBCCB802F012F182FB8CB822F232F00
:10278000382FB4CB842F452F582FB0CB862F672FEF
:10279000782FACCB821492048FB7A7CBA214B204CB
:1027A0008FB7A3CBC214D2048FB79FCBE214F2042D
:1027B0008FB79BCB021512058FB797CB2215320529
:1027C0008FB793CB421552058FB78FCB6215720529
:1027D0008FB78BCB009F002D112789CB029F002D37
:1027E000112785CB049F002D112781CB069F002D3B
:1027F00011277DCB209F202D332779CB229F202DA1
:10280000332775CB249F202D332771CB269F202D76
:1028100033276DCB409F402D552769CB429F402DDC
:10282000552765CB449F402D552761CB469F402DB2
:1028300055275DCB609F602D772759CB629F602D18
:10284000772755CB649F602D772751CB669F602DEE
:1028500077274DCB992487FC9A9448CBBB24A7FCBF
:10286000BA9444CBDD24C7FCDA9440CBFF24E7FCC8
:10287000FA943CCB112707FD1A9538CB332727FD57
:102880003A9534CB552747FD5A9530CB772767FDCE
:102890007A952CCB8194921C919428CBA194B21C54
:1028A000B19424CBC194D21CD19420CBE194F21CDE
:1028B000F1941CCB0195121D119518CB2195321D59
:1028C000319514CB4195521D519510CB6195721DD8
:1028D00071950CCBD8018D908D019924D9C2D80166
:1028E000AD908D01BB24D4C2D801CD908D01DD24E3
:1028F000CFC2D801ED908D01FF24CAC202CB0000E7
:10290000000000000000D8012D918D013327C0C2C6
:10291000D8014D918D015527BBC2D8016D918D0114
:102920007727B6C2D9018D909D019924B1C2D901F2
:10293000AD909D01BB24ACC2D901CD909D01DD2499
:10294000A7C2D901ED909D01FF24A2C2D9010D912A
:102950009D0111279DC2D5CA0000000000000000A3
:10296000D9014D919D01552793C2D9016D919D01CA
:1029700077278EC2DA018D90AD01992489C2DA01E0
:10298000AD90AD01BB2484C2DA01CD90AD01DD2450
:102990007FC2DA01ED90AD01FF247AC2DA010D9118
:1029A000AD01112775C2DA012D91AD01332770C237
:1029B000A8CA0000000000000000DA016D91AD011E
:1029C000772766C2DB018D90BD01992461C2DB01CE
:1029D000AD90BD01BB245CC2DB01CD90BD01DD2407
:1029E00057C2DB01ED90BD01FF2452C2DB010D9106
:1029F000BD0111274DC2DB012D91BD01332748C216
:102A0000DB014D91BD01552743C27BCA0000000088
:102A100000000000D8018D909D908D0139C2D80131
:102A2000AD90BD908D0134C2D801CD90DD908D0167
:102A30002FC2D801ED90FD908D012AC262CA00001C
:102A4000000000000000D8012D913D918D0120C2B1
:102A5000D8014D915D918D011BC2D8016D917D9181
:102A60008D0116C2D9018D909D909D0111C2D90191
:102A7000AD90BD909D010CC2D901CD90DD909D011E
:102A800007C2D901ED90FD909D0102C2D9010D91BF
:102A90001D919D01FDC135CA00000000000000002D
:102AA000D9014D915D919D01F3C1D9016D917D9148
:102AB0009D01EEC1DA018D909D90AD01E9C1DA0171
:102AC000AD90BD90AD01E4C1DA01CD90DD90AD01D6
:102AD000DFC1DA01ED90FD90AD01DAC1DA010D91AF
:102AE0001D91AD01D5C1DA012D913D91AD01D0C14E
:102AF00008CA0000000000000000DA016D917D911D
:102B0000AD01C6C1DB018D909D90BD01C1C1DB014E
:102B1000AD90BD90BD01BCC1DB01CD90DD90BD018C
:102B2000B7C1DB01ED90FD90BD01B2C1DB010D919C
:102B30001D91BD01ADC1DB012D913D91BD01A8C12C
:102B4000DB014D915D91BD01A3C1DBC90000000017
:102B500000000000D8018D929D928D0199C1D8018D
:102B6000AD92BD928D0194C1D801CD92DD928D01BF
:102B70008FC1D801ED92FD928D018AC1D8010D93CC
:102B80001D938D0185C1D8012D933D938D0180C189
:102B9000D8014D935D938D017BC1D8016D937D93D9
:102BA0008D0176C1D9018D929D929D0171C1D9018E
:102BB000AD92BD929D016CC1D901CD92DD929D0176
:102BC00067C1D901ED92FD929D0162C1D9010D93BA
:102BD0001D939D015DC1D9012D933D939D0158C168
:102BE000D9014D935D939D0153C1D9016D937D939F
:102BF0009D014EC1DA018D929D92AD0149C1DA016C
:102C0000AD92BD92AD0144C1DA01CD92DD92AD012C
:102C10003FC1DA01ED92FD92AD013AC1DA010D93A7
:102C20001D93AD0135C1DA012D933D93AD0130C146
:102C3000DA014D935D93AD012BC1DA016D937D9364
:102C4000AD0126C1DB018D929D92BD0121C1DB0149
:102C5000AD92BD92BD011CC1DB01CD92DD92BD01E3
:102C600017C1DB01ED92FD92BD0112C1DB010D9395
:102C70001D93BD010DC1DB012D933D93BD0108C125
:102C8000DB014D935D93BD0103C1DB016D937D932A
:102C9000BD01FEC0880C991CAA1CBB1CF9C08C0C81
:102CA0009D1CAE1CBF1CF4C0800E911EA21EB31E44
:102CB000EFC0840E951EA61EB71EEAC0C80CD91C14
:102CC000EA1CFB1CE5C0CC0CDD1CEE1CFF1CE0C0AC
:102CD000C00ED11EE21EF31EDBC0C40ED51EE61EC2
:102CE000F71ED6C0080D191D2A1D3B1DD1C00C0DA5
:102CF0001D1D2E1D3F1DCCC0000F111F221F331F95
:102D0000C7C0040F151F261F371FC2C0480D591D0D
:102D10006A1D7B1DBDC04C0D5D1D6E1D7F1DB8C0A5
:102D2000400F511F621F731FB3C0440F551F661F12
:102D3000771FAEC088189908AA08BB08A9C08C18CC
:102D40009D08AE08BF08A4C0801A910AA20AB30A5F
:102D50009FC0841A950AA60AB70A9AC0C818D9084B
:102D6000EA08FB0895C0CC18DD08EE08FF0890C003
:102D7000C01AD10AE20AF30A8BC0C41AD50AE60ABD
:102D8000F70A86C0081919092A093B0981C00C19DC
:102D90001D092E093F097CC0001B110B220B330BB0
:102DA00077C0041B150B260B370B72C04819590945
:102DB0006A097B096DC04C195D096E097F0968C0FD
:102DC000401B510B620B730B63C0441B550B660B0E
:102DD000770B5EC0B694A7949794879459C0F694E5
:102DE000E794D794C79454C03695279517950795BF
:102DF0004FC076956795579547954AC0B594A79467
:102E00009794879445C0F594E794D794C79440C0AD
:102E100035952795179507953BC0759567955795F7
:102E2000479536C0892899248210832C31C0AB285D
:102E3000BB24A210A32C2CC0CD28DD24C210C32C8F
:102E400027C0EF28FF24E210E32C22C0012B11271A
:102E50000211032D1DC0232B33272211232D18C04F
:102E6000452B55274211432D13C0672B772762113D
:102E7000632D0EC00000430C521C621CF8942EBC43
:102E80008EB57894879DF001FF5F099401C0000022
:102E9000430C8EB52EBC521C621C879DF001FF5F57
:102EA000099488249924F199832CF2CFAA24BB2475
:102EB000F199A32CEDCFCC24DD24F199C32CE8CFDC
:102EC000EE24FF24F199E32CE3CF00271127F19999
:102ED000032DDECF22273327F199232DD9CF442785
:102EE0005527F199432DD4CF66277727F199632D84
:102EF000CFCF88249924F19B832CCACFAA24BB244A
:102F0000F19BA32CC5CFCC24DD24F19BC32CC0CFD7
:102F1000EE24FF24F19BE32CBBCF00271127F19B6C
:102F2000032DB6CF22273327F19B232DB1CF442782
:102F30005527F19B432DACCF66277727F19B632D57
:102F4000A7CF88249924F099832CA2CFAA24BB244C
:102F5000F099A32C9DCFCC24DD24F099C32C98CFDD
:102F6000EE24FF24F099E32C93CF00271127F0994A
:102F7000032D8ECF22273327F099232D89CF442785
:102F80005527F099432D84CF66277727F099632D35
:102F90007FCF88249924F09B832C7ACFAA24BB244A
:102FA000F09BA32C75CFCC24DD24F09BC32C70CFD9
:102FB000EE24FF24F09BE32C6BCF00271127F09B1E
:102FC000032D66CF22273327F09B232D61CF442783
:102FD0005527F09B432D5CCF66277727F09B632D09
:102FE00057CF88249924F499832C52CFAA24BB2448
:102FF000F499A32C4DCFCC24DD24F499C32C48CFD5
:10300000EE24FF24F499E32C43CF00271127F499F1
:10301000032D3ECF22273327F499232D39CF442780
:103020005527F499432D34CF66277727F499632DDC
:103030002FCF88249924F49B832C2ACFAA24BB2445
:10304000F49BA32C25CFCC24DD24F49BC32C20CFD0
:10305000EE24FF24F49BE32C1BCF00271127F49BC5
:10306000032D16CF22273327F49B232D11CF44277E
:103070005527F49B432D0CCF66277727F49B632DB0
:1030800007CF6CC077C082C08DC098C0A3C0AEC04F
:10309000B9C0C4C0D0C0DCC0E8C0FFCFA02F5EC0A4
:1030A000A22F5CC0A42F5AC0A62F58C0A02F62C068
:1030B000A22F60C0A42F5EC0A62F5CC0A02F66C048
:1030C000A22F64C0A42F62C0A62F60C0A02F6AC028
:1030D000A22F68C0A42F66C0A62F64C0A02F6EC008
:1030E000A22F6CC0A42F6AC0A62F68C0A02F72C0E8
:1030F000A22F70C0A42F6EC0A62F6CC0A02F76C0C8
:10310000A22F74C0A42F72C0A62F70C0A02F7AC0A7
:10311000A22F78C0A42F76C0A62F74C0A02F7EC087
:10312000A22F7CC0A42F7AC0A62F78C0A02F83C066
:10313000A22F81C0A42F7FC0A62F7DC0A02F88C042
:10314000A22F86C0A42F84C0A62F82C0A02F8DC01E
:10315000A22F8BC0A42F89C0A62F87C0AF70A3FF5A
:1031600003C0102F0027A77021F0000F111FAA9590
:10317000E1F78ECEAF70A3FF03C0322F2227A770D6
:1031800021F0220F331FAA95E1F782CEAF70A3FF83
:1031900003C0542F4427A77021F0440F551FAA9550
:1031A000E1F776CEAF70A3FF03C0762F6627A77036
:1031B00021F0660F771FAA95E1F76ACEAF70A3FFE3
:1031C00003C0012F1127A77021F016950795AA9526
:1031D000E1F75ECEAF70A3FF03C0232F3327A770A4
:1031E00021F036952795AA95E1F752CEAF70A3FF4F
:1031F00003C0452F5527A77021F056954795AA95EE
:10320000E1F746CEAF70A3FF03C0672F7727A77003
:1032100021F076956795AA95E1F73ACEAF70A3FFB6
:1032200004C0012F110F110BA77021F01595079500
:10323000AA95E1F72DCEAF70A3FF04C0232F330F63
:10324000330BA77021F035952795AA95E1F720CE8D
:10325000AF70A3FF04C0452F550F550BA77021F089
:1032600055954795AA95E1F713CEAF70A3FF04C01B
:10327000672F770F770BA77021F075956795AA9543
:10328000E1F706CE440104CE450102CE460100CE50
:103290004701FECD4801FCCD4901FACD4A01F8CDE8
:1032A0004B01F6CD5401F4CD5501F2CD5601F0CDD0
:1032B0005701EECD5801ECCD5901EACD5A01E8CDC8
:1032C0005B01E6CD6401E4CD6501E2CD6601E0CDB0
:1032D0006701DECD6801DCCD6901DACD6A01D8CDA8
:1032E0006B01D6CD7401D4CD7501D2CD7601D0CD90
:1032F0007701CECD7801CCCD7901CACD7A01C8CD88
:103300007B01C6CD8401C4CD8501C2CD8601C0CD6F
:103310008701BECD8801BCCD8901BACD8A01B8CD67
:103320008B01B6CD9401B4CD9501B2CD9601B0CD4F
:103330009701AECD9801ACCD9901AACD9A01A8CD47
:103340009B01A6CDA401A4CDA501A2CDA601A0CD2F
:10335000A7019ECDA8019CCDA9019ACDAA0198CD27
:10336000AB0196CDB40194CDB50192CDB60190CD0F
:10337000B7018ECDB8018CCDB9018ACDBA0188CD07
:10338000BB0186CDD4017EC0D5017CC0D6017AC0F8
:10339000D70178C0D80176C0D90174C0DA0172C0F3
:1033A000DB0170C0D40176C0D50174C0D60172C0F3
:1033B000D70170C0D8016EC0D9016CC0DA016AC0F3
:1033C000DB0168C0D4016EC0D5016CC0D6016AC0F3
:1033D000D70168C0D80166C0D90164C0DA0162C0F3
:1033E000DB0160C0D40166C0D50164C0D60162C0F3
:1033F000D70160C0D8015EC0D9015CC0DA015AC0F3
:10340000DB0158C0D4015EC0D5015CC0D6015AC0F2
:10341000D70158C0D80156C0D90154C0DA0152C0F2
:10342000DB0150C0D40156C0D50154C0D60152C0F2
:10343000D70150C0D8014EC0D9014CC0DA014AC0F2
:10344000DB0148C0D4014EC0D5014CC0D6014AC0F2
:10345000D70148C0D80146C0D90144C0DA0142C0F2
:10346000DB0140C0D40146C0D50144C0D60142C0F2
:10347000D70140C0D8013EC0D9013CC0DA013AC0F2
:10348000DB0138C0F401EA9F4001FA9F900CEB9FEA
:10349000900CFECCF501EA9F5001FA9FB00CEB9F17
:1034A000B00CF6CCF601EA9F6001FA9FD00CEB9FBE
:1034B000D00CEECCF701EA9F7001FA9FF00CEB9F65
:1034C000F00CE6CCF801EA9F8001FA9F100DEB9F0B
:1034D000100DDECCF901EA9F9001FA9F300DEB9FB1
:1034E000300DD6CCFA01EA9FA001FA9F500DEB9F58
:1034F000500DCECCFB01EA9FB001FA9F700DEB9FFF
:10350000700DC6CC599AE3E05998EEBDA091000A1F
:10351000A50DB091010AB61D10D0BEBD08D0AEBD3C
:1035200006D04EBC04D02EBC00C007D008950000C9
:1035300000C00000000000000000000000C008956E
:10354000F894AFEFADBFAAE0AEBF2224A1E03A2EBF
:10355000A4E07A2E2092060A2092070A2092080AF6
:103560002092090A20920A0AC0E0DAE02EBAE9D0D5
:10357000A0E5ACBDA1E0ADBD1BD15998EBEAD7D019
:10358000599ADBD0E4E1F0E0459155914831C1F41E
:103590005539B1F4B591A591A093000AB093010AF1
:1035A00045915591483121F5553911F5B591A591C0
:1035B000A093020AB093030AA1E0A093060A18C0E0
:1035C0006FEFBFEFA8EF4427552782D088F06FEF49
:1035D000BFEEA8EF40EF5FEF7BD008F066C0A0EF32
:1035E000BFEFA093020AB093030AA1E0A093060ADA
:1035F000AA27B091000A6091010A8CD096D0E134DC
:1036000009F053C092D0E63509F04FC08ED0ED34AA
:1036100009F04BC08AD0E13009F047C086D0E130D4
:1036200009F043C082D04E2E80D05E2E7ED06E2E0A
:103630007CD00E2F7AD01E2F78D04E2FE093040A24
:1036400074D05E2FE093050A599A0417150708F401
:103650002CC0143028F009F028C0002309F025C040
:103660004215520521F0A091060AA0FF1EC00215C6
:10367000120589F0B091000A6091010AB39509F42E
:103680006395AA2747D0A0E0B1E04FD0ED93015059
:103690001040D9F7599A0CD035DF8EB52EBC7894EE
:1036A0000000879DF001FF5F0994F894599AFFCFBD
:1036B00025BC20926E00A2E0A4BD26BCA9EFA7BD48
:1036C000A2E0A5BBA2E0A0936E00A3E0A5BD089573
:1036D00021D02BD0E134D9F428D0E635C1F425D05F
:1036E000E435A9F422D0E13091F41FD00E2E1DD084
:1036F0001E2E599A0214120459F0A42FB52FA019A6
:10370000B109A093000AB093010A08940895599A48
:1037100088940895599A5998E3E009D0E62F07D084
:10372000EB2F05D0EA2F03D00895E22D00C0EEBDA7
:10373000FDB5F7FFFDCFEEB50895A0E2AA95F1F72C
:1037400008952998219A2A98229A23982B98599A71
:10375000519A5E98569A5C9A549A5F98579A2E9A04
:10376000269A2F9A279A2D9A259A5D9A559A289AE1
:10377000209A85988D9A86988E9A87988F9A8498A1
:103780008C9A6E98769A24982C9A81988998A1ECB4
:10379000A0937C00089588E699279A95F1F78A9579
:1037A000D9F70895AEBDBDB5B7FFFDCFAEB508954D
:1037B000F2DF5F9AF0DF5E985C98E0EDF7E38DE072
:1037C000A591F0DF8A95E1F75C9A5E9A599A08957F
:1037D000D5F08D14A1C881CFD9F1AF200000000031
:1037E000EBB5E695E695E370E1FD08C0E0FD03C0AA
:1037F000D401C5010AC0D601C70107C0E0FD03C05E
:10380000D801C90102C0DA01CB01EBB5E370E1FDDB
:1038100008C0E0FD03C00401F5010AC00601F7017C
:1038200007C0E0FD03C00801F90102C00A01FB0165
:103830002BB497FB9F779F3781F487FF0EC08F775C
:1038400099279A2B9B2B982B21F080689FE797F95B
:1038500006C080689FE797F905C097F903C027FC69
:103860006BC05CC0F7FBFF77FF3781F4E7FF0EC04A
:10387000EF77FF27F029F129FE2B21F0E068FFE721
:10388000F7F906C0E068FFE7F7F905C0F7F903C0EC
:1038900027FC52C045C027FE14C0AA2391F4BB23C5
:1038A00081F4882371F4903011F0903851F40020A5
:1038B00041F4112031F4EE2321F4F03011F1F0380D
:1038C00001F197FD03C0F7FD24C00FC0F7FF1CC036
:1038D0009F17F8F0C9F48E17E0F0B1F4B115C8F0F5
:1038E00099F4A015B0F081F40CC09F1768F089F42A
:1038F0008E1750F071F4B11538F059F4A01520F07E
:1039000041F427FC13C00CC027FC0DC026FC06C0E8
:1039100007C027FC0EC026FC03C000C0D001CF01A9
:103920002224EAB5E8C18FEF9FEF08C088279927C6
:1039300005C081E0992702C082E099272224EAB5D8
:10394000F9C10AB401FC08C000FC03C0D401C501E0
:103950000AC0D601C70107C000FC03C0D801C901D5
:1039600002C0DA01CB012BB4E92FEE0F87FDE16035
:10397000E63908F08BC0EF3700F5F92FFF77F82B09
:10398000FB2BFA2B09F482C0222091F021FC03C00A
:1039900097FF0EC007C020FC03C097FD09C002C0FE
:1039A000EE3730F0AA27BB2780E890789F636EC07F
:1039B000AA27BB278827907869C0F6E9FE1B97FBEA
:1039C0009F77EF2FE770F83090F0F03148F0232C1C
:1039D000220C082E1A2E1B2AEE2361F40B2E2AC06D
:1039E000232C0B2E1A2EEE2329F40A2E23C0222478
:1039F0000A2E1124F1E0FF0FEA95E9F7EF2FE69583
:103A0000E02111F0E2E001C0EE27FA950F22102824
:103A100009F0E160F095222049F0231421F08F2372
:103A2000BB27AA2704C0BF23AA2701C0AF23F09554
:103A3000F3950BC0F1E0EE2707FCE260112009F0DE
:103A4000E160231409F0BB27AA27E0FF1DC00BB4D7
:103A50000020D1F001FC02C0BEF406C000FC02C090
:103A60009EF002C0E1FF10C01124222049F023146F
:103A700019F08F0F911D08C0BF0F811D911D04C04B
:103A8000AF0FB11D811D911D97F900C02224EAB529
:103A900032C183FD07C02F933F934F935F936F9382
:103AA0007F9309C082FD05C04F935F936F937F930F
:103AB00002C02F933F93DF01982F9F70092E990F1B
:103AC000990F900DE7E6FDE1E90FF21D09949401CD
:103AD000A501B401C501BDC09601A701B401C5018E
:103AE000B8C0A9019801B401C501B3C09A01AB01E6
:103AF000B401C501AEC09401A501B601C701B7C0AC
:103B00009601A701B601C701B2C0A9019801B6018B
:103B1000C701ADC09A01AB01B601C701A8C0A5019C
:103B2000B801C9019401B1C0A701B801C90196014A
:103B3000ACC0A9019801B801CA01A7C0C9019A0186
:103B4000AB01B801A2C09401CB01BA01A501A9C083
:103B50009601CB01BA01A701A4C0CB01BA01A9010A
:103B600098019FC09A01AB01B901CA019AC0982F70
:103B700093709ABD11240EC0982F969596959370C8
:103B80009ABD132C19C0982F929597709ABD132C3B
:103B9000110C12C0923041F060F42F933F934F9379
:103BA0005F936F937F9313C04F935F936F937F9354
:103BB0000EC02F933F930BC011FC05C0933039F01A
:103BC0006F937F9304C0973011F06F937F93DF0161
:103BD000837081FD08C080FD03C0B401C5010AC027
:103BE000B601C70107C080FD03C0B801C90102C00A
:103BF000CB01BA01112009F45EC011FC92C072C061
:103C0000982F93709ABD112404C0982F93709ABD79
:103C1000132C933011F06F937F9310FC0EC0A82FDC
:103C2000A295A770AA0FA75FBB277C916E91872FE3
:103C3000880F880B982FDF0155C0A82FA295A77079
:103C4000AA0FA75FBB277C916E9188279927DF0178
:103C500049C0FD0111240995DB017F916F915F91AE
:103C60004F913F912F914D015C010C942109FD0171
:103C700011240995DB017F916F915F914F913F91E5
:103C80002F916D017C010C942109FD0111240995EE
:103C9000DB017F916F915F914F918D019C010C949D
:103CA0002109FD0111240995DB013F912F91AD01FF
:103CB000BC010C942109FD0111240995EAB5DB0131
:103CC000E23041F060F47F916F915F914F913F91AD
:103CD0002F9111C07F916F915F914F910CC03F91D7
:103CE0002F9109C0FD0111240995EAB5DB01E330EC
:103CF00011F07F916F91E1FD0AC0E0FD04C04D011C
:103D00005C010C9421096D017C010C942109E0FDFA
:103D100004C08D019C010C942109AD01BC010C94DF
:103D20002109FD0111240995EAB5CB01E73011F015
:103D30007F916F91E770EE0FE85FFF27819390838B
:103D40000C9421095058BB27AA270ED05BC14CD137
:103D500030F051D120F031F49F3F11F41EF441C1F5
:103D60000EF4E095E7FB29C1E92F5DD180F3BA1786
:103D7000620773078407950718F071F49EF575C103
:103D80000EF4E0950B2EBA2FA02D0B01B901900176
:103D90000C01CA01A0011124FF27591B99F0593FBA
:103DA00050F4503E68F11A16F040A22F232F342F02
:103DB0004427585FF3CF469537952795A795F04050
:103DC0005395C9F77EF41F16BA0B620B730B840B65
:103DD000BAF09150A1F0FF0FBB1F661F771F881F1D
:103DE000C2F70EC0BA0F621F731F841F48F4879575
:103DF00077956795B795F7959E3F08F0B3CF939564
:103E0000880F08F09927EE0F9795879508950CD0A5
:103E1000F9C0F1D040F0E8D030F021F45F3F19F064
:103E2000CCC0511123C1DDC0FED098F39923C9F352
:103E30005523B1F3951B550BBB27AA2762177307B0
:103E4000840738F09F5F5F4F220F331F441FAA1F64
:103E5000A9F333D00E2E3AF0E0E830D09150504024
:103E6000E695001CCAF729D0FE2F27D0660F771FD2
:103E7000881FBB1F261737074807AB07B0E809F0B4
:103E8000BB0B802DBF01FF2793585F4F2AF09E3F49
:103E9000510568F092C0EAC05F3FECF3983EDCF356
:103EA000869577956795B795F7959F5FC9F7880FC2
:103EB000911D9695879597F90895E1E0660F771F14
:103EC000881FBB1F621773078407BA0720F0621BA5
:103ED000730B840BBA0BEE1F88F7E095089504D09E
:103EE0006894B111C3C00895A6D088F09F5790F090
:103EF000B92F9927B751A0F0D1F0660F771F881F0F
:103F0000991F1AF0BA95C9F712C0B13081F0ADD03F
:103F1000B1E00895AAC0672F782F8827B85F39F0DD
:103F2000B93FCCF3869577956795B395D9F73EF46D
:103F300090958095709561957F4F8F4F9F4F089515
:103F4000E89409C097FB3EF4909580957095619533
:103F50007F4F8F4F9F4F9923A9F0F92F96E9BB27E9
:103F60009395F695879577956795B795F111F8CF65
:103F7000FAF4BB0F11F460FF1BC06F5F7F4F8F4FD0
:103F80009F4F16C0882311F096E911C0772321F0C6
:103F90009EE8872F762F05C0662371F096E8862F5E
:103FA00070E060E02AF09A95660F771F881FDAF7B5
:103FB000880F9695879597F9089597F99F6780E8F8
:103FC00070E060E008959F3F31F0915020F48795B4
:103FD00077956795B795880F911D9695879597F971
:103FE00008959FEF80EC089500240A941616170692
:103FF00018060906089500240A94121613061406DA
:1040000005060895092E0394000C11F4882352F03C
:10401000BB0F40F4BF2B11F460FF04C06F5F7F4FF4
:104020008F4F9F4F089557FD9058440F551F59F0DB
:104030005F3F71F04795880F97FB991F61F09F3F95
:1040400079F087950895121613061406551FF2CFBE
:104050004695F1DF08C0161617061806991FF1CF0E
:1040600086957105610508940895E894BB27662735
:104070007727CB0197F908950BD0C4CFB5DF28F08F
:10408000BADF18F0952309F098CFABCF1124EECF0B
:10409000CADFA0F3959FD1F3950F50E0551F629FA3
:1040A000F001729FBB27F00DB11D639FAA27F00D91
:1040B000B11DAA1F649F6627B00DA11D661F829FB8
:1040C0002227B00DA11D621F739FB00DA11D621F9D
:1040D000839FA00D611D221F749F3327A00D611DBA
:1040E000231F849F600D211D822F762F6A2F11249C
:1040F0009F5750408AF0E1F088234AF0EE0FFF1FEF
:10410000BB1F661F771F881F91505040A9F79E3F25
:10411000510570F052CFAACF5F3FECF3983EDCF32D
:10412000869577956795B795F795E7959F5FC1F762
:10413000FE2B880F911D9695879597F9089511F498
:104140000EF44FCF40CF77DFD0F39923D9F3CEF3DE
:104150009F57550B87FF35D00024A0E640EA900119
:1041600080585695979528F4805C660F771F881FB6
:1041700020F026173707480730F4621B730B840BB7
:10418000202931294A2BA6951794079420253125FB
:104190004A2758F7660F771F881F20F02617370722
:1041A000480730F4620B730B840B200D311D411D49
:1041B000A09581F7B901842F9158880F969587951E
:1041C000089591505040660F771F881FD2F70895C9
:00000001FF
