:100000000C9457000C9456000C9456000C94560017
:100010000C9456000C9456000C9456000C94560008
:100020000C9456000C9456000C9456000C945600F8
:100030000C9456000C9456000C9456000C945600E8
:100040000C9456000C9456000C9456000C945600D8
:100050000C9456000C9456000C9456000C945600C8
:100060000C9456000C9456000C9456000C945600B8
:100070000C9456000C9456000C9456000C945600A8
:100080000C9456000C9456000C9456000C94560098
:100090000C9456000C9456000C9456000C94560088
:1000A0000C9456000C9456000C945600FFCF0C9400
:1000B0009718000000000000000000000000000091
:1000C0000000000000000000000000000000000030
:1000D0000000000000000000000000000000000020
:1000E0000000000000000000000000000000000010
:1000F0000000000000000000000000000000000000
:1001000000000000000000000000000000000000EF
:1001100000000000000000000000000000000000DF
:1001200000000000000000000000000000000000CF
:1001300000000000000000000000000000000000BF
:1001400000000000000000000000000000000000AF
:10015000000000000000000000000000000000009F
:10016000000000000000000000000000000000008F
:10017000000000000000000000000000000000007F
:10018000000000000000000000000000000000006F
:10019000000000000000000000000000000000005F
:1001A000000000000000000000000000000000004F
:1001B000000000000000000000000000000000003F
:1001C000000000000000000000000000000000002F
:1001D000000000000000000000000000000000001F
:1001E000000000000000000000000000000000000F
:1001F00000000000000000000000000000000000FF
:10020000C895002711270196F8942EBC6EB47894F7
:10021000679CF001FF5F09940000000000000000EF
:1002200000C000C089010196F8942EBC6EB4789489
:10023000679CF001FF5F09940000000000000000CF
:1002400000C000C08A010196F8942EBC6EB4789468
:10025000679CF001FF5F09940000000000000000AF
:1002600000C000C08B010196F8942EBC6EB4789447
:10027000679CF001FF5F099400000000000000008F
:1002800000C000C098010196F8942EBC6EB478941A
:10029000679CF001FF5F099400000000000000006F
:1002A000C895222733270196F8942EBC6EB4789413
:1002B000679CF001FF5F099400000000000000004F
:1002C00000C000C09A010196F8942EBC6EB47894D8
:1002D000679CF001FF5F099400000000000000002F
:1002E00000C000C09B010196F8942EBC6EB47894B7
:1002F000679CF001FF5F099400000000000000000F
:1003000000C000C0A8010196F8942EBC6EB4789489
:10031000679CF001FF5F09940000000000000000EE
:1003200000C000C0A9010196F8942EBC6EB4789468
:10033000679CF001FF5F09940000000000000000CE
:10034000C895442755270196F8942EBC6EB478942E
:10035000679CF001FF5F09940000000000000000AE
:1003600000C000C0AB010196F8942EBC6EB4789426
:10037000679CF001FF5F099400000000000000008E
:1003800000C000C0B8010196F8942EBC6EB47894F9
:10039000679CF001FF5F099400000000000000006E
:1003A00000C000C0B9010196F8942EBC6EB47894D8
:1003B000679CF001FF5F099400000000000000004E
:1003C00000C000C0BA010196F8942EBC6EB47894B7
:1003D000679CF001FF5F099400000000000000002E
:1003E000C895662777270196F8942EBC6EB478944A
:1003F000679CF001FF5F099400000000000000000E
:100400000000D8010C9111270196F8942EBC6EB40F
:100410007894679CF001FF5F0994000000000000E1
:100420000000D9010C9111270196F8942EBC6EB4EE
:100430007894679CF001FF5F0994000000000000C1
:100440000000DA010C9111270196F8942EBC6EB4CD
:100450007894679CF001FF5F0994000000000000A1
:100460000000DB010C9111270196F8942EBC6EB4AC
:100470007894679CF001FF5F099400000000000081
:100480000000D8012C9133270196F8942EBC6EB44D
:100490007894679CF001FF5F099400000000000061
:1004A0000000D9012C9133270196F8942EBC6EB42C
:1004B0007894679CF001FF5F099400000000000041
:1004C0000000DA012C9133270196F8942EBC6EB40B
:1004D0007894679CF001FF5F099400000000000021
:1004E0000000DB012C9133270196F8942EBC6EB4EA
:1004F0007894679CF001FF5F099400000000000001
:100500000000D8014C9155270196F8942EBC6EB48A
:100510007894679CF001FF5F0994000000000000E0
:100520000000D9014C9155270196F8942EBC6EB469
:100530007894679CF001FF5F0994000000000000C0
:100540000000DA014C9155270196F8942EBC6EB448
:100550007894679CF001FF5F0994000000000000A0
:100560000000DB014C9155270196F8942EBC6EB427
:100570007894679CF001FF5F099400000000000080
:100580000000D8016C9177270196F8942EBC6EB4C8
:100590007894679CF001FF5F099400000000000060
:1005A0000000D9016C9177270196F8942EBC6EB4A7
:1005B0007894679CF001FF5F099400000000000040
:1005C0000000DA016C9177270196F8942EBC6EB486
:1005D0007894679CF001FF5F099400000000000020
:1005E0000000DB016C9177270196F8942EBC6EB465
:1005F0007894679CF001FF5F099400000000000000
:1006000000C0D8010C930196F8942EBC6EB4789477
:10061000679CF001FF5F09940000000000000000EB
:1006200000C0D8012C930196F8942EBC6EB4789437
:10063000679CF001FF5F09940000000000000000CB
:1006400000C0D8014C930196F8942EBC6EB47894F7
:10065000679CF001FF5F09940000000000000000AB
:1006600000C0D8016C930196F8942EBC6EB47894B7
:10067000679CF001FF5F099400000000000000008B
:1006800000C0D9010C930196F8942EBC6EB47894F6
:10069000679CF001FF5F099400000000000000006B
:1006A00000C0D9012C930196F8942EBC6EB47894B6
:1006B000679CF001FF5F099400000000000000004B
:1006C00000C0D9014C930196F8942EBC6EB4789476
:1006D000679CF001FF5F099400000000000000002B
:1006E00000C0D9016C930196F8942EBC6EB4789436
:1006F000679CF001FF5F099400000000000000000B
:1007000000C0DA010C930196F8942EBC6EB4789474
:10071000679CF001FF5F09940000000000000000EA
:1007200000C0DA012C930196F8942EBC6EB4789434
:10073000679CF001FF5F09940000000000000000CA
:1007400000C0DA014C930196F8942EBC6EB47894F4
:10075000679CF001FF5F09940000000000000000AA
:1007600000C0DA016C930196F8942EBC6EB47894B4
:10077000679CF001FF5F099400000000000000008A
:1007800000C0DB010C930196F8942EBC6EB47894F3
:10079000679CF001FF5F099400000000000000006A
:1007A00000C0DB012C930196F8942EBC6EB47894B3
:1007B000679CF001FF5F099400000000000000004A
:1007C00000C0DB014C930196F8942EBC6EB4789473
:1007D000679CF001FF5F099400000000000000002A
:1007E00000C0DB016C930196F8942EBC6EB4789433
:1007F000679CF001FF5F099400000000000000000A
:10080000D8010D911C910196F8942EBC6EB4789489
:10081000679CF001FF5F09940000000000000000E9
:10082000D9010D911C910196F8942EBC6EB4789468
:10083000679CF001FF5F09940000000000000000C9
:10084000DA010D911C910196F8942EBC6EB4789447
:10085000679CF001FF5F09940000000000000000A9
:10086000DB010D911C910196F8942EBC6EB4789426
:10087000679CF001FF5F0994000000000000000089
:10088000D8012D913C910196F8942EBC6EB47894C9
:10089000679CF001FF5F0994000000000000000069
:1008A000D9012D913C910196F8942EBC6EB47894A8
:1008B000679CF001FF5F0994000000000000000049
:1008C000DA012D913C910196F8942EBC6EB4789487
:1008D000679CF001FF5F0994000000000000000029
:1008E000DB012D913C910196F8942EBC6EB4789466
:1008F000679CF001FF5F0994000000000000000009
:10090000D8014D915C910196F8942EBC6EB4789408
:10091000679CF001FF5F09940000000000000000E8
:10092000D9014D915C910196F8942EBC6EB47894E7
:10093000679CF001FF5F09940000000000000000C8
:10094000DA014D915C910196F8942EBC6EB47894C6
:10095000679CF001FF5F09940000000000000000A8
:10096000DB014D915C910196F8942EBC6EB47894A5
:10097000679CF001FF5F0994000000000000000088
:10098000D8016D917C910196F8942EBC6EB4789448
:10099000679CF001FF5F0994000000000000000068
:1009A000D9016D917C910196F8942EBC6EB4789427
:1009B000679CF001FF5F0994000000000000000048
:1009C000DA016D917C910196F8942EBC6EB4789406
:1009D000679CF001FF5F0994000000000000000028
:1009E000DB016D917C910196F8942EBC6EB47894E5
:1009F000679CF001FF5F0994000000000000000008
:100A0000D8010D931C930196F8942EBC6EB4789483
:100A1000679CF001FF5F09940000000000000000E7
:100A2000D8012D933C930196F8942EBC6EB4789423
:100A3000679CF001FF5F09940000000000000000C7
:100A4000D8014D935C930196F8942EBC6EB47894C3
:100A5000679CF001FF5F09940000000000000000A7
:100A6000D8016D937C930196F8942EBC6EB4789463
:100A7000679CF001FF5F0994000000000000000087
:100A8000D9010D931C930196F8942EBC6EB4789402
:100A9000679CF001FF5F0994000000000000000067
:100AA000D9012D933C930196F8942EBC6EB47894A2
:100AB000679CF001FF5F0994000000000000000047
:100AC000D9014D935C930196F8942EBC6EB4789442
:100AD000679CF001FF5F0994000000000000000027
:100AE000D9016D937C930196F8942EBC6EB47894E2
:100AF000679CF001FF5F0994000000000000000007
:100B0000DA010D931C930196F8942EBC6EB4789480
:100B1000679CF001FF5F09940000000000000000E6
:100B2000DA012D933C930196F8942EBC6EB4789420
:100B3000679CF001FF5F09940000000000000000C6
:100B4000DA014D935C930196F8942EBC6EB47894C0
:100B5000679CF001FF5F09940000000000000000A6
:100B6000DA016D937C930196F8942EBC6EB4789460
:100B7000679CF001FF5F0994000000000000000086
:100B8000DB010D931C930196F8942EBC6EB47894FF
:100B9000679CF001FF5F0994000000000000000066
:100BA000DB012D933C930196F8942EBC6EB478949F
:100BB000679CF001FF5F0994000000000000000046
:100BC000DB014D935C930196F8942EBC6EB478943F
:100BD000679CF001FF5F0994000000000000000026
:100BE000DB016D937C930196F8942EBC6EB47894DF
:100BF000679CF001FF5F0994000000000000000006
:100C0000C895082119210196F8942EBC6EB47894E9
:100C1000679CF001FF5F09940000000000000000E5
:100C2000C8950A211B210196F8942EBC6EB47894C5
:100C3000679CF001FF5F09940000000000000000C5
:100C4000C8950C211D210196F8942EBC6EB47894A1
:100C5000679CF001FF5F09940000000000000000A5
:100C6000C8950E211F210196F8942EBC6EB478947D
:100C7000679CF001FF5F0994000000000000000085
:100C8000C895002311230196F8942EBC6EB4789475
:100C9000679CF001FF5F0994000000000000000065
:100CA000C895022313230196F8942EBC6EB4789451
:100CB000679CF001FF5F0994000000000000000045
:100CC000C895042315230196F8942EBC6EB478942D
:100CD000679CF001FF5F0994000000000000000025
:100CE000C895062317230196F8942EBC6EB4789409
:100CF000679CF001FF5F0994000000000000000005
:100D0000C895082919290196F8942EBC6EB47894D8
:100D1000679CF001FF5F09940000000000000000E4
:100D2000C8950A291B290196F8942EBC6EB47894B4
:100D3000679CF001FF5F09940000000000000000C4
:100D4000C8950C291D290196F8942EBC6EB4789490
:100D5000679CF001FF5F09940000000000000000A4
:100D6000C8950E291F290196F8942EBC6EB478946C
:100D7000679CF001FF5F0994000000000000000084
:100D8000C895002B112B0196F8942EBC6EB4789464
:100D9000679CF001FF5F0994000000000000000064
:100DA000C895022B132B0196F8942EBC6EB4789440
:100DB000679CF001FF5F0994000000000000000044
:100DC000C895042B152B0196F8942EBC6EB478941C
:100DD000679CF001FF5F0994000000000000000024
:100DE000C895062B172B0196F8942EBC6EB47894F8
:100DF000679CF001FF5F0994000000000000000004
:100E0000C895082519250196F8942EBC6EB47894DF
:100E1000679CF001FF5F09940000000000000000E3
:100E2000C8950A251B250196F8942EBC6EB47894BB
:100E3000679CF001FF5F09940000000000000000C3
:100E4000C8950C251D250196F8942EBC6EB4789497
:100E5000679CF001FF5F09940000000000000000A3
:100E6000C8950E251F250196F8942EBC6EB4789473
:100E7000679CF001FF5F0994000000000000000083
:100E8000C895002711270196F8942EBC6EB478946B
:100E9000679CF001FF5F0994000000000000000063
:100EA000C895022713270196F8942EBC6EB4789447
:100EB000679CF001FF5F0994000000000000000043
:100EC000C895042715270196F8942EBC6EB4789423
:100ED000679CF001FF5F0994000000000000000023
:100EE000C895062717270196F8942EBC6EB47894FF
:100EF000679CF001FF5F0994000000000000000003
:100F0000240140945094042115210196F8942EBC9C
:100F10006EB47894679CF001FF5F099400000000B4
:100F2000250140945094042115210196F8942EBC7B
:100F30006EB47894679CF001FF5F09940000000094
:100F4000260140945094042115210196F8942EBC5A
:100F50006EB47894679CF001FF5F09940000000074
:100F6000270140945094042115210196F8942EBC39
:100F70006EB47894679CF001FF5F09940000000054
:100F8000280140945094042115210196F8942EBC18
:100F90006EB47894679CF001FF5F09940000000034
:100FA000290140945094042115210196F8942EBCF7
:100FB0006EB47894679CF001FF5F09940000000014
:100FC0002A0140945094042115210196F8942EBCD6
:100FD0006EB47894679CF001FF5F099400000000F4
:100FE0002B0140945094042115210196F8942EBCB5
:100FF0006EB47894679CF001FF5F099400000000D4
:1010000000009A928A920196F8942EBC6EB478945D
:10101000679CF001FF5F09940000000000000000E1
:101020000000BA92AA920196F8942EBC6EB47894FD
:10103000679CF001FF5F09940000000000000000C1
:101040000000DA92CA920196F8942EBC6EB478949D
:10105000679CF001FF5F09940000000000000000A1
:101060000000FA92EA920196F8942EBC6EB478943D
:10107000679CF001FF5F0994000000000000000081
:1010800000001A930A930196F8942EBC6EB47894DB
:10109000679CF001FF5F0994000000000000000061
:1010A00000003A932A930196F8942EBC6EB478947B
:1010B000679CF001FF5F0994000000000000000041
:1010C00000005A934A930196F8942EBC6EB478941B
:1010D000679CF001FF5F0994000000000000000021
:1010E00000007A936A930196F8942EBC6EB47894BB
:1010F000679CF001FF5F0994000000000000000001
:101100000000899099900196F8942EBC6EB4789462
:10111000679CF001FF5F09940000000000000000E0
:101120000000A990B9900196F8942EBC6EB4789402
:10113000679CF001FF5F09940000000000000000C0
:101140000000C990D9900196F8942EBC6EB47894A2
:10115000679CF001FF5F09940000000000000000A0
:101160000000E990F9900196F8942EBC6EB4789442
:10117000679CF001FF5F0994000000000000000080
:101180000000099119910196F8942EBC6EB47894E0
:10119000679CF001FF5F0994000000000000000060
:1011A0000000299139910196F8942EBC6EB4789480
:1011B000679CF001FF5F0994000000000000000040
:1011C0000000499159910196F8942EBC6EB4789420
:1011D000679CF001FF5F0994000000000000000020
:1011E0000000699179910196F8942EBC6EB47894C0
:1011F000679CF001FF5F0994000000000000000000
:1012000000C0000F111F3FB60196F8942EBC6EB4BB
:101210007894679CF001FF5F0994000000000000D3
:1012200000C0020F131F3FB60196F8942EBC6EB497
:101230007894679CF001FF5F0994000000000000B3
:1012400000C0040F151F3FB60196F8942EBC6EB473
:101250007894679CF001FF5F099400000000000093
:1012600000C0060F171F3FB60196F8942EBC6EB44F
:101270007894679CF001FF5F099400000000000073
:1012800000C0200F311F3FB60196F8942EBC6EB4FB
:101290007894679CF001FF5F099400000000000053
:1012A00000C0220F331F3FB60196F8942EBC6EB4D7
:1012B0007894679CF001FF5F099400000000000033
:1012C00000C0240F351F3FB60196F8942EBC6EB4B3
:1012D0007894679CF001FF5F099400000000000013
:1012E00000C0260F371F3FB60196F8942EBC6EB48F
:1012F0007894679CF001FF5F0994000000000000F3
:1013000000C0400F511F3FB60196F8942EBC6EB43A
:101310007894679CF001FF5F0994000000000000D2
:1013200000C0420F531F3FB60196F8942EBC6EB416
:101330007894679CF001FF5F0994000000000000B2
:1013400000C0440F551F3FB60196F8942EBC6EB4F2
:101350007894679CF001FF5F099400000000000092
:1013600000C0460F571F3FB60196F8942EBC6EB4CE
:101370007894679CF001FF5F099400000000000072
:1013800000C0600F711F3FB60196F8942EBC6EB47A
:101390007894679CF001FF5F099400000000000052
:1013A00000C0620F731F3FB60196F8942EBC6EB456
:1013B0007894679CF001FF5F099400000000000032
:1013C00000C0640F751F3FB60196F8942EBC6EB432
:1013D0007894679CF001FF5F099400000000000012
:1013E00000C0660F771F3FB60196F8942EBC6EB40E
:1013F0007894679CF001FF5F0994000000000000F2
:1014000000C0001B110B3FB60196F8942EBC6EB4C1
:101410007894679CF001FF5F0994000000000000D1
:1014200000C0021B130B3FB60196F8942EBC6EB49D
:101430007894679CF001FF5F0994000000000000B1
:1014400000C0041B150B3FB60196F8942EBC6EB479
:101450007894679CF001FF5F099400000000000091
:1014600000C0061B170B3FB60196F8942EBC6EB455
:101470007894679CF001FF5F099400000000000071
:1014800000C0201B310B3FB60196F8942EBC6EB401
:101490007894679CF001FF5F099400000000000051
:1014A00000C0221B330B3FB60196F8942EBC6EB4DD
:1014B0007894679CF001FF5F099400000000000031
:1014C00000C0241B350B3FB60196F8942EBC6EB4B9
:1014D0007894679CF001FF5F099400000000000011
:1014E00000C0261B370B3FB60196F8942EBC6EB495
:1014F0007894679CF001FF5F0994000000000000F1
:1015000000C0401B510B3FB60196F8942EBC6EB440
:101510007894679CF001FF5F0994000000000000D0
:1015200000C0421B530B3FB60196F8942EBC6EB41C
:101530007894679CF001FF5F0994000000000000B0
:1015400000C0441B550B3FB60196F8942EBC6EB4F8
:101550007894679CF001FF5F099400000000000090
:1015600000C0461B570B3FB60196F8942EBC6EB4D4
:101570007894679CF001FF5F099400000000000070
:1015800000C0601B710B3FB60196F8942EBC6EB480
:101590007894679CF001FF5F099400000000000050
:1015A00000C0621B730B3FB60196F8942EBC6EB45C
:1015B0007894679CF001FF5F099400000000000030
:1015C00000C0641B750B3FB60196F8942EBC6EB438
:1015D0007894679CF001FF5F099400000000000010
:1015E00000C0661B770B3FB60196F8942EBC6EB414
:1015F0007894679CF001FF5F0994000000000000F0
:1016000000C0021512053FB60196F8942EBC6EB4C8
:101610007894679CF001FF5F0994000000000000CF
:1016200000C0021713073FB60196F8942EBC6EB4A3
:101630007894679CF001FF5F0994000000000000AF
:1016400000C0041715073FB60196F8942EBC6EB47F
:101650007894679CF001FF5F09940000000000008F
:1016600000C0061717073FB60196F8942EBC6EB45B
:101670007894679CF001FF5F09940000000000006F
:1016800000C0201731073FB60196F8942EBC6EB407
:101690007894679CF001FF5F09940000000000004F
:1016A00000C0221532053FB60196F8942EBC6EB4E8
:1016B0007894679CF001FF5F09940000000000002F
:1016C00000C0241735073FB60196F8942EBC6EB4BF
:1016D0007894679CF001FF5F09940000000000000F
:1016E00000C0261737073FB60196F8942EBC6EB49B
:1016F0007894679CF001FF5F0994000000000000EF
:1017000000C0401751073FB60196F8942EBC6EB446
:101710007894679CF001FF5F0994000000000000CE
:1017200000C0421753073FB60196F8942EBC6EB422
:101730007894679CF001FF5F0994000000000000AE
:1017400000C0421552053FB60196F8942EBC6EB407
:101750007894679CF001FF5F09940000000000008E
:1017600000C0461757073FB60196F8942EBC6EB4DA
:101770007894679CF001FF5F09940000000000006E
:1017800000C0601771073FB60196F8942EBC6EB486
:101790007894679CF001FF5F09940000000000004E
:1017A00000C0621773073FB60196F8942EBC6EB462
:1017B0007894679CF001FF5F09940000000000002E
:1017C00000C0641775073FB60196F8942EBC6EB43E
:1017D0007894679CF001FF5F09940000000000000E
:1017E00000C0621572053FB60196F8942EBC6EB427
:1017F0007894679CF001FF5F0994000000000000EE
:10180000C89502153FB60196F8942EBC6EB4789434
:10181000679CF001FF5F09940000000000000000D9
:10182000C89502173FB60196F8942EBC6EB4789412
:10183000679CF001FF5F09940000000000000000B9
:10184000C89504173FB60196F8942EBC6EB47894F0
:10185000679CF001FF5F0994000000000000000099
:10186000C89506173FB60196F8942EBC6EB47894CE
:10187000679CF001FF5F0994000000000000000079
:10188000C89520173FB60196F8942EBC6EB4789494
:10189000679CF001FF5F0994000000000000000059
:1018A000C89522153FB60196F8942EBC6EB4789474
:1018B000679CF001FF5F0994000000000000000039
:1018C000C89524173FB60196F8942EBC6EB4789450
:1018D000679CF001FF5F0994000000000000000019
:1018E000C89526173FB60196F8942EBC6EB478942E
:1018F000679CF001FF5F09940000000000000000F9
:10190000C89540173FB60196F8942EBC6EB47894F3
:10191000679CF001FF5F09940000000000000000D8
:10192000C89542173FB60196F8942EBC6EB47894D1
:10193000679CF001FF5F09940000000000000000B8
:10194000C89542153FB60196F8942EBC6EB47894B3
:10195000679CF001FF5F0994000000000000000098
:10196000C89546173FB60196F8942EBC6EB478948D
:10197000679CF001FF5F0994000000000000000078
:10198000C89560173FB60196F8942EBC6EB4789453
:10199000679CF001FF5F0994000000000000000058
:1019A000C89562173FB60196F8942EBC6EB4789431
:1019B000679CF001FF5F0994000000000000000038
:1019C000C89564173FB60196F8942EBC6EB478940F
:1019D000679CF001FF5F0994000000000000000018
:1019E000C89562153FB60196F8942EBC6EB47894F3
:1019F000679CF001FF5F09940000000000000000F8
:101A000031FE67C40196895090400C940511000086
:101A100000000000000000000000000000000000C6
:101A200031FE57C40196885090400C940511000077
:101A300000000000000000000000000000000000A6
:101A400031FE47C40196875090400C940511000068
:101A50000000000000000000000000000000000086
:101A600031FE37C40196865090400C940511000059
:101A70000000000000000000000000000000000066
:101A800031FE27C40196855090400C94051100004A
:101A90000000000000000000000000000000000046
:101AA00031FE17C40196845090400C94051100003B
:101AB0000000000000000000000000000000000026
:101AC00031FE07C40196835090400C94051100002C
:101AD0000000000000000000000000000000000006
:101AE00031FEF7C30196825090400C94051100001E
:101AF00000000000000000000000000000000000E6
:101B000031FEE7C301968F5F9F4F0C9405110000D3
:101B100000000000000000000000000000000000C5
:101B200031FED7C301968E5F9F4F0C9405110000C4
:101B300000000000000000000000000000000000A5
:101B400031FEC7C301968D5F9F4F0C9405110000B5
:101B50000000000000000000000000000000000085
:101B600031FEB7C301968C5F9F4F0C9405110000A6
:101B70000000000000000000000000000000000065
:101B800031FEA7C301968B5F9F4F0C940511000097
:101B90000000000000000000000000000000000045
:101BA00031FE97C301968A5F9F4F0C940511000088
:101BB0000000000000000000000000000000000025
:101BC00031FE87C30196895F9F4F0C940511000079
:101BD0000000000000000000000000000000000005
:101BE00031FE77C30196885F9F4F0C94051100006A
:101BF00000000000000000000000000000000000E5
:101C000031FC67C30196895090400C940511000087
:101C100000000000000000000000000000000000C4
:101C200031FC57C30196885090400C940511000078
:101C300000000000000000000000000000000000A4
:101C400031FC47C30196875090400C940511000069
:101C50000000000000000000000000000000000084
:101C600031FC37C30196865090400C94051100005A
:101C70000000000000000000000000000000000064
:101C800031FC27C30196855090400C94051100004B
:101C90000000000000000000000000000000000044
:101CA00031FC17C30196845090400C94051100003C
:101CB0000000000000000000000000000000000024
:101CC00031FC07C30196835090400C94051100002D
:101CD0000000000000000000000000000000000004
:101CE00031FCF7C20196825090400C94051100001F
:101CF00000000000000000000000000000000000E4
:101D000031FCE7C201968F5F9F4F0C9405110000D4
:101D100000000000000000000000000000000000C3
:101D200031FCD7C201968E5F9F4F0C9405110000C5
:101D300000000000000000000000000000000000A3
:101D400031FCC7C201968D5F9F4F0C9405110000B6
:101D50000000000000000000000000000000000083
:101D600031FCB7C201968C5F9F4F0C9405110000A7
:101D70000000000000000000000000000000000063
:101D800031FCA7C201968B5F9F4F0C940511000098
:101D90000000000000000000000000000000000043
:101DA00031FC97C201968A5F9F4F0C940511000089
:101DB0000000000000000000000000000000000023
:101DC00031FC87C20196895F9F4F0C94051100007A
:101DD0000000000000000000000000000000000003
:101DE00031FC77C20196885F9F4F0C94051100006B
:101DF00000000000000000000000000000000000E3
:101E00000196C89578C200000000000000000000A4
:101E100000000000000000000000000000000000C2
:101E2000019600C00C94E31C0000000000000000BC
:101E300000000000000000000000000000000000A2
:101E40000C9463110000000000000000000000007E
:101E50000000000000000000000000000000000082
:101E60000196C89551C2000000000000000000006B
:101E70000000000000000000000000000000000062
:101E80000196C8953CC4000000000000000000005E
:101E90000000000000000000000000000000000042
:101EA000BCC10000000000000000000000000000B5
:101EB0000000000000000000000000000000000022
:101EC000B7C100000000000000000000000000009A
:101ED0000000000000000000000000000000000002
:101EE000B3C100000000000000000000000000007E
:101EF00000000000000000000000000000000000E2
:101F000000C000C0C895F8942EBC6EB478940196B9
:101F10006BBCDDC1000000000000000000000000FC
:101F20000196C89500C400000000000000000000F9
:101F300000000000000000000000000000000000A1
:101F40009AC1000000000000000000000000000036
:101F50000000000000000000000000000000000081
:101F60008DC1000000000000000000000000000023
:101F70000000000000000000000000000000000061
:101F8000C895A8C10000000000000000000000008B
:101F90000000000000000000000000000000000041
:101FA0000C9464110000000000000000000000001C
:101FB0000000000000000000000000000000000021
:101FC0000C946411000000000000000000000000FC
:101FD0000000000000000000000000000000000001
:101FE0000C946411000000000000000000000000DC
:101FF00000000000000000000000000000000000E1
:1020000000C000C0C895F8942EBC0EB57894019617
:1020100011275DC10000000000000000000000006A
:1020200000C000C0C895F8942EBC2EB578940196D7
:1020300033274DC100000000000000000000000038
:1020400000C000C0C895F8942EBC4EB57894019697
:1020500055273DC100000000000000000000000006
:1020600000C000C0C895F8942EBC6EB57894019657
:1020700077272DC1000000000000000000000000D4
:10208000019600C00C94791A0000000000000000C6
:102090000000000000000000000000000000000040
:1020A000019600C000C00000F8942EBC6EB4789475
:1020B00031FE19C11AC1000000000000000000003C
:1020C000019600C000C00000F8942EBC6EB4789455
:1020D00031FC09C10AC1000000000000000000003E
:1020E000019600C000C00000F8942EBC6EB4789435
:1020F00030FEF9C0FAC0000000000000000000003F
:10210000019600C000C00000F8942EBC6EB4789414
:1021100030FCE9C0EAC00000000000000000000040
:10212000019600C000C00000F8942EBC6EB47894F4
:1021300034FED9C0DAC0000000000000000000003A
:10214000019600C000C00000F8942EBC6EB47894D4
:1021500034FCC9C0CAC0000000000000000000003C
:10216000019600C000C00000F8942EBC6EB47894B4
:10217000A32DA37009F4B7C0B8C000000000000090
:10218000019600C000C00000F8942EBC6EB4789494
:10219000A32DA37009F0A7C0A8C000000000000094
:1021A0000196C895D1C300000000000000000000A7
:1021B000000000000000000000000000000000001F
:1021C00062C00000000000000000000000000000ED
:1021D00000000000000000000000000000000000FF
:1021E0006BC00000000000000000000000000000C4
:1021F00000000000000000000000000000000000DF
:10220000AAB5AA939A938A93089573D76EB42EBCF5
:1022100000C0679CF001FF5F0994019600C000C0F8
:1022200000C06EB40196860D921D67FC9A95EDCFA5
:10223000019600C000C000C06EB40196E1DF860DBB
:10224000921D67FC9A95E1CF019600C000C0000086
:10225000F8942EBC6EB47894C60DD21D67FCDA9546
:1022600065D738C000C000C000C000C02EBC4EB44E
:1022700056D75EB40895F6DFC201C7CFF3DF0396E9
:10228000BFDFC201C2CF00C000C000C000C02EBC72
:102290004EB445D72EBC5EB442D76EB440FC05C0E8
:1022A0004694440CC2016ABCB0CF4694440C0496D8
:1022B000A7DFC2016ABCA9CF8991999169906ABCD4
:1022C00000C000C0A2CFFFCFFFCFFFCFFFCF00C025
:1022D00000C000C00196F8942EBC6EB47894679C40
:1022E000F001FF5F099422D7F5CF0196860D921D6C
:1022F00067FC9A958ACFF8942EBC6EB47894E8E97E
:10230000F1E1E60DF21D0994F8942EBC6EB47894B8
:10231000A62DA07C39F4660CE2EFF9E1E60DF21D82
:1023200000000994A03C11F00C94A1190C94B5196B
:10233000FFC0FEC0FDC0FCC0FBC0FAC0F9C0F8C0C1
:1023400003C102C101C100C1FFC0FEC0FDC0FCC08D
:1023500009C108C107C106C105C104C103C102C149
:102360000EC10DC10CC10BC10AC109C108C107C111
:10237000AACFA9CFA8CFA7CFA8CFA7CFA6CFA5CFA9
:102380000CC10BC10AC109C108C107C106C105C101
:102390009ACF99CF98CF97CF96CF95CF94CF93CF11
:1023A00092CF91CF90CF8FCF8ECF8DCF8CCF8BCF41
:1023B0008ACF89CF88CF87CF86CF85CF84CF83CF71
:1023C00084CF83CF82CF81CF80CF7FCF7ECF7DCF91
:1023D0007CCF7BCF7ACF79CF78CF77CF76CF75CFC1
:1023E000E8C0E7C0E6C0E5C0E4C0E3C0E2C0E1C0C9
:1023F000E9C0E8C0E7C0E6C0E5C0E4C0E3C0E2C0B1
:10240000E9C0E8C0E7C0E6C0E5C0E4C0E3C0E2C0A0
:10241000EAC0E9C0E8C0E7C0E6C0E5C0E4C0E3C088
:10242000EAC0E9C0E8C0E7C0E6C0E5C0E4C0E3C078
:10243000EDC0ECC0EBC0EAC0E9C0E8C0E7C0E6C050
:1024400036C135C134C133C140CF3FCF3ECF3DCF80
:10245000DDC0DCC0DBC0DAC0D9C0D8C0D7C0D6C0B0
:10246000D5C0D4C0D3C0D2C0D1C0D0C0CFC0CEC0E0
:10247000CDC0CCC0CBC0CAC0C9C0C8C0C7C0C6C010
:10248000C5C0C4C0C3C0C2C0C1C0C0C0BFC0BEC040
:10249000BDC0BCC0BBC0BAC0B9C0B8C0B7C0B6C070
:1024A000B5C0B4C0B3C0B2C0B1C0B0C0AFC0AEC0A0
:1024B000FEC0FDC0FCC0FBC0FAC0F9C0F8C0F7C048
:1024C00002CF01CF00CFFFCEFECEFDCEFCCEFBCEA5
:1024D000FACEF9CEF8CEF7CEF6CEF5CEF4CEF3CED8
:1024E000F2CEF1CEF0CEEFCEEECEEDCEECCEEBCE08
:1024F000EACEE9CEE8CEE7CEE6CEE5CEE4CEE3CE38
:10250000EAC0E9C0E8C0E7C0E0CEDFCEDECEDDCE77
:10251000EDC0ECC0EBC0EAC0D8CED7CED6CED5CE7B
:10252000D4CED3CED2CED1CED0CECFCECECECDCEB7
:10253000A62DA770AA0FA85FBB274D905C90409472
:1025400050945C924E92A7C5A62DA770AA0FA85FC3
:10255000BB274D905C90022C122C041815081C927D
:102560000E9299C5A62DA770AA0FA85FBB274D9004
:102570005C90439409F453945C924E928CC5A62DC2
:10258000A770AA0FA85FBB274D905C90442009F468
:102590005A944A945C924E927EC5A62DA770AA0FBB
:1025A000A85FBB274D905C90569447945C924E92E6
:1025B00072C5A62DA770AA0FA85FBB274C904294A6
:1025C0004C9269C5A62DA770AA0FA85FBB27CD9313
:1025D000DC9361C5A62DA770AA0FA85FBB274D90FD
:1025E0005C90E20158C5A62DA770AA0FA85FBB2773
:1025F0004C904BBC50C5A62DA770AA0FA85FBB2757
:102600004BB44D922C9247C5C89545C5A62DA770D1
:10261000AA0FA85FBB270196F8942EBC4EB47894FD
:10262000019600C000C000C000C0C895F8942EBC40
:102630005EB47894E62DE877E695E695E695FF2773
:10264000ED5DFC4E099407C040CE08C00EC014C01A
:102650001AC020C026C04D925C921DC50D901C90E2
:10266000040C151C1C920E9216C50D901C9004189B
:1026700015081C920E920FC50D901C900420152079
:102680001C920E9208C50D901C90042815281C92CF
:102690000E9201C50D901C90042415241C920E92DC
:1026A000FAC40D901C90041415043FB6F4C4A62D72
:1026B000A770AA0FA85FBB270196F8942EBC4EB452
:1026C000789466FE05C00C9004143FB600009CCFC1
:1026D0004D922C9299CFA62DA770AA0FA85FBB2769
:1026E0004D905C90421452043FB6D5C4A62DA770FD
:1026F000AA0FA85FBB274C9042143FB6CCC4F894F5
:102700002EBC6EB47894A62DA370AA0FA05FBB2731
:10271000659465944D905C90062C000C000846145E
:1027200050043FB6B8C4F8942EBC6EB4789400C080
:10273000EDE9F3E1E60DF21D0994FFC002C1C6CD3B
:10274000C5CDC4CDC3CDC2CDC1CDC0CDBFCDBECD15
:10275000BDCDBCCDBBCDBACDB9CDB8CDB7CDB6CD45
:10276000B5CDB4CDB3CDB2CDB1CDB0CDAFCDAECD75
:10277000ADCDACCDABCDAACDA9CDA8CDA7CDA6CDA5
:10278000A5CDA4CDA3CDA2CDA1CDA0CD9FCD9ECDD5
:102790009DCD9CCD9BCD9ACD99CD98CD97CD96CD05
:1027A00095CD94CD93CD92CD91CD90CD8FCD8ECD35
:1027B0008DCD8CCD8BCD8ACD89CD88CD87CD86CD65
:1027C00085CD84CD83CD82CD81CD80CD7FCD7ECD95
:1027D0007DCD7CCD7BCD7ACD79CD78CD77CD76CDC5
:1027E00075CD74CD73CD72CD71CD70CD6FCD6ECDF5
:1027F0006DCD6CCD6BCD6ACD69CD68CD67CD66CD25
:1028000065CD64CD63CD62CD61CD60CD5FCD5ECD54
:102810005DCD5CCD5BCD5ACD59CD58CD57CD56CD84
:1028200055CD54CD53CD52CD51CD50CD4FCD4ECDB4
:102830004DCD4CCD4BCD4ACD49CD48CD47CD46CDE4
:1028400045CD44CD43CD42CD41CD40CD3FCD3ECD14
:102850003DCD3CCD3BCD3ACD39CD38CD37CD36CD44
:1028600035CD34CD33CD32CD31CD30CD2FCD2ECD74
:102870002DCD2CCD2BCD2ACD29CD28CD27CD26CDA4
:1028800025CD24CD23CD22CD21CD20CD1FCD1ECDD4
:102890001DCD1CCD1BCD1ACD19CD18CD17CD16CD04
:1028A00015CD14CD13CD12CD11CD10CD0FCD0ECD34
:1028B0000DCD0CCD0BCD0ACD09CD08CD07CD06CD64
:1028C00005CD04CD03CD02CD01CD00CDFFCCFECC96
:1028D000FDCCFCCCFBCCFACCF9CCF8CCF7CCF6CCCC
:1028E000F5CCF4CCF3CCF2CCF1CCF0CCEFCCEECCFC
:1028F000EDCCECCCEBCCEACCE9CCE8CCE7CCE6CC2C
:10290000E5CCE4CCE3CCE2CCE1CCE0CCDFCCDECC5B
:10291000DDCCDCCCDBCCDACCD9CCD8CCD7CCD6CC8B
:10292000D5CCD4CCD3CCD2CCD1CCD0CCCFCCCECCBB
:10293000CDCCCCCCCBCCCACCC9CC0093F10000C060
:10294000AAC39895C895A7C3F8942EBC6EB4789482
:10295000EDEAF4E1E60DF21D099401C118C12EC1A2
:1029600046C15EC177C18FC1A9C1C3C1E1C101C266
:1029700020C241C2AACCA9CCA8CC5FC25EC25DC2B3
:102980005CC25BC25AC259C258C268C267C266C240
:1029900065C264C263C262C261C270C26FC26EC2EB
:1029A0006DC26CC26BC26AC269C27AC279C278C295
:1029B00077C276C275C274C273C284C283C282C235
:1029C00081C280C27FC27EC27DC295C294C293C2C0
:1029D00092C291C290C28FC28EC2A5C2A4C2A3C22B
:1029E000A2C2A1C2A0C29FC29EC2B7C2B6C2B5C295
:1029F000B4C2B3C2B2C2B1C2B0C267CC66CC65CCFD
:102A000064CC63CC62CC61CC60CC5FCC5ECC5DCC62
:102A10005CCC5BCC5ACC59CC58CC57CC56CC55CC92
:102A200054CC53CC52CC51CC50CC4FCC4ECC4DCCC2
:102A30004CCC4BCC4ACC49CC48CC47CC46CC45CCF2
:102A400044CC43CC42CC41CC40CC3FCC3ECC3DCC22
:102A50003CCC3BCC3ACC39CC38CC99C2B3C2CCC2FA
:102A6000F3C233CC32CC31CC30CC2FCC2ECC2DCCCD
:102A70002CCC2BCC2ACC29CC28CC27CC26CC25CCB2
:102A800024CC23CC22CC21CC20CC1FCC1ECC1DCCE2
:102A90001CCC1BCC1ACC19CC18CC17CC16CC15CC12
:102AA00014CC13CC12CC11CC10CC0FCC0ECC0DCC42
:102AB0000CCC0BCC0ACC09CC08CC07CC06CC05CC72
:102AC00004CC03CC02CC01CC00CCFFCBFECBFDCBA5
:102AD000FCCBFBCBFACBF9CBF8CBF7CBF6CBF5CBDA
:102AE000F4CBF3CBF2CBF1CBF0CBEFCBEECBEDCB0A
:102AF000ECCBEBCBEACBE9CBE8CBE7CBE6CBE5CB3A
:102B0000E4CBE3CBE2CBE1CBE0CBDFCBDECBDDCB69
:102B1000DCCBDBCBDACBD9CBD8CBD7CBD6CBD5CB99
:102B2000D4CBD3CBD2CBD1CBD0CBCFCBCECBCDCBC9
:102B3000CCCBCBCBCACBC9CBC8CBC7CBC6CBC5CBF9
:102B4000C4CBC3CBC2CBC1CBC0CBBFCBBECBBDCB29
:102B5000BCCBBBCBBACBB9CBB8CBE8D29CC201962D
:102B600000C000C00000F8942EBC6EB47894A62D6E
:102B7000AE70A85FBB274D905C90F2014080A62DFF
:102B8000A295AE70A85FBB274D922C92E6CF01961E
:102B900000C000C00000F8942EBC6EB47894A62D3E
:102BA000A295AE70A85FBB274D905C90A62DAE702D
:102BB000A85FBB270C90F2010082CFCF019600C026
:102BC00000C00000F8942EBC6EB47894A62DAE70B0
:102BD000A85FBB274D905C90F20101901080A62D5C
:102BE000A295AE70A85FBB270D921C92B6CF01963E
:102BF00000C000C00000F8942EBC6EB47894A62DDE
:102C0000A295AE70A85FBB274D905C90A62DAE70CC
:102C1000A85FBB270D901C90F201019210829DCFFE
:102C2000019600C000C00000F8942EBC6EB47894E9
:102C3000E62DEE70E85FFF2741905080D2010D90A5
:102C4000B083A293E62DE295EE70E85FFF27019234
:102C5000208283CF019600C000C00000F8942EBCF3
:102C60006EB47894E62DE295EE70E85FFF27419010
:102C70005080A62DAE70A85FBB270C90D2010D929C
:102C8000B083A2936ACF019600C000C00000F89400
:102C90002EBC6EB47894E62DEE70E85FFF2741906D
:102CA0005080D2010D901D90B083A293E62DE29545
:102CB000EE70E85FFF27019210824FCF019600C0AF
:102CC00000C00000F8942EBC6EB47894E62DE29516
:102CD000EE70E85FFF2741905080A62DAE70A85F90
:102CE000BB270D901C90D2010D921D92B083A29330
:102CF00034CF019600C000C00000F8942EBC6EB422
:102D00007894A62DAE70A85FBB274D905C90E62D01
:102D1000E295EE70E85FFF270196F8942EBC6EB442
:102D20007894460C521C67FC5A944192508215CFFD
:102D3000019600C000C00000F8942EBC6EB47894D8
:102D4000A62DAE70A85FBB274D905C90E62DE29556
:102D5000EE70E85FFF270196F8942EBC6EB478946D
:102D6000460C521C67FC5A94D2010C9001922082AE
:102D7000F4CE019600C000C00000F8942EBC6EB4E2
:102D80007894A62DA295AE70A85FBB274D905C905D
:102D9000E62DEE70E85FFF2700800196F8942EBCC8
:102DA0006EB47894460C521C67FC5A94D2010C9273
:102DB000D4CE019600C000C00000F8942EBC6EB4C2
:102DC0007894A62DAE70A85FBB274D905C90E62D41
:102DD000E295EE70E85FFF270196F8942EBC6EB482
:102DE0007894460C521C67FC5A94D2010D901C90AA
:102DF00001921082B2CE019600C000C00000F8948B
:102E00002EBC6EB47894A62DA295AE70A85FBB2799
:102E10004D905C90E62DEE70E85FFF2701901080EA
:102E20000196F8942EBC6EB47894460C521C67FC44
:102E30005A94D2010D921C9290CEE62DE770EE0FBF
:102E4000E85FFF270196F8942EBC6EB47894DE01FB
:102E5000A60DB21D0C90019220827FCEE62DE77068
:102E6000EE0FE85FFF270196F8942EBC6EB47894BD
:102E70000080DE01A60DB21D0C926FCEE62DE7702C
:102E8000EE0FE85FFF270196F8942EBC6EB478949D
:102E9000DE01A60DB21D0D901C90019210825DCE38
:102EA000E62DE770EE0FE85FFF270196F8942EBC41
:102EB0006EB4789401901080DE01A60DB21D0D92C3
:102EC0001C924BCEE62DE770EE0FE85FFF270196D0
:102ED000F8942EBC4EB47894019600C000C000C097
:102EE00000C0C895F8942EBC5EB47894D2010C90C2
:102EF0000192208232CEE62DE770EE0FE85FFF27C9
:102F00000196F8942EBC4EB47894019600C000C08F
:102F100000C000C0C895F8942EBC5EB478940080C0
:102F2000D2010C921ACEE62DE770EE0FE85FFF2774
:102F30000196F8942EBC4EB47894019600C000C05F
:102F400000C000C0C895F8942EBC5EB47894D2013D
:102F50000D901C900192108200CEE62DE770EE0FCE
:102F6000E85FFF270196F8942EBC4EB47894019642
:102F700000C000C000C000C0C895F8942EBC5EB46C
:102F8000789401901080D2010D921C92E6CD0196AA
:102F900000C000C00000F8942EBC6EB47894A62D3A
:102FA000A295AE70A85FBB27E62DEE70E85FFF2705
:102FB000419050806BB40196E1E0FF2773D02C92D2
:102FC0000C940511019600C000C00000F8942EBCBE
:102FD0006EB47894A62DA295AE70A85FBB27E62D9F
:102FE000EE70E85FFF27419050806BB40196E2E0FD
:102FF000FF2758D00C940511019600C000C00000B6
:10300000F8942EBC6EB47894A62DA295AE70A85FED
:10301000BB27E62DEE70E85FFF27419050800196B8
:10302000F8942EBCEEB578946BB44E0E521C621C14
:10303000E7FF03C0F1E05F1A62080196E1E0FF27B5
:1030400031D02C920C940511019600C000C00000F4
:10305000F8942EBC6EB47894A62DA295AE70A85F9D
:10306000BB27E62DEE70E85FFF2741905080019668
:10307000F8942EBCEEB578946BB44E0E521C621CC4
:10308000E7FF03C0F1E05F1A62080196E2E0FF2764
:1030900009D00C9405116EB42EBC0196679CF0010A
:1030A000FF5F09940F01599AE3E05998EEBDE09152
:1030B000000A5E0EE091010A6E1E35D06EBC6FB63E
:1030C0002FD05EBC2CD04EBC2BD02EBCF001319743
:1030D00000C051F000C02AD0F8942EBC0EB46FBED0
:1030E0000D92E150F040B9F720D00EB40D92599AEC
:1030F0000895599AE3E05998EEBDA091000AA90FEE
:10310000B091010AEAB5BE1F0FD0BEBD08D0AEBD5A
:1031100006D08EBD04D02EBC00C006D0089500009D
:1031200000C000C000000000000000C00895F89436
:10313000AFEFADBFAAE0AEBF2224A0E17A2EC0E07F
:10314000DAE033242ABC2BBC2092000A2092010A28
:103150002092020A2092030A2092040A2092050A71
:103160002092060AA0E5ACBDA1E0ADBD5E9A599AD9
:103170005998EBEADCD0599AE0D0E4E1F0E04591CF
:1031800055914831C1F45539B1F4B591A591A09349
:10319000000AB093010A45915591483121F55539FE
:1031A00011F5B591A591A093020AB093030AA1E08D
:1031B000A093060A18C06FEFBFEFA8EF442755276A
:1031C00087D088F06FEFBFEEA8EF40EF5FEF80D0C1
:1031D00008F07BC0A0EFBFEFA093020AB093030AF0
:1031E000A1E0A093060AAA27B091000A6091010A03
:1031F00091D09BD0E13409F068C097D0E63509F052
:1032000064C093D0ED3409F060C08FD0E13009F094
:103210005CC08BD0E13009F058C087D08E2F85D0AC
:103220009E2F83D0EABD81D00E2F7FD01E2F7DD060
:103230002E2F7BD03E2F79D04E2FE093040A75D0ED
:103240005E2FE093050A599A2017310708F43DC014
:10325000343028F009F039C0222309F036C0543048
:1032600028F009F032C0442309F02FC0421552055E
:1032700021F0A091060AA0FF28C0A0E0B1E0A901BA
:103280004215520521F02D9241505040E1F70215B0
:10329000120589F0B091000A6091010AB39509F412
:1032A0006395AA2737D0A0E0B1E03FD0ED9301505D
:1032B0001040D9F7599A2BBC1CDF6EB42EBC789401
:1032C0000000679CF001FF5F0994F894599AFFCFC2
:1032D00021D02BD0E134D9F428D0E635C1F425D063
:1032E000E435A9F422D0E13091F41FD00E2E1DD088
:1032F0001E2E599A0214120459F0A42FB52FA019AA
:10330000B109A093000AB093010A08940895599A4C
:1033100088940895599A5998E3E009D0E62F07D088
:10332000EB2F05D0EA2F03D00895E22D00C0EEBDAB
:10333000FDB5F7FFFDCFEEB50895A0E2AA95F1F730
:103340000895A62DA770AA0FA85FBB27E62DE873E6
:10335000E695E695E85FFF274C90542C550C5508F0
:1033600067FE552441925082BDC0A62DA770AA0FBA
:10337000A85FBB27E62DE873E695E695E695FF275F
:10338000ED53F64E099407C00AC00DC010C013C01B
:1033900016C019C01EC0EE2731FCE39520C0EE27F1
:1033A00031FEE3951CC0EE2730FCE39518C0EE27F4
:1033B00030FEE39514C0EE2734FCE39510C0EE27F1
:1033C00034FEE3950CC0E32DE370E195EE27E21D9A
:1033D00006C0E32DE370E195E1E0E20900C0ED9362
:1033E0002C9280C044017EC045017CC046017AC059
:1033F000470178C0480176C0490174C04A0172C0D3
:103400004B0170C054016EC055016CC056016AC0BA
:10341000570168C0580166C0590164C05A0162C0B2
:103420005B0160C064015EC065015CC066015AC09A
:10343000670158C0680156C0690154C06A0152C092
:103440006B0150C074014EC075014CC076014AC07A
:10345000770148C0780146C0790144C07A0142C072
:103460007B0140C084013EC085013CC086013AC05A
:10347000870138C0880136C0890134C08A0132C052
:103480008B0130C094012EC095012CC096012AC03A
:10349000970128C0980126C0990124C09A0122C032
:1034A0009B0120C0A4011EC0A5011CC0A6011AC01A
:1034B000A70118C0A80116C0A90114C0AA0112C012
:1034C000AB0110C0B4010EC0B5010CC0B6010AC0FA
:1034D000B70108C0B80106C0B90104C0BA0102C0F2
:1034E000BB0100C06EB42EBC0196679CF001FF5F6B
:1034F0000994F8942EBC6EB47894E2E8FAE1E60DF3
:10350000F21D099457C256C255C254C253C252C288
:1035100051C250C24FC24EC24DC24CC24BC24AC22F
:1035200049C248C2EFC0F2C0F5C0F8C0FBC0FEC03F
:1035300001C104C107C10AC10DC110C113C116C127
:1035400019C11CC11FC122C125C128C12BC12EC157
:1035500031C134C137C13AC13DC140C143C146C187
:1035600049C14CC128C227C226C225C24BC14EC187
:1035700051C154C157C15AC15DC160C163C166C167
:1035800069C16CC118C217C216C215C26BC16EC127
:1035900071C174C177C17AC17DC180C183C186C147
:1035A00089C18CC108C207C206C205C28BC18EC1C7
:1035B00091C194C197C19AC19DC1A0C1A3C1A6C127
:1035C000A9C1ACC1F8C1F7C1F6C1F5C1ABC1B0C169
:1035D000B5C1BAC1BFC1C4C1C9C1CEC1D3C1D8C1AF
:1035E000DDC1E2C1E7C1E6C1E5C1E4C1E3C1E2C1B9
:1035F000E1C1E0C1DFC1DEC1DDC1DCC1DBC1DAC1D7
:10360000D9C1D8C1D7C1D6C1D5C1D4C1D3C1D2C106
:10361000D1C1D0C1CFC1CEC1CDC1CCC1CBC1CAC136
:10362000C9C1C8C1C7C1C6C1C5C1C4C1C3C1C2C166
:10363000C1C1C0C1BFC1BEC1BDC1BCC1BBC1BAC196
:10364000B9C1B8C1B7C1B6C1B5C1B4C1B3C1B2C1C6
:10365000B1C1B0C1AFC1AEC1ADC1ACC1ABC1AAC1F6
:10366000A9C1A8C1A7C1A6C1A5C1A4C1A3C1A2C126
:10367000A1C1A0C19FC19EC19DC19CC19BC19AC156
:1036800099C198C197C196C195C194C193C192C186
:1036900091C190C18FC18EC18DC18CC18BC18AC1B6
:1036A00089C188C187C186C185C184C183C182C1E6
:1036B00081C180C17FC17EC17DC17CC17BC17AC116
:1036C00079C178C177C176C175C174C173C172C146
:1036D00071C170C16FC16EC16DC16CC16BC16AC176
:1036E00069C168C168C167C166C165C164C163C1A0
:1036F00062C161C160C15FC15EC15DC15CC15BC1CE
:103700005AC159C1C895000F111F56C1C895020F63
:10371000131F52C1C895040F151F4EC1C895060F3F
:10372000171F4AC1C895200F311F46C1C895220FE7
:10373000331F42C1C895240F351F3EC1C895260FBF
:10374000371F3AC1C895400F511F36C1C895420F67
:10375000531F32C1C895440F551F2EC1C895460F3F
:10376000571F2AC1C895600F711F26C1C895620FE7
:10377000731F22C1C895640F751F1EC1C895660FBF
:10378000771F1AC1C895001B110B16C1C895021BE3
:10379000130B12C1C895041B150B0EC1C895061B4F
:1037A000170B0AC1C895201B310B06C1C895221BF7
:1037B000330B02C1C895241B350BFEC0C895261BD0
:1037C000370BFAC0C895401B510BF6C0C895421B79
:1037D000530BF2C0C895441B550BEEC0C895461B51
:1037E000570BEAC0C895601B710BE6C0C895621BF9
:1037F000730BE2C0C895641B750BDEC0C895661BD1
:10380000770BDAC0C89520233123D6C0C895222370
:103810003323D2C0C89524233523CEC0C895262390
:103820003723CAC0C89540235123C6C0C895422338
:103830005323C2C0C89544235523BEC0C895462310
:103840005723BAC0C89560237123B6C0C8956223B8
:103850007323B2C0C89564237523AEC0C895662390
:103860007723AAC0C895202B312BA6C0C895222B40
:10387000332BA2C0C895242B352B9EC0C895262B70
:10388000372B9AC0C895402B512B96C0C895422B18
:10389000532B92C0C895442B552B8EC0C895462BF0
:1038A000572B8AC0C895602B712B86C0C895622B98
:1038B000732B82C0C895642B752B7EC0C895662B70
:1038C000772B7AC0C8952027312776C0C895222744
:1038D000332772C0C895242735276EC0C895262780
:1038E00037276AC0C8954027512766C0C895422728
:1038F000532762C0C895442755275EC0C895462700
:1039000057275AC0C8956027712756C0C8956227A7
:10391000732752C0C895642775274EC0C89566277F
:1039200077274AC02801409450942421352144C06F
:10393000290140945094242135213EC02A0140940D
:1039400050942421352138C02B01409450942421D7
:10395000352132C0280140945094442155212CC077
:103960002901409450944421552126C02A014094B5
:1039700050944421552120C02B014094509444215F
:1039800055211AC02801409450946421752114C017
:10399000290140945094642175210EC02A0140945D
:1039A00050946421752108C02B01409450946421E7
:1039B000752102C0FFCFFFCF6EB42EBC0196679C6D
:1039C000F001FF5F0994F8942EBC6EB47894A62D94
:1039D000AC70A85FE62DE370EE0FEE0FE85FFF27F7
:1039E000B62DB07F51F0B03191F0B03211F1B03658
:1039F00091F1B03A08F03FC03DC0BB2701900D9255
:103A000001900D9201900D9200800C9235C0BB2761
:103A10000C904190040C0D920C904190041C0D925E
:103A20000C904190041C0D920C904080041C0C9250
:103A300023C0BB270C90419004180D920C9041902C
:103A400004080D920C90419004080D920C90408057
:103A500004080C9211C0BB270D90419004140D90E6
:103A6000419004040D90419004040C9040800404A3
:103A70003FB602C0FFCFFFCF6EB42EBC0196679C4D
:063A8000F001FF5F099454
:00000001FF
