:100000000C9457000C9456000C9456000C94560017
:100010000C9456000C9456000C9456000C94560008
:100020000C9456000C9456000C9456000C945600F8
:100030000C9456000C9456000C9456000C945600E8
:100040000C9456000C9456000C9456000C945600D8
:100050000C9456000C9456000C9456000C945600C8
:100060000C9456000C9456000C9456000C945600B8
:100070000C9456000C9456000C9456000C945600A8
:100080000C9456000C9456000C9456000C94560098
:100090000C9456000C9456000C9456000C94560088
:1000A0000C9456000C9456000C945600FFCF22245A
:1000B000A0E17A2EC0E0DAE033242ABC2BBCA0E514
:1000C000ACBDA1E0ADBD5E9AE4E1F0E0A591B591D3
:1000D00005901590A851B54929F4AA27BB274424B7
:1000E000552403C0329645905590A093000AB093D2
:1000F000010A4092020A5092030A5A98ABEAAEBD36
:1001000003D05A9A7894FFCFC89500D00895000084
:1001100000000000000000000000000000000000DF
:1001200000000000000000000000000000000000CF
:1001300000000000000000000000000000000000BF
:1001400000000000000000000000000000000000AF
:10015000000000000000000000000000000000009F
:10016000000000000000000000000000000000008F
:10017000000000000000000000000000000000007F
:10018000000000000000000000000000000000006F
:10019000000000000000000000000000000000005F
:1001A000000000000000000000000000000000004F
:1001B000000000000000000000000000000000003F
:1001C000000000000000000000000000000000002F
:1001D000000000000000000000000000000000001F
:1001E000000000000000000000000000000000000F
:1001F00000000000000000000000000000000000FF
:10020000C895002711270196F8942EBC6EB47894F7
:10021000679CF001FE5F09940000000000000000F0
:1002200000C000C089010196F8942EBC6EB4789489
:10023000679CF001FE5F09940000000000000000D0
:1002400000C000C08A010196F8942EBC6EB4789468
:10025000679CF001FE5F09940000000000000000B0
:1002600000C000C08B010196F8942EBC6EB4789447
:10027000679CF001FE5F0994000000000000000090
:1002800000C000C098010196F8942EBC6EB478941A
:10029000679CF001FE5F0994000000000000000070
:1002A000C895222733270196F8942EBC6EB4789413
:1002B000679CF001FE5F0994000000000000000050
:1002C00000C000C09A010196F8942EBC6EB47894D8
:1002D000679CF001FE5F0994000000000000000030
:1002E00000C000C09B010196F8942EBC6EB47894B7
:1002F000679CF001FE5F0994000000000000000010
:1003000000C000C0A8010196F8942EBC6EB4789489
:10031000679CF001FE5F09940000000000000000EF
:1003200000C000C0A9010196F8942EBC6EB4789468
:10033000679CF001FE5F09940000000000000000CF
:10034000C895442755270196F8942EBC6EB478942E
:10035000679CF001FE5F09940000000000000000AF
:1003600000C000C0AB010196F8942EBC6EB4789426
:10037000679CF001FE5F099400000000000000008F
:1003800000C000C0B8010196F8942EBC6EB47894F9
:10039000679CF001FE5F099400000000000000006F
:1003A00000C000C0B9010196F8942EBC6EB47894D8
:1003B000679CF001FE5F099400000000000000004F
:1003C00000C000C0BA010196F8942EBC6EB47894B7
:1003D000679CF001FE5F099400000000000000002F
:1003E000C895662777270196F8942EBC6EB478944A
:1003F000679CF001FE5F099400000000000000000F
:100400000000D8010C9111270196F8942EBC6EB40F
:100410007894679CF001FE5F0994000000000000E2
:100420000000D9010C9111270196F8942EBC6EB4EE
:100430007894679CF001FE5F0994000000000000C2
:100440000000DA010C9111270196F8942EBC6EB4CD
:100450007894679CF001FE5F0994000000000000A2
:100460000000DB010C9111270196F8942EBC6EB4AC
:100470007894679CF001FE5F099400000000000082
:100480000000D8012C9133270196F8942EBC6EB44D
:100490007894679CF001FE5F099400000000000062
:1004A0000000D9012C9133270196F8942EBC6EB42C
:1004B0007894679CF001FE5F099400000000000042
:1004C0000000DA012C9133270196F8942EBC6EB40B
:1004D0007894679CF001FE5F099400000000000022
:1004E0000000DB012C9133270196F8942EBC6EB4EA
:1004F0007894679CF001FE5F099400000000000002
:100500000000D8014C9155270196F8942EBC6EB48A
:100510007894679CF001FE5F0994000000000000E1
:100520000000D9014C9155270196F8942EBC6EB469
:100530007894679CF001FE5F0994000000000000C1
:100540000000DA014C9155270196F8942EBC6EB448
:100550007894679CF001FE5F0994000000000000A1
:100560000000DB014C9155270196F8942EBC6EB427
:100570007894679CF001FE5F099400000000000081
:100580000000D8016C9177270196F8942EBC6EB4C8
:100590007894679CF001FE5F099400000000000061
:1005A0000000D9016C9177270196F8942EBC6EB4A7
:1005B0007894679CF001FE5F099400000000000041
:1005C0000000DA016C9177270196F8942EBC6EB486
:1005D0007894679CF001FE5F099400000000000021
:1005E0000000DB016C9177270196F8942EBC6EB465
:1005F0007894679CF001FE5F099400000000000001
:1006000000C0D8010C930196F8942EBC6EB4789477
:10061000679CF001FE5F09940000000000000000EC
:1006200000C0D8012C930196F8942EBC6EB4789437
:10063000679CF001FE5F09940000000000000000CC
:1006400000C0D8014C930196F8942EBC6EB47894F7
:10065000679CF001FE5F09940000000000000000AC
:1006600000C0D8016C930196F8942EBC6EB47894B7
:10067000679CF001FE5F099400000000000000008C
:1006800000C0D9010C930196F8942EBC6EB47894F6
:10069000679CF001FE5F099400000000000000006C
:1006A00000C0D9012C930196F8942EBC6EB47894B6
:1006B000679CF001FE5F099400000000000000004C
:1006C00000C0D9014C930196F8942EBC6EB4789476
:1006D000679CF001FE5F099400000000000000002C
:1006E00000C0D9016C930196F8942EBC6EB4789436
:1006F000679CF001FE5F099400000000000000000C
:1007000000C0DA010C930196F8942EBC6EB4789474
:10071000679CF001FE5F09940000000000000000EB
:1007200000C0DA012C930196F8942EBC6EB4789434
:10073000679CF001FE5F09940000000000000000CB
:1007400000C0DA014C930196F8942EBC6EB47894F4
:10075000679CF001FE5F09940000000000000000AB
:1007600000C0DA016C930196F8942EBC6EB47894B4
:10077000679CF001FE5F099400000000000000008B
:1007800000C0DB010C930196F8942EBC6EB47894F3
:10079000679CF001FE5F099400000000000000006B
:1007A00000C0DB012C930196F8942EBC6EB47894B3
:1007B000679CF001FE5F099400000000000000004B
:1007C00000C0DB014C930196F8942EBC6EB4789473
:1007D000679CF001FE5F099400000000000000002B
:1007E00000C0DB016C930196F8942EBC6EB4789433
:1007F000679CF001FE5F099400000000000000000B
:10080000D8010D911C910196F8942EBC6EB4789489
:10081000679CF001FE5F09940000000000000000EA
:10082000D9010D911C910196F8942EBC6EB4789468
:10083000679CF001FE5F09940000000000000000CA
:10084000DA010D911C910196F8942EBC6EB4789447
:10085000679CF001FE5F09940000000000000000AA
:10086000DB010D911C910196F8942EBC6EB4789426
:10087000679CF001FE5F099400000000000000008A
:10088000D8012D913C910196F8942EBC6EB47894C9
:10089000679CF001FE5F099400000000000000006A
:1008A000D9012D913C910196F8942EBC6EB47894A8
:1008B000679CF001FE5F099400000000000000004A
:1008C000DA012D913C910196F8942EBC6EB4789487
:1008D000679CF001FE5F099400000000000000002A
:1008E000DB012D913C910196F8942EBC6EB4789466
:1008F000679CF001FE5F099400000000000000000A
:10090000D8014D915C910196F8942EBC6EB4789408
:10091000679CF001FE5F09940000000000000000E9
:10092000D9014D915C910196F8942EBC6EB47894E7
:10093000679CF001FE5F09940000000000000000C9
:10094000DA014D915C910196F8942EBC6EB47894C6
:10095000679CF001FE5F09940000000000000000A9
:10096000DB014D915C910196F8942EBC6EB47894A5
:10097000679CF001FE5F0994000000000000000089
:10098000D8016D917C910196F8942EBC6EB4789448
:10099000679CF001FE5F0994000000000000000069
:1009A000D9016D917C910196F8942EBC6EB4789427
:1009B000679CF001FE5F0994000000000000000049
:1009C000DA016D917C910196F8942EBC6EB4789406
:1009D000679CF001FE5F0994000000000000000029
:1009E000DB016D917C910196F8942EBC6EB47894E5
:1009F000679CF001FE5F0994000000000000000009
:100A0000D8010D931C930196F8942EBC6EB4789483
:100A1000679CF001FE5F09940000000000000000E8
:100A2000D8012D933C930196F8942EBC6EB4789423
:100A3000679CF001FE5F09940000000000000000C8
:100A4000D8014D935C930196F8942EBC6EB47894C3
:100A5000679CF001FE5F09940000000000000000A8
:100A6000D8016D937C930196F8942EBC6EB4789463
:100A7000679CF001FE5F0994000000000000000088
:100A8000D9010D931C930196F8942EBC6EB4789402
:100A9000679CF001FE5F0994000000000000000068
:100AA000D9012D933C930196F8942EBC6EB47894A2
:100AB000679CF001FE5F0994000000000000000048
:100AC000D9014D935C930196F8942EBC6EB4789442
:100AD000679CF001FE5F0994000000000000000028
:100AE000D9016D937C930196F8942EBC6EB47894E2
:100AF000679CF001FE5F0994000000000000000008
:100B0000DA010D931C930196F8942EBC6EB4789480
:100B1000679CF001FE5F09940000000000000000E7
:100B2000DA012D933C930196F8942EBC6EB4789420
:100B3000679CF001FE5F09940000000000000000C7
:100B4000DA014D935C930196F8942EBC6EB47894C0
:100B5000679CF001FE5F09940000000000000000A7
:100B6000DA016D937C930196F8942EBC6EB4789460
:100B7000679CF001FE5F0994000000000000000087
:100B8000DB010D931C930196F8942EBC6EB47894FF
:100B9000679CF001FE5F0994000000000000000067
:100BA000DB012D933C930196F8942EBC6EB478949F
:100BB000679CF001FE5F0994000000000000000047
:100BC000DB014D935C930196F8942EBC6EB478943F
:100BD000679CF001FE5F0994000000000000000027
:100BE000DB016D937C930196F8942EBC6EB47894DF
:100BF000679CF001FE5F0994000000000000000007
:100C0000FFCF000000000000000000000000000016
:100C100000000000000000000000000000000000D4
:100C2000FFCF0000000000000000000000000000F6
:100C300000000000000000000000000000000000B4
:100C4000FFCF0000000000000000000000000000D6
:100C50000000000000000000000000000000000094
:100C6000FFCF0000000000000000000000000000B6
:100C70000000000000000000000000000000000074
:100C8000FFCF000000000000000000000000000096
:100C90000000000000000000000000000000000054
:100CA000FFCF000000000000000000000000000076
:100CB0000000000000000000000000000000000034
:100CC000FFCF000000000000000000000000000056
:100CD0000000000000000000000000000000000014
:100CE000FFCF000000000000000000000000000036
:100CF00000000000000000000000000000000000F4
:100D0000FFCF000000000000000000000000000015
:100D100000000000000000000000000000000000D3
:100D2000FFCF0000000000000000000000000000F5
:100D300000000000000000000000000000000000B3
:100D4000FFCF0000000000000000000000000000D5
:100D50000000000000000000000000000000000093
:100D6000FFCF0000000000000000000000000000B5
:100D70000000000000000000000000000000000073
:100D8000FFCF000000000000000000000000000095
:100D90000000000000000000000000000000000053
:100DA000FFCF000000000000000000000000000075
:100DB0000000000000000000000000000000000033
:100DC000FFCF000000000000000000000000000055
:100DD0000000000000000000000000000000000013
:100DE000FFCF000000000000000000000000000035
:100DF00000000000000000000000000000000000F3
:100E0000FFCF000000000000000000000000000014
:100E100000000000000000000000000000000000D2
:100E2000FFCF0000000000000000000000000000F4
:100E300000000000000000000000000000000000B2
:100E4000FFCF0000000000000000000000000000D4
:100E50000000000000000000000000000000000092
:100E6000FFCF0000000000000000000000000000B4
:100E70000000000000000000000000000000000072
:100E8000FFCF000000000000000000000000000094
:100E90000000000000000000000000000000000052
:100EA000FFCF000000000000000000000000000074
:100EB0000000000000000000000000000000000032
:100EC000FFCF000000000000000000000000000054
:100ED0000000000000000000000000000000000012
:100EE000FFCF000000000000000000000000000034
:100EF00000000000000000000000000000000000F2
:100F0000FFCF000000000000000000000000000013
:100F100000000000000000000000000000000000D1
:100F2000FFCF0000000000000000000000000000F3
:100F300000000000000000000000000000000000B1
:100F4000FFCF0000000000000000000000000000D3
:100F50000000000000000000000000000000000091
:100F6000FFCF0000000000000000000000000000B3
:100F70000000000000000000000000000000000071
:100F8000FFCF000000000000000000000000000093
:100F90000000000000000000000000000000000051
:100FA000FFCF000000000000000000000000000073
:100FB0000000000000000000000000000000000031
:100FC000FFCF000000000000000000000000000053
:100FD0000000000000000000000000000000000011
:100FE000FFCF000000000000000000000000000033
:100FF00000000000000000000000000000000000F1
:1010000000009A928A920196F8942EBC6EB478945D
:10101000679CF001FE5F09940000000000000000E2
:101020000000BA92AA920196F8942EBC6EB47894FD
:10103000679CF001FE5F09940000000000000000C2
:101040000000DA92CA920196F8942EBC6EB478949D
:10105000679CF001FE5F09940000000000000000A2
:101060000000FA92EA920196F8942EBC6EB478943D
:10107000679CF001FE5F0994000000000000000082
:1010800000001A930A930196F8942EBC6EB47894DB
:10109000679CF001FE5F0994000000000000000062
:1010A00000003A932A930196F8942EBC6EB478947B
:1010B000679CF001FE5F0994000000000000000042
:1010C00000005A934A930196F8942EBC6EB478941B
:1010D000679CF001FE5F0994000000000000000022
:1010E00000007A936A930196F8942EBC6EB47894BB
:1010F000679CF001FE5F0994000000000000000002
:101100000000899099900196F8942EBC6EB4789462
:10111000679CF001FE5F09940000000000000000E1
:101120000000A990B9900196F8942EBC6EB4789402
:10113000679CF001FE5F09940000000000000000C1
:101140000000C990D9900196F8942EBC6EB47894A2
:10115000679CF001FE5F09940000000000000000A1
:101160000000E990F9900196F8942EBC6EB4789442
:10117000679CF001FE5F0994000000000000000081
:101180000000099119910196F8942EBC6EB47894E0
:10119000679CF001FE5F0994000000000000000061
:1011A0000000299139910196F8942EBC6EB4789480
:1011B000679CF001FE5F0994000000000000000041
:1011C0000000499159910196F8942EBC6EB4789420
:1011D000679CF001FE5F0994000000000000000021
:1011E0000000699179910196F8942EBC6EB47894C0
:1011F000679CF001FE5F0994000000000000000001
:1012000000C0000F111F3FB60196F8942EBC6EB4BB
:101210007894679CF001FE5F0994000000000000D4
:1012200000C0020F131F3FB60196F8942EBC6EB497
:101230007894679CF001FE5F0994000000000000B4
:1012400000C0040F151F3FB60196F8942EBC6EB473
:101250007894679CF001FE5F099400000000000094
:1012600000C0060F171F3FB60196F8942EBC6EB44F
:101270007894679CF001FE5F099400000000000074
:1012800000C0200F311F3FB60196F8942EBC6EB4FB
:101290007894679CF001FE5F099400000000000054
:1012A00000C0220F331F3FB60196F8942EBC6EB4D7
:1012B0007894679CF001FE5F099400000000000034
:1012C00000C0240F351F3FB60196F8942EBC6EB4B3
:1012D0007894679CF001FE5F099400000000000014
:1012E00000C0260F371F3FB60196F8942EBC6EB48F
:1012F0007894679CF001FE5F0994000000000000F4
:1013000000C0400F511F3FB60196F8942EBC6EB43A
:101310007894679CF001FE5F0994000000000000D3
:1013200000C0420F531F3FB60196F8942EBC6EB416
:101330007894679CF001FE5F0994000000000000B3
:1013400000C0440F551F3FB60196F8942EBC6EB4F2
:101350007894679CF001FE5F099400000000000093
:1013600000C0460F571F3FB60196F8942EBC6EB4CE
:101370007894679CF001FE5F099400000000000073
:1013800000C0600F711F3FB60196F8942EBC6EB47A
:101390007894679CF001FE5F099400000000000053
:1013A00000C0620F731F3FB60196F8942EBC6EB456
:1013B0007894679CF001FE5F099400000000000033
:1013C00000C0640F751F3FB60196F8942EBC6EB432
:1013D0007894679CF001FE5F099400000000000013
:1013E00000C0660F771F3FB60196F8942EBC6EB40E
:1013F0007894679CF001FE5F0994000000000000F3
:1014000000C0001B110B3FB60196F8942EBC6EB4C1
:101410007894679CF001FE5F0994000000000000D2
:1014200000C0021B130B3FB60196F8942EBC6EB49D
:101430007894679CF001FE5F0994000000000000B2
:1014400000C0041B150B3FB60196F8942EBC6EB479
:101450007894679CF001FE5F099400000000000092
:1014600000C0061B170B3FB60196F8942EBC6EB455
:101470007894679CF001FE5F099400000000000072
:1014800000C0201B310B3FB60196F8942EBC6EB401
:101490007894679CF001FE5F099400000000000052
:1014A00000C0221B330B3FB60196F8942EBC6EB4DD
:1014B0007894679CF001FE5F099400000000000032
:1014C00000C0241B350B3FB60196F8942EBC6EB4B9
:1014D0007894679CF001FE5F099400000000000012
:1014E00000C0261B370B3FB60196F8942EBC6EB495
:1014F0007894679CF001FE5F0994000000000000F2
:1015000000C0401B510B3FB60196F8942EBC6EB440
:101510007894679CF001FE5F0994000000000000D1
:1015200000C0421B530B3FB60196F8942EBC6EB41C
:101530007894679CF001FE5F0994000000000000B1
:1015400000C0441B550B3FB60196F8942EBC6EB4F8
:101550007894679CF001FE5F099400000000000091
:1015600000C0461B570B3FB60196F8942EBC6EB4D4
:101570007894679CF001FE5F099400000000000071
:1015800000C0601B710B3FB60196F8942EBC6EB480
:101590007894679CF001FE5F099400000000000051
:1015A00000C0621B730B3FB60196F8942EBC6EB45C
:1015B0007894679CF001FE5F099400000000000031
:1015C00000C0641B750B3FB60196F8942EBC6EB438
:1015D0007894679CF001FE5F099400000000000011
:1015E00000C0661B770B3FB60196F8942EBC6EB414
:1015F0007894679CF001FE5F0994000000000000F1
:1016000030FA021512053FB630F80196F8942EBC58
:101610006EB47894679CF001FE5F099400000000AE
:1016200000C0021713073FB60196F8942EBC6EB4A3
:101630007894679CF001FE5F0994000000000000B0
:1016400000C0041715073FB60196F8942EBC6EB47F
:101650007894679CF001FE5F099400000000000090
:1016600000C0061717073FB60196F8942EBC6EB45B
:101670007894679CF001FE5F099400000000000070
:1016800000C0201731073FB60196F8942EBC6EB407
:101690007894679CF001FE5F099400000000000050
:1016A00030FA221532053FB630F80196F8942EBC78
:1016B0006EB47894679CF001FE5F0994000000000E
:1016C00000C0241735073FB60196F8942EBC6EB4BF
:1016D0007894679CF001FE5F099400000000000010
:1016E00000C0261737073FB60196F8942EBC6EB49B
:1016F0007894679CF001FE5F0994000000000000F0
:1017000000C0401751073FB60196F8942EBC6EB446
:101710007894679CF001FE5F0994000000000000CF
:1017200000C0421753073FB60196F8942EBC6EB422
:101730007894679CF001FE5F0994000000000000AF
:1017400030FA421552053FB630F80196F8942EBC97
:101750006EB47894679CF001FE5F0994000000006D
:1017600000C0461757073FB60196F8942EBC6EB4DA
:101770007894679CF001FE5F09940000000000006F
:1017800000C0601771073FB60196F8942EBC6EB486
:101790007894679CF001FE5F09940000000000004F
:1017A00000C0621773073FB60196F8942EBC6EB462
:1017B0007894679CF001FE5F09940000000000002F
:1017C00000C0641775073FB60196F8942EBC6EB43E
:1017D0007894679CF001FE5F09940000000000000F
:1017E00030FA621572053FB630F80196F8942EBCB7
:1017F0006EB47894679CF001FE5F099400000000CD
:10180000000030FA00233FB630F80196F8942EBC61
:101810006EB47894679CF001FE5F099400000000AC
:10182000C89502173FB60196F8942EBC6EB4789412
:10183000679CF001FE5F09940000000000000000BA
:10184000C89504173FB60196F8942EBC6EB47894F0
:10185000679CF001FE5F099400000000000000009A
:10186000C89506173FB60196F8942EBC6EB47894CE
:10187000679CF001FE5F099400000000000000007A
:10188000C89520173FB60196F8942EBC6EB4789494
:10189000679CF001FE5F099400000000000000005A
:1018A000000030FA22233FB630F80196F8942EBC9F
:1018B0006EB47894679CF001FE5F0994000000000C
:1018C000C89524173FB60196F8942EBC6EB4789450
:1018D000679CF001FE5F099400000000000000001A
:1018E000C89526173FB60196F8942EBC6EB478942E
:1018F000679CF001FE5F09940000000000000000FA
:10190000C89540173FB60196F8942EBC6EB47894F3
:10191000679CF001FE5F09940000000000000000D9
:10192000C89542173FB60196F8942EBC6EB47894D1
:10193000679CF001FE5F09940000000000000000B9
:10194000000030FA44233FB630F80196F8942EBCDC
:101950006EB47894679CF001FE5F0994000000006B
:10196000C89546173FB60196F8942EBC6EB478948D
:10197000679CF001FE5F0994000000000000000079
:10198000C89560173FB60196F8942EBC6EB4789453
:10199000679CF001FE5F0994000000000000000059
:1019A000C89562173FB60196F8942EBC6EB4789431
:1019B000679CF001FE5F0994000000000000000039
:1019C000C89564173FB60196F8942EBC6EB478940F
:1019D000679CF001FE5F0994000000000000000019
:1019E000000030FA66233FB630F80196F8942EBC1A
:1019F0006EB47894679CF001FE5F099400000000CB
:101A000031FE00C40196885090403DD46EB42EBC87
:101A1000679CF001FE5F09940000000000000000D8
:101A200031FEF0C30196875090402DD46EB42EBC89
:101A3000679CF001FE5F09940000000000000000B8
:101A400031FEE0C30196865090401DD46EB42EBC8A
:101A5000679CF001FE5F0994000000000000000098
:101A600031FED0C30196855090400DD46EB42EBC8B
:101A7000679CF001FE5F0994000000000000000078
:101A800031FEC0C3019684509040FDD36EB42EBC8D
:101A9000679CF001FE5F0994000000000000000058
:101AA00031FEB0C3019683509040EDD36EB42EBC8E
:101AB000679CF001FE5F0994000000000000000038
:101AC00031FEA0C3019682509040DDD36EB42EBC8F
:101AD000679CF001FE5F0994000000000000000018
:101AE00031FE90C3019681509040CDD36EB42EBC90
:101AF000679CF001FE5F09940000000000000000F8
:101B000031FE80C301968F5F9F4FBDD36EB42EBC54
:101B1000679CF001FE5F09940000000000000000D7
:101B200031FE70C301968E5F9F4FADD36EB42EBC55
:101B3000679CF001FE5F09940000000000000000B7
:101B400031FE60C301968D5F9F4F9DD36EB42EBC56
:101B5000679CF001FE5F0994000000000000000097
:101B600031FE50C301968C5F9F4F8DD36EB42EBC57
:101B7000679CF001FE5F0994000000000000000077
:101B800031FE40C301968B5F9F4F7DD36EB42EBC58
:101B9000679CF001FE5F0994000000000000000057
:101BA00031FE30C301968A5F9F4F6DD36EB42EBC59
:101BB000679CF001FE5F0994000000000000000037
:101BC00031FE20C30196895F9F4F5DD36EB42EBC5A
:101BD000679CF001FE5F0994000000000000000017
:101BE00031FE10C30196885F9F4F4DD36EB42EBC5B
:101BF000679CF001FE5F09940000000000000000F7
:101C000031FC00C30196885090403DD36EB42EBC89
:101C1000679CF001FE5F09940000000000000000D6
:101C200031FCF0C20196875090402DD36EB42EBC8B
:101C3000679CF001FE5F09940000000000000000B6
:101C400031FCE0C20196865090401DD36EB42EBC8C
:101C5000679CF001FE5F0994000000000000000096
:101C600031FCD0C20196855090400DD36EB42EBC8D
:101C7000679CF001FE5F0994000000000000000076
:101C800031FCC0C2019684509040FDD26EB42EBC8F
:101C9000679CF001FE5F0994000000000000000056
:101CA00031FCB0C2019683509040EDD26EB42EBC90
:101CB000679CF001FE5F0994000000000000000036
:101CC00031FCA0C2019682509040DDD26EB42EBC91
:101CD000679CF001FE5F0994000000000000000016
:101CE00031FC90C2019681509040CDD26EB42EBC92
:101CF000679CF001FE5F09940000000000000000F6
:101D000031FC80C201968F5F9F4FBDD26EB42EBC56
:101D1000679CF001FE5F09940000000000000000D5
:101D200031FC70C201968E5F9F4FADD26EB42EBC57
:101D3000679CF001FE5F09940000000000000000B5
:101D400031FC60C201968D5F9F4F9DD26EB42EBC58
:101D5000679CF001FE5F0994000000000000000095
:101D600031FC50C201968C5F9F4F8DD26EB42EBC59
:101D7000679CF001FE5F0994000000000000000075
:101D800031FC40C201968B5F9F4F7DD26EB42EBC5A
:101D9000679CF001FE5F0994000000000000000055
:101DA00031FC30C201968A5F9F4F6DD26EB42EBC5B
:101DB000679CF001FE5F0994000000000000000035
:101DC00031FC20C20196895F9F4F5DD26EB42EBC5C
:101DD000679CF001FE5F0994000000000000000015
:101DE00031FC10C20196885F9F4F4DD26EB42EBC5D
:101DF000679CF001FE5F09940000000000000000F5
:101E000030FAA1E08A0E921C3FB630F835C20000CD
:101E100000000000000000000000000000000000C2
:101E200030FAA1E0AA0EB21C3FB630F825C200007D
:101E300000000000000000000000000000000000A2
:101E400030FAA1E0CA0ED21C3FB630F815C200002D
:101E50000000000000000000000000000000000082
:101E600030FAA1E0EA0EF21C3FB630F805C20000DD
:101E70000000000000000000000000000000000062
:101E800030FAA1E00A0F121D3FB630F8F5C100008C
:101E90000000000000000000000000000000000042
:101EA00030FAA1E02A0F321D3FB630F8E5C100003C
:101EB0000000000000000000000000000000000022
:101EC00030FAA1E04A0F521D3FB630F8D5C10000EC
:101ED0000000000000000000000000000000000002
:101EE00030FAA1E06A0F721D3FB630F8C5C100009C
:101EF00000000000000000000000000000000000E2
:101F000030FAAFEF8A0E921C3FB630F8B5C1000030
:101F100000000000000000000000000000000000C1
:101F200030FAAFEFAA0EB21C3FB630F8A5C10000E0
:101F300000000000000000000000000000000000A1
:101F400030FAAFEFCA0ED21C3FB630F895C1000090
:101F50000000000000000000000000000000000081
:101F600030FAAFEFEA0EF21C3FB630F885C1000040
:101F70000000000000000000000000000000000061
:101F800030FAAFEF0A0F121D3FB630F875C10000EE
:101F90000000000000000000000000000000000041
:101FA00030FAAFEF2A0F321D3FB630F865C100009E
:101FB0000000000000000000000000000000000021
:101FC00030FAAFEF4A0F521D3FB630F855C100004E
:101FD0000000000000000000000000000000000001
:101FE00030FAAFEF6A0F721D3FB630F845C10000FE
:101FF00000000000000000000000000000000000E1
:1020000000C000C0C895F8942EBC0EB57894019617
:102010001127F6C0000000000000000000000000D2
:1020200000C000C0C895F8942EBC2EB578940196D7
:102030003327E6C0000000000000000000000000A0
:1020400000C000C0C895F8942EBC4EB57894019697
:102050005527D6C00000000000000000000000006E
:1020600000C000C0C895F8942EBC6EB57894019657
:102070007727C6C00000000000000000000000003C
:102080000196C895C9C000000000000000000000D3
:102090000000000000000000000000000000000040
:1020A000019600C000C00000F8942EBC6EB4789475
:1020B00031FED3C0D4C000000000000000000000CA
:1020C000019600C000C00000F8942EBC6EB4789455
:1020D00031FCC3C0C4C000000000000000000000CC
:1020E000019600C000C00000F8942EBC6EB4789435
:1020F00030FEB3C0B4C000000000000000000000CB
:10210000019600C000C00000F8942EBC6EB4789414
:1021100030FCA3C0A4C000000000000000000000CC
:10212000019600C000C00000F8942EBC6EB47894F4
:1021300034FE93C094C000000000000000000000C6
:10214000019600C000C00000F8942EBC6EB47894D4
:1021500034FC83C084C000000000000000000000C8
:10216000019600C000C00000F8942EBC6EB47894B4
:10217000A32DA37009F471C072C00000000000001C
:10218000019600C000C00000F8942EBC6EB4789494
:10219000A32DA37009F061C062C000000000000020
:1021A000000000000000000000000000000000002F
:1021B000000000000000000000000000000000001F
:1021C000000000000000000000000000000000000F
:1021D00000000000000000000000000000000000FF
:1021E00000000000000000000000000000000000EF
:1021F00000000000000000000000000000000000DF
:1022000000C000C000C00196F8942EBC6EB4789453
:10221000679CF001FE5F0994F8942EBC6EB478942C
:10222000A62DAC3B09F027C0019600C000C000C03D
:1022300000C0F8942EBC6EB47894A62DA370AA0F9B
:10224000A05FBB27659465944D905C90062C000CB4
:102250000008461450043FB60FC02DD0D4CF0196CD
:10226000860D921D67FC9A950ED06EB42EBC679CAD
:10227000F001FE5F0994FFCF6EB42EBC0196679CFF
:10228000F001FE5F09945A9AE3E05A98EEBDA091DE
:10229000000AA90FB091010AEAB5BE1F0BD0BEBD5E
:1022A00008D0AEBD06D08EBD04D02EBC00C002D07A
:0822B000089501D0C8950895BE
:00000001FF
